:020000040000fa
:080000000002040000000000f2
:020000040000fa
:100400000f6421000e7f22000e0188000000000012
:100410000c00070020302c00010020001100070014
:10042000000020000000e000020032000000020096
:1004300000000000ce040200000000000040da00ce
:100440000000fe004440a90080b622000000e00049
:100450000300320000002000a00188004440a800f2
:100460000000060091018800800078000000eb0089
:1004700015003700e280400032a0b4009101ba00bc
:10048000e280400032a0b4009102ba00e280400055
:1004900032a0b4000002eb00472bde00f507b200eb
:1004a000602ce10004003a000059eb008301e900f0
:1004b000fdff3e00040037006128e100010032002a
:1004c0000082eb00040007001101ba000200e00006
:1004d000e8ff3a00000006003159ba008301e90044
:1004e0000c0032002159ba008301e90008003200f3
:1004f0000400e00003003a00e280400032a0b400b3
:10050000f5ff370011d9ba008301e900faff3a007c
:100510008100e800e180400032a0b4000000060045
:100520003600f800809fbe00829fbe00849fbe0000
:10053000869fbe003400f80000002000a001880063
:10054000607b2b00f0df02000000000000000000d4
:100550000000000000000000fcff37003600f8003b
:10056000809fbe00829fbe00849fbe00869fbe000b
:100570003400f80000002000a0018800a07d2b00be
:10058000f0df02000000000000000000000000009a
:1005900000000000fcff37003600f800809fbe001e
:1005a000829fbe00849fbe00869fbe003400f8007c
:1005b00000002000a001880060802b00f0df020016
:1005c000000000000000000000000000000000002b
:1005d000fcff37003600f800809fbe00829fbe00ff
:1005e000849fbe00869fbe003400f80000002000fb
:1005f000a001880000832b00f0df02000000000053
:10060000000000000000000000000000fcff3700b8
:100610003600f800809fbe00829fbe00849fbe000f
:10062000869fbe003400f80000002000a001880072
:1006300080852b00f0df02000000000000000000b9
:100640000000000000000000fcff370060d6200022
:10065000a2c00200000000000040eb008ab40200cb
:100660000000000072d120001241780071cf2000fc
:1006700066cdbf006ac1020000000000c1d52000a5
:100680009140780066cdbf00e0c10200000000008c
:100690005ccdbf00e24f500004003a008040eb0008
:1006a00066cdbf00e6c202000000000018cdbf000a
:1006b0000080fb0001002000e80f5000e08f580090
:1006c00029003e0000600100080037000c003700e0
:1006d00013003700240037002300370022003700c2
:1006e000210037001b003700120037000042eb00ea
:1006f0008001eb000341780083407800040037005c
:1007000054c0b30093d120000041eb0011c0b300ee
:1007100066cdbf0024c202000000000015003700b3
:10072000d4c0b30093d120000041eb0021c0b3003e
:10073000f7ff370090d12000b00b0200000000004e
:100740000042780093d120000041eb0081c0b3004b
:10075000efff370004c2b30093d120000041eb004b
:1007600071c0b300eaff3700f0872b00f0df020012
:100770000000000010c0b3009cad020000000000ab
:100780008040eb000f007800f6ae02000000000091
:1007900030c0b30094ae020000000000f0c1b3000e
:1007a000b0ae020000000000c2de02000000000047
:1007b00080c2b300c6af02000000000040cc2000a1
:1007c00028aa02000000000066cdbf002add02005a
:1007d0000000000000000600ea874700889fbe0076
:1007e0008a9fbe008c1f78008e1f78007487570088
:1007f00000afbe004ac0b30008c1b3008044eb00a4
:10080000ecc2b3000980fb000000470010407800f4
:100810000080fb00f48057005aa602000000000090
:1008200074805700f0df0200000000008045eb00fc
:10083000070037000880fb00e2052100f481570023
:10084000e3c07800017178000844e8008b45e800b7
:1008500074805700b00b0200000000008b80fb008a
:10086000808f5000f3ff3900e3cf540010003200b6
:100870000880fb00e10521008c7078000844e80046
:1008800054e002000000000080457800e0cf5500f1
:10089000fbff3a00e0022000a2e00200000000009e
:1008a0008944e8000a45e9008b4f5500d5ff3a001e
:1008b000ff4f540004003e000884fb000040eb00a2
:1008c000e105210080707c000cda020000000000cd
:1008d0004f0778004f0678004f05be004f04be005a
:1008e000af00b100000006000600fa00889fbe00bd
:1008f00000047800406b8000c0bf9f00a109200069
:10090000080078006ca7020000000000d0bf9f0024
:10091000a9092000b9bf9f006000b800dccb02002d
:1009200000000000610020006a8057002ecd020008
:10093000000000000800be002ecd020000000000f4
:100940004f04be000080fa0000000600708a2b00f1
:10095000f0df0200000000006000b800dccb020005
:100960000000000000c0eb000ecd020000000000ff
:1009700000c0eb000ecd02000000000006cd02001a
:1009800000000000c462ef00a01680000004b20066
:10099000fdff32000000fe00000006007600fa00b5
:1009a000889fbe008a9fbe008c9fbe00c002a90027
:1009b000c022a900c042a900c062a900c082a9004b
:1009c000c0a2a900c0c2a900c4e2a900c462ef008d
:1009d000f08f2f004427b6002823ef002c83a900b6
:1009e0002ca3a900404e2800001988004040200098
:1009f0001019880030002100201988000002200012
:100a000080198800dea2a900de82a800000028006c
:100a100080118800004020009011880030032000e1
:100a2000c0118800d782a800d382a900ca42a800ba
:100a3000c642a900e6ca02000000000090d90200e8
:100a400000000000400620000ae50200000000004f
:100a5000618d2b00e0052100a40b020000000000c6
:100a60000cda02000000000060df0200000000005d
:100a7000c6890200000000000044eb0001003700be
:100a800018c0b300a20920008000eb0040cc200079
:100a90005e0b020000000000f0cca800f0eca80003
:100aa00010cf2000c1962b000500090031587800b6
:100ab00090ea2f0020668800101020003066880021
:100ac00091ea2f00c166880011102000d1668800cd
:100ad000c8acef00ca2cef00dcacef00de2cef005e
:100ae00090ea2f0060668800101020007066880071
:100af00091ea2f008166880011102000916688001d
:100b000000ce2000718f2b000f00090031587800b3
:100b100000ce2000c6a702000000000070cf200019
:100b200011902b000a00090031587800a0c0b300d2
:100b300017edb700186def0020c0b3005cedb700f3
:100b40005b6def00a109200040cc20006ca70200e3
:100b500000000000406b8800e04f540002003200ab
:100b600040cc200060ff07006300200002f82f0047
:100b70000f0141006000b80008cb02000000000037
:100b8000a309200042cc20006000200001002000ca
:100b900008cb0200000000008f809700a009200011
:100ba000808f50000a003a001f819700406b800040
:100bb000800f510006003a002f85970040cc20009e
:100bc0006ca7020000000000800f550003003200f7
:100bd000e04f5400aaff3200ffff37005bcdbf009b
:100be0000200320010c0b30077edb7005d6def007a
:100bf000aa1680000c0022000c05650035003a00a2
:100c00007adf0200000000000004be000005fd00c5
:100c1000c4e2b7000005fd000a092d003b002000da
:100c2000270037007adf02000000000008015000b2
:100c3000898158008a0f51008b8f5900200036009f
:100c40006000b800dccb02000000000000c0eb0038
:100c50000ecd02000000000000c0eb000ecd02002f
:100c60000000000006cd020000000000c0902b0034
:100c7000f0df020000000000f0c0b300c4e2b700e3
:100c80002aaa24004b0020007adf020000000000a6
:100c900008015000898158008a0f51008b8f59003c
:100ca000f9ff3400c462ef0000002200a1168000aa
:100cb00080806000fdff32000000fe00030037006e
:100cc000a01680000c006000d6ff320020bd02009c
:100cd0000000000052cf0200000000007ece0200a3
:100ce0000000000059fe0700067e02000000000020
:100cf00008092d0039002000edfa2f008f864600ec
:100d00000cc2b300a01680000004b20015003a0027
:100d1000506b8000616b8000e00f5000e08f580046
:100d200005003a007adf020000000000506b8800e6
:100d3000616b88000d0037007adf020000000000c0
:100d4000526b8000636b800002005000838058006b
:100d5000880f5000898f580004003600fbfe070002
:100d6000020037006a2def006c2def005dcdbf0053
:100d70001c00320018cdbf00e44f500004003200c8
:100d8000e64f500002003200e84f500014003a00d5
:100d9000f1f72f008f804000e0f72f000f00400098
:100da00054dd02000000000061f82f008f80400039
:100db0007ff8960042c102000000000090d12000a0
:100dc0001f0009003d5878000d02b100186ded00bc
:100dd0000c00780059edb70040cc2000c2fe07009f
:100de0005d6def007adf0200000000009a6b80006a
:100df000ab6b80000a0550008b85580077cdbf0093
:100e00000080fb0001002000e2ff2f00f3ff2f0015
:100e1000040802000000000064014000e081480076
:100e200040422f0001002000e40702000000000003
:100e3000800f5500818f5d000b0039007adf0200c2
:100e400000000000906b8800a16b880021168000d4
:100e50008180ea00e1806000201680000000a1008f
:100e6000010070002016880098cf020000000000ea
:100e700036d1020000000000627e02000000000087
:100e8000f48002000000000068e1020000000000a1
:100e90002066800031668000726b8000836b80006a
:100ea000800f5100818f590096ff3200706b8800cf
:100eb000816b880060952b00f0df020000000000cd
:100ec000206680003166800043fe070090962b006c
:100ed000f0df020000000000b4da020000000000b1
:100ee00088ff37001004b100070035009001b10001
:100ef000040034007000b100030035009001b1001f
:100f000001003c0010000500000005001002b100c7
:100f10000f003500e000b1000c003400b000b1005b
:100f20000b0035006000b10008003400b001b100d2
:100f3000070035005000b10004003400b001b100da
:100f4000030035003000b10001003c001000050036
:100f5000000005006900e100040035006d00e100bb
:100f6000030034000002b10001003200000005005f
:100f7000100005000003b1000b0035009000b10027
:100f8000080034008000b100070035005000b100b7
:100f900004003400b001b100030035005000b1007e
:100fa00001003c00100005000000050080007800f2
:100fb0001104b100030035009101b10001003c00b3
:100fc0000050a000000006006022b80006022000c9
:100fd0000000d0008180d2000482d2008582d2003d
:100fe0000000a0000202520083825a000300310078
:100ff0000202420083824a000000a1000603e900c9
:10100000f3ff3a0000000600020ab900001bb90015
:101010000200b80081004200810043000000060089
:101020000800fa00889fbe008a9fbe0084bf9f0010
:1010300095bf9f00a6bf9f00b7bf9f003004be00b2
:101040002005be000fba97009fba97002fbb9700ec
:10105000bfbb97000404440085844c0006054d0086
:1010600087854d000898be000a90be000440e1004c
:1010700005c8e10006d0e10007d8e1000200310018
:10108000680040001008e8004f05be004f04be0095
:101090000080fa0000000600fe874700889fbe001f
:1010a0008a9fbe008c9fbe008e1f7800d0b79f0025
:1010b000e1b79f00f2b79f0083bf9f0084b79f00f6
:1010c00095b79f00a6b79f00b7b79f008000eb00c1
:1010d000f1af9f00e1af9f00d1af9f00c1af9f0074
:1010e000b1af9f00010678000d042000ccb79f002f
:1010f0000605be000404be007fae97006faf9700e8
:101100005fa89700e00f56000f003d00cf71de0092
:101110000c01460002817100f2af9f005d000700e4
:101120004f20de00818040008100700064000700d5
:101130000802be000a03be0060fd2f000f00400041
:10114000b7ff07001d003700520007004f21de00e7
:101150008180400081007100590007003faa97007c
:10116000cfaa97005fab9700efab97000800520043
:1011700089805a000a015b008b815b00b0af9f0041
:10118000c1af9f00d2af9f00e3af9f004f70de0062
:101190000c01460002007000130020000820e1004e
:1011a00009a8e1000ab0e1000bb8e1000100390034
:1011b0008001eb0003005000f0af9f007fae97006e
:1011c000e00f56000f003500100020000100200045
:1011d0006011b8005fb29700efb297007fb397003d
:1011e0008fbb9700040270008582700006037100b7
:1011f00087837100d4b79f00e5b79f00f6b79f00c3
:1012000087bf9f00cfb297008502e800c5b79f0057
:101210008d8f5200b8ff3a000c017800e00f5100aa
:1012200007003d000fb297009fb297002fb39700c1
:10123000bfb3970060fd2f000f00400078ff07004c
:10124000ffa09700e08f500008003a003fac9700e5
:10125000cfac97005fad9700efad9700d8b79f0078
:10126000e9b79f00fab79f008bbf9f005fb0970060
:10127000efb097007fb197008fb997004f077800c4
:101280004f06be004f05be004f04be00ef01b10087
:10129000000006004f01de008e0047008100710053
:1012a000c1af9f00afa897004f09de0000004000cb
:1012b00000007100b0af9f001faa97000000060059
:1012c000a1af9f000e0007004f18de00040242008d
:1012d0000002720094af9f00090007000000400068
:1012e000818048000201490083814900b0b79f0016
:1012f000c1b79f00d2b79f00e3b79f000000060070
:101300001fb09700afb097003fb19700cfb19700e3
:1013100000000600881f780018002000881f780051
:101320005dff07008f87e9004f047800000006008a
:10133000801feb0058ff07008f87e90000000600c0
:10134000889fbe008a9fbe008c1f78006044b80052
:101350006055b8000800e1000988e1000a90e1004a
:101360000b98e1000d003d000000540081805c00fe
:1013700002015d0083815d001c0020000820e10067
:1013800009a8e1000ab0e1000bb8e1000b003d0044
:10139000210007000006eb00080037000006eb0004
:1013a000e00f5200e08f5a00e00f5b00e08f5b001f
:1013b00002003d00180007001c002000d5ff0700b8
:1013c0008005780001057800820478000304780025
:1013d0000b0278008a0278000903780088037800fd
:1013e000e00f5600060032006000b8006011b8003f
:1013f0000402500085825800060359008783590073
:101400000400be000601be004f0678004f05be0076
:101410004f04be00000006000402540085825c00f8
:1014200006035d0087835d0000000600889fbe0004
:101430008a9fbe008c1f78006044b8006055b800d9
:101440000800e1000988e1000a90e1000b98e10042
:101450000b003d000000540081805c0002015d0033
:1014600083815d001c0020000820e10009a8e10044
:101470000ab0e1000bb8e1000b003d0006003700a8
:101480000006eb00e00f5200e08f5a00e00f5b0017
:10149000e08f5b0004003d000402540085825c0084
:1014a00006035d0087835d00a1ff070080057800cb
:1014b0000105780082047800030478000b027800ac
:1014c0008a0278000903780088037800e00f56004c
:1014d000060032006000b8006011b800040250003d
:1014e0008582580006035900878359000400be0016
:1014f0000601be004f0678004f05be004f04be0037
:101500000000060003c2b30000017800020078006a
:10151000b040780083cf5000fbff3200e9cf50008d
:10152000f9ff3200d3c2b30083cf500003003a006a
:101530000001780013c0b300050037008041eb00c4
:10154000b4c2b30084cf500001003a00000178001b
:101550000000eb00020037006a00b9000000420002
:101560003202fb000403b100e90f5200faff36001b
:10157000e0cf5100010032000000ea000000060048
:10158000889fbe008a9fbe0001c2b300304478002d
:1015900080047800814f5400fcff3200e94f540072
:1015a000faff3200d0c2b300804f540003003a006b
:1015b000394478001ac0b300050037000045eb003d
:1015c000b0c2b300804f540001003a0039447800a3
:1015d0006022b8000bcdb3000b003700a200200042
:1015e000030020000400be0087fe07000001be00cb
:1015f0000b4244000482fb0005002000040241006d
:1016000085824900394478000880fb000003b1005e
:10161000e90f5000f1ff3600e04f550002003200a4
:1016200060021200e0821a000400be004f05be00f6
:101630004f04be0000000600e68747008e1f7800ba
:10164000d0bf9f0066875700012f78000e0037003b
:101650005fba970014407800efb997009340780084
:101660000201e900814f5000040032000080fb00bd
:101670008180fb0001005000060037000402e800f2
:10168000d4bf9f00030fe800e00f5100f0ff3a00c5
:10169000020078004f0778006f00b10000000600dc
:1016a0008001780002003700b15978000201e9009a
:1016b000e00f5100fcff3a000000060080017800b6
:1016c00002003700815978000201e900e00f510063
:1016d000fcff3a000000060000017800820178005b
:1016e000030178000042eb00b24f1200fbff3a000a
:1016f0003141780082597800e04f5100fcff3a00f8
:101700000000060000017800020078000001780067
:10171000b241780081cf510003003200e0cf510088
:10172000f9ff3a000000eb0000000600b04178002d
:1017300031c1510002003a0082cf5100fbff3a0054
:101740000200fb00000006008001780031417800b3
:1017500082597800e04f5100fcff3a00000006007b
:10176000800078000041eb00b14f1100fdff3a000e
:101770000080ea0000804000000006008001780040
:10178000060037000201e900b1427800855978006f
:1017900003027800e0cf5200060032000302780016
:1017a000e00f5100f7ff3a0002003700005aeb004b
:1017b0000201e900e00f5100fcff3a0000000600c2
:1017c0000c00fa00889fbe0000047800f0ff27009c
:1017d000d0bf9f008004eb0099bf9f0088bf9f008f
:1017e000a8bf9f00200c2000b0bf9f007881570049
:1017f000cfb0970070805700070007000fb8970020
:10180000094878008fb89700088050004f04be0048
:101810000080fa0000000600ef02b000889fbe00c2
:101820008a9fbe008c9fbe008e1f7800b0b79f00bd
:10183000a1af9f0092b79f000000eb00a0b79f00f0
:101840009d033700afa897008100e800a1af9f007b
:1018500053c2b300834f510005003a000007eb006c
:1018600007c3b30005c2b300b2c2b3001300370010
:101870003fb29700b40190000304b20004003200ac
:101880009401780082497800030ae80007003700d5
:101890000201fb00bfb0970002007800920307002e
:1018a00000017800e10f410083033200afb29700de
:1018b0008502e800a5b79f007f033700810178000b
:1018c00031437800d8c2b300884f5300090032007a
:1018d00005003c00854f530008003200824f530042
:1018e0000c003a0007003700874f530009003a0008
:1018f000060037000e30a000f0ff37000e00a000f9
:10190000eeff37000e10a000ecff37000e20a00005
:10191000eaff370062016700010032000e00a100fb
:1019200068016700010032000e20a1000601fb00e3
:101930000203b100e90f51000c003e0003037800e0
:101940000006eb006a66b9003600fb000003b10038
:101950000c064000860178001600fb000003b10071
:10196000e90f5000f7ff3600080037000006eb00d3
:10197000a5c2b300854f530004003a009fb49700fe
:101980004906780099b79f008301e8000005eb0045
:101990008ab79f00e5c2b30093cf120016003a0049
:1019a0000ee0a000e4c25200d3cf120003003200c8
:1019b000030378000a007800080037009fb59700fd
:1019c0004b0078009bb79f0080b79f008301e80021
:1019d000090037006a00b900000041008601780064
:1019e000b600fb0002fd2f0001014100e90f51008c
:1019f000f8ff360080b79f0033437800a3af9f0005
:101a0000c2c6b300824f5300250032000f003c00d5
:101a100037c6b300874f5300a500320004003c00d6
:101a2000e04f53002903320085c5b3000f00370093
:101a300045c6b300854f530017003200e5c242008f
:101a4000854f5300bd003a001300370037c7b3007d
:101a5000874f53001f00320007003c00f5c6b3005b
:101a6000854f5300140032008542e800854f530033
:101a7000b2003a001300370055c7b300854f53003a
:101a8000b5003200e3c24200854f5300ab003a007c
:101a9000e6c79f000d003700e6c79f00b000370083
:101aa00070006700010120000100320001002800e1
:101ab00001077700d0ff3700e6c79f000e60a00047
:101ac000a7003700e6c79f000e50a0000e70a000d0
:101ad000a3003700e6c79f009fb19700430378003b
:101ae00093b79f00c6b79f00e00f530002003a0073
:101af00045222100c5b79f00cfb397000003eb003c
:101b0000010037000603e80067407b00e04f50000b
:101b1000fcff3a00d6b79f000fb39700e00f5300c9
:101b200005003200dfb39700870f53000200310039
:101b300006047800d8b79f005fb397000004eb005d
:101b4000860f56000100360006045600680767003d
:101b50002e003a0009c2b300afb597003fb5970019
:101b60000e0037003a0090000004b200040032007a
:101b70001a00780009487800000de80005003700d9
:101b80008a00780000022000d7020700e10f400021
:101b9000010032008b05e8000804e900e00f540062
:101ba000f0ff3a00f5ff2f008b0678001900370090
:101bb0003c0090000004b200090032009c01780053
:101bc000080178003240780080497800030ee80070
:101bd00002047800e04f50000a003a00120037007b
:101be000080178003200fb00020478008c007800c5
:101bf00085bf9f00bc0207008fba9700e10f40002d
:101c0000090032008d06e8000700370088027800de
:101c1000afb697004fb49700dfb497006fb5970049
:101c2000ffb597003fb69700090178008204e900ec
:101c3000e00f5100deff3a00adb79f0002027800ce
:101c4000c8b79f00d9b79f00eab79f00fbb79f00b6
:101c500005047800840f57009702320009c2b300d0
:101c60008d0578003fb597000e0037003a009000d0
:101c70000004b200040032001a007800094878001d
:101c8000000de800050037008a00780000022000ff
:101c900095020700e10f4000010032008b05e800cb
:101ca0000804e900e00f5400f0ff3a008102370019
:101cb0009fb097004103780091b79f000604780019
:101cc000cfc4de00090578008a057800c8af9f0000
:101cd000d9af9f00eaaf9f00fbaf9f004844de00f2
:101ce0004848dd0008047000e8c79f0070036700e3
:101cf0000a003200e04f540008003200e14f440077
:101d000006003200f8c79f008fd8970081cf9f0050
:101d100022002000d2b79f00040037008fd997001f
:101d2000f3c79f0014002000d4b79f0075fc2f005c
:101d300085824700c5b79f0077ff3700e6c79f0041
:101d400066fc2f0006834700c6b79f0017002000df
:101d5000d7b79f0070ff3700e6c79f000e0cb30097
:101d60000e007800000cb2003a003a00800f5700d5
:101d700005003d001fb097004005be004004be00b6
:101d800090b79f000e00370070006700110032000e
:101d90001fb197004200be0092b79f001202900050
:101da000cfa1de000004be00830578000802be005b
:101db000030378008b0378000605be000404be0010
:101dc000c8b79f00d9b79f00eab79f00fbb79f0035
:101dd0000b0037009fb497004902780099b79f0025
:101de00004007800cf80de000101780082017800d5
:101df000c0b79f00d1b79f00e2b79f00f3b79f0025
:101e00004fb29700dfb297006fb39700ffb3970010
:101e1000e00f5200e08f5a00e00f5b00e08f5b00a4
:101e200031003d003e00b3006044b8006055b8008a
:101e30000402540085825c0006035d0087835d0018
:101e4000c4b79f00d5b79f00e6b79f00f7b79f00c4
:101e500025003700e00f570005003d001fb0970038
:101e60004005be004004be0090b79f000e00370042
:101e700070006700110032001fb197004200be00e1
:101e800092b79f0000047800010578008004eb0001
:101e9000080278008a027800090378008903780034
:101ea0000605be000404be00c8b79f00d9b79f0056
:101eb000eab79f00fbb79f000b0037009fb4970065
:101ec0004902780099b79f000400780001002000c3
:101ed0000200200003002000c0b79f00d1b79f0080
:101ee000e2b79f00f3b79f008fb09700e08f5000dc
:101ef0000d003a001200200082b79f004fb29700f9
:101f0000dfb297006fb39700ffb39700e00f520066
:101f1000e08f5a00e00f5b00e08f5b0002003200b0
:101f20008002eb0085b79f000e037800060cb2001c
:101f3000c6af9f0006042000cfab9700868f5300ea
:101f40003500320003003c00e08f53004a003a00a5
:101f500007003700060820004fac9700860f54009a
:101f600015003200060c2000860f540042003a0093
:101f7000a316210016c0b300030278003400be008f
:101f80003401be004fb49700dfb497006fb59700df
:101f9000ffb597000040e10001c8e10002d0e10078
:101fa00003d8e100330039000643e800f44f530042
:101fb000f2ff3a002f00370016c0b30008012000de
:101fc000090020006055b8004fb09700dfb09700bf
:101fd0006fb19700ffb197000800e1000988e100a8
:101fe0000a90e1000b98e100220039004100200036
:101ff0000804d0008984d2000a85d2008b85d200e3
:102000008100e900faff3a000643e800f04f530070
:10201000edff3a001700370016c0b300880020001b
:10202000090020006055b8004fb09700dfb097005e
:102030006fb19700ffb197000800e1000988e10047
:102040000a90e1000b98e1000a00390031002000fd
:102050000804d0008984d2000a85d2008b85d20082
:102060008100e900faff3a000643e800f54f53000b
:10207000edff3a00e6c79f006fc197000203fb0027
:102080008fb19700830f530002003d00e3c79f000c
:10209000040037000fb29700860f520001003d0088
:1020a00086b79f00e00f560003003200630367000d
:1020b000010032000c06e900060024000603670058
:1020c000060032008fb29700850f560002003400e0
:1020d00005065600010037000006eb00efc397002d
:1020e0000703fb000004eb00b8af9f00860f56000b
:1020f0000200340006035600b6af9f00e4026700fa
:102100004c003200e2026700e1036700e08f5200fa
:102110001b003200bfb49700b90290000504b20062
:102120000900320019037800b5c2b300e08f5300f4
:102130000100320085c2e800054b78003fb59700ea
:10214000060de8000a003700b6022000858f530014
:10215000010032000683e800bfb097000600780057
:102160006101070080027800e18f42001800320010
:10217000afb597008b05e800abb79f0014003700a0
:10218000858f5300120032003fb09700b0029000dc
:102190000504b200050032001003780005c2b30048
:1021a000054b78000608e80006003700bfb097002e
:1021b000000220004c01070080027800e18f4200fd
:1021c00003003200afb097008100e800a1b79f0084
:1021d0003fa99700e00f51006300320008c3b3002d
:1021e00002057800afb59700bfb4970039009000a2
:1021f0000004b2000400320019007800084878009a
:10220000800ce800050037008900780000032000fa
:1022100035010700e10f4000010032008b05e800a6
:102220000a05e900f1ff3a00baaf9f00abb79f0083
:102230004d003700bfa99700858f5100170032006d
:10224000e802670015003a0008c2b30003057800f1
:10225000afb59700bfb49700390090000004b200fa
:10226000040032001900780008487800800ce8006b
:102270000500370089007800000220001a010700dd
:10228000e10f4000010032008b05e8000a05e9007b
:10229000f1ff3a00baaf9f00abb79f00e2026700c0
:1022a000e1036700e08f52001b0032003fb297004d
:1022b000b40290000504b200090032001403780053
:1022c000b5c2b300e08f53000100320085c2e800c0
:1022d000054b7800bfb29700860ae8000a00370075
:1022e000b6022000858f5300010032000683e8000b
:1022f000bfb0970006007800fb000700800278005e
:10230000e18f4200180032002fb397000603e80067
:10231000a6b79f0014003700858f530012003200cb
:10232000bfb39700b70290000504b2000500320069
:102330001703780005c2b300054b7800860be80050
:1023400006003700bfb0970000022000e60007003b
:1023500080027800e18f4200030032002fb4970022
:102360000804e800a8b79f008fb497008902e9002d
:10237000422ddd009aaf9f00632bb90086057800df
:102380008baf9f00c32bdd00251621008582430003
:1023900070006700e0a79f008e0078000102b20085
:1023a000d1a79f000e017800f2a79f0005077800d3
:1023b000a20037008fb197008301e90083b79f0027
:1023c0004faa970005042000850f520071003200cb
:1023d00003003c00e00f52007d003a000700370088
:1023e000000820004fab9700800f530055003200cb
:1023f000000c2000800f530075003a00ffa39700e7
:10240000e08f53001f003d003e02be002e03be00c1
:102410004fb09700dfb097006fb19700ffb1970002
:10242000bcfb070000047800e8c79f000804fb001d
:10243000cfc4de00090578008a0578003e02be00a0
:102440002e03be000800be000a01be005b010700ab
:102450004fb49700dfb497006fb59700ffb59700b2
:102460000004540081845c0002055d0083855d00ea
:10247000c8b79f00d9b79f00eab79f00fbb79f007e
:102480002c003700efa49700e08f54001c003200ae
:102490004fb69700dfb697003e04be002e05be0083
:1024a0000801be000c00be00c7fa0700e0c79f008d
:1024b0000000fb00cf80de000801be00d2fa07005a
:1024c0000000560081805e008003780001037800e0
:1024d0000002eb0007007800860078000401780015
:1024e000840178000203be000002be00c4b79f0052
:1024f000d5b79f00e6b79f00f7b79f000d003700e4
:102500009e017800cfb29700811f7800110009006a
:102510008382d800cf007800a2002000811f7800bd
:10252000110009000280d80001007800cf00780077
:10253000e0c79f006fc397000643b000e6c79f0047
:102540002300370034212100dfa39700e08f5300e0
:1025500001003200242021004fb09700dfb0970027
:102560006fb19700ffb197001fac97000804e90016
:10257000050033008301d1000281d3008180d300a4
:102580000080d300f9ff37006f00600064407800de
:102590000e0037004fb09700dfb097006fb1970083
:1025a000ffb197008fac97008904e9000500330064
:1025b0008301d1000281d3008180d3000080d30049
:1025c000f9ff3700674060000043b000e0c79f009c
:1025d0003fb597003a0090000004b20007003200b7
:1025e0001a0178006fc0970000497800020de800da
:1025f000e04f500007003a0009003700efc5970090
:102600000b00fb00bfb0970037000700e10f400050
:10261000030032002fb097000000e800a0b79f0031
:102620009fa89700e480500091af9f000fa99700ea
:102630006301510082af9f00680757008fb1970078
:10264000e08f51005bff3a007fa79700e801670029
:102650000fb29700848f510017003200bfaa970075
:10266000e08f52001400340008c2b3000505780062
:10267000afb59700bfb49700390090000004b200d6
:10268000040032001900780008487800800ce80047
:1026900005003700890078000002200012000700c2
:1026a000e10f4000010032008b05e8000a05e90057
:1026b000f1ff3a00abb79f002fab970016417800af
:1026c000e2c79f00e04f51005efc3a002fb0970038
:1026d0004f0778004f06be004f05be004f04be00f6
:1026e000ef02b10000000600889fbe0001047800e0
:1026f000b8009000628160008084eb003c003200f2
:10270000810178000320b2001801900002003a0015
:10271000830f510036003a000190a0003104980068
:1027200080047800f90fb200e00f510002003a0077
:1027300028009000000c7800ea8f540006003a0050
:10274000010078000008b20003003a008800780019
:10275000d0002000e4ff070018009000d80090008f
:10276000810f50000b0032000000e80010049800b8
:102770001800780009487800000ce80010c0b30089
:102780002125210080487800ea8f540018003a0083
:10279000050037008800780009407800170007001e
:1027a0008004780012003700380090000010b2005a
:1027b0000f00320018019000a8009000480090001f
:1027c0004f00070098009000810f50000400320075
:1027d000380090000003b300300498008084eb00c0
:1027e0000000eb001004980028009000000c780016
:1027f000090078004f04be00000006000200fa0045
:10280000889fbe00a0ff9f00010478003800900060
:10281000000178000204b20034003a00e2006000d7
:10282000828f500005003a000003b3003004980086
:10283000110498000080eb002e003700d8049000af
:10284000e08f540006003a0012002000e680570096
:10285000480090002a000700190498002300370060
:10286000a8009000e08f500008003a005125210098
:1028700021049800010c78002100200051049800e8
:10288000110498000030a000300498001801900056
:10289000a800900048009000190007002800900050
:1028a0008080eb0011049800aff897000148780091
:1028b000000ce8002ff89700ea4f50000b003a0098
:1028c000380090000010b20008003200180190009b
:1028d000a800900048009000090007000000eb00ed
:1028e00010049800a8009000010c7800aff8970041
:1028f0000100fb004f04be000080fa00000006004b
:102900000a00fa00e20f500021003e00508a8000c9
:10291000e10f5000060032008523200044232000f0
:102920002323200000232000e08f520004003a00ff
:1029300085222000442220002322200000222000a3
:10294000060028009003630002003a00870a78001e
:1029500010087300004020001300600001003a00de
:1029600013a0a00002007800060037009302780050
:102970000510b200fdff3200b102fb00050a78002d
:102980000000e900e00f5000f8ff3a0008003700af
:1029900033002000b3bf9f00c0bf9f00d1bf9f0086
:1029a000e2bf9f006a80570000c0da006fb997004d
:1029b000020078000080fa0000000600889fbe0038
:1029c0008a9fbe008c1f78000006eb00e00f5000cd
:1029d000e08f5800e00f5900e08f590007003d00dc
:1029e0006044b8006055b8000000540081805c006d
:1029f00002015d0083815d001c002000e00f520099
:102a0000e08f5a00e00f5b00e08f5b0007003d00a5
:102a10006044b8006055b8000402540085825c0030
:102a200006035d0087835d000c00a2001000070014
:102a30000203be000002be00e00f56000600320096
:102a40006000b8006011b800040250008582580090
:102a500006035900878359000400be000601be002a
:102a60004f0678004f05be004f04be000000060070
:102a7000889fbe008a9fbe008c9fbe000404b800e1
:102a80000506b8008904460060854e000606b800b9
:102a90000a054600e0854e000706b8008b05460093
:102aa000040eb800890446000a854e00e0854d00fa
:102ab000050eb8000a0546008b854e00060eb800cc
:102ac0008b0546000416b8000a0546008b854e00ab
:102ad0000516b8008b054600041eb8008b0546009d
:102ae0000800be000a01be004f06be004f05be0032
:082af0004f04be0000000600c7
:020000040000fa
:020000040002f8
:04aff800fdfb00005d
:020000040000fa
:020000040002f8
:04affc007f3f000093
:020000040000fa
:1000080090020000ae020000cc020000ea020000ec
:100018000803000090020000900200009002000017
:10002800900200009002000090020000d4df00005f
:100038009002000090020000900200009002000070
:100048009002000090020000900200009002000060
:100058009002000090020000900200009002000050
:100068009002000090020000900200009002000040
:10007800d8e3000090020000900200009002000007
:100088009002000090020000900200009002000020
:100098009002000090020000900200009002000010
:1000a8009002000090020000900200009002000000
:1000b80090020000900200009002000090020000f0
:1000c80090020000900200009002000090020000e0
:1000d80090020000900200009002000090020000d0
:1000e80090020000900200009002000090020000c0
:1000f80090020000900200009002000090020000b0
:10010800900200009002000090020000900200009f
:10011800900200009002000090020000900200008f
:10012800900200009002000090020000900200007f
:10013800900200009002000090020000900200006f
:10014800900200009002000090020000900200005f
:10015800900200009002000090020000900200004f
:10016800900200009002000090020000900200003f
:10017800900200009002000090020000900200002f
:10018800900200009002000090020000900200001f
:10019800900200009002000090020000900200000f
:1001a80090020000900200009002000090020000ff
:1001b80090020000900200009002000090020000ef
:1001c80090020000900200009002000090020000df
:1001d80090020000900200009002000090020000cf
:1001e80090020000900200009002000090020000bf
:0801f8009002000090020000db
:020000040000fa
:1002080090020000ae020000cc020000ea020000ea
:100218000803000090020000900200009002000015
:10022800900200009002000090020000d4df00005d
:10023800900200009002000090020000900200006e
:10024800900200009002000090020000900200005e
:10025800900200009002000090020000900200004e
:10026800900200009002000090020000900200003e
:10027800d8e3000090020000900200009002000005
:10028800900200009002000090020000900200001e
:10029800900200009002000090020000900200000e
:1002a80090020000900200009002000090020000fe
:1002b80090020000900200009002000090020000ee
:1002c80090020000900200009002000090020000de
:1002d80090020000900200009002000090020000ce
:1002e80090020000900200009002000090020000be
:1002f80090020000900200009002000090020000ae
:10030800900200009002000090020000900200009d
:10031800900200009002000090020000900200008d
:10032800900200009002000090020000900200007d
:10033800900200009002000090020000900200006d
:10034800900200009002000090020000900200005d
:10035800900200009002000090020000900200004d
:10036800900200009002000090020000900200003d
:10037800900200009002000090020000900200002d
:10038800900200009002000090020000900200001d
:10039800900200009002000090020000900200000d
:1003a80090020000900200009002000090020000fd
:1003b80090020000900200009002000090020000ed
:1003c80090020000900200009002000090020000dd
:1003d80090020000900200009002000090020000cd
:1003e80090020000900200009002000090020000bd
:0803f8009002000090020000d9
:020000040000fa
:102af8000962000073730000696400003a20000056
:102b0800202000002000000025300000325800007e
:102b18003a00000025300000325800000d0a00007d
:102b28000009000063680000616e00006e65000027
:102b38006c3a00002020000000250000640d000011
:102b48000a00000045760000656e0000743a000037
:102b5800204300006f6e00006e6500006374000083
:102b6800696f00006e200000546500006d70000061
:102b78006f72000061720000696c0000792000002b
:102b88004c6f000073740000202000002d2d000001
:102b980020650000766500006e740000496e000034
:102ba800666f0000203d00002052000065630000b1
:102bb8006569000076650000642000006465000017
:102bc8006175000074680000203a000020000000d1
:102bd80045760000656e0000743a0000204300004e
:102be8006f6e00006e65000063740000696f00007e
:102bf8006e200000546500006d7000006f720000c8
:102c080061720000696c0000792000004c6f0000c0
:102c180073740000202000002d2d000020650000a6
:102c2800766500006e740000496e0000666f000053
:102c3800203d000020520000656300006569000027
:102c4800766500006420000064690000736100007c
:102c5800737300006f630000203a0000200000003a
:102c680045760000656e0000743a000020430000bd
:102c78006f6e00006e65000063740000696f0000ed
:102c88006e200000546500006d7000006f72000037
:102c980061720000696c0000792000004c6f000030
:102ca80073740000202000002d2d00002065000016
:102cb800766500006e740000496e0000666f0000c3
:102cc800203d000020000000256400002c200000aa
:102cd800000d00000a00000045760000656e000047
:102ce800743a0000204300006f6e00006e6500001b
:102cf80063740000696f00006e20000046610000e8
:102d0800696c000065640000203a000020000000a3
:102d1800203a00002000000045760000656e0000a3
:102d2800743a0000204300006f6e00006e650000da
:102d380063740000696f00006e2000005065000099
:102d4800726d0000616e0000656e0000746c00001a
:102d5800792000004c6f00007374000020200000f0
:102d68002d2d000020650000766500006e740000bf
:102d7800496e0000666f0000203d000020520000f0
:102d88006563000065690000766500006420000046
:102d9800646500006175000074680000203a000056
:102da8002000000045760000656e0000743a0000bf
:102db800204300006f6e00006e6500006374000021
:102dc800696f00006e20000050650000726d000001
:102dd800616e0000656e0000746c000079200000d0
:102de8004c6f000073740000202000002d2d00009f
:102df80020650000766500006e740000496e0000d2
:102e0800666f0000203d000020520000656300004e
:102e180065690000766500006420000064690000b0
:102e280073610000737300006f630000203a0000b4
:102e38002000000045760000656e0000743a00002e
:102e4800204300006f6e00006e6500006374000090
:102e5800696f00006e20000050650000726d000070
:102e6800616e0000656e0000746c0000792000003f
:102e78004c6f000073740000202000002d2d00000e
:102e880020650000766500006e740000496e000041
:102e9800666f0000203d0000200000002a2a000084
:102ea8002a200000576900004669000020450000fc
:102eb8005a4300006f6e000066690000672000003a
:102ec800446500006d6f0000202a00002a2a0000d7
:102ed8000d0a0000005300007461000072740000c5
:102ee800205700006946000069200000436f000079
:102ef8006e6e000065630000740d00000a0000009b
:102f0800446f00006d610000696e00003a20000007
:102f180020200000202000002020000020200000a9
:102f28002000000046430000430000004d4100001f
:102f3800433a00002020000020200000202000004c
:102f48002020000020200000202000002000000099
:102f580025300000325800002000000053530000c4
:102f6800494400003a2000002020000020200000f2
:102f78002020000020200000202000002000000069
:102f8800286e00006f6e000065290000004e0000ea
:102f980065740000776f0000726b00002054000019
:102fa80079700000653a0000202000002020000011
:102fb80000410000644800006f6300000d0a000033
:102fc80000530000636100006e2000005479000087
:102fd800706500003a20000020200000202000003a
:102fe80020200000004100006374000069760000a2
:102ff8006520000053630000616e00000d0a0000a8
:1030080000430000686100006e6e0000656c0000ff
:10301800204c000069730000743a00002020000072
:1030280020200000004100006c6c000020630000bc
:10303800686100006e6e0000656c0000732000007f
:10304800696e0000206400006f6d00006169000077
:103058006e0d00000a000000526500007472000046
:1030680079200000436f0000756e0000743a00007c
:103078002020000020200000200000004265000001
:10308800616300006f6e000020540000696d00004d
:10309800656f0000757400003a20000020000000f1
:1030a80053650000637500007269000074790000c0
:1030b8003a200000202000002020000020200000ee
:1030c800200000004f700000656e00000d0a00002f
:1030d800005000006f770000657200002053000068
:1030e80061760000653a00002020000020200000e2
:1030f80020200000004400006973000061620000a5
:103108006c650000640d00000a00000057460000ce
:10311800204100005353000045520000544900006c
:103128004f4e0000206100007420000000250000c0
:1031380073200000200000004c6900006e6500004c
:10314800204e0000756d00006265000072200000ce
:103158003d200000002500006400000057690000c1
:10316800466900002041000073730000657200008a
:103178007420000020200000202000004d3a0000ac
:10318800004d000052460000323400004720000085
:103198006d6f0000647500006c6500002041000040
:1031a80053530000455200005445000044200000dd
:1031b8002d2d00002061000073730000657200006f
:1031c800744900006e6600006f2000003d2000007a
:1031d800004d00003a250000642c00002049000042
:1031e8003a250000640000004e5500004c4c0000d9
:1031f80000570000465f00004a4f0000494e00009b
:103208005f460000414900004c550000524500004f
:1032180000570000465f0000415500005448000078
:10322800454e000054490000434100005449000045
:103238004f4e00005f460000414900004c55000019
:103248005245000000570000465f0000415300004f
:10325800534f00004349000041540000494f00000b
:103268004e5f000046410000494c000055520000e6
:1032780045000000574600005f5700004550000019
:103288005f480000414e00004453000048410000e0
:103298004b4500005f460000414900004c550000c6
:1032a8005245000000570000465f000050530000e0
:1032b8004b5f0000434100004c430000554c0000a8
:1032c80041540000494f00004e5f00004641000095
:1032d800494c0000555200004500000057460000c8
:1032e8005f500000534b00005f480000414e000053
:1032f80044530000484100004b4500005f46000071
:10330800414900004c55000052450000005700009c
:10331800465f000041440000484f0000435f000042
:103328004a4f0000494e00005f4600004149000036
:103338004c5500005245000000570000465f000051
:1033480053450000435500005249000054590000fd
:103358005f4d0000495300004d41000054430000f8
:10336800485f000046410000494c000055520000eb
:1033780045000000574600005f4e00004f5f000008
:103388005355000049540000414200004c450000dc
:103398005f410000505f0000464f0000554e00009e
:1033a800445f000046410000494c000055520000af
:1033b80045000000574600005f52000045540000d9
:1033c800525900005f4600004f5200004556000069
:1033d800455200005f4e00004f5400005f5300004c
:1033e80055500000504f0000525400004544000062
:1033f8005f460000414900004c550000524500005e
:1034080000570000465f00004c4900004e4b00008a
:103418005f4c00004f5300005400000000570000ac
:10342800465f0000525300004e5f00004d49000007
:1034380058450000445f00004d4f0000444500001f
:103448005f4e00004f5400005f53000055500000cd
:10345800504f00005254000045440000005700003f
:10346800465f000052450000435600005f440000dc
:103478004541000055540000480000005746000030
:103488005f52000045430000565f000044490000b9
:1034980053410000535300004f4300000057000001
:1034a800465f000057500000535f0000464100008f
:1034b800494c0000555200004500000057460000e6
:1034c8005f500000325000005f4600004149000094
:1034d8004c5500005245000000570000465f0000b0
:1034e8004c4900004e4b00005f4400004f5700005d
:1034f8004e00000041730000736f00006369000014
:1035080061740000696f00006e20000046610000d1
:10351800696c0000757200006500000057460000e5
:103528005f42000045410000434f00004e5f00002d
:10353800544900004d4500004f550000540000005c
:10354800574600005f440000454100005554000004
:10355800485f0000524500004345000049560000fe
:103568004544000000570000465f00004449000041
:1035780053410000535300004f43000049410000ed
:10358800544500005f5200004543000045490000d3
:103598005645000044000000574600005f540000f4
:1035a8004b490000505f00004d490000435f000098
:1035b80046410000494c00005552000045000000fb
:1035c800574600005f5500004e530000504500006c
:1035d80043490000464900004544000000570000e8
:1035e800465f000050520000455600005f41000051
:1035f80055540000485f00004e4f0000545f000023
:10360800564100004c4900004400000057460000a5
:103618005f4400004541000055540000485f000029
:103628004c45000041560000494e0000470000008c
:10363800574600005f440000495300004153000012
:10364800534f0000435f000044550000455f0000f1
:10365800544f00005f4900004e41000043540000f1
:103668004956000049540000590000005746000020
:103678005f4400004953000041530000534f0000cd
:10368800435f0000415000005f42000055530000b6
:1036980059000000574600005f4300004c410000fd
:1036a80053530000325f000046520000414d0000b5
:1036b800455f0000465200004f4d00005f4e00007d
:1036c8004f4e000041550000544800005f53000071
:1036d8005441000000570000465f0000434c0000c2
:1036e80041530000533300005f4600005241000080
:1036f8004d4500005f460000524f00004d5f00003e
:103708004e4f00004e410000535300004f4300004d
:103718005f5300005441000000570000465f00005e
:103728004449000053410000535300004f43000038
:103738005f530000544100005f48000041530000ff
:103748005f4c00004546000054000000574600004a
:103758005f530000544100005f52000045510000d3
:103768005f410000535300004f4300005f570000c3
:1037780049540000484f0000555400005f410000c4
:103788005554000048000000574600005f490000fb
:103798004e560000414c0000494400005f490000bb
:1037a80045000000574600005f4d000049430000f7
:1037b8005f460000414900004c550000524500009a
:1037c80000570000465f00003457000041590000d0
:1037d8005f480000414e000044530000484100008b
:1037e8004b4500005f540000494d0000454f000064
:1037f8005554000000570000465f00004752000083
:103808004f550000505f00004b450000595f000015
:10381800484100004e44000053480000414b00005e
:10382800455f0000544900004d4500004f55000019
:1038380054000000574600005f490000455f000043
:10384800444900004646000045520000454e00002d
:1038580054000000574600005f4900004e56000023
:10386800414c0000494400005f470000524f0000ef
:10387800555000005f4300004950000048450000d3
:1038880052000000574600005f4900004e560000f5
:10389800414c0000494400005f50000041490000cd
:1038a8005257000049530000455f0000434900009b
:1038b800504800004552000000570000465f0000d5
:1038c800494e0000564100004c490000445f00008a
:1038d800414b00004d50000000570000465f0000bb
:1038e800554e000053550000505000005f52000034
:1038f800534e00005f560000455200005349000037
:103908004f4e000000570000465f0000494e00007f
:10391800564100004c490000445f0000525300002b
:103928004e5f0000494500005f4300004150000021
:1039380000570000465f000049450000454500006b
:103948003830000032310000585f00004641000066
:10395800494c00004544000000570000465f000045
:103968004349000050480000455200005f530000e2
:1039780055490000544500005f520000454a0000c8
:10398800454300005445000044000000574600002d
:103998005f5500004e5300005045000043490000a9
:1039a80046490000454400005f46000041490000c8
:1039b8004c5500005245000000570000465f0000cb
:1039c80043410000505300005f5500004e53000073
:1039d80055500000504f000052540000454400006c
:1039e80000570000465f00005245000041530000a8
:1039f800534f0000435f00004e4f00005f4100003e
:103a0800535300004f43000000570000465f00007a
:103a180041530000534f0000435f0000444500003d
:103a28004e490000454400005f5500004e53000019
:103a38005045000043000000574600005f4e00005c
:103a48004f5400005f53000055500000504f0000d5
:103a580052540000454400005f41000055540000e6
:103a6800485f0000414c0000470000005746000036
:103a78005f5500004e4b00004e4f0000574e0000af
:103a88005f41000055540000485f00005452000098
:103a9800414e00005341000043540000494f0000cc
:103aa8004e000000574600005f43000048410000f8
:103ab8004c4c0000454e0000474500005f460000a2
:103ac800414900004c000000574600005f410000db
:103ad80055540000485f0000544900004d4500005f
:103ae8004f55000054000000574600005f41000099
:103af800505f0000554e0000414200004c45000058
:103b08005f5400004f5f0000484100004e44000031
:103b18004c4500005f4e0000455700005f53000011
:103b28005441000000570000465f00004153000068
:103b3800534f0000435f0000444500004e49000019
:103b4800454400005f520000415400004553000006
:103b580000570000465f000041530000534f00002b
:103b6800435f0000444500004e4900004544000002
:103b78005f4e00004f530000484f000052540000b1
:103b880050520000454100004d4200004c450000e5
:103b980000570000465f000041530000534f0000eb
:103ba800435f0000444500004e49000045440000c2
:103bb8005f4e00004f5000004243000043000000e9
:103bc800574600005f410000535300004f43000078
:103bd8005f440000454e000049450000445f000076
:103be8004e4f000041470000494c00004954000076
:103bf80059000000574600005f4100005353000081
:103c08004f4300005f440000454e00004945000056
:103c1800445f00004e4f0000534800004f52000020
:103c280054540000494d000045000000574600006c
:103c38005f410000535300004f4300005f44000001
:103c4800454e000049450000445f00004e4f00000b
:103c580044530000535300004f460000444d0000f9
:103c680000570000465f00004e4f0000545f000000
:103c7800564100004c490000445f000049450000df
:103c880000570000465f00004e4f0000545f0000e0
:103c9800564100004c490000445f000047520000b4
:103ca8004f550000504300004950000048450000af
:103cb80052000000574600005f4e00004f540000bd
:103cc8005f560000414c0000494400005f5000006e
:103cd800414900005257000049530000455f000069
:103ce80043490000504800004552000000570000ba
:103cf800465f00004e4f0000545f00005641000030
:103d08004c490000445f0000414b00004d5000004a
:103d180000570000465f0000554e00005355000054
:103d2800505000004f52000054450000445f00000e
:103d3800525300004e5f00005645000052530000e9
:103d4800494f00004e000000574600005f54000035
:103d5800494d0000454f000055540000004e00003a
:103d68004f4e00004500000045410000504f000044
:103d78004c5f000053540000415200005400000002
:103d880045410000505f000052450000515f0000af
:103d980049440000454e00005449000054590000b1
:103da80000450000415000005f52000053500000e1
:103db8005f490000444500004e540000495400008b
:103dc8005900000045410000505f000057500000b6
:103dd800535f00005354000041520000540000009b
:103de80045410000505f000052530000505f000042
:103df8004d31000000450000415000005f520000b6
:103e0800455100005f4d00003200000045410000b0
:103e1800505f000052530000505f00004d33000017
:103e280000450000415000005f520000455100006d
:103e38005f4d00003400000045410000505f000065
:103e480052530000505f00004d350000004500004f
:103e5800415000005f520000455100005f4d0000d6
:103e68003600000045410000505f0000525300003a
:103e7800505f00004d370000004500004150000031
:103e88005f520000455100005f4d000038000000ff
:103e980045410000505f000052530000505f000091
:103ea800444f00004e45000000450000415000000e
:103eb8005f460000414900004c5500005245000093
:103ec800004e00004f450000525200000053000011
:103ed80045530000534900004f4e00005f4f00005b
:103ee80056450000524c000041500000504500006b
:103ef80044000000444500004352000059500000af
:103f0800545f000043520000435f00004641000038
:103f1800494c0000555200004500000032340000b2
:103f2800475f00004e4f0000545f000053550000eb
:103f3800505000004f52000054450000440000005b
:103f48005245000054520000595f000046410000ed
:103f5800494c00005552000045000000494e000041
:103f6800564100004c490000445f00004d530000da
:103f78004700000041550000544800005f4600001b
:103f8800414900004c550000524500000041000026
:103f9800535300004f4300005f46000041490000b2
:103fa8004c55000052450000004d000053470000ea
:103fb8005f540000494d0000454f00005554000073
:103fc8000053000045530000534900004f4e0000c5
:103fd8005f540000494d0000454f00005554000053
:103fe80000440000455600005041000053530000b3
:103ff800574400005f41000055540000485f00002e
:1040080046410000494c00005552000045000000a0
:104018004e4f00005f4300004f4e00004e5f00000f
:10402800544f000052450000470000004d55000065
:104038004c540000495f000050420000435f0000fc
:104048004445000054450000435400004544000026
:1040580000440000455600005f4200005553000030
:10406800590000005345000054550000505f0000ff
:104078004c4f0000434b000045440000004d000039
:10408800616900006e440000656d00006f2e00003d
:1040980063000000574600005f4300006f6e000099
:1040a80066690000672e00006300000057460000a4
:1040b8005f450000696e0000742e00006300000078
:1040c800574600005f530000706900002e6300002f
:1040d80000570000464d0000616300005f32000099
:1040e800344700002e6300000057000046500000cf
:1040f80061720000616d00004d730000675f000091
:1041080032340000472e00006300000057460000cc
:10411800436f00006e6e0000656300007469000064
:104128006f6e0000507200006f660000696c00003e
:10413800652e00006300000057460000436f000032
:104148006e6e000065630000746900006f6e000009
:10415800416c0000676f000072690000746800001d
:104168006d2e00006300000057460000436f0000fa
:104178006e6e000065630000746900006f6e0000d9
:104188004d6100006e61000067650000722e00003e
:104198006300000057460000447200006976000082
:1041a80065720000436f00006d5f0000323400004c
:1041b800472e00006300000057460000496e0000cb
:1041c800697400002e630000005700004644000098
:1041d8007269000076650000725200006177000085
:1041e8005f320000344700002e63000000570000d3
:1041f800464d0000676d0000744d000073670000b5
:104208005f320000344700002e63000000570000b2
:10421800464d0000676d0000744d00007367000094
:1042280054650000737400002e63000000570000fe
:1042380046540000785000006f7700006572000057
:104248002e63000000570000465000006f77000002
:104258006572000053610000766500002e6300005f
:104268000057000046450000766500006e740000a7
:10427800486100006e6400006c650000722e00004a
:10428800630000005746000053630000616e0000a1
:104298002e630000005700004644000065620000dd
:1042a8007567000053740000726900006e670000b3
:1042b800732e000063000000497000006572000062
:1042c80066410000707000002e6300000057000077
:1042d800464800006f7300007442000072690000d5
:1042e80064670000652e0000630000005746000068
:1042f8005f6900007065000072660000436c000092
:10430800696500006e7400002e630000005700000d
:10431800465f000069700000657200006653000087
:104328006572000076650000722e000063000000d0
:10433800574600005f690000706500007266000063
:10434800436f00006d6d00006f6e00002e6300006b
:10435800005000003250000053540000496400002f
:104368006c650000005000003250000053540000fb
:1043780053630000616e00000050000032500000de
:10438800535400004c69000073740000656e00000f
:1043980000500000325000005354000046690000ed
:1043a8006e640000005000003250000053540000ba
:1043b8005374000061720000744600006f720000c0
:1043c8006d610000746900006f6e0000005000000d
:1043d8003250000053540000474f00004e65000063
:1043e800676f000052650000714400006f6e0000a6
:1043f8006500000050320000505300005447000090
:104408004f57000061690000744e000065670000a6
:104418006f52000065710000446f00006e65000077
:104428000050000032500000535400005761000053
:1044380069740000466f0000726d0000617400002e
:10444800696f00006e4400006f6e00006500000098
:104458005032000050530000544900006e760000ae
:1044680069740000650000005032000050530000dd
:1044780054500000726f00007669000073690000f4
:104488006f6e0000005000003250000053540000ce
:10449800436c0000696500006e74000000000000b5
:1044a800ada10000b7a10000c1a10000cda100008e
:1044b800d7a10000eba10000fea1000015a200009a
:1044c8002ca2000038a2000047a2000057460000b6
:1044d800445f00005355000043430000455300006b
:1044e8005300000057460000445f0000494e00009a
:1044f800464f00005f43000055520000524500003f
:104508004e5400004c5900005f5500004e41000019
:1045180056410000494c0000414200004c45000053
:1045280000570000464400005f4900004e43000069
:104538004f4d00005041000054490000424c00001b
:10454800455f000050410000524100004d530000fb
:1045580000570000464400005f4c0000494d000031
:10456800495400005f5200004541000043480000e4
:104578004544000000570000464400005f49000021
:104588004e560000414c0000494400005f500000b6
:1045980041520000414d0000530000005746000002
:1045a800445f0000554e0000414200004c450000a9
:1045b8005f5400004f5f000041430000434f00007c
:1045c8004d4d00004f4400004154000045000000dc
:1045d80057460000445f0000505200004556000056
:1045e8005f500000524f0000544f0000434f00003e
:1045f8004c5f000045520000524f0000520000007e
:1046080057460000445f00004e4f00005f43000023
:104618004f4d00004d4f00004e5f00004348000022
:10462800414e00004e4500004c530000005700006a
:10463800464400005f5500004e4b00004e4f0000fe
:10464800574e00005f470000524f000055500000d1
:1046580000570000464400005f4900004e43000038
:104668004f4d00005041000054490000424c0000ea
:10467800455f0000505200004f5600005f4d00009b
:1046880045540000484f0000440000005746000011
:10469800445f0000524500004a45000043540000b2
:1046a800454400005f420000595f00005553000078
:1046b8004552000000570000464400005f4e0000cd
:1046c8004f5f00004d4500004d00000057460000b8
:1046d800445f0000494e0000564100004c4900006c
:1046e800445f000041430000544900004f4e000061
:1046f80000570000464400005f540000585f000067
:1047080046410000494c0000555200004500000099
:1047180057460000445f0000544900004d45000022
:104728005f4f000055540000000000006aa200001e
:1047380076a2000095a20000ada20000bfa2000072
:10474800d2a20000eca2000004a300001ba30000fa
:10475800129a00002da300004aa300005fa30000e6
:104768006aa300007da300008ca30000666f000010
:104778006f740000657200002e6900006e6300000f
:10478800006800006561000064650000722e00008a
:10479800696e0000630000002144000045460000e7
:1047a8000047000045540000005000004f5300002f
:1047b800540000006d700000667300007570000002
:1047c8006c6f000061640000006900006e64000006
:1047d800657800002e680000746d0000000d000070
:1047e8000a0d00000a0000000d0a00000d0a000072
:1047f8004d5000004653000002010000000d00006b
:104808000a0d00000a330000303400002052000076
:10481800656400006972000065630000743a000076
:1048280020000000436f00006e740000656e0000f9
:10483800742d000054790000706500003a200000d3
:10484800004300006f6e0000746500006e74000085
:104858002d4500006e6300006f640000696e000063
:10486800673a0000206700007a690000700d0000b8
:104878000a0000004361000063680000652d000025
:10488800436f00006e740000726f00006c3a000005
:10489800200000006e6f00002d63000061630000bf
:1048a80068650000006d0000617800002d6100005f
:1048b800676500003d000000363000003000000051
:1048c8007478000074000000687400006d00000037
:1048d800687400006d6c00000063000067690000e8
:1048e800007800006d6c0000006300007373000026
:1048f8000067000069660000007000006e67000035
:10490800006a000070670000006300006c6100002e
:104918000077000061760000000000000000000041
:104928000000000064a4000068a400006ca400005b
:1049380071a4000075a4000079a400007da4000003
:1049480081a4000085a4000089a400008da40000b3
:1049580091a40000436f00006f6b000069650000c0
:104968003a00000041750000746800006f72000092
:10497800697a000061740000696f00006e3a0000f7
:10498800004300006f6e0000746500006e74000044
:104998002d4c0000656e000067740000683a000046
:1049a80000000000aea40000b6a40000c5a40000ea
:1049b80048540000545000002f3100002e310000f0
:1049c8002032000030300000204f00004b0d000066
:1049d8000a4300006f6e00006e65000063740000fb
:1049e800696f00006e3a0000206300006c6f0000e1
:1049f800736500000d0a00000048000054540000d0
:104a0800502f0000312e000031200000343000000b
:104a18003020000042610000642000005265000060
:104a28007175000065730000740d00000a430000f2
:104a38006f6e00006e65000063740000696f00000f
:104a48006e3a0000206300006c6f00007365000080
:104a58000d0a00000d0a000034300000302000006c
:104a6800426100006420000052650000717500007a
:104a780065730000743a000020630000616e000056
:104a88002774000020680000616e0000646c00005c
:104a980065200000436f00006e740000656e000022
:104aa800742d00004c6500006e67000074680000fb
:104ab8000d0a00000048000054540000502f000068
:104ac800312e000031200000343000003120000079
:104ad800556e000061750000746800006f72000078
:104ae800697a0000656400000d0a0000575700004d
:104af800572d00004175000074680000656e0000c5
:104b08007469000063610000746500003a200000c9
:104b180042610000736900006320000072650000b4
:104b2800616c00006d3d000022500000726f0000b3
:104b3800746500006374000065640000220d0000c5
:104b48000a4300006f6e00006e6500006374000089
:104b5800696f00006e3a0000206300006c6f00006f
:104b6800736500000d0a00000d0a000034300000d3
:104b780031200000556e0000617500007468000067
:104b88006f720000697a0000656400003a20000036
:104b98005061000073730000776f000072640000ba
:104ba80020720000657100007569000072650000e0
:104bb800640d00000a000000485400005450000032
:104bc8002f3100002e310000203400003034000066
:104bd800204e00006f740000206600006f75000012
:104be8006e6400000d0a0000436f00006e6e000046
:104bf80065630000746900006f6e00003a200000d1
:104c0800636c00006f730000650d00000a4300002c
:104c18006f6e0000746500006e7400002d54000073
:104c280079700000653a0000207400006578000083
:104c3800742f0000687400006d6c00000d0a0000fd
:104c48000d0a000034300000343a0000204600000d
:104c5800696c0000652000006e6f00007420000081
:104c6800666f0000756e0000643c00006272000010
:104c78003e55000073650000203c000061200000e4
:104c880068720000656600003d2200002f6d00007c
:104c98007066000073750000706c00006f610000a2
:104ca800642200003e4d00005046000053200000e2
:104cb800557000006c6f0000616400003c2f00001c
:104cc800613e0000207400006f2000007072000038
:104cd8006f670000726100006d20000077650000ba
:104ce800622000007061000067650000730d00001d
:104cf8000a00000048540000545000002f31000002
:104d08002e31000020340000313400002052000011
:104d18006571000075650000737400002d55000072
:104d280052490000205400006f6f0000204c000022
:104d38006f6e0000670d00000a4300006f6e0000f0
:104d48006e65000063740000696f00006e3a000031
:104d5800206300006c6f0000736500000d0a0000fe
:104d68000d0a0000343100003420000052650000b4
:104d78007175000065730000742d00005552000025
:104d880049200000546f00006f2000004c6f0000a5
:104d98006e6700003a200000427500006666000059
:104da80065720000206f00007665000072660000e2
:104db8006c6f0000772000006465000074650000d7
:104dc80063740000656400000d0a000000480000dc
:104dd80054540000502f0000312e000031200000f4
:104de8003530000030200000496e00007465000076
:104df800726e0000616c00002053000065720000b4
:104e0800766500007220000045720000726f000095
:104e1800720d00000a4300006f6e00006e6500000e
:104e280063740000696f00006e3a000020630000a0
:104e38006c6f0000736500000d0a00000d0a000089
:104e48003530000030200000496e00007465000015
:104e5800726e0000616c0000205300006572000053
:104e6800766500007220000045720000726f000035
:104e7800723a000020450000787000006563000069
:104e88007465000064200000646100007461000023
:104e9800206e00006f740000207000007265000032
:104ea800736500006e7400000d0a000000480000e1
:104eb80054540000502f0000312e00003120000013
:104ec80035300000312000004e6f000074200000d3
:104ed800496d0000706c0000656d0000656e000093
:104ee80074650000640d00000a4300006f6e000046
:104ef8006e65000063740000696f00006e3a000080
:104f0800206300006c6f0000736500000d0a00004c
:104f18000d0a000035300000312000004e6f0000ff
:104f280074200000496d0000706c0000656d000081
:104f3800656e000074650000643a0000204f0000b0
:104f48006e6c0000792000004745000054200000e6
:104f5800616e000064200000504f000053540000b0
:104f68002073000075700000706f000072740000fc
:104f7800656400000d0a0000004800005454000059
:104f8800502f0000312e0000312000003230000088
:104f9800302000004f4b00000d0a0000436f000056
:104fa8006e6e000065630000746900006f6e00009b
:104fb8003a200000636c00006f730000650d00006c
:104fc8000a4300006f6e0000746500006e740000f4
:104fd8002d54000079700000653a0000207400002c
:104fe80065780000742f0000687400006d6c000084
:104ff8000d0a00000d0a00003c680000746d0000f6
:105008006c3e00003c6200006f64000079200000e4
:1050180073740000796c0000653d0000226d00008b
:1050280061720000676900006e3a000031300000cc
:1050380030700000782200003e3c0000666f0000df
:10504800726d0000206d000065740000686f00003c
:10505800643d0000706f0000737400002061000060
:1050680063740000696f00006e3d0000222f00008d
:105078006d70000066730000757000006c6f0000b2
:105088006164000022200000656e00006374000067
:1050980079700000653d0000226d0000756c00000d
:1050a8007469000070610000727400002f660000cf
:1050b8006f7200006d2d00006461000074610000d3
:1050c800223e00003c6200003e4d000050460000b9
:1050d80053200000496d0000616700006520000052
:1050e800557000006c6f0000616400003c2f0000e8
:1050f800623e00003c7000003e3c0000696e00000b
:10510800707500007420000074790000706500005c
:105118003d660000696c0000652000006e610000bb
:105128006d6500003d69000020730000697a000089
:10513800653d0000343000003e200000266e00006f
:1051480062730000703b0000203c0000696e0000a4
:10515800707500007420000074790000706500000c
:105168003d730000756200006d6900007420000046
:10517800766100006c750000653d00002255000056
:10518800706c00006f610000642200003e3c00006b
:105198002f6600006f7200006d3e00003c2f00007b
:1051a800626f0000647900003e3c00002f68000038
:1051b800746d00006c3e00000000000048540000c0
:1051c800545000002f3100002e3100002032000022
:1051d80030300000204f00004b0d00000a43000053
:1051e8006f6e00006e65000063740000696f000058
:1051f8006e3a0000206300006c6f000073650000c9
:105208000d0a0000436f00006e740000656e000018
:10521800742d000054790000706500003a200000e9
:1052280074650000787400002f680000746d000039
:105238006c0d00000a0d00000a3c000068740000b4
:105248006d6c00003e3c0000626f00006479000055
:1052580020730000747900006c6500003d22000096
:105268006d61000072670000696e00003a3100004d
:105278003030000070780000223e00003c620000e0
:105288003e4d0000504600005320000055700000bd
:10529800646100007465000020530000756300001d
:1052a8006365000073730000667500006c3c0000c5
:1052b8002f6200003e3c0000703e00003c61000090
:1052c8002068000072650000663d0000222f000083
:1052d800223e00005369000074650000206d000044
:1052e800616900006e2000007061000067650000c1
:1052f8003c2f0000613e00003c2f0000626f000060
:10530800647900003e3c00002f680000746d0000c6
:105318006c3e00000048000054540000502f00006c
:10532800312e000031200000353000003020000010
:10533800496e000074650000726e0000616c000028
:10534800205300006572000076650000722000009e
:1053580045720000726f0000720d00000a430000e1
:105368006f6e00006e65000063740000696f0000d6
:105378006e3a0000206300006c6f00007365000047
:105388000d0a0000436f00006e740000656e000097
:10539800742d000054790000706500003a20000068
:1053a80074650000787400002f680000746d0000b8
:1053b8006c0d00000a0d00000a3c00006874000033
:1053c8006d6c00003e3c0000626f000064790000d4
:1053d80020730000747900006c6500003d22000015
:1053e8006d61000072670000696e00003a310000cc
:1053f8003030000070780000223e00003c6200005f
:105408003e4d00005046000053200000496d00004a
:105418006167000065200000436f000072720000a1
:1054280075700000742000006f72000020570000a3
:10543800726f00006e670000205600006572000061
:10544800736900006f6e00003c2f0000623e000090
:105458003c7000003e3c00006120000068720000c3
:10546800656600003d2200002f6d00007066000098
:1054780073750000706c00006f610000642200000a
:105488003e5400007279000020610000676100004e
:10549800696e00003f3c00002f6100003e3c0000a8
:1054a8002f6200006f640000793e00003c2f00006e
:1054b800687400006d6c00003e0000004854000055
:1054c800545000002f3100002e310000203300001e
:1054d80030320000204600006f7500006e64000046
:1054e8000d0a0000436f00006e6e00006563000047
:1054f800746900006f6e00003a200000636c0000c1
:105508006f730000650d00000a4c00006f63000017
:1055180061740000696f00006e3a0000200000000e
:1055280048540000545000002f3100002e31000074
:105538002034000030330000204600006f72000065
:105548006269000064640000656e00000d0a0000d6
:10555800436f00006e6e0000656300007469000010
:105568006f6e00003a200000636c00006f7300004b
:10557800650d00000a0d00000a34000030330000f9
:10558800204600006f720000626900006464000039
:10559800656e00003a200000535300004c200000c4
:1055a80052650000717500006972000065640000b2
:1055b800202d0000207500007365000020480000c1
:1055c80054540000505300000d0a00000000000071
:1055d800dca40000dca4000001a500005fa5000019
:1055e800e0a500007ea60000eba600005ba7000077
:1055f800c1a70000e1a80000e2a800008fa90000f0
:1056080062aa000094aa00000d0a000000740000bd
:1056180065780000742f0000706c0000616900005c
:105628006e00000074650000787400002f680000a8
:10563800746d00006c000000746500007874000050
:105648002f7800006d6c0000007400006578000081
:10565800742f00006373000073000000696d000080
:1056680061670000652f00006769000066000000a0
:10567800696d000061670000652f0000706e000012
:1056880067000000696d000061670000652f000079
:105698006a7000006567000000610000707000001b
:1056a8006c69000063610000746900006f6e00009f
:1056b8002f6a000061760000612d0000766d000001
:1056c8000061000075640000696f00002f78000019
:1056d8002d77000061760000650000000bab00002c
:1056e80016ab000016ab000016ab000020ab0000a4
:1056f80029ab000032ab00003cab000046ab000019
:1057080051ab000065ab0000e1a80000574600005f
:1057180020640000657600006963000065200000d1
:105728006869000062650000726e00006174000024
:1057380065640000000a00000d000000436f0000cf
:105748006e6e000065630000746900006f6e0000f3
:1057580020700000726f0000666900006c65000030
:10576800206c000069730000742000006e6f000058
:105778007420000073750000707000006f720000e4
:105788007465000064000000436f00006e6500004f
:1057980063740000696f00006e20000070720000e2
:1057a8006f660000696c0000652000006c690000ed
:1057b80073740000206e00006f74000020730000f6
:1057c80075700000706f000072740000656400005e
:1057d8000009000063700000696400003a200000be
:1057e80020200000202000000000000009630000c5
:1057f800686100006e6e0000656c00003a200000d1
:10580800200000002c000000096400006f6d0000fb
:10581800616900006e3a00002020000020000000ae
:10582800666300006300000065740000736900008f
:10583800006a000061700000616e000000750000e1
:105848006e6b00006e6f0000776e000000090000ac
:1058580072740000733a000020200000202000002d
:1058680020200000000900006d6f00006465000042
:105878003a200000202000002020000000690000dd
:10588800646c000065000000696400006c6500003d
:1058980020280000636f00006e6e00006563000042
:1058a800746900006f6e00002070000065720000cf
:1058b8006d6100006e6500006e7400006c79000078
:1058c800206c00006f73000074290000006900005c
:1058d800646c000065200000283f000029000000db
:1058e8006d6100006e6100006765000064200000c3
:1058f800286300006f6e00006e650000637400008e
:10590800696f00006e200000696e000020700000c2
:10591800726f000067720000657300007329000051
:10592800006d0000616e00006167000065640000a2
:10593800006d0000616e0000616700006564000092
:105948002028000072650000636f00006e6e000082
:1059580065630000746900006f6e00002069000034
:105968006e200000707200006f6700007265000012
:1059780073730000290000006d6100006e61000073
:105988006765000064200000283f0000290000002f
:1059980061640000686f0000632000002863000055
:1059a8006f6e00006e65000063740000696f000090
:1059b8006e200000696e000020700000726f000009
:1059c8006772000065730000732900000061000021
:1059d800646800006f6300000061000064680000f4
:1059e8006f6300002028000072650000636f0000ec
:1059f8006e6e000065630000746900006f6e000041
:105a0800206900006e200000707200006f670000bf
:105a180072650000737300002900000061640000d3
:105a2800686f000063200000283f00002900000084
:105a38000973000073690000643a00002020000028
:105a4800202000002000000009700000777200008c
:105a580073610000766500003a20000020650000b0
:105a68006e610000626c00006564000000090000bf
:105a780064740000696d000020720000783a00002c
:105a880020200000656e0000616200006c65000067
