:020000040000FA
:06000000BCEFD4F0120079
:020006001200E6
:0600080054EFA9F0120004
:02000E000004EC
:04001000A300000049
:0400140012001200C4
:06001800F7EFA8F0120052
:02001E001D00C3
:10002000D3AA0100F109000001000000D2AA0100DA
:10003000F009000001000000D0AA0100E60900005C
:100040000200000062AA0100840500006E000000AA
:1000500061AA0100EF0900000100000058AA010098
:10006000570F00000900000056AA0100E409000033
:100070000200000055AA0100EE0900000100000086
:1000800053AA0100E20900000200000050AA01008A
:10009000D9090000030000003DAA0100E8060000A5
:1000A000130000003CAA0100ED090000010000005F
:1000B00038AA0100D50900000400000037AA010099
:1000C000EC0900000100000035AA0100E009000071
:1000D000020000002DAA0100B50900000800000080
:1000E0002CAA0100EB090000010000002BAA01006E
:1000F000EA090000010000002AAA0100E909000045
:100100000100000027AA01007D0E0000030000008E
:10011000DFA901000007000048000000D5A9010088
:10012000AB0900000A000000D3A90100DE090000AD
:1001300002000000D1A90100DC090000020000005B
:10014000CFA90100FE050000020000002FF1000011
:10015000E809000001000000CBA90100D10900005E
:1001600004000000C1A90100A10900000A0000006C
:0C017000BFA90100FE000000020000001A
:04017C0003014551E5
:100180000901DC5D01E140D0FE0EDC5D1BE01C0ED0
:10019000E66EE66A290EE66E030EE66EDC511C0D75
:1001A000F3CF00F0F4CF01F0000E0026010E012283
:1001B00000C0E6FF01C0E6FF0AECB9F0026E060ED1
:1001C000E15E025045C3DCF9FE0E0301455D01E12D
:1001D0001BD01C0EE66EE66A45511C0DF3CF00F0F5
:1001E000F4CF01F0000E0026010E012200C0E6FF50
:1001F00001C0E6FF290EE66E030EE66E0AECB9F0CA
:10020000026E060EE15E025012000901DC51DD5D56
:1002100001E14FD0FE0EDD5D32E0270E0301C56F18
:10022000C66B0301010EC46F0301020EC26F030E01
:10023000C36F0901DD511C0DF3CFE9FFF4CFEAFFD5
:10024000000EE926010EEA221B0EE926000EEA2224
:10025000EFCFC1F3DD511C0DF3CFE9FFF4CFEAFF7F
:10026000000EE926010EEA22EECFBFF3EFCFC0F376
:100270000301270EBF5F000EC05B80EC22F0DCC9DB
:10028000DDF9270E0301C56FC66B44C3C4F329C350
:10029000C2F32AC3C3F30301C25F000EC35B0301B1
:1002A000010EC16F0301020EBF6F030EC06F80EC21
:1002B00022F012000C01C20E1D6F0F0E1E6F030103
:1002C000005101110FE1A6EC80F01EC000F31FC029
:1002D00001F3FF0E03010017070E0117000E0027A0
:1002E000040E01233C0EE66EE66AE66A8E0EE66EAA
:1002F000070EE66E58ECB9F0006E050EE15E005098
:100300000C01156B146B1451006E016A090E005C30
:10031000000E015801E326D114CC45F32FDFCA0E9D
:10032000006EA80E016E010E026E14CC03F0046A7A
:10033000056A060E246E256A266A03C01FF004C0F3
:1003400020F005C021F032ECD3F01CC003F01DC03A
:1003500004F01EC005F000500324F36E0150042089
:10036000F46E02500520F86EF4CFF7FFF3CFF6FFDE
:10037000F62A000EF722F8220800F5CF1CFCCA0E60
:10038000006EA80E016E010E026E14CC03F0046A1A
:10039000056A060E246E256A266A03C01FF004C093
:1003A00020F005C021F032ECD3F01CC003F01DC0DA
:1003B00004F01EC005F000500324F36E0150042029
:1003C000F46E02500520F86EF4CFF7FFF3CFF6FF7E
:1003D000020EF626000EF722F8220900F5CF16FCD1
:1003E0000A00F5CF17FCCA0E006EA80E016E010EB2
:1003F000026E14CC03F0046A056A060E246E256AA8
:10040000266A03C01FF004C020F005C021F032ECC2
:10041000D3F01CC003F01DC004F01EC005F0005056
:100420000324F36E01500420F46E02500520F86E90
:10043000F4CFF7FFF3CFF6FF040EF626000EF722F7
:10044000F8220900F5CF18FC0A00F5CF19FC0C01C1
:100450001C5101E086D01DCC1AFC1ECC1BFC270EC3
:10046000036A1625026E17510322010E0226000EA2
:10047000032202501825006E03501921016E010E4F
:100480000026000E012200501D2701501E231DCC06
:1004900000F01ECC01F0026A036AD880FE0E005400
:1004A0001E0E0154000E0254000E035401E2EFD759
:1004B0001CCC44F3270E0C011A250301296F000EF2
:1004C0000C011B2103012A6F29510C011625030180
:1004D0002B6F2A510C01172103012C6F010E2B27C2
:1004E000000E2C232B510C01182503012D6F2C51CC
:1004F0000C01192103012E6F0D0E3F6F409785DE11
:10050000CA0E006EA80E016E010E026E14CC03F02E
:10051000046A056A060E246E256A266A03C01FF067
:1005200004C020F005C021F032ECD3F01CC003F071
:100530001DC004F01EC005F000500324F36E0150EE
:100540000420F46E02500520F86EF4CFF7FFF3CFCD
:10055000F6FF0800F5CF28F397EC18F00C01142BE8
:10056000D2D6FFD712000C013B6B3B51006E016AE3
:10057000090E005C000E015801E3CAD03BCC45F3E4
:10058000FDDD0D0E03013F5D01E0BFD03EDE030146
:100590004D51285D01E0B9D0180E256F020E266F6F
:1005A0004A510CE14BC312F34CC313F34087040EC2
:1005B0003F6F4BC342F34CC343F3A4D0000E005D26
:1005C000040E015906E3880ED8800055130E01551C
:1005D00003E2006B040E016F00C312F301C313F3B7
:1005E000002B000E01234BC310F34CC311F3C2ECDC
:1005F000D2F01EC037F31FC038F320C039F321C03A
:100600003AF3030140894A51040A3DE0070A18E021
:10061000020A03E0030A01E075D046C318F347C39A
:1006200019F348C31AF349C31BF3020E4A5D02E0F3
:10063000000E01D0010E2495E8B024853F6B62D0F6
:1006400048514625026E49514721036E02504B2501
:10065000006E03504C21016E00501219426F015080
:100660001319436F46C318F347C319F348C31AF36A
:1006700049C31BF3276B270E026F036B046B056BDB
:10068000020E3F6F3FD046C3E9FF47C3EAFF020EA9
:10069000E926000EEA22EECF04F0EFCF05F046C3C4
:1006A000E9FF47C3EAFF0450EE24026E0550EE2036
:1006B000036E02504B25006E03504C21016E00501A
:1006C0001219426F01501319436F0A0EE66EE66A63
:1006D00046C3E6FF47C3E6FF180EE66E030EE66E5E
:1006E0000AECB9F0006E060EE15E00500301050E43
:1006F0003F6F0301010EAE6F0301020EAD6F4CECB4
:1007000012F000D00C013B5105D00C013B2B2DD732
:10071000FE0E00D0120003014E51006E016A090E58
:10072000005C000E015802E3010E0BD04EC345F3EE
:1007300025DD030141A903D04199010E02D0000E2D
:1007400000D0120003014F51006E016A090E005CD7
:10075000000E015802E3000E0BD04FC345F30EDD2F
:10076000070E03013F5D02E0000E01D0010E00D034
:10077000120003015051006E016A090E005C000E68
:10078000015801E363D050C345F3F8DC33C335F3BC
:1007900034C336F303013F51080A4EE0010A4CE02E
:1007A000050A4AE0020A45E0050A2DE00D0A15E0B7
:1007B000010A13E0070A0EE0020A0CE0010A0AE04F
:1007C000060A08E0040A01E037D057EC92F097ECF3
:1007D00018F03CD097EC18F039D00301010EAE6F41
:1007E0000301110EAD6F4CEC12F003011451151101
:1007F00001E106D00E512F1902E10F513019EDE140
:10080000080E3F6F23D00301010EAE6F0301110EDE
:10081000AD6F4CEC12F003011451151101E106D03B
:100820000E512F1902E10F513019EDE10C0E3F6FFF
:100830000DD00D0E3F6F0AD00301AE6B0301140EF5
:10084000AD6F4CEC12F097EC18F000D012000301E1
:100850005151006E016A090E005C000E015801E35F
:1008600008D051C345F38ADC0301409751C350F3CC
:1008700080DF120003015251006E016A090E005C14
:10088000000E015803E3F36AF46A22D052C345F321
:1008900075DCBBDC0A0EE66EE66A180EE66E030E29
:1008A000E66E530EE66E030EE66E0AECB9F0006ECD
:1008B000060EE15E005010C35DF311C35EF3530EEC
:1008C000006E030E016E00C0F3FF01C0F4FF00D004
:1008D000120003015F51006E016A090E005C000EF8
:1008E000015801E313D05FC345F348DC8EDC0301FC
:1008F0000E512F1902E10F51301908E00301010ECA
:10090000AE6F0301100EAD6F4CEC12F0120003013C
:100910006051006E016A090E005C000E015803E38D
:10092000F36AF46A3ED060C345F328DC3FC345FC5C
:10093000070E0C01455D06E00B0E455D03E0F36A12
:10094000F46A2FD0030131512F5D325130591BE32E
:1009500029512B5D026E2C512A55036E0206000EA2
:10096000035A31512F5D046E30513255056E0450DB
:10097000025C006E05500358016E00C0F3FF01C019
:10098000F4FF0FD00ED02F51315D006E3251305533
:10099000016E0006000E015A00C0F3FF01C0F4FF13
:1009A00000D0120003016151006E016A090E005C63
:1009B000000E015802E3000E74D061C345F3BEEC93
:1009C00000F061C360F3A3DFF3CF0FFCF4CF10FCA2
:1009D0000C010F51101103E1000E63D008D0010E7D
:1009E0000F1901E1105103E161C35FF372DF0301ED
:1009F0004151010B14E129512B5D006E2C512A55F8
:100A0000016ED890013200320C010F51005C105180
:100A1000015805E361C35FF35CDF03014181010E0F
:100A20000301C56FC66B0301C46F0301620EC26F81
:100A3000030EC36F44C3C1F32FC3BFF330C3C0F36E
:100A400080EC22F003012F2B000E30232B512F5D61
:100A50002C51305904E329C32FF32AC330F30C017E
:100A6000010E0F1901E1105104E161C35FF331DFA1
:100A700016D0030140BB13D0408BCDECD2F01EC08A
:100A800000F01FC001F0026A036A060E0026000E85
:100A900001220222032200C03BF301C03CF3010EFD
:100AA00000D012000C01AF6BB06B03016351006EFC
:100AB000016A090E005C000E015803E3F36AF46A50
:100AC000C2D063C345F3BEEC00F063C360F31FDF25
:100AD000F3CFADFCF4CFAEFC0C01AD51AE1106E18D
:100AE00063C35FF3F6DEF36AF46AADD0ADCCABFC62
:100AF000AECCACFCAD510301665D0C01AE510301FF
:100B0000675904E266C3ABFC67C3ACFC4151010BFF
:100B100014E129512B5D006E2C512A55016ED8909D
:100B2000013200320C01AD51005CAE51015805E3B9
:100B300063C35FF3CEDE0301418103012F510C013A
:100B4000AB25006E030130510C01AC21016E030195
:100B50002B51005C2C5101582DE32F512B5D0C01C2
:100B6000AF6F030130512C590C01B06FAFCCC5F3FE
:100B7000B0CCC6F30301010EC46F64C3C2F365C3F6
:100B8000C3F344C3C1F32FC3BFF330C3C0F380EC3E
:100B900022F00C01AF51030164270C01B051030195
:100BA00065230C01AF51AB5FB051AC5B29C32FF390
:100BB0002AC330F3ABCCC5F3ACCCC6F30301010EB2
:100BC000C46F64C3C2F365C3C3F344C3C1F32FC38B
:100BD000BFF330C3C0F380EC22F00C01AB51030132
:100BE0002F270C01AC51030130230C01AD5103013F
:100BF000665D0C01AE510301675904E363C35FF303
:100C000068DE15D040BB13D0408BCDECD2F01EC0B7
:100C100000F01FC001F0026A036A060E0026000EF3
:100C200001220222032200C03BF301C03CF30C016D
:100C3000AB51AF25006EAC51B021016E00C0F3FF87
:100C400001C0F4FF00D012000C012E6B2F6B0301CA
:100C50006851006E016A090E005C000E015803E342
:100C6000F36AF46AC5D068C345F3BEEC00F068C30C
:100C700060F34DDEF3CF2CFCF4CF2DFC0C012C5196
:100C80002D1106E168C35FF324DEF36AF46AB0D085
:100C900003014151010B14E129512B5D006E2C51D0
:100CA0002A55016ED890013200320C012C51005CA3
:100CB0002D51015805E368C35FF30BDE0301418149
:100CC0002CCC2AFC2DCC2BFC0C012C5103016C5D8F
:100CD0000C012D5103016D5904E26CC32AFC6DC354
:100CE0002BFC2F510C012A25006E030130510C0101
:100CF0002B21016E03012B51005C2C51015830E374
:100D00002F512B5D0C012E6F030130512C590C011A
:100D10002F6F2ECCCDF32FCCCEF369C3CAF36AC3A9
:100D2000CBF36BC3CCF344C3C9F32FC3C7F330C3B6
:100D3000C8F3E4EC22F02ECC00F02FCC01F0026AD4
:100D400000500301692701506A2302506B230C01F4
:100D50002E512A5F2F512B5B29C32FF32AC330F367
:100D60002ACCCDF32BCCCEF369C3CAF36AC3CBF341
:100D70006BC3CCF344C3C9F32FC3C7F330C3C8F369
:100D8000E4EC22F00C012A5103012F270C012B5116
:100D9000030130230C012C5103016C5D0C012D511A
:100DA00003016D5904E368C35FF393DD15D040BBC5
:100DB00013D0408BCDECD2F01EC000F01FC001F06C
:100DC000026A036A060E0026000E01220222032296
:100DD00000C03BF301C03CF30C012A512E25006EEC
:100DE0002B512F21016E00C0F3FF01C0F4FF00D092
:100DF00012006FC3E6FF70C3E6FF3DECBAF0E552A8
:100E0000E552F3CF66F3F4CF67F36FC364F370C3B7
:100E100065F36EC363F346DE03016F51F324006E86
:100E20007051F420016E00C0F3FF01C0F4FF00D048
:100E3000120072C3E6FF73C3E6FF74C3E6FF4BEC18
:100E4000BAF0E552E552E5521FC06CF320C06DF3D5
:100E500072C369F373C36AF374C36BF371C368F34A
:100E6000F3DEF3CF03F0F4CF04F0056A030172510F
:100E70000324006E73510420016E74510520026E2C
:100E800000C01FF001C020F002C021F000D012000D
:100E900003017551006E016A090E005C000E0158D5
:100EA00003E3F36AF46A25D075C345F3BEEC00F0A2
:100EB000030129512B5D0C01026F03012A512C59AA
:100EC0000C01036F010E025F000E035B75C360F33C
:100ED0001EDDF3CF00FCF4CF01FC0C010051025DDC
:100EE000006E03510155016E00C0F3FF01C0F4FF15
:100EF00000D0120076C377F318D8F3CF00F0F4CF08
:100F000001F00050011010E076C345F3BEEC00F094
:100F100033C335F334C336F30301010EAE6F03015F
:100F2000100EAD6F4CEC12F0120003017751006E01
:100F3000016A090E005C000E015803E3F36AF46ACB
:100F400031D077C345F3BEEC00F003013551335D7A
:100F5000365134590CE33551335D006E34513655FA
:100F6000016E00C0F3FF01C0F4FF1CD01BD035514F
:100F70002D5D026E2E513655036E010E0226000EB7
:100F800003222B51335D046E34512C55056E0250F3
:100F90000424006E03500520016E00C0F3FF01C061
:100FA000F4FF00D0120078C377F3BFDFF3CF39FC32
:100FB000F4CF3AFC0C0139513A1102E1000E48D04D
:100FC00078C345F3BEEC00F0030179517A1112E0C9
:100FD000010E0301C56FC66B44C3C4F335C3C2F32E
:100FE00036C3C3F30301C16F79C3BFF37AC3C0F340
:100FF00080EC22F00301352B000E362335512D5D98
:1010000036512E5904E22BC335F32CC336F30C01B1
:10101000010E391901E13A5103E10301418516D06E
:10102000030140BB13D0408BCDECD2F01EC000F0CA
:101030001FC001F0026A036A1F0E0026000E012283
:101040000222032200C03BF301C03CF3010E00D09A
:1010500012000C015F6B606B7BC377F366DFF3CF2D
:101060005DFCF4CF5EFC0C015D515E1103E1F36A9F
:10107000F46AA1D07BC345F3BEEC00F003017E51BE
:101080000C015D5D03017F510C015E5904E25DCCF2
:101090007EF35ECC7FF3030135517E25006E365121
:1010A0007F21016E00502D5D01502E5938E23551DF
:1010B0002D5D0C015F6F030136512E590C01606FDD
:1010C000010E5F27000E602303017C517D111BE0A0
:1010D0005FCCC5F360CCC6F344C3C4F335C3C2F3DD
:1010E00036C3C3F30301010EC16F7CC3BFF37DC3DD
:1010F000C0F380EC22F00C015F5103017C270C014E
:10110000605103017D230C015F5103017E5F0C01DF
:10111000605103017F5B2BC335F32CC336F37C5145
:101120007D1113E07EC3C5F37FC3C6F344C3C4F38C
:1011300035C3C2F336C3C3F30301010EC16F7CC3D1
:10114000BFF37DC3C0F380EC22F003017E5135274D
:101150007F5136230C015F5103017E270C01605142
:1011600003017F237E510C015D5D006E5E51030122
:101170007F55016E00507E5D01507F5902E341852D
:1011800015D040BB13D0408BCDECD2F01EC000F088
:101190001FC001F0026A036A1F0E0026000E012222
:1011A0000222032200C03BF301C03CF37EC3F3FFE5
:1011B0007FC3F4FF00D0120003018051006E016A6A
:1011C000090E005C000E015803E3F36AF46A21D0B3
:1011D00080C345F3BEEC00F003012B512D5D0C01E3
:1011E0003B6F03012C512E590C013C6F80C377F3E8
:1011F0009CDEF3CF39FCF4CF3AFC0C0139513B5D56
:10120000006E3C513A55016E00C0F3FF01C0F4FF7F
:1012100000D0120003018151006E016A090E005CCA
:10122000000E015803E28451851103E1F36AF46A68
:10123000ABD081C345F3BEEC00F081C377F375DE1C
:10124000F3CF02FCF4CF03FC030186518425006E2A
:1012500087518521016E0C010050025D0150035938
:101260000BE2030186510C01025D0301846F87517B
:101270000C0103590301856F0301355186250C01CB
:10128000006F0301365187210C01016F00510301EA
:101290002D5D0C01015103012E590FE22B512D5DE3
:1012A000006E2E512C55016E010E0026000E0122FB
:1012B00000500C01005F0150015B0C010051030163
:1012C0002D5D0C01046F015103012E590C01056FB6
:1012D000010E0427000E0523030184510C01045D57
:1012E000030185510C01055914E384C3C5F385C37B
:1012F000C6F344C3C4F300CCC2F301CCC3F303016F
:10130000010EC16F82C3BFF383C3C0F380EC22F030
:1013100036D004CCC5F305CCC6F344C3C4F300CC2B
:10132000C2F301CCC3F30301010EC16F82C3BFF34B
:1013300083C3C0F380EC22F00C0104510301845DEF
:101340000301C56F0C010551030185590301C66FE7
:1013500044C3C4F32BC3C2F32CC3C3F30301010E74
:10136000C16F030182510C0104250301BF6F03010A
:1013700083510C0105210301C06F80EC22F084C36E
:10138000F3FF85C3F4FF00D0120089C386F38AC33C
:1013900087F3010E0301846F856B0301060E826FD4
:1013A0000C0E836F88C381F335DF0C01065100D02A
:1013B000120003018B51006E016A090E005C000EE1
:1013C000015803E28E518F1103E1F36AF46AB2D13E
:1013D0008BC345F3BEEC00F08BC377F3A6DD0301AE
:1013E0009051F35C0C013B6F03019151F4580C01D7
:1013F0003C6F03018E510C013B5D03018F510C01C9
:101400003C5903E2F368F46895D1030192519311BA
:101410000DE00C013B510301925D0C013C510301B5
:10142000935904E292C33BFC93C33CFC3551902595
:101430000C013F6F0301365191210C01406F3F5168
:1014400003012D5D0C01405103012E590FE22B5178
:101450002D5D006E2E512C55016E010E0026000EE2
:10146000012200500C013F5F0150405B3FCC39FC32
:1014700040CC3AFC0C013F5103012D5D0C013D6F46
:10148000405103012E590C013E6F010E3D27000E05
:101490003E2390C33FFC91C340FC8EC341FC8FC3ED
:1014A00042FC8CC343FC8DC344FC03018CC3E9FFA5
:1014B0008DC3EAFF8C2B8D23EFCF46FC0C01486BCC
:1014C0000301945109E0610E0C01465D05E34651AC
:1014D0007A0802E3E00E46270C01200E476F4751C1
:1014E0003D5D000E3E5902E23DCC47FC47513B5D5D
:1014F000000E3C5902E23BCC47FC47510301C56F4B
:10150000C66B44C3C4F339CCC2F33ACCC3F3030172
:10151000010EC16F0301490EBF6F0C0EC06F80EC4E
:1015200022F00C014751006E016A0050392701502A
:101530003A234751006E016A00503D5F01503E5B07
:101540003D513E1106E12BC339FC2CC33AFC3D69E9
:101550003E690301945101E181D00C01456B475173
:10156000455D01E37AD04551EA6A490FE96E0C0EF8
:10157000EA22EFCF00F0610E005C13E34551EA6A06
:10158000490FE96E0C0EEA22EF507A080AE3E00EEA
:10159000006E4551EA6A490FE96E0C0EEA220050CE
:1015A000EF264551EA6A490FE96E0C0EEA22EF5028
:1015B000465D33E103018E07000E8F5B8E518F1164
:1015C00017E10C0141513F5D026E40514255036EDF
:1015D000455100010224006E000E0320016E010E31
:1015E0000026000E012200C0F3FF01C0F4FFA2D0CC
:1015F0008CC3E9FF8DC3EAFF8C2B000E8D23EFCF48
:1016000046FC0C01010E486F610E465D05E3465134
:101610007A0802E3E00E46271ED041CC8EF342CC7E
:101620008FF3485118E043CC8CF344CC8DF3030185
:101630008CC3E9FF8DC3EAFF8C2B000E8D23EFCF07
:1016400046FC610E0C01465D05E346517A0802E353
:10165000E00E4627486B452B82D751D00C01456BD5
:101660004751455D4CE24551EA6A490FE96E0C0E5F
:10167000EA22EF50465D2BE103018E07000E8F5BDF
:101680008E518F1117E10C0141513F5D026E4051A7
:101690004255036E455100010224006E000E0320E6
:1016A000016E010E0026000E012200C0F3FF01C0F2
:1016B000F4FF40D08CC3E9FF8DC3EAFF8C2B000EF2
:1016C0008D23EFCF46FC0C01010E486F16D041CCA4
:1016D0008EF342CC8FF3485110E043CC8CF344CCD2
:1016E0008DF303018CC3E9FF8DC3EAFF8C2B000E41
:1016F0008D23EFCF46FC0C01486B452BB1D74751EA
:10170000006E016A00503B5F01503C5B03018E514B
:101710000C013B5D03018F510C013C5903E2F3685E
:10172000F46808D04751006E016A00503F2701500D
:101730004023D2D6120003019551006E016A090EB2
:10174000005C000E015803E299519A1103E1F36A1B
:10175000F46ACDD195C345F3BEEC00F095C377F3A1
:1017600095EC07F003019B51F35C0C01026F030140
:101770009C51F4580C01036F030199510C01025D57
:1017800003019A510C01035903E2F368F468AFD1E5
:1017900003019D519E110DE00C01025103019D5D5D
:1017A0000C01035103019E5904E29DC302FC9EC338
:1017B00003FC35519B250C01066F030136519C211A
:1017C0000C01076F065103012D5D0C010751030148
:1017D0002E590FE22B512D5D006E2E512C55016EAE
:1017E000010E0026000E012200500C01065F015080
:1017F000075B06CC00FC07CC01FC0C010651030181
:101800002D5D0C01046F075103012E590C01056F6A
:10181000010E0427000E05239BC306FC9CC307FC96
:1018200099C308FC9AC309FC96C30AFC97C30BFC36
:1018300098C30CFC030196C3F6FF962B97C3F7FFE2
:10184000972398C3F8FF98230800F5CF0EFC0C01EE
:10185000106B03019F5109E0610E0C010E5D05E361
:101860000E517A0802E3E00E0E270C01200E0F6FD6
:101870000F51045D000E055902E204CC0FFC0F511C
:10188000025D000E035902E202CC0FFC0F5103016E
:10189000C56FC66B44C3C4F300CCC2F301CCC3F321
:1018A0000301010EC16F0301110EBF6F0C0EC06F5B
:1018B00080EC22F00C010F51006E016A00500027ED
:1018C000015001230F51006E016A0050045F015066
:1018D000055B0451051106E12BC300FC2CC301FC80
:1018E0000469056903019F5101E18BD00C010D6B67
:1018F0000F510D5D01E384D00D51EA6A110FE96EBD
:101900000C0EEA22EFCF00F0610E005C13E30D51E4
:10191000EA6A110FE96E0C0EEA22EF507A080AE328
:10192000E00E006E0D51EA6A110FE96E0C0EEA220C
:101930000050EF260D51EA6A110FE96E0C0EEA22F3
:10194000EF500E5D37E103019907000E9A5B995144
:101950009A1117E10C010851065D026E07510955F5
:10196000036E0D5100010224006E000E0320016E73
:10197000010E0026000E012200C0F3FF01C0F4FF9B
:10198000B6D096C3F6FF962B97C3F7FF000E9723AA
:1019900098C3F8FF98230800F5CF0EFC0C01010E48
:1019A000106F610E0E5D05E30E517A0802E3E00E42
:1019B0000E2724D008CC99F309CC9AF310511EE0DD
:1019C0000ACC96F30BCC97F30CCC98F3030196C397
:1019D000F6FF962B97C3F7FF000E972398C3F8FFE7
:1019E00098230800F5CF0EFC610E0C010E5D05E397
:1019F0000E517A0802E3E00E0E27106B0D2B78D7FC
:101A00005BD00C010D6B0F510D5D56E20D51EA6A72
:101A1000110FE96E0C0EEA22EF500E5D2FE103016B
:101A20009907000E9A5B99519A1117E10C01085120
:101A3000065D026E07510955036E0D510001022427
:101A4000006E000E0320016E010E0026000E012222
:101A500000C0F3FF01C0F4FF4AD096C3F6FF962BF7
:101A600097C3F7FF000E972398C3F8FF9823080049
:101A7000F5CF0EFC0C01010E106F1CD008CC99F3B1
:101A800009CC9AF3105116E00ACC96F30BCC97F3DD
:101A90000CCC98F3030196C3F6FF962B97C3F7FF80
:101AA000000E972398C3F8FF98230800F5CF0EFC8B
:101AB0000C01106B0D2BA7D70F51006E016A00505F
:101AC000025F0150035B030199510C01025D0301A8
:101AD0009A510C01035903E2F368F46808D00F51DE
:101AE000006E016A0050062701500723BED612007F
:101AF000A6C394F3A4C392F3A5C393F3A2C390F334
:101B0000A3C391F3010E03018E6F8F6B0301A10E2E
:101B10008C6F030E8D6FA0C38BF34BDC00D01200D3
:101B20000C01006B0051006E016A090E005C000E92
:101B3000015801E36CD300CC45F3BEEC00F00C017E
:101B4000036B016B026B03014151020B03E1415135
:101B5000040B0EE0EDEC97F000090AE00C01100E0A
:101B6000036F03014151040B01E0010E0C01016FF1
:101B7000030140AB13D0CDECD2F003011E503B5D0E
:101B8000006E1F503C59016E013404E20050000801
:101B9000000E015403E30C01100E036F030140AD6E
:101BA00013D0CDECD2F003011E503D5D006E1F50EE
:101BB0003E59016E013404E200500008000E015449
:101BC00003E30C01100E036F0B0E03013F5D16E1E2
:101BD000CDECD2F003011E503D5D006E1F503E590A
:101BE000016E013404E200500008000E015406E3C7
:101BF0000C01110E036F03010C0E3F6F040E3F5DCD
:101C000001E00AD10C01046B056B030E045D000EAC
:101C1000055901E301D104CCE9FF05CCEAFF140E1C
:101C2000EA02F3CFEAFFE902F3CFE9FFF450EA2634
:101C30008E0EE926070EEA22100EE926000EEA2291
:101C4000EE50ED1001E1E8D004CCE9FF05CCEAFF4D
:101C5000140EEA02F3CFEAFFE902F3CFE9FFF450F2
:101C6000EA268E0EE926070EEA22100EE926000E5D
:101C7000EA22EECF00F0EFCF01F00301425100184D
:101C800002E14351011801E0C2D005EC01F00A0E57
:101C9000E66EE66A04CCE9FF05CCEAFF140EEA0220
:101CA000F3CFEAFFE902F3CFE9FFF450EA268E0E04
:101CB000E926070EEA22E9CF00F0EACF01F000C0E2
:101CC000E6FF01C0E6FF180EE66E030EE66E0AECB4
:101CD000B9F0026E060EE15E025004CCE9FF05CCBD
:101CE000EAFF140EEA02F3CFEAFFE902F3CFE9FFBD
:101CF000F450EA268E0EE926070EEA220A0EE9269D
:101D0000000EEA22EECF10F3EDCF11F304CCE9FF81
:101D100005CCEAFF140EEA02F3CFEAFFE902F3CFA3
:101D2000E9FFF450EA268E0EE926070EEA220C0E91
:101D3000E926000EEA22EECF0AF3EECF0BF3EECF48
:101D40000CF3EFCF0DF303010A2B0B230C230D2310
:101D50001A511825026E1B511921036E02501025CD
:101D6000006E03501121016E00501219426F015094
:101D70001319436F0C01120E036F0301060E3F6F20
:101D800004CCC5F305CCC6F30301020ED880C557B9
:101D9000000EC657140EC603F3CFC6F3C503F3CF28
:101DA000C5F3F450C6270301010EC46F0C010425CE
:101DB0000301C26F000E0C0105210301C36F140E55
:101DC000C303F3CFC3F3C203F3CFC2F3F450C3276B
:101DD0008E0EC227070EC3230301010EC16F140E1E
:101DE000206E216A04CC25F005CC26F014ECD3F04B
:101DF0001EC0BFF31FC0C0F38E0E0301BF27070E26
:101E0000C02380EC22F00701C66BC76B05D00C0124
:101E1000042B000E0523F9D60C0103510AE00151F1
:101E200002E0000E01D0010E0301AE6F03CCADF352
:101E300033DB030140B94ED0070E3F5D4AE1C2ECEF
:101E4000D2F0030137511E5C006E38511F58016EED
:101E500039512058026E3A512158036E0001800E0C
:101E6000031401E0D1D103014051070B060815E12D
:101E70004051080B01E0010E0C01036F00CC50F340
:101E8000B9EC03F000CC50F3B9EC03F00C010351B2
:101E900003E103010E0E3F6FB7D105EC01F0030122
:101EA000020EAE6F0301100EAD6FF6DAC2ECD2F087
:101EB0001EC037F31FC038F320C039F321C03AF3F6
:101EC000740E03013727350E3823060E3923000E12
:101ED0003A239AD1C2ECD2F0030137511E5C006E56
:101EE00038511F58016E39512058026E3A5121580D
:101EF000036E0001800E031401E086D105EC01F0B1
:101F000003013F510C0A01E11ED1060A01E10CD187
:101F1000030A01E103D1010A01E1F1D00F0A01E155
:101F2000DFD00C0A01E1DCD00D0A01E1C4D0030AC4
:101F300001E1AED0060A01E17BD0010A68E0030AA4
:101F400020E0010A01E00ED14EEC92F0000918E009
:101F50000301010E3F6F24A50BD00801B36F18C316
:101F6000B0F819C3B1F81AC3B2F88AEC92F008D0ED
:101F70000801AF6F18C3ADF819C3AEF86AEC92F060
:101F8000F1D00801060EB46F0C0EB56FADEC92F0F7
:101F900000093CE057EC92F0000924E006CC18F36D
:101FA00007CC19F308CC1AF309CC1BF30301020E7A
:101FB0003F6F1A511825026E1B511921036E0250F2
:101FC0001025006E03501121016E00501219426F4E
:101FD00001501319436F276B270E026F036B046BBD
:101FE000056B14D0C2ECD2F01EC037F31FC038F31B
:101FF00020C039F321C03AF3740E03013727350EA0
:102000003823060E3923000E3A233F6BABD0CDECBC
:10201000D2F01EC03BF31FC03CF30801180E956FB1
:10202000030E966F7CECB3F00301030E3F6F9AD062
:1020300008011C0E996F030E9A6F0801180E976F16
:10204000030E986FC0ECB3F000091AE1CDECD2F0AA
:1020500003013B511E5C006E3C511F58016E005045
:10206000025D015003590BE2060E275D06E2272BA5
:10207000D8900237033704370537020E3F6F72D00E
:102080000C01020E036F016B0301050E3F6F6AD056
:102090000C01020E036F010E016F040E0301275D98
:1020A00009E3040E276F200E026FEF0E036F090E77
:1020B000046F056B57D0020E275D06E20C01120E6D
:1020C000036F010E016F0BD040A706D00C01140E58
:1020D000036F010E026F03D00C01020E036F42D09A
:1020E000050E275D06E20C01100E036F010E016F55
:1020F00005D0080E3F6F0C01110E036F33D0050E93
:10210000275D06E20C01110E036F010E016F05D071
:102110000C01140E036F010E026F24D00C01140E7B
:10212000036F010E026F1ED0050E275D06E20C0143
:10213000100E036F010E016F05D00C01140E036F1A
:10214000010E026F0FD0050E275D06E20C01110E85
:10215000036F010E016F05D00C01140E036F010E09
:10216000026F00D00C0103514AE0015142E003012B
:10217000272BD890023703370437053731510E5DCE
:102180000C01046F030132510F590C01056F03015B
:1021900031510E5D32510F590BE229512B5D006E0A
:1021A0002C512A55016E00500C01042701500523C3
:1021B00004CC00F005CC01F0026A036A0050030170
:1021C000065F0150075B0250085B0350095B0C017E
:1021D0000451030114270C0105510301152331C3D8
:1021E0000EF332C30FF30301AE6B03CCADF354D93E
:1021F00006D00301010EAE6F03CCADF34DD90C0137
:10220000025102E097EC18F00C01002B8BD4046B08
:10221000056B030E045D000E055901E399D004CC53
:10222000E9FF05CCEAFF140EEA02F3CFEAFFE90268
:10223000F3CFE9FFF450EA268E0EE926070EEA22D4
:10224000100EE926000EEA22EE50ED1001E180D0DA
:1022500004CCE9FF05CCEAFF140EEA02F3CFEAFF53
:10226000E902F3CFE9FFF450EA268E0EE926070EC5
:10227000EA22120EE926000EEA22EECF02F0EFCF9C
:1022800003F002C0E6FF03C0E6FFCDECD2F0E5525A
:10229000E7CF03F0E552E7CF02F002501E5C006E7C
:1022A00003501F58016EDC0ED8800054010E0154FB
:1022B0004AE204CCC5F305CCC6F30301020ED88074
:1022C000C557000EC657140EC603F3CFC6F3C50399
:1022D000F3CFC5F3F450C6270301010EC46F0C0100
:1022E00004250301C26F000E0C0105210301C36F19
:1022F000140EC303F3CFC3F3C203F3CFC2F3F450FE
:10230000C3278E0EC227070EC3230301010EC16F20
:10231000140E206E216A04CC25F005CC26F014ECB6
:10232000D3F01EC0BFF31FC0C0F38E0E0301BF2742
:10233000070EC02380EC22F00701C66BC76B0C01AF
:102340000407000E055B0C01042B000E052361D76A
:102350001200A7C3E9FFA8C3EAFFEECF14FCEECF3B
:1023600015FCEECF16FCEFCF17FCA9C3E9FFAAC3FB
:10237000EAFFEECF18FCEECF19FCEECF1AFCEFCF40
:102380001BFC0C011C6B060E1D6FABC31EFCACC30B
:102390001FFC1ECCC8F61FCCC9F664EC85F0F3CF49
:1023A0001EFCF4CF1FFC0C0E0601D06FD16B060192
:1023B000140ECE6F0C0ECF6F8BEC85F0F3CF20FC9C
:1023C000F4CF21FC0C01201F211FABC3E6F7ACC3E7
:1023D000E7F721EC9AF0F3CF22FCF4CF23FC0C01B9
:1023E0002251201902E12351211904E00AEC98F04E
:1023F000010E51D009016D6B6E6B0FECC9F0140E1C
:102400000701F06FF16B0701000EEE6F0C0EEF6F1E
:102410008BEC9BF00301000EB36F0C0EB46FBCECA1
:1024200017F00C010C51F00BE842E842E842E84298
:10243000040DF350006E016A140E005E000E015A86
:1024400000C024FC2451006E016A00500301AB5D02
:10245000AB6F0150AC59AC6F140EAB5F000EAC5BB0
:10246000A7C3B1F3A8C3B2F30301000EAF6F0C0E04
:10247000B06FD8DA00090BE0ABC3B7F3ACC3B8F365
:102480000301000EB56F0C0EB66F60EC19F00AEC8C
:1024900098F0010E00D0120005EC01F00301ADA18F
:1024A00002D04187AD91409B409D409F4193419513
:1024B0004191EDEC97F0000901E1FBD7060E030115
:1024C000AD1504E00C016B6B6C6BFBD00E512F193A
:1024D00002E10F51301904E10C016B6B6C6BD9D028
:1024E0002F510E5D30510F593FE20E512F5D0C01FF
:1024F0006B6F03010F5130590C016C6F6B5103016D
:10250000145D0C016C510301155904E214C36BFCFA
:1025100015C36CFC0C016B510301255D0C016C5162
:102520000301265905E225C36BFC26C36CFC4185DB
:102530006BCCC5F36CCCC6F344C3C4F30EC3C2F377
:102540000FC3C3F30301C16B0301070EBF6F0A0E74
:10255000C06F80EC22F00C016B5103010E270C01BF
:102560006C5103010F2395D00E512B5D0C01696F47
:1025700003010F512C590C016A6F695103012F257A
:10258000006E0C016A5103013021016E2951005C7B
:102590000C016B6F03012A5101580C016C6F6B51D8
:1025A0000301145D0C016C510301155904E214C3BD
:1025B0006BFC15C36CFC0C016B510301255D0C0118
:1025C0006C510301265905E225C36BFC26C36CFC44
:1025D00041850C0169516B5D6A516C5904E26BCC09
:1025E00069FC6CCC6AFC69CCC5F36ACCC6F344C305
:1025F000C4F30EC3C2F30FC3C3F30301C16B0301E2
:10260000070EBF6F0A0EC06F80EC22F00C016951FB
:102610006B5D696F6A516C596A6F69516A1122E08A
:1026200069CCC5F36ACCC6F344C3C4F329C3C2F36F
:102630002AC3C3F30301C16B03010E512B5D006E6E
:102640002C510F55016E026A036A070E00260A0E0E
:102650000122000E0222032200C0BFF301C0C0F31A
:1026600080EC22F00C016B5103010E270C016C5120
:1026700003010F232B510E5D2C510F590AE32951F1
:102680002B5D006E2C512A55016E00500E5F0150DB
:102690000F5B030141A715D014510C016B1904E124
:1026A000030115510C016C190CE0030125510C01BB
:1026B0006B1904E1030126510C016C1902E00301BE
:1026C000AD810C016B516C1104E1030E0301AD15DA
:1026D00029E00C016B510301145F0C016C510301E3
:1026E000155B0C016B516C1102E00301AD87030116
:1026F000AEA107D0276BF20E026F9E0E036F046B24
:10270000056BC2ECD2F01E5003010225376F1F503B
:102710000321386F20500421396F215005213A6F71
:10272000408938D0AEA31BD0400EE96E030EEA6E8E
:10273000EF50070BE82AF36EF350070BF36EF46EBD
:10274000F80EEF14F310EF6EF4500607000E075B5F
:10275000085B095B010E0C016B6F6C6B1BD040A911
:1027600019D0AEB108D0275106E02707D89005331D
:10277000043303330233C2ECD2F01E5003010225AE
:10278000376F1F500321386F20500421396F2150BB
:1027900005213A6F12C347FC13C348FC10C349FC20
:1027A00011C34AFC06C34BFC07C34CFC08C34DFCD9
:1027B00009C34EFC0AC34FFC0BC350FC0CC351FCB5
:1027C0000DC352FC0C01549D549F53915393539548
:1027D0005397ADC354FC596B5A6B6B5103010627D9
:1027E0000C016C5103010723000E08230923ADA33C
:1027F00015D0ADB905D00C014F6B506B516B526BBE
:10280000030124A306D00C014B074C5B4D5B4E5BD0
:1028100005D0062B07230823092324830301ADB128
:1028200024813551335D3651345914E32B512D5DDC
:10283000006E2E512C55016E3551335D026E3451B0
:102840003655036E0C010250005C556F0350015861
:10285000566F0DD03351355D0C01556F0301345166
:1028600036590C01566F010E555F000E565B40EC59
:1028700098F0F3CF45FCF4CF46FC0C01400E455DCB
:10288000000E465903E2456B466B04D0400E455F8F
:10289000000E465B5551455D5651465904E245CC04
:1028A00055FC46CC56FC0301470EB36F0C0EB46FBB
:1028B00063DB140E0C016B27000E6C235389539BB2
:1028C000538D539F0301ADA326D0040E0C016B273B
:1028D000000E6C23020E5B6F040E5C6F020E5D6FC8
:1028E000180E5E6F010E006E530EE96E0C0EEA6E4E
:1028F000EF50F00BE842E842E842E84200240F0BB8
:10290000F36EF46EF346F346F346F3460F0EEF1400
:10291000F310EF6EF45047C45FFC48C460FC49C438
:1029200061FC4AC462FC18C363FC19C364FC1AC38B
:1029300065FC1BC366FC0C01676B060E686F6BCCF5
:1029400069FC6CCC6AFC69CCC8F66ACCC9F664EC4C
:1029500085F0F3CF69FCF4CF6AFC0C0E0601D06F52
:10296000D16B06015F0ECE6F0C0ECF6F8BEC85F036
:10297000F3CF57FCF4CF58FC0C01571F581F070129
:10298000DF0EDE6F090EDF6FC6EC99F06BCC6BF9D2
:102990006CCC6CF90901060E6A6F0901180E686F9C
:1029A000030E696F9BECC8F0140E0701F56FF66B10
:1029B0000701470EF36F0C0EF46FC3EC9BF003019D
:1029C000ADA30BD0040E0701F56FF66B07015B0E8C
:1029D000F36F0C0EF46FC3EC9BF00701F30EE06F86
:1029E000090EE16FD4EC99F06BCCE6F76CCCE7F70D
:1029F00021EC9AF0F3CF45FCF4CF46FC0701030E1F
:102A0000DE6F0A0EDF6FC6EC99F0020E0701F56F5C
:102A1000F66B0701450EF36F0C0EF46FC3EC9BF0E1
:102A200077EF99F0AFC3E9FFB0C3EAFF020EE926E2
:102A3000000EEA22EE50ED1002E1000E9CD20C01D5
:102A4000FE0E266FB1C3E9FFB2C3EAFF020EE9260C
:102A5000000EEA22EECF04F0EFCF05F0B1C3E9FF9C
:102A6000B2C3EAFF0450EE24026E0550EE20036E5E
:102A7000AFC3E9FFB0C3EAFF0250EE24006E03507B
:102A8000EE20016EAFC3E9FFB0C3EAFF020EE926F4
:102A9000000EEA220050EE18276F0150EE18286F42
:102AA000256B2551006E016A090E005C000E01586D
:102AB00067E225CC45F3BEEC00F00D0E03013F5D4F
:102AC00002E15BD024D0040E3F5D16E1AFC3E9FF05
:102AD000B0C3EAFF020EE926000EEA22EECF00F0B4
:102AE000EFCF01F00050421902E10150431902E119
:102AF00025CC26FC42D00BD00C01275103014219F2
:102B000004E10C0128510301431901E036D005EC22
:102B100001F0AFC3E9FFB0C3EAFF020EE926000EE1
:102B2000EA22EECF00F0EFCF01F0030112510018BE
:102B300002E11351011821E1AFC3E9FFB0C3EAFF7D
:102B4000EECF02F0EFCF03F01051021802E1115165
:102B5000031813E1B1C3E9FFB2C3EAFFEE5018193D
:102B600009E1EE50191906E1EE501A1903E1EE5091
:102B70001B1900E102E1010EFED10C01252B91D7BA
:102B8000FE0E265D39E026CC45F3BEEC00F005ECE8
:102B900001F0FE0E0C01265D2FE027CC42F328CC7D
:102BA00043F30A0EE66EE66AB1C3E6FFB2C3E6FF80
:102BB000180EE66E030EE66E0AECB9F0006E060E15
:102BC000E15E0050AFC3E9FFB0C3EAFFEECF10F300
:102BD000EDCF11F3AFC3E9FFB0C3EAFF020EE92660
:102BE000000EEA22EECF12F3EDCF13F329C30EF35A
:102BF0002AC30FF3010EBFD1AFC3E9FFB0C3EAFF91
:102C00000D0EE926000EEA22EF50020B02E1000E43
:102C1000B2D10701C651C71102E0000EACD10C01C0
:102C2000296B2A6B030E295D000E2A5901E3BED0E1
:102C300029CCE9FF2ACCEAFF140EEA02F3CFEAFF1F
:102C4000E902F3CFE9FFF450EA268E0EE926070EDB
:102C5000EA22100EE926000EEA22EE50ED1001E104
:102C6000A5D029CCE9FF2ACCEAFF140EEA02F3CF63
:102C7000EAFFE902F3CFE9FFF450EA268E0EE926D7
:102C8000070EEA22100EE926000EEA22EECF00F02F
:102C9000EFCF01F0AFC3E9FFB0C3EAFF020EE926B0
:102CA000000EEA22EECF02F0EFCF03F00250001840
:102CB00002E10350011801E074D029CCE9FF2ACCCD
:102CC000EAFF140EEA02F3CFEAFFE902F3CFE9FFCD
:102CD000F450EA268E0EE926070EEA220A0EE926AD
:102CE000000EEA22EECF00F0EFCF01F0AFC3E9FF14
:102CF000B0C3EAFFEECF02F0EFCF03F002500018AE
:102D000002E10350011801E04CD0B1C3E9FFB2C3A6
:102D1000EAFFEECF00F0EECF01F0EECF02F0EFCF02
:102D200003F029CCE9FF2ACCEAFF140EEA02F3CF24
:102D3000EAFFE902F3CFE9FFF450EA268E0EE92616
:102D4000070EEA22EE500001001809E1EE500118CA
:102D500006E1EE50021803E1EE50031800E101E035
:102D600020D0CDECD2F01EC000F01FC001F029CC65
:102D7000E9FF2ACCEAFF140EEA02F3CFEAFFE902E8
:102D8000F3CFE9FFF450EA268E0EE926070EEA2279
:102D9000120EE926000EEA2200C0EEFF01C0EDFF90
:102DA000EAD00C01292B000E2A233CD7256B255194
:102DB000006E016A090E005C000E015801E3D9D0D3
:102DC00025CC45F3BEEC00F0030140A7CFD005ECC5
:102DD00001F0AFC3E9FFB0C3EAFF020EE926000E1F
:102DE000EA22EECF00F0EFCF01F0005003011219FC
:102DF00002E10150131901E0B9D00A0EE66EE66A4D
:102E0000B1C3E6FFB2C3E6FF29CCE9FF2ACCEAFF53
:102E1000140EEA02F3CFEAFFE902F3CFE9FFF45020
:102E2000EA268E0EE926070EEA22E9CF00F0EACF65
:102E300001F000C0E6FF01C0E6FF0AECB9F0026E47
:102E4000060EE15E0250AFC3E9FFB0C3EAFFEECF6A
:102E500000F0EFCF01F029CCE9FF2ACCEAFF140EF5
:102E6000EA02F3CFEAFFE902F3CFE9FFF450EA26E2
:102E70008E0EE926070EEA220A0EE926000EEA2245
:102E800000C0EEFF01C0EDFFAFC3E9FFB0C3EAFF32
:102E9000040EE926000EEA22EECF00F0EECF01F09C
:102EA000EECF02F0EFCF03F029CCE9FF2ACCEAFF06
:102EB000140EEA02F3CFEAFFE902F3CFE9FFF45080
:102EC000EA268E0EE926070EEA220C0EE926000EEF
:102ED000EA2200C0EEFF01C0EEFF02C0EEFF03C019
:102EE000EEFFAFC3E9FFB0C3EAFF020EE926000E12
:102EF000EA22EECF00F0EFCF01F029CCE9FF2ACC97
:102F0000EAFF140EEA02F3CFEAFFE902F3CFE9FF8A
:102F1000F450EA268E0EE926070EEA22100EE92664
:102F2000000EEA2200C0EEFF01C0EDFFCDECD2F0B2
:102F30001EC000F01FC001F029CCE9FF2ACCEAFF37
:102F4000140EEA02F3CFEAFFE902F3CFE9FFF450EF
:102F5000EA268E0EE926070EEA22120EE926000E58
:102F6000EA2200C0EEFF01C0EDFF05D00C01252BC9
:102F70001ED7000E00D01200B3C3E9FFB4C3EAFFAE
:102F8000EECFC8F6EDCFC9F664EC85F0F3CF00F0D4
:102F9000F4CF01F0B3C3E9FFB4C3EAFF00C0EEFF12
:102FA00001C0EDFFB3C3E9FFB4C3EAFF020EE92697
:102FB000000EEA22EECFC8F6EDCFC9F664EC85F03C
:102FC000F3CF00F0F4CF01F0B3C3E9FFB4C3EAFFDD
:102FD000020E00C0EBFF030E01C0EBFFB3C3E9FF1D
:102FE000B4C3EAFF040EE926000EEA22EECFCAF6C9
:102FF000EECFCBF6EECFCCF6EFCFCDF674EC85F07E
:103000001EC000F01FC001F020C002F021C003F07C
:10301000B3C3E9FFB4C3EAFF040EE926000EEA22B7
:1030200000C0EEFF01C0EEFF02C0EEFF03C0EEFFE6
:10303000B3C3E9FFB4C3EAFF080EE926000EEA2293
:10304000EECFCAF6EECFCBF6EECFCCF6EFCFCDF685
:1030500074EC85F01EC000F01FC001F020C002F02B
:1030600021C003F0B3C3E9FFB4C3EAFF080EE926A9
:10307000000EEA2200C0EEFF01C0EEFF02C0EEFF2C
:1030800003C0EEFFB3C3E9FFB4C3EAFF0E0EE926A7
:10309000000EEA22EECFC8F6EDCFC9F664EC85F05B
:1030A000F3CF00F0F4CF01F0B3C3E9FFB4C3EAFFFC
:1030B0000E0E00C0EBFF0F0E01C0EBFFB3C3E9FF24
:1030C000B4C3EAFF100EE926000EEA22EECFC8F6DE
:1030D000EDCFC9F664EC85F0F3CF00F0F4CF01F04A
:1030E000B3C3E9FFB4C3EAFF100E00C0EBFF110E3B
:1030F00001C0EBFFB3C3E9FFB4C3EAFF120EE92638
:10310000000EEA22EECFC8F6EDCFC9F664EC85F0EA
:10311000F3CF00F0F4CF01F0B3C3E9FFB4C3EAFF8B
:10312000120E00C0EBFF130E01C0EBFF120005EC06
:1031300001F012C342F313C343F329C32FF32AC38D
:1031400030F329C331F32AC332F32BC333F32CC337
:1031500034F32BC335F32CC336F303014051080B72
:1031600002E0040E01D00D0E3F6F40914093409558
:103170004099409B409D409F41914193419541978B
:103180004189249124932497249929C30EF32AC3B7
:103190000FF363EC80F0F3CF06F3F4CF07F363ECA7
:1031A00080F0F3CF08F3F4CF09F303012269236918
:1031B000010E146F156B12000C0E09016D6F6E6B12
:1031C0000FECC9F088EC9BF00C01416FF00E41153B
:1031D000E840E8403F0B006E016A140E005E000EEE
:1031E000015A00C041FC415105E1180EF36E020E78
:1031F000F46E65D0070E0701F06FF16B0701EE6BFF
:10320000EF6B8BEC9BF00C0141514107000952E040
:1032100088EC9BF00C01426F425101E14BD042051A
:1032200001E1F1D7020E425D2CE1030E415D01E2A6
:1032300041D0436B446B88EC9BF00C01426F040E51
:10324000425D08E188EC9BF00C01446F88EC9BF038
:103250000C01436F180E435D020E445901E22AD05F
:10326000B40ED8804355050E445506E2B40EF36EF5
:10327000050EF46E24D01DD043CCF3FF44CCF4FFF4
:103280001ED0020E415D01E215D088EC9BF00C01CE
:10329000426F4251415D01E20DD042510701F06F92
:1032A000F16B0701EE6BEF6B8BEC9BF00C01425165
:1032B000415FA9D7180EF36E020EF46E00D0120013
:1032C000B5C3E9FFB6C3EAFF0D0EE926000EEA22F8
:1032D000EFCF33FCB5C3E9FFB6C3EAFF080EE9261A
:1032E000000EEA22EECF34FCEECF35FCEECF36FCFA
:1032F000EFCF37FCB5C3E9FFB6C3EAFF040EE926FA
:10330000000EEA22EECF38FCEECF39FCEECF3AFCCD
:10331000EFCF3BFC030140914093409540B913D05F
:10332000C2ECD2F01EC037F31FC038F320C039F30F
:1033300021C03AF3740E03013727350E3823060EE9
:103340003923000E3A233F51050A48E0010A08E0FC
:10335000B7C33CFCB8C33DFC0C0133A1CFD0CBD0EC
:103360000C0133A503D0E3DE48EF21F033A912D0DE
:1033700034CC06F335CC07F336CC08F337CC09F35D
:103380000301AE6B0301040EAD6F4CEC12F0CFDE07
:1033900048EF21F033A31FD038CC0AF339CC0BF31C
:1033A0003ACC0CF33BCC0DF303010A2B000E0B239C
:1033B0000C230D2301DFF3CF25F3F4CF26F3030114
:1033C000010EAE6F0301120EAD6F4CEC12F0030153
:1033D000060E3F6F01D0ABDE48EF21F00C0133A5A4
:1033E00002D048EF21F033A934D0340EE96E0C0E30
:1033F000EA6EEE500301061909E1EE50071906E1E5
:10340000EE50081903E1EE50091900E122E006C36D
:1034100038FC07C339FC08C33AFC09C33BFC34CC75
:1034200006F335CC07F336CC08F337CC09F30301A8
:10343000010EAE6F0301040EAD6F4CEC12F038CCF0
:1034400006F339CC07F33ACC08F33BCC09F348EF49
:1034500021F00C0133A34DD038CC0AF339CC0BF357
:103460003ACC0CF33BCC0DF303010A2B000E0B23DB
:103470000C230D23B5C3E9FFB6C3EAFF0E0EE92600
:10348000000EEA22EECF14F3EDCF15F395DEF3CF65
:1034900025F3F4CF26F30C0133A920D00301010E4C
:1034A000AE6F0301100EAD6F4CEC12F00301070E6E
:1034B0003F6FC2ECD2F01EC037F31FC038F320C0FC
:1034C00039F321C03AF3740E03013727350E382340
:1034D000060E3923000E3A2340990BD00301010E4A
:1034E000AE6F0301120EAD6F4CEC12F00301060E2D
:1034F0003F6F48EF21F03C2B000E3D2333A303D058
:103500003C2B000E3D2303013551335D36513459B8
:1035100014E32B512D5D006E2E512C55016E35514B
:10352000335D026E34513655036E0C010250005C5F
:10353000316F03500158326F0DD03351355D0C019E
:10354000316F0301345136590C01326F010E315F76
:10355000000E325B0A0EE96E030EEA6EEE50385D25
:103560002B6FEE5039592C6FEE503A592D6FEE50AB
:103570003B592E6F2BCC2FFC2CCC30FC3E6B3C519E
:103580003D1101E17BD03151321101E176D0800E45
:103590002E1512E131CC00F032CC01F0026A036A40
:1035A00000502B5D01502C5902502D5903502E59BB
:1035B00003E2010E3E6F3DD03CCC00F03DCC01F06B
:1035C000026A036A2B0EE96E0C0EEA6EEE500026BC
:1035D000EE500122EE500222EE5003220334000E80
:1035E000031809E6D880000E0054000E0154000EA6
:1035F0000254000E03541DE23C51315D046E325101
:103600003D55056E066A076A05AE02D00668076872
:1036100007502E19E8AE02D02E3508D02B51045C8D
:103620002C5105582D5106582E51075802E3010E12
:103630003E6F31CC00F032CC01F0026A036A2E51A9
:103640000318E8AE02D0033408D000502B5D0150BF
:103650002C5902502D5903502E590FE22F513C2561
:10366000046E30513D21056E053404E2045000081B
:10367000000E055402E2010E3E6F1CD02B512C119E
:103680002D112E1103E1010E3E6F14D0800E2E1568
:1036900011E131CC00F032CC01F0026A036A005033
:1036A0002B5D01502C5902502D5903502E5902E226
:1036B000010E3E6F3E510CE133B508D00301010EFF
:1036C000AE6F0301100EAD6F4CEC12F048EF21F01D
:1036D000060E331503E02BDD48EF21F033B902D09D
:1036E00048EF21F003013F510C0A01E19CD20B0A83
:1036F00040E00F0A3EE0010A3CE0020A3AE0010A1B
:1037000038E00C0A01E0ADD2340EE96E0C0EEA6E20
:10371000EE50061909E1EE50071906E1EE500819BE
:1037200003E1EE50091900E122E006C338FC07C3AB
:1037300039FC08C33AFC09C33BFC34CC06F335CC56
:1037400007F336CC08F337CC09F30301010EAE6F53
:103750000301040EAD6F4CEC12F038CC06F339CCFB
:1037600007F33ACC08F33BCC09F348EF21F0070EFE
:103770003F6F0E512F5D0C01296F03010F5130591E
:103780000C012A6F800E2A150CE0030129512B5DD4
:10379000006E2C512A55016E00500C012927015052
:1037A0002A2329CC00F02ACC01F0026A036A060E13
:1037B000E96E030EEA6EEE500024256FEE500120F4
:1037C000266FEE500220276FEE500320286F250E43
:1037D000E96E0C0EEA6EEE50345D256FEE503559F1
:1037E000266FEE503659276FEE503759286F28351F
:1037F000000E281909E6D880000E2555000E265522
:10380000000E2755000E28551DE203012451010B1F
:103810000AE0010E0C01251905E1265103E12751AB
:1038200001E128510AE00301AE6B0301100EAD6FF8
:103830004CEC12F048EF21F005D03407000E355B58
:10384000365B375B030131510E5D006E0F5132550F
:10385000016E026A036A01AE02D002680368060EB6
:10386000E96E030EEA6E0050EE5C0C01256F01500C
:10387000EE58266F0250EE58276F0350EE58286F0F
:10388000030131510E5D32510F5911E229512B5D67
:10389000006E2C512A55016E026A036A00500C0119
:1038A000255F0150265B0250275B0350285B250EE5
:1038B000E96E0C0EEA6EEE500C01345D256FEE5091
:1038C0003559266FEE503659276FEE503759286F0D
:1038D0002835000E281909E6D880000E2555000E5F
:1038E0002655000E2755000E285501E397D00301F9
:1038F00029512B5D006E2C512A55016E026A036A14
:103900000C012551005C26510158275102582851BD
:10391000035801E283D0030124972499419131C3D4
:1039200029FC32C32AFC0C012551030131270C016B
:103930002651030132230C01295103010E5D0C01B4
:103940002A5103010F591BE331510E5D32510F59BA
:1039500015E20E51315D006E32510F55016E0001BE
:103960000050030106270001015003010723000E48
:103970000823092331C30EF332C30FF32FD029518B
:103980002B5D006E2C512A55016E0E5100240C0146
:10399000296F03010F5101200C012A6F03013151DE
:1039A0000C01295D030132510C012A5917E22951FA
:1039B0000301315D006E32510C012A55016E000188
:1039C0000050030106270001015003010723000EE8
:1039D0000823092331C30EF332C30FF303012B5124
:1039E000315D2C5132590AE329512B5D006E2C5167
:1039F0002A55016E0050315F0150325B2B510E5D34
:103A00002C510F590AE329512B5D006E2C512A5578
:103A1000016E00500E5F01500F5B3FD003010E514D
:103A2000311902E10F51321938E024A735D024A909
:103A300032D031510E5D006E0F513255016E026A67
:103A4000036A01AE02D0026803680050065F0150AD
:103A5000075B0250085B0350095B31510E5D325128
:103A60000F5914E229512B5D006E2C512A55016E1D
:103A7000026A036A01AE02D0026803680050065F62
:103A80000150075B0250085B0350095B31C30EF322
:103A900032C30FF34185248924872F51311902E164
:103AA000305132192FE141B715D0C2ECD2F01EC00F
:103AB00037F31FC038F320C039F321C03AF3740E36
:103AC00003013727350E3823060E3923000E3A231B
:103AD000409918D0060EE96E030EEA6EEE500C0106
:103AE000341909E1EE50351906E1EE50361903E1BB
:103AF000EE50371900E106E103012451010B02E009
:103B000040994197340EE96E0C0EEA6EEE500301B7
:103B1000065D006EEE500759016EEE500859026EB8
:103B2000EE500959036EB5C3E9FFB6C3EAFF0E0EA6
:103B3000E926000EEA220C010050EE5C3F6F0150B6
:103B4000EE58406F03011451151106E10C013F516D
:103B5000401102E0030141833FCC14F340CC15F344
:103B6000080E03013F5D2DE1060EE96E030EEA6EBD
:103B7000EE500C01341909E1EE50351906E1EE5012
:103B8000361903E1EE50371900E11AE1030124511F
:103B9000010B16E0C2ECD2F01EC037F31FC038F3A1
:103BA00020C039F321C03AF3BA0E030137271A0EA9
:103BB0003823030E3923000E3A234089090E3F6F44
:103BC00031D0090E3F5D16E10C0133B112D034CC77
:103BD00006F335CC07F336CC08F337CC09F30301F1
:103BE000AE6B0301140EAD6F4CEC12F097EC18F0B5
:103BF0004FD318D00A0E3F5D15E1060EE96E030E95
:103C0000EA6EEE500C01341909E1EE50351906E167
:103C1000EE50361903E1EE50371900E102E197EC5E
:103C200018F036D31FD006C300F007C301F008C355
:103C300002F009C303F0002A000E0122022203222F
:103C400000500C01341909E10150351906E1025008
:103C5000361903E10350371900E102E197EC18F03F
:103C600017D300D00C0133BB13D30B0E03013F5D00
:103C700001E10ED30A0E3F5D01E10AD30C0E3F5D58
:103C800001E106D3B751B81101E14ED20C01303534
:103C900004E22F510008000E305501E2E8D0B5C310
:103CA000E9FFB6C3EAFF0C0EE926000EEA22EF5048
:103CB000F00BE842E842E842E842040DF350006E9F
:103CC000016A2F51005C09016D6F0C0130510158E0
:103CD00009016E6F0FECC9F00C012F510301B727DA
:103CE0000C0130510301B823B7510C01315D0301C0
:103CF000B8510C01325904E231CCB7F332CCB8F3ED
:103D00000301B7510A27B8510B23000E0C230D23D2
:103D10003351B725006E3451B821016E00502D5D2E
:103D200001502E5946E233512D5D0C01296F0301DC
:103D300034512E590C012A6F010E2927000E2A2317
:103D400029CCC5F32ACCC6F30301C46B0301C269B5
:103D5000C36944C3C1F333C3BFF334C3C0F3D0DB7F
:103D60000C0129510301B75D0301C56F0C012A51F4
:103D70000301B8590301C66F0301C46B0301C26993
:103D8000C36944C3C1F32BC3BFF32CC3C0F3B8DB77
:103D90000C0129510301B75D006EB8510C012A5581
:103DA000016E03012B510024336F2C510120346F1D
:103DB00015D0B7C3C5F3B8C3C6F30301C46B030181
:103DC000C269C36944C3C1F333C3BFF334C3C0F38F
:103DD00097DB0301B7513327B8513423221D01E18A
:103DE000231D44E0B751225FB851235B16512225B1
:103DF0000C01296F0301175123210C012A6F800E3A
:103E00002A1504E003012269236930D00301233518
:103E100004E222510008000E235528E30C01295129
:103E200003010A270C012A5103010B23000E0C2366
:103E30000D230C012951030133270C012A510301E1
:103E4000342333512D5D34512E590EE22B512D5D0B
:103E5000006E2E512C55016E010E0026000E01221F
:103E60000050335F0150345B226923695DD13035E6
:103E700004E22F510008000E305501E355D1030133
:103E8000B7510C012F25006E0301B8510C013021F0
:103E9000016E0050315D0150325909E22F51315D00
:103EA0000301B76F0C01305132590301B86FB5C32C
:103EB000E9FFB6C3EAFF0C0EE926000EEA22EF5036
:103EC000F00BE842E842E842E842040DF3500901F1
:103ED0006D6F6E6B0FECC9F0030133510C012F2590
:103EE000026E030134510C013021036E02500301B4
:103EF000B725006E0350B821016E00502D5D0150B2
:103F00002E596EE233512D5D006E2E513455016EE7
:103F1000010E0026000E01220C012F51005C296FBA
:103F2000305101582A6F800E2A1531E129CCC5F392
:103F30002ACCC6F30301C46B0301C269C36944C33D
:103F4000C1F3030133510C012F250301BF6F03019E
:103F500034510C0130210301C06FD2DA0C01295118
:103F60000301B75D0301C56F0C012A510301B85964
:103F70000301C66F0301C46B0301C269C36944C373
:103F8000C1F32BC3BFF32CC3C0F3BADA28D0B7C335
:103F9000C5F3B8C3C6F30301C46B0301C269C369A7
:103FA00044C3C1F3030133510C012F25006E0301FB
:103FB00034510C013021016E03012B512D5D026E35
:103FC0002E512C55036E010E0226000E0322030112
:103FD0000250005CBF6F03500158C06F91DA18D0D7
:103FE000B7C3C5F3B8C3C6F30301C46B0301C26909
:103FF000C36944C3C1F3030133510C012F250301ED
:10400000BF6F030134510C0130210301C06F78DA16
:104010000301221D01E1231D09E12FCC22F330CC45
:1040200023F3B7C316F3B8C317F37ED022510C01A4
:104030002F5D030123510C0130593DE22F51030143
:10404000B725006E0C0130510301B821016E2251D9
:104050001625026E23511721036E0050025C015099
:1040600003580FE30C012F510301B725046E0C0117
:1040700030510301B821056E2251045C23510558CB
:1040800005E2B7C316F3B8C317F310D022511625B3
:10409000006E23511721016E0C012F51005C0301AA
:1040A000166F0C01305101580301176F2FCC22F30A
:1040B00030CC23F339D02F510301B725006E0C010A
:1040C00030510301B821016E22511625026E235191
:1040D0001721036E0050025C0150035825E2225163
:1040E0001625006E23511721016E0C012F51005C23
:1040F0003051015819E32F510301B725046E0C010B
:1041000030510301B821056E2251045C026E235127
:104110000558036E1651025C006E17510358016E6C
:1041200000501627015017230C013C513D1124E08B
:10413000070E03013F5D04E033C335F334C336F3A8
:1041400040AF0BD00301010EAE6F0301100EAD6F37
:104150004CEC12F005EC01F00FD0408F40BD0CD0BC
:10416000408DCDECD2F01EC03DF31FC03EF30F0ECC
:1041700003013D27000E3E230C0133A189D00AC361
:1041800000F00BC301F00CC302F00DC303F0002AD2
:10419000000E0122022203223CCC04F03DCC05F0AB
:1041A000066A076A380EE96E0C0EEA6EEE500426B7
:1041B000EE500522EE500622EE5007220050041861
:1041C00009E10150051806E10250061803E1035009
:1041D000071800E15DE103010A2B000E0B230C23FD
:1041E0000D233F51090A41E0010A1EE00F0A0EE0CB
:1041F000010A01E044D00C0E3F6F0301010EAE6FC7
:104200000301110EAD6F4CEC12F042D00B0E3F6F5C
:10421000CDECD2F01EC03DF31FC03EF31F0E0301D4
:104220003D27000E3E232CD0060EE96E030EEA6EEB
:10423000EE500C01341909E1EE50351906E1EE504B
:10424000361903E1EE50371900E10BE10301AE6BC3
:104250000301100EAD6F4CEC12F097EC18F018D073
:1042600003D003010A0E3F6F0BD00301AE6B0301B5
:10427000100EAD6F4CEC12F097EC18F009D000D096
:104280000301010EAE6F0301100EAD6F4CEC12F086
:1042900012000301B951006E016A090E005C000EA4
:1042A000015802E3000E2BD1B9C345F3BEEC00F078
:1042B0000301BA51BB1103E1010EBA6FBB6B295167
:1042C0002D5D0C01006F03012A512E590C01016F65
:1042D000010E005F000E015B0301BA51BC25006EA8
:1042E000BB51BD21016E0C010050005D0150015910
:1042F00002E2000E04D105EC01F0030E0301BE152D
:1043000002E1030EBE13BCC304FCBDC305FCBA51DD
:10431000BC25006EBB51BD21016E00500C01005F39
:104320000150015B0301BEA314D0BEA10DD000CC8F
:1043300000F001CC01F0D8900132003200500C01A5
:1043400004270150052305D00C0100510427015119
:104350000523030129510C010425006F03012A5193
:104360000C010521016F010E0027000E012333C34C
:1043700002FC34C303FC0301221D01E1231D22E0E2
:1043800022511625006E23511721016E00500C0199
:10439000022701500323025103012D5D0C0103513B
:1043A00003012E590FE22B512D5D006E2E512C551D
:1043B000016E010E0026000E012200500C01025F6A
:1043C0000150035B0C0102510301355D0C010351E7
:1043D0000301365917E20C0100510301355D0C0150
:1043E0000151030136590DE2BEA503D0000E87D05E
:1043F00008D000CC35F301CC36F300CC33F301CC3C
:1044000034F326D035510C01025D030136510C0105
:10441000035916E2005103012B5D0C010151030108
:104420002C590DE2BEA503D0000E69D008D000CCF7
:1044300035F301CC36F300CC33F301CC34F308D0A0
:1044400000CC35F301CC36F300CC33F301CC34F39C
:10445000030135510C01025D030136510C01035972
:1044600030E2040E0301BE152CE02B510C01025D5D
:104470000301C56F03012C510C0103590301C66FE1
:1044800044C3C4F32BC3C2F32CC3C3F344C3C1F36B
:1044900000CCBFF301CCC0F333D803013551335DF9
:1044A000365134590EE20C01005103012B5D006EB0
:1044B0002C510C010155016E00500301335F015076
:1044C000345B00CC2BF301CC2CF329C30EF32AC3AD
:1044D0000FF329C331F32AC332F329C32FF32AC3BD
:1044E00030F3070E03013F5D08E10301010EAE6FDB
:1044F0000301100EAD6F4CEC12F0010E00D0120053
:104500000301C45131E0010A01E05DD0C15116E060
:10451000010A01E028D0C5C3E6FFC6C3E6FFC2C357
:10452000E6FFC3C3E6FFBFC3E6FFC0C3E6FF0AEC76
:10453000B9F0006E060EE15E005015D0BF1D01E11E
:10454000C01D06E0BFC3DEF7C0C3DFF7C6EC99F0BD
:10455000C5C3F5F7C6C3F6F7C2C3F3F7C3C3F4F791
:10456000C3EC9BF000D02FD0C15118E0010A01E04C
:1045700029D0C21D01E1C31D06E0C2C3E0F7C3C3D9
:10458000E1F7D4EC99F0C5C3F0F7C6C3F1F7BFC3A8
:10459000EEF7C0C3EFF78BEC9BF014D0C5C3ECF77C
:1045A000C6C3EDF7C2C3EAF7C3C3EBF7BFC3E8F76F
:1045B000C0C3E9F7ADEC9AF081EC9BF0000901E192
:1045C000FBD700D000D012000301C95118E0010A46
:1045D00001E069D0CDC3E6FFCEC3E6FFCAC3E6FF64
:1045E000CBC3E6FFCCC3E6FFC7C3E6FFC8C3E6FF05
:1045F00035ECB9F0006E070EE15E005054D0C71DD7
:1046000001E1C81D06E0C7C3DEF7C8C3DFF7C6EC8B
:1046100099F0100E0C01286F296B0301CD51CE11BA
:1046200041E00C0128510301CD5D0C01295103012A
:10463000CE5904E2CDC328FCCEC329FC28CCE6FF2A
:1046400029CCE6FFCAC3E6FFCBC3E6FFCCC3E6FF37
:10465000180EE66E0C0EE66E35ECB9F0006E070E25
:10466000E15E005028CCF5F729CCF6F70701180ECB
:10467000F36F0C0EF46FC3EC9BF028CC00F029CC48
:1046800001F0026A00500301CA270150CB230250F7
:10469000CC230C0128510301CD5F0C0129510301EA
:0846A000CE5BBBD700D0120075
:0846A800490E0901001905E1AA
:1046B000015103E1025101E1035101E1B8D2480E79
:1046C000001905E1015103E1025101E1035101E14A
:1046D000ABD2470E001905E1015103E1025101E19E
:1046E000035101E19AD2460E001905E1015103E19F
:1046F000025101E1035101E189D2450E001905E1A2
:10470000015103E1025101E1035101E179D2440E6B
:10471000001905E1015103E1025101E1035101E1F9
:1047200068D2430E001905E1015103E1025101E194
:10473000035101E157D2420E001905E1015103E195
:10474000025101E1035101E147D2330E001905E1A5
:10475000015103E1025101E1035101E133D2310E74
:10476000001905E1015103E1025101E1035101E1A9
:1047700022D2300E001905E1015103E1025101E19D
:10478000035101E111D22F0E001905E1015103E19E
:10479000025101E1035101E101D22E0E001905E1A0
:1047A000015103E1025101E1035101E1F4D12D0E68
:1047B000001905E1015103E1025101E1035101E159
:1047C000E7D12C0E001905E1015103E1025101E18D
:1047D000035101E1DAD12B0E001905E1015103E18A
:1047E000025101E1035101E1CDD12A0E001905E189
:1047F000015103E1025101E1035101E1C0D1290E50
:10480000001905E1015103E1025101E1035101E108
:10481000B3D1280E001905E1015103E1025101E174
:10482000035101E1A6D1270E001905E1015103E171
:10483000025101E1035101E199D1260E001905E170
:10484000015103E1025101E1035101E18CD1250E37
:10485000001905E1015103E1025101E1035101E1B8
:104860007FD1240E001905E1015103E1025101E15C
:10487000035101E172D1230E001905E1015103E159
:10488000025101E1035101E165D1220E001905E158
:10489000015103E1025101E1035101E158D1210E1F
:1048A000001905E1015103E1025101E1035101E168
:1048B0004BD1200E001905E1015103E1025101E144
:1048C000035101E13ED11F0E001905E1015103E141
:1048D000025101E1035101E131D11E0E001905E140
:1048E000015103E1025101E1035101E124D11C0E08
:1048F000001905E1015103E1025101E1035101E118
:1049000017D11B0E001905E1015103E1025101E12C
:10491000035101E106D11A0E001905E1015103E12D
:10492000025101E1035101E1F5D0190E001905E131
:10493000015103E1025101E1035101E1E4D0180EFC
:10494000001905E1015103E1025101E1035101E1C7
:10495000D4D0170E001905E1015103E1025101E124
:10496000035101E1C4D0160E001905E1015103E124
:10497000025101E1035101E1B7D00D0E001905E12B
:10498000015103E1025101E1035101E1AAD00C0EF2
:10499000001905E1015103E1025101E1035101E177
:1049A00099D00B0E001905E1015103E1025101E11B
:1049B000035101E188D00A0E001905E1015103E11C
:1049C000025101E1035101E177D0090E001905E11F
:1049D000015103E1025101E1035167E0080E0019A2
:1049E00005E1015103E1025101E1035157E0070ED6
:1049F000001905E1015103E1025101E1035147E0D2
:104A0000060E001905E1015103E1025101E10351D4
:104A100037E0050E001905E1015103E1025101E102
:104A200003512BE0040E001905E1015103E102518D
:104A300001E1035120E0020E001905E1015103E1FB
:104A4000025101E103510DE0010E001905E1015190
:104A500003E1025101E1035101E0ECD0CCEC4AF05A
:104A600004D10901DC0E1E6FEB0E1F6F000E206FCC
:104A70009DEC3CF0FAD0FBD8F8D0F7EC47F0F5D03D
:104A8000070E0401EF6FF06BBDEC48F0EED0060EA0
:104A90000401EF6FF06BBDEC48F0E7D0050E0401A8
:104AA000EF6FF06BBDEC48F0E0D0040E0401EF6F47
:104AB000F06BBDEC48F0D9D0030E0401EF6FF06B42
:104AC000BDEC48F0D2D0020E0401EF6FF06BBDECEC
:104AD00048F0CBD0010E0401EF6FF06BBDEC48F055
:104AE000C4D0E5EC49F0C1D051EC48F0BED004018F
:104AF000EF6BF06BBDEC48F0B8D00401ED6BEE6BE2
:104B000068EC48F0B2D0010E0401ED6FEE6B68EC7A
:104B100048F0ABD0020E0401ED6FEE6B68EC48F08C
:104B2000A4D0030E0401ED6FEE6B68EC48F09DD04D
:104B3000BEEC49F09AD0D7EC4DF097D055EC4DF043
:104B400094D06CEC4DF091D051EC4DF08ED052ECF5
:104B50004DF08BD053EC4DF088D00CEC4EF085D05E
:104B6000BAEC4CF082D050EC4CF07FD067EC4CF0BB
:104B70007CD083EC4CF079D08EEC4CF076D099EC74
:104B80004CF073D0A4EC4CF070D0AFEC4CF06DD086
:104B90003AEC4DF06AD03CEC4DF067D00401FD6B6F
:104BA000FE6B54EC4DF061D0010E0401FD6FFE6B05
:104BB00054EC4DF05AD0020E0401FD6FFE6B54EC24
:104BC0004DF053D00901D10E1E6FEB0E1F6F000E7A
:104BD000206F9DEC3CF049D00401F96BFA6B38EC86
:104BE0004DF043D0010E0401F96FFA6B38EC4DF033
:104BF0003CD0020E0401F96FFA6B38EC4DF035D061
:104C00000401FB6BFC6B39EC4DF02FD0010E04015D
:104C1000FB6FFC6B39EC4DF028D0020E0401FB6FEA
:104C2000FC6B39EC4DF021D0A9EC4DF01ED0C0EC5E
:104C30004DF01BD0040E03016C6F6D6B0301CC0EA5
:104C4000696FEB0E6A6F000E6B6F05018351E96EA1
:104C5000EA6AD890E936EA367F0EE926050EEA229E
:104C6000EE52EFCF68F324EC06F000D012000301FF
:104C70007E0E626F05018351E96EEA6AD890E936CB
:104C8000EA367F0EE926050EEA22EE52EFCF61F3F7
:104C9000D2EC04F000D012000501836B020E835D9C
:104CA0005AE28351E96EEA6AD890E936EA367F0E15
:104CB000E926050EEA22EF6A0301080E4D6F500E39
:104CC00003014B6F4C6B03014A6B0301466B476B4F
:104CD000486B496BB3EC02F0E66E05018351E96E57
:104CE000EA6AD890E936EA367F0EE926050EEA220E
:104CF000EE52E552E750EF6E1469156983517F0D4E
:104D0000F3CF00F0F4CF01F0026A036AFE0E002632
:104D10001E0E0122000E0222032200C0DEF701C097
:104D2000DFF7C6EC99F0F3CF00FCF4CF01FC7F0E67
:104D30000701F56FF66B0701000EF36F050EF46FB8
:104D4000C3EC9BF000CCDEF701CCDFF7C6EC99F0AA
:104D50000501832BA3D7836B12000C01866B020E17
:104D6000865D01E385D08651E96EEA6AD890E9361E
:104D7000EA367F0EE926050EEA22EE52EF50FE08D3
:104D800001E173D08651E96EEA6AD890E936EA36D5
:104D90007F0EE926050EEA22EE52EFCF4EF38BECA2
:104DA00003F000093BE086CC04F963D80501835188
:104DB000E96EEA6AD890E936EA367F0EE926050EF2
:104DC000EA22EF6AFF0E145D06E014C5D6F066EC29
:104DD0005DF005011469FF0E155D06E015C5D6F0FE
:104DE00066EC5DF0050115690301040EBE6F030159
:104DF000BC6BBD6B010E0301BA6FBB6B0501835128
:104E0000E96EEA6AD890E936EA367F0EE926050EA1
:104E1000EA22EE52EFCFB9F349EC21F00C018651B2
:104E2000E96EEA6AD890E936EA367F0EE926050E81
:104E3000EA22EF5016E18651E96EEA6AD890E93627
:104E4000EA367F0EE926050EEA22EE52EFCF77F31F
:104E500095EC07F0F3CF00F0F4CF01F00050011013
:104E600004E086CC04F905D863D80C01862B77D7EB
:104E70001200050183510901045D01E158D00501CB
:104E800083517F0DF3CF00F0F4CF01F0026A036A83
:104E9000FE0E00261E0E0122000E0222032200C07A
:104EA000DEF701C0DFF7C6EC99F0F3CF00FCF4CFDA
:104EB00001FC7F0E0701F56FF66B0701000EF36F23
:104EC000050EF46FC3EC9BF000CCDEF701CCDFF7EE
:104ED000C6EC99F0090104517F0DF3CF00F0F4CF37
:104EE00001F0026A036AFE0E00261E0E0122000E69
:104EF0000222032200C0E0F701C0E1F7D4EC99F0F0
:104F0000F3CF00FCF4CF01FC7F0E0701F06FF16BD3
:104F10000701000EEE6F050EEF6F8BEC9BF000CCDF
:104F2000E0F701CCE1F7D4EC99F004C983F5120065
:104F30000C01010E736F05018351E96EEA6AD89086
:104F4000E936EA367F0EE926050EEA22EF500B0A13
:104F500002E1AEEF33F0010A02E171EF33F0030A30
:104F600002E13CEF33F0010A02E1B9EF31F00F0A40
:104F700002E19CEF2FF0010A02E165EF2FF0030A36
:104F800002E129EF2EF0010A02E116EF2EF0070AE6
:104F900002E1BDEF2DF0010A02E1EFEF2BF0030A71
:104FA00067E0010A02E0DCEF33F08351E96EEA6A60
:104FB000D890E936EA367F0EE926050EEA22EE524F
:104FC000EFCF77F395EC07F0F3CF6DFCF4CF6EFCE9
:104FD0000C016D516E114AE005011A0E106F050E9D
:104FE000116F8351E96EEA6AD890E936EA367F0E8E
:104FF000E926050EEA22010EEF6E1769166BC2EC68
:10500000D2F01EC008F51FC009F520C00AF521C066
:105010000BF58A0E05010827F00E09231B0E0A2343
:10502000000E0B230C690D690E690F69006B016B93
:10503000026B036B7E6B0301050EBE6F0301BC6B3D
:10504000BD6B010E0301BA6FBB6B05018351E96EA5
:10505000EA6AD890E936EA367F0EE926050EEA229A
:10506000EE52EFCFB9F349EC21F002D0DCEF33F090
:105070000301A66B0301A46BA56B0301A26BA36BD9
:1050800003010A0EA16F05018351E96EEA6AD89007
:10509000E936EA367F0EE926050EEA22EE52EFCF18
:1050A000A0F378EC0DF0F3CF00F0F4CF01F00001A5
:1050B000001C01E1011C65E105018351E96EEA6A0A
:1050C000D890E936EA367F0EE926050EEA22EE523E
:1050D000EFCF80F3DCEC08F0F3CF00F0F4CF01F079
:1050E0000050011011E10501050E186F8351E96EA2
:1050F000EA6AD890E936EA367F0EE926050EEA22FA
:10510000070EEF6E0C01736BC2ECD2F00501085173
:105110001E5C006E09511F58016E0A512058026E24
:105120000B512158036E0334000E031809E6D88092
:10513000000E0054000E0154000E0254000E0354E1
:105140001EE28351E96EEA6AD890E936EA367F0EAC
:10515000E926050EEA22EE52EFCF50F3B9EC03F048
:1051600005018351E96EEA6AD890E936EA367F0E86
:10517000E926050EEA220B0EEF6E0C01736BDCEFD5
:1051800033F0C2ECD2F01EC008F51FC009F520C0F4
:105190000AF521C00BF58A0E05010827F00E092338
:1051A0001B0E0A23000E0B230301A66B0301A46B45
:1051B000A56B0301A26BA36B0301200EA16F050178
:1051C0008351E96EEA6AD890E936EA367F0EE9261D
:1051D000050EEA22EE52EFCFA0F378EC0DF0F3CFFC
:1051E0006DFCF4CF6EFC0C01050ED8806D55000EE1
:1051F0006E5503E2050E6D6F6E6B010E6D2503019A
:105200007E6F000E0C016E2103017F6F03011A0EE9
:105210007C6F050E7D6F05018351E96EEA6AD890B7
:10522000E936EA367F0EE926050EEA22EE52EFCF86
:105230007BF329EC08F0030EE66EE66AFA0EE66EE2
:10524000E40EE66E000EE66E1A0EE66E050EE66ED3
:10525000EBECB8F0006E070EE15E0050000903E1D0
:105260000501186B2CD0040EE66EE66AF50EE66EAC
:10527000E40EE66E000EE66E1A0EE66E050EE66EA3
:10528000EBECB8F0006E070EE15E0050000904E19F
:105290000501010E186F13D00501070E186F835119
:1052A000E96EEA6AD890E936EA367F0EE926050EFD
:1052B000EA22070EEF6E0C01736BDCEF33F0030193
:1052C000A66B0301A46BA56B0301A26BA36B030187
:1052D000200EA16F05018351E96EEA6AD890E93684
:1052E000EA367F0EE926050EEA22EE52EFCFA0F352
:1052F00078EC0DF0F3CF6DFCF4CF6EFC0301A66BE0
:105300006DCCA4F36ECCA5F30301A26BA36B0301D8
:105310003F0EA16F05018351E96EEA6AD890E93624
:10532000EA367F0EE926050EEA22EE52EFCFA0F311
:1053300078EC0DF0F3CF6FFCF4CF70FC0C016F51E3
:105340006D5D70516E5901E204D06FCC6DFC70CC74
:105350006EFC590ED8806D55000E6E5513E2050196
:10536000050E186F8351E96EEA6AD890E936EA367D
:105370007F0EE926050EEA22070EEF6E0C01736B15
:10538000DCEF33F06DCC7EF36ECC7FF303011A0EAD
:105390007C6F050E7D6F05018351E96EEA6AD89036
:1053A000E936EA367F0EE926050EEA22EE52EFCF05
:1053B0007BF329EC08F0F3CF6FFCF4CF70FC1A0EEE
:1053C0000C016F25E96E050E7021EA6EEF6A090186
:1053D0001A0E066F050E076F42EC37F01A0EE66ED6
:1053E000050EE66E3DECBAF0E552E552F3CF6FFCE8
:1053F000F4CF70FC0B0EE66EE66AEA0EE66EE40E83
:10540000E66E000EE66E1B0EE66E050EE66EEBEC2B
:10541000B8F0006E070EE15E0050000920E10401C3
:105420001B0E8A6F050E8B6F46EC3DF00501176F62
:10543000185103E1080E186F02D0090E186F83513E
:10544000E96EEA6AD890E936EA367F0EE926050E5B
:10545000EA22020EEF6E0C01736BDCEF33F06FCCBF
:10546000E9FF70CCEAFFE906000EEA5A1A0EE926B7
:10547000050EEA22EF502F0809E000011B0ECF6F46
:10548000050ED06F4BEC5AF00501146FFF0E0501AD
:10549000145D4CE16FCCE9FF70CCEAFFE906000E29
:1054A000EA5A1A0EE926050EEA22EF502F080EE0FE
:1054B0000C016FCCE9FF70CCEAFF6F2B000E70235C
:1054C0001A0EE926050EEA222F0EEF6EE00EE66EAA
:1054D000E40EE66E000EE66E1A0E0C016F25006EED
:1054E000050E7021016E00C0E6FF01C0E6FF24EC4E
:1054F000BAF0026E050EE15E0250E00EE66EE40EBA
:10550000E66E000EE66E4BECBAF0E552E552E5525F
:105510001F500C016F272050702300011B0ECF6F0E
:10552000050ED06F4BEC5AF00501146F1A0E0C01EA
:105530006F25746F050E7021756F010E745F000E7C
:10554000755B1A0E741902E1050E75190CE074CC26
:10555000E9FF75CCEAFFEF502E0801E104D0740793
:10556000000E755BEED7742B000E75230501196BC9
:105570000B0EE76E1919E8AE02D0E73402D0E750FF
:10558000195D42E2970E006EA70E016E010E026ECB
:1055900019C503F0046A056A03AE02D00468056801
:1055A000030E246E256A266A03C01FF004C020F093
:1055B00005C021F032ECD3F01CC003F01DC004F094
:1055C0001EC005F000500324F36E01500420F46E59
:1055D00002500520F86EF4CFF7FFF3CFF6FF090075
:1055E000F5CFC5F60900F5CFC6F60800F5CFC7F62A
:1055F00074CCC3F675CCC4F610EC85F0000901E15B
:1056000003D00501192BB4D704011B0E8A6F050EB8
:105610008B6F46EC3DF00501176FFF0E145D18E02F
:1056200014C5F2F0FDEC62F0F350020B11E014C56A
:10563000FDF02BEC65F0F3CFD4F0F4CFD5F0010EF4
:105640000001D427000ED523DDEC5CF00501156FB9
:105650000301A66B0301A46BA56B0301A26BA36BF3
:105660000301200EA16F05018351E96EEA6AD8900B
:10567000E936EA367F0EE926050EEA22EE52EFCF32
:10568000A0F378EC0DF0F3CF6DFCF4CF6EFC0C01C1
:105690006D516E115BE00501010E166F0301710E75
:1056A000796F0C0E7A6F05018351E96EEA6AD89022
:1056B000E936EA367F0EE926050EEA22EE52EFCFF2
:1056C00078F3D3EC07F00C016D07000E6E5B620EF1
:1056D0006D5D000E6E5913E30501050E186F8351C1
:1056E000E96EEA6AD890E936EA367F0EE926050EB9
:1056F000EA22070EEF6E0C01736BDCEF33F06DCC1A
:105700007EF36ECC7FF303011A0E7C6F050E7D6F66
:1057100005018351E96EEA6AD890E936EA367F0ED0
:10572000E926050EEA22EE52EFCF7BF329EC08F0D2
:10573000F35005011027F450112310C5E9FF11C5DE
:10574000EAFF102B000E1123260EEF6E0301A66B4D
:105750000301A46BA56B0301A26BA36B03010A0EEB
:10576000A16F05018351E96EEA6AD890E936EA36FD
:105770007F0EE926050EEA22EE52EFCFA0F378EC79
:105780000DF0F3CF6DFCF4CF6EFC010E0C016D2516
:1057900003017E6F000E0C016E2103017F6F030178
:1057A0007C6B7D6B05018351E96EEA6AD890E9361E
:1057B000EA367F0EE926050EEA22EE52EFCF7BF3A2
:1057C00029EC08F005018351E96EEA6AD890E936C0
:1057D000EA367F0EE926050EEA22020EEF6E03017D
:1057E000A66B0301A46BA56B0301A26BA36B030162
:1057F0000A0EA16F05018351E96EEA6AD890E93675
:10580000EA367F0EE926050EEA22EE52EFCFA0F32C
:1058100078EC0DF0F3CF6DFCF4CF6EFC0C016D1D38
:1058200001E16E1D64E105018351E96EEA6AD890D9
:10583000E936EA367F0EE926050EEA22EE52EFCF70
:1058400080F3DCEC08F0F3CF00F0F4CF01F000506F
:10585000011011E10501050E186F8351E96EEA6A26
:10586000D890E936EA367F0EE926050EEA22070EC1
:10587000EF6E0C01736BC2ECD2F0050108511E5C97
:10588000006E09511F58016E0A512058026E0B51CB
:105890002158036E0334000E031809E6D880000E69
:1058A0000054000E0154000E0254000E03541EE278
:1058B0008351E96EEA6AD890E936EA367F0EE92626
:1058C000050EEA22EE52EFCF50F3B9EC03F00501DA
:1058D0008351E96EEA6AD890E936EA367F0EE92606
:1058E000050EEA220B0EEF6E0C01736B44D1C2EC75
:1058F000D2F01EC008F51FC009F520C00AF521C06E
:105900000BF58A0E05010827F00E09231B0E0A234A
:10591000000E0B230C01010E6D1901E16E5127E100
:10592000020E03017E6F7F6B03017C6B7D6B0501B3
:105930008351E96EEA6AD890E936EA367F0EE926A5
:10594000050EEA22EE52EFCF7BF329EC08F00501B9
:105950008351E96EEA6AD890E936EA367F0EE92685
:10596000050EEA22030EEF6E0C01736B04D10301E6
:10597000A66B6DCCA4F36ECCA5F30301A26BA36B55
:1059800003013A0EA16F05018351E96EEA6AD890CE
:10599000E936EA367F0EE926050EEA22EE52EFCF0F
:1059A000A0F378EC0DF0F3CF6FFCF4CF70FC020E97
:1059B0000C016F27000E7023736B100ED8806F558B
:1059C000000E70551DE2010E6D2503017E6F000E65
:1059D0000C016E2103017F6F03017C6B7D6B050160
:1059E0008351E96EEA6AD890E936EA367F0EE926F5
:1059F000050EEA22EE52EFCF7BF329EC08F0EFD64A
:105A00006FCC7EF370CC7FF30301760E7C6F0C0EAF
:105A10007D6F05018351E96EEA6AD890E936EA366E
:105A20007F0EE926050EEA22EE52EFCF7BF329EC3A
:105A300008F06FCCE9FF70CCEAFFE906000EEA5AE5
:105A4000760EE9260C0EEA22EF6A0C016F516D5FAB
:105A500070516E5B726B7251006E016A030E005CD6
:105A6000000E015849E2090E006EA80E016E010EEB
:105A7000026E72CC03F0046A056A030E246E256A76
:105A8000266A03C01FF004C020F005C021F032ECEC
:105A9000D3F01CC003F01DC004F01EC005F0005080
:105AA0000324F36E01500420F46E02500520F86EBA
:105AB000F4CFF7FFF3CFF6FF0900F5CFE6FF0900BB
