:020000040000fa
:080000000002040000000000f2
:020000040000fa
:10040000cfc820000e7f22000e01880000000000ef
:100410000c00070040b62700010020001100070073
:10042000000020000000e000020032000000020096
:1004300000000000b84b0200000000000040da009d
:100440000000fe004440a90000b120000000e000d0
:100450000300320000002000a00188004440a800f2
:100460000000060091018800800078000000eb0089
:1004700015003700e280400032a0b4009101ba00bc
:10048000e280400032a0b4009102ba00e280400055
:1004900032a0b4000002eb00472bde00f507b200eb
:1004a000602ce10004003a000059eb008301e900f0
:1004b000fdff3e00040037006128e100010032002a
:1004c0000082eb00040007001101ba000200e00006
:1004d000e8ff3a00000006003159ba008301e90044
:1004e0000c0032002159ba008301e90008003200f3
:1004f0000400e00003003a00e280400032a0b400b3
:10050000f5ff370011d9ba008301e900faff3a007c
:100510008100e800e180400032a0b4000000060045
:100520000040da000000fe000800fa00889fbe00cc
:100530008a9fbe0084bf9f0095bf9f00a6bf9f00fb
:10054000b7bf9f003004be002005be000fba970061
:100550009fba97002fbb9700bfbb970004044400cd
:1005600085844c0006054d0087854d000898be0027
:100570000a90be000440e10005c8e10006d0e10099
:1005800007d8e10002003100680040001008e800d0
:100590004f05be004f04be000080fa0000000600b8
:1005a000fe874700889fbe008a9fbe008c9fbe00ca
:1005b0008e1f7800d0b79f00e1b79f00f2b79f0071
:1005c00083bf9f0084b79f0095b79f00a6b79f0089
:1005d000b7b79f008000eb00f1af9f00e1af9f0035
:1005e000d1af9f00c1af9f00b1af9f00010678005f
:1005f0000d042000ccb79f000605be000404be0019
:100600007fae97006faf97005fa89700e00f56008e
:100610000f003d00cf71de000c0146000281710029
:10062000f2af9f005d0007004f20de008180400098
:1006300081007000640007000802be000a03be00cb
:1006400060fd2f000f004000b7ff07001d003700be
:10065000520007004f21de008180400081007100c0
:10066000590007003faa9700cfaa97005fab9700f9
:10067000efab97000800520089805a000a015b0026
:100680008b815b00b0af9f00c1af9f00d2af9f00d6
:10069000e3af9f004f70de000c01460002007000c7
:1006a000130020000820e10009a8e1000ab0e100e1
:1006b0000bb8e100010039008001eb00030050009d
:1006c000f0af9f007fae9700e00f56000f0035009f
:1006d00010002000010020006011b8005fb29700f8
:1006e000efb297007fb397008fbb970004027000b2
:1006f000858270000603710087837100d4b79f0064
:10070000e5b79f00f6b79f0087bf9f00cfb2970065
:100710008502e800c5b79f008d8f5200b8ff3a00f0
:100720000c017800e00f510007003d000fb2970068
:100730009fb297002fb39700bfb3970060fd2f00c3
:100740000f00400078ff0700ffa09700e08f5000e7
:1007500008003a003fac9700cfac97005fad970020
:10076000efad9700d8b79f00e9b79f00fab79f0099
:100770008bbf9f005fb09700efb097007fb19700ed
:100780008fb997004f0778004f06be004f05be0097
:100790004f04be00ef01b100000006004f01de0073
:1007a0008e00470081007100c1af9f00afa8970085
:1007b0004f09de000000400000007100b0af9f0054
:1007c0001faa970000000600a1af9f000e000700bf
:1007d0004f18de00040242000002720094af9f0036
:1007e0000900070000004000818048000201490024
:1007f00083814900b0b79f00c1b79f00d2b79f0067
:10080000e3b79f00000006001fb09700afb097004d
:100810003fb19700cfb1970000000600881f780015
:1008200018002000881f78005dff07008f87e9000f
:100830004f04780000000600801feb0058ff0700ff
:100840008f87e90000000600889fbe008a9fbe00d7
:100850008c1f78006044b8006055b8000800e100c3
:100860000988e1000a90e1000b98e1000d003d00cd
:100870000000540081805c0002015d0083815d0006
:100880001c0020000820e10009a8e1000ab0e100f6
:100890000bb8e1000b003d00210007000006eb0053
:1008a000080037000006eb00e00f5200e08f5a000e
:1008b000e00f5b00e08f5b0002003d0018000700c6
:1008c0001c002000d5ff0700800578000105780096
:1008d00082047800030478000b0278008a02780012
:1008e0000903780088037800e00f56000600320004
:1008f0006000b8006011b800040250008582580002
:1009000006035900878359000400be000601be009b
:100910004f0678004f05be004f04be0000000600e1
:100920000402540085825c0006035d0087835d003d
:1009300000000600889fbe008a9fbe008c1f7800c2
:100940006044b8006055b8000800e1000988e10083
:100950000a90e1000b98e1000b003d0000005400fc
:1009600081805c0002015d0083815d001c0020002d
:100970000820e10009a8e1000ab0e1000bb8e1009d
:100980000b003d00060037000006eb00e00f5200b0
:10099000e08f5a00e00f5b00e08f5b0004003d0039
:1009a0000402540085825c0006035d0087835d00bd
:1009b000a1ff070080057800010578008204780017
:1009c000030478000b0278008a027800090378009b
:1009d00088037800e00f5600060032006000b8007f
:1009e0006011b800040250008582580006035900c7
:1009f000878359000400be000601be004f06780040
:100a00004f05be004f04be0000000600889fbe00d8
:100a10008a9fbe008c1f78000006eb00e00f50009c
:100a2000e08f5800e00f5900e08f590007003d00ab
:100a30006044b8006055b8000000540081805c003c
:100a400002015d0083815d001c002000e00f520068
:100a5000e08f5a00e00f5b00e08f5b0007003d0075
:100a60006044b8006055b8000402540085825c0000
:100a700006035d0087835d000c00a20010000700e4
:100a80000203be000002be00e00f56000600320066
:100a90006000b8006011b800040250008582580060
:100aa00006035900878359000400be000601be00fa
:100ab0004f0678004f05be004f04be000000060040
:100ac000889fbe008a9fbe008c9fbe000404b800b1
:100ad0000506b8008904460060854e000606b80089
:100ae0000a054600e0854e000706b8008b05460063
:100af000040eb800890446000a854e00e0854d00ca
:100b0000050eb8000a0546008b854e00060eb8009b
:100b10008b0546000416b8000a0546008b854e007a
:100b20000516b8008b054600041eb8008b0546006c
:100b30000800be000a01be004f06be004f05be0001
:100b40004f04be0000000600889fbe008a9fbe00c2
:100b500001c2b3003044780080047800814f540013
:100b6000fcff3200e94f5400faff3200d0c2b3005c
:100b7000804f540003003a00394478001ac0b30093
:100b8000050037000045eb00b0c2b300804f5400b1
:100b900001003a00394478006022b8000bcdb30060
:100ba0000b003700a2002000030020000400be005c
:100bb000600007000001be000b4244000482fb00fd
:100bc0000500200004024100858249003944780074
:100bd0000880fb000003b100e90f5000f1ff360070
:100be000e04f55000200320060021200e0821a005d
:100bf0000400be004f05be004f04be00000006000a
:100c0000e68747008e1f7800d0bf9f006687570099
:100c1000012f78000e0037005fba9700144078006b
:100c2000efb99700934078000201e900814f50002e
:100c3000040032000080fb008180fb0001005000b6
:100c4000060037000402e800d4bf9f00030fe8004d
:100c5000e00f5100f0ff3a00020078004f077800e3
:100c60006f00b1000000060080017800020037002c
:100c7000b15978000201e900e00f5100fcff3a0091
:100c800000000600800178000200370081597800da
:100c90000201e900e00f5100fcff3a0000000600ed
:100ca000b041780031c1510002003a0082cf5100ba
:100cb000fbff3a000200fb00000006008001780004
:100cc0003141780082597800e04f5100fcff3a0032
:100cd00000000600800078000041eb00b14f1100d9
:100ce000fdff3a000080ea0000804000000006009e
:100cf00080017800060037000201e900b142780067
:100d00008559780003027800e0cf520006003200d7
:100d100003027800e00f5100f7ff3a0002003700ad
:100d2000005aeb000201e900e00f5100fcff3a001d
:100d300000000600020ab900001bb9000200b8005a
:0c0d40008100420081004300000006001a
:020000040000fa
:020000040002f8
:04aff800fdfb00005d
:020000040000fa
:020000040002f8
:04affc007f3f000093
:020000040000fa
:100008009002000090020000ee490000f449000050
:100018009002000090020000900200009002000090
:10002800900200009002000090020000d0790000c9
:100038009002000090020000900200009002000070
:100048009002000090020000900200009002000060
:100058009002000090020000900200009002000050
:100068009002000090020000900200009002000040
:100078009002000090020000900200009002000030
:100088009002000090020000900200009002000020
:100098009002000090020000900200009002000010
:1000a8009002000090020000900200009002000000
:1000b80090020000900200009002000090020000f0
:1000c80090020000900200009002000090020000e0
:1000d80090020000900200009002000090020000d0
:1000e80090020000900200009002000090020000c0
:1000f80090020000900200009002000090020000b0
:10010800900200009002000090020000900200009f
:10011800900200009002000090020000900200008f
:10012800900200009002000090020000900200007f
:10013800900200009002000090020000900200006f
:10014800900200009002000090020000900200005f
:10015800900200009002000090020000900200004f
:10016800900200009002000090020000900200003f
:10017800900200009002000090020000900200002f
:10018800900200009002000090020000900200001f
:10019800900200009002000090020000900200000f
:1001a80090020000900200009002000090020000ff
:1001b80090020000900200009002000090020000ef
:1001c80090020000900200009002000090020000df
:1001d80090020000900200009002000090020000cf
:1001e80090020000900200009002000090020000bf
:0801f8009002000090020000db
:020000040000fa
:100208009002000090020000ee490000f44900004e
:10021800900200009002000090020000900200008e
:10022800900200009002000090020000d0790000c7
:10023800900200009002000090020000900200006e
:10024800900200009002000090020000900200005e
:10025800900200009002000090020000900200004e
:10026800900200009002000090020000900200003e
:10027800900200009002000090020000900200002e
:10028800900200009002000090020000900200001e
:10029800900200009002000090020000900200000e
:1002a80090020000900200009002000090020000fe
:1002b80090020000900200009002000090020000ee
:1002c80090020000900200009002000090020000de
:1002d80090020000900200009002000090020000ce
:1002e80090020000900200009002000090020000be
:1002f80090020000900200009002000090020000ae
:10030800900200009002000090020000900200009d
:10031800900200009002000090020000900200008d
:10032800900200009002000090020000900200007d
:10033800900200009002000090020000900200006d
:10034800900200009002000090020000900200005d
:10035800900200009002000090020000900200004d
:10036800900200009002000090020000900200003d
:10037800900200009002000090020000900200002d
:10038800900200009002000090020000900200001d
:10039800900200009002000090020000900200000d
:1003a80090020000900200009002000090020000fd
:1003b80090020000900200009002000090020000ed
:1003c80090020000900200009002000090020000dd
:1003d80090020000900200009002000090020000cd
:1003e80090020000900200009002000090020000bd
:0803f8009002000090020000d9
:020000040000fa
:100d4c006865000061640000657200002e69000097
:100d5c006e630000006600006f6f00007465000099
:100d6c00722e0000696e0000630000002144000038
:100d7c0045460000004700004554000000500000ac
:100d8c004f530000540000006d70000066730000ab
:100d9c00757000006c6f0000616400000069000059
:100dac006e640000657800002e680000746d000011
:100dbc00000d00000a0d00000a0000000d0a0000e2
:100dcc000d0a00004d5000004653000002010000c7
:100ddc00000d00000a0d00000a3300003034000042
:100dec002052000065640000697200006563000019
:100dfc00743a000020000000436f00006e74000085
:100e0c00656e0000742d00005479000070650000c0
:100e1c003a200000004300006f6e00007465000073
:100e2c006e7400002d4500006e6300006f640000be
:100e3c00696e0000673a0000206700007a690000c4
:100e4c00700d00000a0000004361000063680000a0
:100e5c00652d0000436f00006e740000726f00007f
:100e6c006c3a0000200000006e6f00002d63000043
:100e7c006163000068650000006d0000617800008f
:100e8c002d610000676500003d0000003630000059
:100e9c0030000000747800007400000068740000da
:100eac006d000000687400006d6c000000630000b1
:100ebc0067690000007800006d6c000000630000a2
:100ecc00737300000067000069660000007000008a
:100edc006e670000006a000070670000006300008d
:100eec006c610000007700006176000000000000db
:100efc000000000000000000508700005487000034
:100f0c00588700005d87000061870000658700003e
:100f1c00698700006d8700007187000075870000ed
:100f2c00798700007d870000436f00006f6b000025
:100f3c00696500003a00000041750000746800000b
:100f4c006f720000697a000061740000696f000024
:100f5c006e3a0000004300006f6e000074650000e4
:100f6c006e7400002d4c0000656e0000677400006c
:100f7c00683a0000000000009a870000a287000079
:100f8c00b187000048540000545000002f3100007d
:100f9c002e3100002032000030300000204f0000c5
:100fac004b0d00000a4300006f6e00006e650000e0
:100fbc0063740000696f00006e3a0000206300004b
:100fcc006c6f0000736500000d0a00000048000003
:100fdc0054540000502f0000312e0000312000002e
:100fec00343000003020000042610000642000001a
:100ffc00526500007175000065730000740d0000ef
:10100c000a4300006f6e00006e6500006374000000
:10101c00696f00006e3a0000206300006c6f0000e6
:10102c00736500000d0a00000d0a0000343000004a
:10103c003020000042610000642000005265000076
:10104c007175000065730000743a000020630000a5
:10105c00616e00002774000020680000616e0000c3
:10106c00646c000065200000436f00006e7400008b
:10107c00656e0000742d00004c6500006e6700006a
:10108c00746800000d0a0000004800005454000071
:10109c00502f0000312e00003120000034300000b1
:1010ac0031200000556e000061750000746800006e
:1010bc006f720000697a0000656400000d0a000080
:1010cc0057570000572d0000417500007468000050
:1010dc00656e0000746900006361000074650000b7
:1010ec003a20000042610000736900006320000098
:1010fc0072650000616c00006d3d00002250000024
:10110c00726f000074650000637400006564000079
:10111c00220d00000a4300006f6e00006e65000097
:10112c0063740000696f00006e3a000020630000d9
:10113c006c6f0000736500000d0a00000d0a0000c2
:10114c003430000031200000556e00006175000045
:10115c00746800006f720000697a0000656400001a
:10116c003a2000005061000073730000776f00009c
:10117c007264000020720000657100007569000047
:10118c0072650000640d00000a0000004854000065
:10119c00545000002f3100002e310000203400008c
:1011ac0030340000204e00006f74000020660000f8
:1011bc006f7500006e6400000d0a0000436f0000a4
:1011cc006e6e000065630000746900006f6e0000b5
:1011dc003a200000636c00006f730000650d000086
:1011ec000a4300006f6e0000746500006e7400000e
:1011fc002d54000079700000653a00002074000046
:10120c0065780000742f0000687400006d6c00009d
:10121c000d0a00000d0a000034300000343a0000c2
:10122c0020460000696c0000652000006e6f000015
:10123c0074200000666f0000756e0000643c0000b6
:10124c00627200003e55000073650000203c0000f7
:10125c006120000068720000656600003d220000fd
:10126c002f6d00007066000073750000706c00003c
:10127c006f610000642200003e4d000050460000eb
:10128c0053200000557000006c6f0000616400007a
:10129c003c2f0000613e0000207400006f20000015
:1012ac00707200006f670000726100006d2000001a
:1012bc007765000062200000706100006765000027
:1012cc00730d00000a000000485400005450000048
:1012dc002f3100002e31000020340000313400008a
:1012ec0020520000657100007565000073740000e9
:1012fc002d55000052490000205400006f6f000073
:10130c00204c00006f6e0000670d00000a430000c7
:10131c006f6e00006e65000063740000696f000062
:10132c006e3a0000206300006c6f000073650000d3
:10133c000d0a00000d0a00003431000034200000ba
:10134c00526500007175000065730000742d00007b
:10135c005552000049200000546f00006f2000001f
:10136c004c6f00006e6700003a20000042750000d0
:10137c006666000065720000206f00007665000054
:10138c00726600006c6f000077200000646500003e
:10139c007465000063740000656400000d0a0000b1
:1013ac000048000054540000502f0000312e000063
:1013bc00312000003530000030200000496e000064
:1013cc0074650000726e0000616c00002053000018
:1013dc006572000076650000722000004572000006
:1013ec00726f0000720d00000a4300006f6e000067
:1013fc006e65000063740000696f00006e3a0000b7
:10140c00206300006c6f0000736500000d0a000083
:10141c000d0a00003530000030200000496e00003d
:10142c0074650000726e0000616c000020530000b7
:10143c0065720000766500007220000045720000a5
:10144c00726f0000723a00002045000078700000b6
:10145c006563000074650000642000006461000096
:10146c0074610000206e00006f740000207000009a
:10147c0072650000736500006e7400000d0a0000b8
:10148c000048000054540000502f0000312e000082
:10149c003120000035300000312000004e6f00007c
:1014ac0074200000496d0000706c0000656d000038
:1014bc00656e000074650000640d00000a430000b6
:1014cc006f6e00006e65000063740000696f0000b1
:1014dc006e3a0000206300006c6f00007365000022
:1014ec000d0a00000d0a000035300000312000000c
:1014fc004e6f000074200000496d0000706c0000fd
:10150c00656d0000656e000074650000643a0000b3
:10151c00204f00006e6c0000792000004745000051
:10152c0054200000616e000064200000504f000049
:10153c00535400002073000075700000706f0000a1
:10154c0072740000656400000d0a00000048000081
:10155c0054540000502f0000312e000031200000a8
:10156c0032300000302000004f4b00000d0a00000c
:10157c00436f00006e6e000065630000746900002c
:10158c006f6e00003a200000636c00006f73000067
:10159c00650d00000a4300006f6e000074650000ca
:1015ac006e7400002d54000079700000653a000044
:1015bc002074000065780000742f0000687400002f
:1015cc006d6c00000d0a00000d0a00003c68000064
:1015dc00746d00006c3e00003c6200006f64000003
:1015ec007920000073740000796c0000653d0000e8
:1015fc00226d000061720000676900006e3a000005
:10160c003130000030700000782200003e3c0000b9
:10161c00666f0000726d0000206d000065740000a4
:10162c00686f0000643d0000706f00007374000070
:10163c002061000063740000696f00006e3d0000c3
:10164c00222f00006d7000006673000075700000a2
:10165c006c6f00006164000022200000656e0000c9
:10166c006374000079700000653d0000226d00007d
:10167c00756c0000746900007061000072740000e9
:10168c002f6600006f7200006d2d00006461000079
:10169c0074610000223e00003c6200003e4d0000e0
:1016ac005046000053200000496d000061670000a7
:1016bc0065200000557000006c6f00006164000034
:1016cc003c2f0000623e00003c7000003e3c0000dd
:1016dc00696e0000707500007420000074790000c1
:1016ec00706500003d660000696c0000652000001c
:1016fc006e6100006d6500003d6900002073000004
:10170c00697a0000653d0000343000003e20000086
:10171c00266e000062730000703b0000203c00004d
:10172c00696e000070750000742000007479000070
:10173c00706500003d730000756200006d6900006b
:10174c0074200000766100006c750000653d00009f
:10175c0022550000706c00006f61000064220000d4
:10176c003e3c00002f6600006f7200006d3e0000d2
:10177c003c2f0000626f0000647900003e3c0000ca
:10178c002f680000746d00006c3e0000000000002b
:10179c0048540000545000002f3100002e3100003e
:1017ac002032000030300000204f00004b0d0000b4
:1017bc000a4300006f6e00006e6500006374000049
:1017cc00696f00006e3a0000206300006c6f00002f
:1017dc00736500000d0a0000436f00006e7400007a
:1017ec00656e0000742d00005479000070650000d7
:1017fc003a20000074650000787400002f68000027
:10180c00746d00006c0d00000a0d00000a3c000015
:10181c00687400006d6c00003e3c0000626f0000bc
:10182c006479000020730000747900006c6500007e
:10183c003d2200006d61000072670000696e0000bf
:10184c003a3100003030000070780000223e000079
:10185c003c6200003e4d000050460000532000004a
:10186c005570000064610000746500002053000096
:10187c0075630000636500007373000066750000fb
:10188c006c3c00002f6200003e3c0000703e0000eb
:10189c003c6100002068000072650000663d00009d
:1018ac00222f0000223e00005369000074650000e6
:1018bc00206d0000616900006e2000007061000066
:1018cc00676500003c2f0000613e00003c2f0000cb
:1018dc00626f0000647900003e3c00002f6800003d
:1018ec00746d00006c3e0000004800005454000071
:1018fc00502f0000312e0000312000003530000048
:10190c0030200000496e000074650000726e00000b
:10191c00616c0000205300006572000076650000c9
:10192c007220000045720000726f0000720d000002
:10193c000a4300006f6e00006e65000063740000c7
:10194c00696f00006e3a0000206300006c6f0000ad
:10195c00736500000d0a0000436f00006e740000f8
:10196c00656e0000742d0000547900007065000055
:10197c003a20000074650000787400002f680000a5
:10198c00746d00006c0d00000a0d00000a3c000094
:10199c00687400006d6c00003e3c0000626f00003b
:1019ac006479000020730000747900006c650000fd
:1019bc003d2200006d61000072670000696e00003e
:1019cc003a3100003030000070780000223e0000f8
:1019dc003c6200003e4d00005046000053200000c9
:1019ec00496d00006167000065200000436f000036
:1019fc007272000075700000742000006f7200009d
:101a0c0020570000726f00006e6700002056000027
:101a1c0065720000736900006f6e00003c2f0000bf
:101a2c00623e00003c7000003e3c00006120000063
:101a3c0068720000656600003d2200002f6d0000fa
:101a4c007066000073750000706c00006f61000020
:101a5c00642200003e5400007279000020610000f6
:101a6c0067610000696e00003f3c00002f610000c0
:101a7c003e3c00002f6200006f640000793e0000c5
:101a8c003c2f0000687400006d6c00003e000000ec
:101a9c0048540000545000002f3100002e3100003b
:101aac002033000030320000204600006f7500002b
:101abc006e6400000d0a0000436f00006e6e0000a3
:101acc0065630000746900006f6e00003a2000002e
:101adc00636c00006f730000650d00000a4c000081
:101aec006f63000061740000696f00006e3a0000c3
:101afc002000000048540000545000002f3100001a
:101b0c002e3100002034000030330000204600004d
:101b1c006f7200006269000064640000656e000072
:101b2c000d0a0000436f00006e6e0000656300003c
:101b3c00746900006f6e00003a200000636c0000b6
:101b4c006f730000650d00000a0d00000a340000e0
:101b5c0030330000204600006f7200006269000004
:101b6c0064640000656e00003a20000053530000ce
:101b7c004c20000052650000717500006972000075
:101b8c0065640000202d00002075000073650000c6
:101b9c002048000054540000505300000d0a00006f
:101bac0000000000c8870000c8870000ed87000017
:101bbc004b880000cc8800006a890000d78900009f
:101bcc00478a0000ad8a0000cd8b0000ce8b000050
:101bdc007b8c00004e8d0000808d00000d0a0000f3
:101bec000074000065780000742f0000706c000019
:101bfc00616900006e0000007465000078740000dc
:101c0c002f680000746d00006c000000746500000b
:101c1c00787400002f7800006d6c000000740000d8
:101c2c0065780000742f00006373000073000000df
:101c3c00696d000061670000652f00006769000096
:101c4c0066000000696d000061670000652f0000f0
:101c5c00706e000067000000696d00006167000095
:101c6c00652f00006a7000006567000000610000cd
:101c7c00707000006c690000636100007469000002
:101c8c006f6e00002f6a000061760000612d00006d
:101c9c00766d00000061000075640000696f000043
:101cac002f7800002d7700006176000065000000a1
:101cbc00f78d0000028e0000028e0000028e0000e4
:101ccc000c8e0000158e00001e8e0000288e000069
:101cdc00328e00003d8e0000518e0000cd8b000036
:101cec0020200000202000002020000020200000e8
:101cfc0020200000202000002020000020200000d8
:101d0c0020200000202000002020000020200000c7
:101d1c0020200000202000002020000020200000b7
:101d2c00005300004f4c00004400000056650000ba
:101d3c006e640000005700006562000056650000ec
:101d4c006e64000020440000656d00006f200000f0
:101d5c0041700000702000002020000020200000b6
:101d6c002020000020200000202000002020000067
:101d7c002020000020000000436f00006c61000078
:101d8c00004400006965000074200000436f0000ef
:101d9c006c610000005200006f6f000074200000a6
:101dac004265000065720000004f00007261000087
:101dbc006e670000650000004c6500006d6f000050
:101dcc006e6100006465000000490000636500005e
:101ddc0064200000546500006100000057610000a1
:101dec00746500007200000042750000696c000010
:101dfc00646900006e67000020430000342000007e
:101e0c002d200000326e000064200000466c0000a3
:101e1c006f6f0000722000004e570000005700004a
:101e2c0045420000564500004e440000000d0000e5
:101e3c000a0d00000a42000055540000544f0000e7
:101e4c004e30000020680000656c0000642000002b
:101e5c00666f0000722000006d6f0000726500005c
:101e6c0020740000686100006e2000003420000027
:101e7c0073650000636f00006e640000732e000039
:101e8c00202000004465000066610000756c0000b5
:101e9c00742000007365000074740000696e00000b
:101eac00677300002072000065730000746f0000ff
:101ebc0072650000642e00000d0a00000d0a00007f
:101ecc0000200000436f0000696e000020520000eb
:101edc0065740000757200006e65000064210000de
:101eec00204d000061780000206300007265000046
:101efc006469000074200000697300002024000055
:101f0c00350000002020000020200000534f00006e
:101f1c004c440000204f00005554000020200000cd
:101f2c0020200000202000002020000020200000a5
:101f3c002020000020200000202000002020000095
:101f4c002020000000500000726900006365000052
:101f5c003a20000020240000202000002020000057
:101f6c00202000002043000072650000646900001e
:101f7c00743a0000202400002020000020200000e3
:101f8c00202000002000000020200000207600000f
:101f9c00656e0000646900006e6700002e2e000064
:101fac002e20000020200000202000002020000017
:101fbc002020000020200000202000002020000015
:101fcc002020000020200000000d00000a4e000020
:101fdc00657700002049000050200000416400009b
:101fec006472000065730000733a0000200000006a
:101ffc005765000062560000656e0000642000000a
:10200c00446500006d6f00002041000070700000fe
:10201c00000d00000a00000000040000a3000000f6
:10202c000000000078a400006ad7000056b700003a
:10203c00c7e80000db70000020240000eece00009a
:10204c00bdc10000af0f00007cf500002ac60000e7
:10205c00874700001346000030a8000001950000df
:10206c0046fd0000d898000080690000aff7000022
:10207c00448b0000b15b0000ffff0000bed70000e6
:10208c005c89000022110000906b0000937100002d
:10209c0098fd00008e43000079a600002108000086
:1020ac00b4490000622500001ef6000040b3000099
:1020bc0040c00000515a00005e260000aac7000074
:1020cc00b6e900005d1000002fd60000531400008c
:1020dc004402000081e60000a1d80000c8fb00000b
:1020ec00d3e70000e6cd0000e1210000d607000098
:1020fc0037c30000870d0000d5f40000ed1400007c
:10210c005a45000005e90000e3a90000f8a300000f
:10211c00effc0000d90200006f6700008a4c000041
:10212c002a8d000042390000faff000081f6000001
:10213c0071870000226100009d6d00000c380000ca
:10214c00e5fd000044ea0000bea40000a9cf000099
:10215c00de4b0000604b0000bbf6000070bc0000c2
:10216c00bfbe0000c67e00009b280000fa270000be
:10217c00a1ea000085300000efd40000051d00002e
:10218c008804000039d00000d4d90000e599000083
:10219c00dbe60000f87c0000a21f00006556000082
:1021ac00acc400004422000029f4000097ff00009a
:1021bc002a430000a723000094ab000039a00000c4
:1021cc0093fc0000c35900005b65000092cc00003a
:1021dc000c8f00007df40000efff0000d15d0000cb
:1021ec00848500004f7e0000a86f0000e0e6000030
:1021fc002cfe00001443000001a30000a1110000fc
:10220c00084e0000827e000053f7000035f20000fb
:10221c003abd0000bbd20000d72a000091d30000c9
:10222c0086eb0000070c000011160000070c0000e4
:10223c0011160000070c000011160000070c00001e
:10224c0011160000050900000e140000050900001d
:10225c000e140000050900000e1400000509000012
:10226c000e140000040b000010170000040b0000fb
:10227c0010170000040b000010170000040b0000e6
:10228c0010170000060a00000f150000060a0000d7
:10229c000f150000060a00000f150000060a0000ca
:1022ac000f1500000d0a00004448000043500000c8
:1022bc002f5000006f770000657200002065000051
:1022cc00766500006e740000206f000063630000f0
:1022dc007572000072650000640000007635000025
:1022ec002e340000320000004a7500006c20000003
:1022fc003139000020320000303100003220000063
:10230c00303000003a300000383a00003030000025
:10231c0000000000426f00006f7400006c6f000042
:10232c0061640000657200002052000065730000bb
:10233c00657400000000000008000000c8000000e8
:10234c00c800000008000000c8000000c800000021
:10235c004d50000046530000020100000000000038
:020000040000fa
:10236c008040780084ccbf00814f500018003200b0
:10237c00e24f400008003200e2c1b3000440bc0050
:10238c00c39d200003004100629920001d0009003c
:10239c0032587800e001b1008000fd0084ecb700f9
:1023ac008000fd00e2cf40000900320001407800bf
:1023bc00e2c1b3000440bc00c09d2000800041007d
:1023cc00629920001d00090031597800e101b1002b
:1023dc0000000600889fbe008a1f78000004780069
:1023ec00814278008204780004057800e0cf510027
:1023fc0015003200e1cf510029003a00e0cf520025
:10240c0007003200e1cf520025003a000a017800a3
:10241c000800be0034060200000000002000370057
:10242c00e10f44000300320008007800603e020017
:10243c00000000008a007800090078000e400200bd
:10244c00000000001600370083cf52000c00320051
:10245c00e1cf520012003a00e18f44000300320039
:10246c0009007800763e0200000000008a00780027
:10247c0008007800d63f020000000000080037007a
:10248c000a0178000800be003c3f0200000000007a
:10249c00a43f020000000000e00f5000fcff3200df
:1024ac004f0578004f04be000000060085ccbf002d
:1024bc0041c8200091407800814f50001700320035
:1024cc00e24f40000b003200e2c1b3000440bc00fc
:1024dc00fc024100c19d2000610079008002b10026
:1024ec008402200013c0b300429b2000e1c07a009c
:1024fc00b8ff070084ccbf0085ecb700b24c80005d
:10250c008202b10084022000239b200093417800ba
:10251c0011c0b300409b2000aeff07000000060076
:10252c00881f78000004780018007800d267020039
:10253c0000000000000c780018009000d267020028
:10254c00000000001004980028009000b8009000d3
:10255c00da670200000000002004980031049800a3
:10256c0048009000d8009000da67020000000000dc
:10257c00400498005104980078009000d267020043
:10258c00000000007004980008089000d267020058
:10259c0000000000000c980018089000d2670200a0
:1025ac0000000000100c98004f047800000006009a
:1025bc002600fa00889fbe008a1f780080447800ad
:1025cc0001457800b9ff0700618064000200320009
:1025dc00af69a8000904a100aea9a900aec9a90061
:1025ec00aee9a900af29a900af49a900af09a9001c
:1025fc00883c020000000000e00f5000fcff32009d
:10260c006684640054003a00e04c8000024e800066
:10261c00820f50004300320013003600314e800010
:10262c0002045000810f54000100360001047800b0
:10263c00c04e8000800f540002003600af49a80045
:10264c000004780008027800239b20009341780056
:10265c008040eb00600320005eff0700080078005c
:10266c00c029b4002f003700c14c8000828150007b
:10267c00a3b79f00b84c800008845100314e8000f5
:10268c0000044400810f540001003600010478005e
:10269c00c04e8000800f540002003600af49a800e5
:1026ac0000047800888f510001003600a8b79f0005
:1026bc002fb29700239b2000934178008040eb00c1
:1026cc006003200043ff07002fb297000402540060
:1026dc00a4b79f0009003200c04c80006003b0001a
:1026ec00014e800001005000239b20009341780094
:1026fc00b24c80008040eb0036ff0700004e80009b
:10270c0000004400004e8800c14c8000810f500036
:10271c0004003900b24c8000810051000080400060
:10272c00004e880000802000714d80000080600009
:10273c0007003200304e8000800f5400040032003d
:10274c00c04e8000800f5400010032000904a0002c
:10275c00e00f540003003a00e380640016003200de
:10276c000004eb0008007800c629b500e00f540007
:10277c00010032000934a00061056500040032003c
:10278c00da69ef0041422f00a14d8800b629ef0015
:10279c007679020000000000a24d8000b34d80004d
:1027ac000002410081824900244d8800354d88008b
:1027bc00ae89a8002f0037000a85fb006200650077
:1027cc00784d8000810f5000100032000840e80066
:1027dc006700600081ff2f00010464000004740096
:1027ec00784d88000080eb008080eb00c24d8000ab
:1027fc00d34d80000201400083814800c24d880007
:10280c00d34d8800180020001a00370070046400b3
:10281c00800f54001700320061056500800f5500d1
:10282c000b003a00dac9bf008a4f50000800320092
:10283c000040e900dae9b700a04d8000b14d8000fe
:10284c008100d1000080d300a04d8800b14d8800dc
:10285c007679020000000000a24d8000b34d80008c
:10286c000002410081824900244d8800354d8800ca
:10287c000004eb00254e8000b5b79f00104e800081
:10288c00c0b79f00c04d8000d14d8000d0b79f00d5
:10289c00e1b79f00e24d8000f34d8000f2b79f003e
:1028ac0083bf9f009fb99700f2ff23000281610054
:1028bc0003ff2f000301610092bf9f00b9f79f0037
:1028cc000001eb00c2bf9f0008014000e0814800fe
:1028dc00c24d8800d34d88008984fb00628564005a
:1028ec00140032007082640003003a006022b800c9
:1028fc00f4b79f0085bf9f00b44e80006202620057
:10290c000500320061005000e0805800d0b79f00f5
:10291c00e1b79f00070037001000200001002000e5
:10292c000202400083824800c44d8800d54d8800c7
:10293c00d629a800e184640001003200d609a80061
:10294c00004d8000114d8000810f500005003900b2
:10295c00d24c800082804000c24c800082805000ab
:10296c00010037008100e90000805000a0bf9f00eb
:10297c00bc3c020000000000f1032000810f50005d
:10298c0003003e008002eb00a5af9f000300370060
:10299c0001fc2f0081004000a1af9f002fa89700e1
:1029ac00afb89700808f500001003600a0bf9f0089
:1029bc007a805700dafe0700f40444001fb8970031
:1029cc00f2f02f00020060000005b30090bf9f00e2
:1029dc00e00f55000a003200f804440021c0b30097
:1029ec00e1d79f0041c0b300f1d79f0021802100a7
:1029fc00c1af9f00020060000006b30090bf9f00b3
:102a0c00c18c2000914078008180fb00d28c20008a
:102a1c00124178004811dd00e38c200093417800ce
:102a2c008381fb00cfc8bf004800dd0003007000ad
:102a3c0001017100d2af9f00e0af9f00524e8000a9
:102a4c00634e8000f2af9f0083b79f000040eb0005
:102a5c00a0e79f0068c0b300b8e79f00a9b79f002c
:102a6c0009007800d267020000000000a0b79f00a8
:102a7c00c1002000a0fd2f000f00400004680200e0
:102a8c0000000000000078000080ea008180ea006d
:102a9c00b0bf9f00e0002000603e0200000000007c
:102aac000901780088407800a09c20002277020061
:102abc0000000000410120007a8057000e40020007
:102acc0000000000e00f550005003200410020001e
:102adc0060fd2f000f0040000e40020000000000bf
:102aec0020022000763e0200000000000900780061
:102afc00ec3e020000000000a0af9f00200320006d
:102b0c00603e0200000000002100200040fd2f006c
:102b1c000f0040000e40020000000000fe3d0200cd
:102b2c00000000004f0578004f04be000080fa0042
:102b3c00000006000200fa00889fbe00c0002000c2
:102b4c00be77020000000000c83f02000000000039
:102b5c00000fb2004204de007444540080212000b7
:102b6c0038003200710020000000eb00d63f02005c
:102b7c000000000030003700c83f020000000000d9
:102b8c0080407800e0cf50002d0032000844e9006e
:102b9c00e1cf500028003200e2cf50001a003a007a
:102bac0080212000814f5400260036000000eb00ed
:102bbc00d0bf9f00c83f020000000000e44f50004f
:102bcc0006003a00c83f020000000000b0ff9f0062
:102bdc00c83f020000000000a0ff9f00dfb8970074
:102bec008021200072212000828f500015003600b9
:102bfc0001007800415b2000810f5000110036006d
:102c0c00010078000f003700e14f54000c00360033
:102c1c00c83f02000000000080447800894f540037
:102c2c00070039008980fb000000eb00d63f020052
:102c3c000000000009445400e04f5400ceff3a005d
:102c4c00802120004f04be000080fa000000060026
:102c5c0016fe0700c409f800b009f900b04c80005a
:102c6c00e04c8800f04c8800c14c8000014d88007d
:102c7c00114d8800724d800068016100d100200068
:102c8c000100320041002000614d8800ae09a9000e
:102c9c00ae29a900ae49a900ae89a900aea9a90028
:102cac00aec9a900aee9a900af09a900af29a900d6
:102cbc00af49a900af69a900af89a800d609a9003e
:102ccc00d629a900d669a900d689a900004e88008a
:102cdc007064020000000000c04d880070640200a7
:102cec0000000000d04d8800d4a9ef001000200097
:102cfc00304e880000000600889fbe008a1f7800b6
:102d0c0030648000e00f500007003a00ce640200ef
:102d1c0000000000f17f200001006000f13fb100d5
:102d2c000100400030648800c20320008000eb00ea
:102d3c0080a1200042060200000000000040eb00d1
:102d4c0087fd0700248d8400338d8400321a2900fe
:102d5c0012407800e04f500026003a000304420075
:102d6c0081612000010444002a9720008a0f54003e
:102d7c0035003e00b2e9b7008180e900b14c880013
:102d8c00010042000000e800c04c88000300400035
:102d9c00d04c8800d9002000694d8800ae69a9008c
:102dac00c2fd0700201a2900801f7800104078000f
:102dbc00dbe9b7004f007800a5ff070010c0b30097
:102dcc0067fd0700528d8400618d8400901a2900e4
:102ddc0010407800e04f500006003a00810141009d
:102dec00a302b000888141008a8f51000200360096
:102dfc0015003700ffff3700b2e9b7008802b000ba
:102e0c00b84c88000200e80008044000c84c880058
:102e1c0001044400d84c8800694d8800ae69a900b3
:102e2c00a2fd0700801a2900801f7800104078004e
:102e3c00dbe9b7004f00780085ff07004f057800ed
:102e4c004f04be0000000600ffff37000400fa002c
:102e5c00889fbe008a9fbe00a0bf9f00b1bf9f008d
:102e6c008244780003057800844578000040eb002c
:102e7c003bfd0700604d8000ed0f500004003a0050
:102e8c008afd0700dbc9bf008b4f50000c003200dd
:102e9c0010c0b30032fd0700e8cfb300604d8000d6
:102eac00ed0f500068003a0080fd0700dbc9bf0041
:102ebc008b4f500064003a0018c0b300010037007b
:102ecc000044eb0080212000c04e8800e0cf54006d
:102edc0006003a002a4e8800ae69a8004000200087
:102eec00604d88008a4d88005700370000c02f00c5
:102efc00860cb40081f82000810f500002003600cf
:102f0c00004020003064880030648000204e88002f
:102f1c000000e800306488001a4e880076790200c0
:102f2c0000000000204d8800314d8800ae89a800bb
:102f3c000982fb000500200061025200e0825a0069
:102f4c00e30f5200e08f5a003f003e000460010086
:102f5c000300370002003700100037002100370053
:102f6c002fb89700bfb89700504e8800614e88006c
:102f7c000914a2008984fb008904e900cf4cde000f
:102f8c00c24cdd00b04e80000020a1000900700092
:102f9c00b04e8800ac29ef002b0037003fb89700eb
:102fac00afb89700008040000a054000204e80001a
:102fbc0000056d008a4d88002fb89700bfb89700a8
:102fcc00504e8800614e8800da69ef00d103200072
:102fdc00a14d8800b629ef0020002000604d88002c
:102fec00190037002fb89700904078008181fb00c2
:102ffc00104190004811dd0003017100a0419000c8
:10300c008381fb00b0409000c808dd008380700015
:10301c00810041000a854000214e800001056d00b1
:10302c008a4d8800a19c200009000900b058780046
:10303c00a000b10050002000604d880011c0b3000a
:10304c0020c0b3005afd0700084078004f05be00b1
:10305c004f04be000080fa0000000600881f7800b4
:10306c0018002000e14f500008003e00bcfc070097
:10307c0000002100714d80000080600002003200d1
:10308c00af89a9000100370000047800080078001f
:10309c004f04780000000600804078000000eb0030
:1030ac00e1cf500007003e0001407800acfc070067
:1030bc0010002000614d8000e78f500001003200ad
:1030cc000000eb0000000600e14f50003b003e000a
:1030dc00a3fc0700a009f800a209f900604d8000cc
:1030ec0001002000ee0f5000e08f58002f003e0032
:1030fc0000600100100037000d0037000e00370093
:10310c000d003700290037000b0037000c0037008a
:10311c000b00370025003700240037002300370050
:10312c001300370021003700200037001c00370047
:10313c00765b020000000000c5fe070000000600e0
:10314c0011c0b30010c1b30019fd0700304e800050
:10315c00e00f500004003200004e8000e14c800073
:10316c00808f5000f6ff3a00800020000d003700e1
:10317c0011c0b30010c1b3000dfd0700304e80002c
:10318c00e00f500004003200004e8000e14c800043
:10319c00808f5000f6ff3a00c0002000010037007d
:1031ac00d0002000604d8800000006008040eb003d
:1031bc0040c1b300fefc0700a5fe0700000006009e
:1031cc00881f780000447800e14f540005003e0051
:1031dc000840780062fc0700ae69a900084078003e
:1031ec00b9ff07004f047800000006008000eb00d8
:1031fc00e14f50000f003e0059fc0700abfc0700ec
:10320c00504e8000614e8000a0528800b152880060
:10321c00704e8000814e8000c0528800d1528800d0
:10322c00d209f8005c0af900c209f8005e0af9003c
:10323c0041a520000100780000000600e14f50007d
:10324c0009003e0046fc070098fc0700004e800079
:10325c00e14c8000808f50000300320011c0b3009d
:10326c0000c1b300d2fc070000000600881f7800e4
:10327c000004eb00e14f500012003e0038fc070048
:10328c00acc9bf00e74f500002003200eb4f5000ba
:10329c000c003a00e04c8000f84c8000880f500085
:1032ac0006003900c14c8000010444000804e90008
:1032bc00b14c800001045400010037000804e900ff
:1032cc0000045400080078004f0478000000060049
:1032dc000200fa00889fbe008a1f78000044780024
:1032ec0081ff9f000005eb00e14f540034003e00cd
:1032fc00084078001afc070008407800dbff070044
:10330c00800478008a8f54002d003200e18f540025
:10331c0002003a0008407800c8ff0700704d80009a
:10332c000010b20009003a00b14c80000100780096
:10333c009809b5000000d100808f540003003e00b6
:10334c0008407800bdff0700af09a800140020005a
:10335c008441780068815700219b200091407800bf
:10336c00e04c80001bfc07009c09ec00e04c880042
:10337c00c14c8000810f5000020039009609f80002
:10338c009c09f900e18f540004003a0008407800d1
:10339c00aaff07000905780009003700704d80006e
:1033ac000002b2001a00200005003a00aea9a800e5
:1033bc007e7902000000000069004000404d88004a
:1033cc000a0078004f0578004f04be000080fa0018
:1033dc0000000600889fbe008a9fbe008c9fbe0026
:1033ec000044780001067800820678008004eb0027
:1033fc00e14f540042003e0008407800d8fb070023
:10340c000840780099ff070080057800898f5500e7
:10341c0003003a000840780088ff070038003700a6
:10342c008b0478008d8f5500010036008d047800d8
:10343c00704d80000010b20009003a00b14c8000c1
:10344c00010078009809b5000000d100808f55006c
:10345c0003003e000840780078ff0700af09a80081
:10346c00e04c8000c14c8000008144000005eb0062
:10347c00810f51000b003900008550000a027800c2
:10348c0013c0b3000c017800219b20009140780000
:10349c00d0fb07000a0646008a8454009609f800ff
:1034ac009c09f9000902780013c0b3000c017800e4
:1034bc00219b200091407800e04c8000c5fb070068
:1034cc00090078009c29b4008d8f550003003e0044
:1034dc000840780059ff070008003700704d800045
:1034ec000002b20005003a00aea9a8007e790200e5
:1034fc000000000069004000404d88008904450030
:10350c00090078004f06be004f05be004f04be00f8
:10351c0000000600889fbe008044780001047800fb
:10352c00080078006a060200000000000001780024
:10353c008800780009407800a6ff070000004400ce
:10354c004f04be0000000600889fbe0000447800b7
:10355c000000eb00e14f540008003e0008407800ea
:10356c007ffb07009809ed00b94c800089045000de
:10357c00084078003dff0700008054004f04be0057
:10358c0000000600804078000000eb00e1cf500006
:10359c000e003e000140780071fb0700004d8000da
:1035ac00114d8000810f50000200390001005000c5
:1035bc0000000600d24c8000020040000000e80031
:1035cc0081005000c04c80000080500000000600bc
:1035dc00881f78000044780008407800e9ff070055
:1035ec00e00f500007003200084078005cfb070039
:1035fc00a009f800a209f90011c0b30000c1b30082
:10360c00ebfb07004f04780000000600889fbe000b
:10361c008a1f780080447800010578000940780002
:10362c00d8ff070000047800e00f54001f003200a0
:10363c00094078004afb0700e00f550007003200f4
:10364c0014002000239b200093417800124d800031
:10365c00844078000a0078005efb0700a209ec00a9
:10366c00104d8800d14c8000810f500002003600b4
:10367c009809f800a209f900e10f540002003a0081
:10368c00af49a80009003700704d80000002b2005d
:10369c001800200005003a00aea9a8007e790200af
:1036ac00000000000003b000404d880008007800c6
:1036bc004f0578004f04be0000000600889fbe0036
:1036cc008a9fbe000044780081047800820578004f
:1036dc0008407800abff070000057800e00f5500ac
:1036ec0034003200084078001dfb07000a04780003
:1036fc008b0f5500010036000b047800124d800032
:10370c00d04c8000820044008005eb00808f50007c
:10371c000e0036008005e80082855500e08f5400cd
:10372c00070032000b027800239b200093417800a5
:10373c0011c0b3000900780026fb07008b844400fd
:10374c000b0454009809f800a209f900e08f54000a
:10375c000700320008027800239b20009341780078
:10376c00124d800011c0b3000900780019fb07004e
:10377c0008007800a229b40008844500080555000b
:10378c00880f550002003e00af49a8000a00370020
:10379c00704d80000002b20007003a00aea9a800ec
:1037ac007e790200000000000003b000404d88004c
:1037bc00010037000a047800080078004f05be00ad
:1037cc004f04be0000000600889fbe000044780035
:1037dc000000eb00e14f540008003e000840780068
:1037ec00dffa0700c94c8000d04c800089045000df
:1037fc000840780063ff0700008054004f04be00af
:10380c00000006000200fa00889fbe008a1f7800a4
:10381c00804478000105780002047800e1cf540060
:10382c002d003e00e00f54002c00320009407800bf
:10383c00c3bf9f00cafa07000940780051ff070078
:10384c00cfb9970088804100808f5000010036006e
:10385c0003045000124d800002814100d94c8000bd
:10386c00890f510004003600c04c800000805400c9
:10387c000080ea00000141008904e80082845400c1
:10388c00890f540006003e0008027800239b20009c
:10389c009341780011c0b3000a0078000c00370087
:1038ac0009027800239b20009341780011c0b300db
:1038bc000a007800c7fa07000a8044000902540085
:1038cc00239b200093417800c24c800011c0b300b0
:1038dc00c0fa0700010037000004eb000800780074
:1038ec004f0578004f04be000080fa00000006006f
:1038fc000200fa0081017800120020008f80e9009c
:10390c00c0ff07006ff897000080fa000000060067
:10391c004f03b000889fbe008a9fbe008c9fbe00e4
:10392c008e1f78000044780091b79f00d2b79f009b
:10393c0085b79f000000eb00e14f5400b3003e0040
:10394c00800f5100b100320008407800e3b79f00af
:10395c00f4b79f0082fa07000840780009ff0700bf
:10396c00efb19700830250000080eb007fb297000c
:10397c00dfb09700818f5200a4003900e00f520095
:10398c0003003200848f520001003600840278005c
:10399c00144d800004824100d64c8000860f5200ea
:1039ac0004003600c74c8000870353008783ea006d
:1039bc00070242000603e800040353001fb59700fa
:1039cc00cab79f003a467800cab79f000fb097005d
:1039dc00e00f500006003200f7c9b30087434600e1
:1039ec00f9cf530002003e0007ceb3000746460055
:1039fc00a3b79f00b4b79f005fb79700cfb59700f0
:103a0c008004eb0008c2b300ff0f530001003e001e
:103a1c00064478000880fb00850f5000010036003a
:103a2c00054478008883fb0007027800239b200064
:103a3c00934178003fb1970011c0b30000fc2f00f8
:103a4c000f004000f5b79f0086bf9f00e7b79f00af
:103a5c0060fa07000fbb9700efb397000703530002
:103a6c00ffb2970004003200bfb09700878040007f
:103a7c00b1b79f0003003700c34c8000b3b79f0061
:103a8c000083eb008046eb000fb59700e00f55006c
:103a9c0034003a008a4078005fb19700510037003b
:103aac000d80fb0001fc2f008f8040000081400046
:103abc0092407800fac9b3000ac04000f94f500098
:103acc0002003e0000ceb30000c94000924f5600e9
:103adc0012003a000e07e90007003a00dfb0970029
:103aec0061811000afb19700030041008d80fb0095
:103afc0001004000450037003b467800fac9b3008e
:103b0c000a40460019002000f94f500013003e00f7
:103b1c0000ceb3000046460010003700e08f540082
:103b2c00090032009fb0970011467800fac9b30023
:103b3c000a404600f94f500005003e0000ceb3008d
:103b4c0000464600020037000307780003003700e8
:103b5c0003077800840578008004eb008d46e800ac
:103b6c00020037004fb29700dfb1970088cf5600a4
:103b7c00cbff39001d0037000185fb0003fc2f0033
:103b8c008f81410063407d00804f56000b003a004e
:103b9c000e07e90006003a005fb0970061011000c3
:103bac00afb09700810141000a8041001700370037
:103bbc003b4678001900200009003700e08f5400c4
:103bcc00060032009fb19700134678000207780078
:103bdc00cfb597008004eb00010037000207780096
:103bec008140e80088cf5000e3ff39008782520003
:103bfc008e8f5200040039002fb597000705450041
:103c0c00aab79f007fff37000080eb004f077800ba
:103c1c004f06be004f05be004f04be004f03b1005f
:103c2c00000006000200fa00e1ff9f008402780009
:103c3c000302780082017800120020008f80e900d6
:103c4c0033ff07000080fa0000000600ea874700f7
:103c5c00889fbe008a9fbe008c9fbe008e1f78007e
:103c6c002bc0b3000045eb008c9628009d00200073
:103c7c000a407800baf90700704d800001602000fe
:103c8c00010060000a003200883c020000000000c5
:103c9c00e00f500006003200704d80004a00de003c
:103cac0061006000f0b79f0008c1b300020037004c
:103cbc0000447800f0b79f00704d80000002b20005
:103ccc0007003200494d80007e79020000000000a0
:103cdc00008054004240a90001003c0008c1b30020
:103cec00704d80000004b20007003200594d800076
:103cfc007e79020000000000008054004240a900c0
:103d0c0001003c0008c1b300604d8000eb0f500077
:103d1c0009003a00594d80007e7902000000000035
:103d2c00008054004240a90003003c00c000200069
:103d3c00604d880018c1b300604d8000e40f500046
:103d4c003b003a00844d8000300020000007eb005f
:103d5c007471b900f000410089a12000e98078005d
:103d6c00e08f500032003200848f50002d003a005a
:103d7c0082bf9f00cdf907000fb997000280440065
:103d8c00800078003102be00544e8800654e8800d9
:103d9c003103be00764e8800874e88009100780073
:103dac00914e8800ea004100e9807800114e8800ad
:103dbc006c0141000282440012002000030020002c
:103dcc0034034100a4834900e64d8800f74d880078
:103ddc00624e800082804000524e80008280400003
:103dec00224e800082806800814d88006100200096
:103dfc00614d8800c4fe2f0004f2b9000e01e800ea
:103e0c007411b900028144008402b00013c0b300e5
:103e1c00834078006ff90700502aef0028c1b300e7
:103e2c00050037000e07e8000000e900c8ff3a0063
:103e3c00e04f54000700320011c0b300ffb39700ed
:103e4c00e08f5300010032008040eb000840780006
:103e5c00d7f90700704d80007000600024003a0014
:103e6c00604d8000e70f5000e3003a0076790200c5
:103e7c0000000000224d8000334d800002005000f5
:103e8c0083805800dc003300784d800067006400ac
:103e9c00e60f50000b003a004344de00614464001e
:103eac000a40780088fc07000a40780086fc07006e
:103ebc00e04f5400d0003a00e0002000604d880034
:103ecc00cd00370079f9070021c0b30000c1b30061
:103edc00b7f90700767902000000000000014600e7
:103eec0081814e00224d8800334d8800c20037007e
:103efc007679020000000000224d8000334d8000d6
:103f0c000200500083805800bb00330067f90700a3
:103f1c00624d800003002000ec0f5100e08f59002f
:103f2c008f003e00026001000c00370015003700c6
:103f3c00380037003f003700890037005c0037003d
:103f4c00670037006e0037007d003700cc0037006b
:103f5c00740037006a00370079003700665b020096
:103f6c0000000000e00f50007d0032001100200026
:103f7c00614d8800504e8000905b020000000000f4
:103f8c007700370076805700be5b0200000000000f
:103f9c00e00f500072003200765b0200000000005f
:103fac0080047800e08f5400120032005fb297005a
:103fbc00efb29700544e8800654e88002000200018
:103fcc00604d8800604e8000ca09b400114e80001c
:103fdc0001004000214e800001006800804d8800e7
:103fec00da69ef00d5032000a54d8800b629ef0053
:103ffc005b003700767902000000000000034600e9
:10400c0081834e00264d8800374d8800694d88000d
:10401c00530037007e79020000000000404d8800fc
:10402c00a09c2000986f02000000000030002000cf
:10403c0018003700e19c200064805000846e020060
:10404c0000000000e00f500014003a007e790200de
:10405c0000000000a24d8000b34d8000414d800057
:10406c0001005000820f50003d003600dac9bf003d
:10407c00e54f500006003e000040e800dae9b700ca
:10408c000201410083814900a24d8800b34d880094
:10409c0020002000604d88003100370050002000c7
:1040ac00604d880028c0b3008004eb004c00370042
:1040bc0028c0b3008004eb00dac9bf00e34f500006
:1040cc002d00360040c0b300dae9b7000724240005
:1040dc00a74d8800f7002000b74d88002600370058
:1040ec00dac9bf00e14f500068003600794d8000fe
:1040fc00e884640028c0b3001c0032006000370064
:10410c0008c1b3008004eb00dac9bf00e44f5000d3
:10411c001900360080002000604d880018c1b300e3
:10412c001200370048c1b30019002000dac9bf00e3
:10413c00e44f50000d003e0008c1b30006003700ec
:10414c0048c1b30019002000dac9bf00e44f500089
:10415c0006003e0018c1b3008004eb0006003700d7
:10416c00e04f5400240032008004eb007fb0970035
:10417c00e00f50001a003200da69ec00a04d80000c
:10418c00b14d80000000400081804800a04d8800a7
:10419c00b14d8800024e8000f14c800001005100ae
:1041ac00810f510004003100b24c8000020050001d
:1041bc00c24c800002004000c24d8000d34d8000f4
:1041cc0000015100e0815900c24d8800d34d880098
:1041dc00c629b400014e88008040eb000100370076
:1041ec0011c0b30008407800f1f80700e08f5400cc
:1041fc000100320096fa07000a45e8008b45e900f9
:10420c009bfe3a000004eb0089a12000cc2d20007d
:10421c007445b9007000450069007800e00f50004b
:10422c001c0032007e79020000000000f200450004
:10423c00e9807800010050008c0f50000c00360013
:10424c00c4fe2f0004c2b9000801e8007411b900c3
:10425c0002814400090045008402b00013c0b30081
:10426c00834078005bf80700502aef000804e9004f
:10427c000804e800e20f5400e5ff360005003700a3
:10428c0048c1b30019002000b8ff370028c1b300a3
:10429c00b1ff37004f0778004f06be004f05be0038
:1042ac004f04be00af00b100000006004f03b00089
:1042bc00889fbe008a9fbe008c9fbe008e1f780018
:1042cc000004780082067800184078000081fb001a
:1042dc0098419000c819dd00284290000482fb0030
:1042ec00384090004800dd000400700082817100ad
:1042fc0083a79f0090a79f001101be00a2a79f005b
:10430c00b3a79f008044eb0089cf9f0060c0b3002f
:10431c0090cf9f00dda79f000d007800d2670200b0
:10432c0000000000d0a79f00c100200000fc2f005f
:10433c000f00400004680200000000000005780037
:10434c000d007800ec3e0200000000008a80ea00bc
:10435c00808f500078033a000000eb00be7702001b
:10436c0000000000cbfc2f008f8545004101200090
:10437c000b007800d63f0200000000000b00780014
:10438c0067f807006b0790004477de006f47670003
:10439c001b009000e00f50006703320018427800b9
:1043ac008481fb00184190004811dd00030171006d
:1043bc00a84190008381fb00b8409000c808dd0044
:1043cc0083807000810041009b80400080806800e9
:1043dc00d1b79f002cc0b300eacfb30009407800de
:1043ec00dff70700614d8000ed8f50002300320095
:1043fc00804d8000e48f500004003a009b00900038
:10440c00810f50001d003a001b003700dfb29700ef
:10441c00850f500019003a0024f807009b0090000b
:10442c00204e8000808f500014003a00104e800007
:10443c009b0f100011003a00184378000681fb0016
:10444c0098419000c819dd0002807100284190004d
:10445c000281fb00b8419000c819dd008280710018
:10446c00524e8000634e8000820f5000838f5800a4
:10447c0002003a0039033700094578008944e80006
:10448c000c46e900d5ff3a00e24f4500100032001f
:10449c000a407800b2f7070004f80700dfb3970072
:1044ac00874d8800a99c200009000900b85c7800a1
:1044bc00a800b1006fa597001a4e8800ffa59700c1
:1044cc002b4e88009609f800c009f9002303370029
:1044dc004fa897000020b2001703320089528000c9
:1044ec00e08f540014033a00ffa297006fa29700cc
:1044fc003300200082a12000744db90070004500eb
:10450c0062007800e00f50001c003200850f500054
:10451c0017003a006a00450062007800840f5000d2
:10452c0013003a000a034100184078008083fb0016
:10453c0098459000c85ddd0007807500a843900089
:10454c008783fb00b8459000c85ddd00878075004f
:10455c00b60f1000a68f180005003a007e790200f5
:10456c0000000000a1a2200080307d00f202370084
:10457c008904e8008301e900dfff3a000040eb000a
:10458c0077f70700704d800068006000050032006e
:10459c00c6f707007fa09700214e8000808f500047
:1045ac000a00320010c0b3006df70700704d800098
:1045bc0068006000e0023200bcf707007fa09700a3
:1045cc00214e8000808f5000db023a007448b90005
:1045dc008004780080a12000090040000900090037
:1045ec0038587800a000b100a800b10020a220002b
:1045fc00efa0970001b07c000080e80009004000ab
:10460c000fa997009fa997000288be0080a22000e6
:10461c00ffa1970003b07c007e790200000000002f
:10462c00a1a2200080b07c00c30237007679020082
:10463c00000000008696280097002000000243002e
:10464c0081824b00244d8800354d8800604d8000e0
:10465c008881fb00e40f500003003200e50f50008e
:10466c0054003a001a003700e480610008003a0058
:10467c0070826100810f5200070032005fb3970017
:10468c00efb39700c64d8800d74d8800c8f70700d8
:10469c006ff90700a8023700e2816100848f510096
:1046ac00fbff320010002000010020001fb4970017
:1046bc00afb497000804400089844800e84d880096
:1046cc00f94d88001bf90700c04e880033003700f5
:1046dc006480610098023a0070856100800f55007b
:1046ec000f003200c84d8000d94d80005fb097009c
:1046fc00efb09700880f5000898f580008003200e7
:10470c00c04d8800d14d880011c0b30040c0b3002b
:10471c00a7f70700c84d8800d94d880086023700de
:10472c00e2816100840232001000200001002000b0
:10473c001fb19700afb19700020140008381480080
:10474c00e24d8800f34d8800dfa99700334e8800b6
:10475c00f8f80700c04e8800e00f55000f0032003b
:10476c0011c0b30000c1b30091f707007000200026
:10477c00604d8800767902000000000082962800c7
:10478c00930020000002410081824900244d8800e2
:10479c00354d8800ae89a9006702370011c0b300ff
:1047ac0020c1b30082f7070060002000604d880034
:1047bc0061023700f4865600210020000177dd00ed
:1047cc00744757000e87fb008e865600cdb79f00ae
:1047dc00e182610085b79f00030032000d03e80001
:1047ec00b6b79f0002003700cfb39700b7b79f0052
:1047fc00e2826100030032003fb497000804e80035
:10480c00b8b79f00054d8000184d8000888f52006e
:10481c0006003900d64c8000060444008502540082
:10482c00c84c800088825200020037000804e9005e
:10483c0085025400ea4d8000fb4d80001fb39700a9
:10484c00afb397000a0553008b855b000a0778000d
:10485c00bfb39700e08f530020003200e08f52006e
:10486c002b003200e00f5500e08f5d000500350095
:10487c00612eb800160020008a0f56008b8f5e0048
:10488c000d003e003fb4970008064500e0864d0041
:10489c000003eb004240a9000700340008865200d8
:1048ac00cfe6de00160020008c0f55008d8f5d00ca
:1048bc00010034000003eb00612eb8008c0f550092
:1048cc008d8f5d0010003d00bfb497008e834400b7
:1048dc004240a90011003c000b003700e00f5500ce
:1048ec00e08f5d000d003200e00f5500e08f5d00a1
:1048fc0007003500612eb8008a0f56008b8f5e00c2
:10490c0006003e0002003700e00f530003003a009f
:10491c00e481610008023a0004023700e68361007a
:10492c005bff3a00f0846100878f54000202320072
:10493c006103b80066035300e0835b00e60f53008d
:10494c00e08f5b00f9003e000660010006003700b6
:10495c00160037001500370014003700130037001d
:10496c0012003700e5003700ca4d8000db4d800097
:10497c005fb09700efb097008a0f50008b8f5800f4
:10498c0008003200c04d8800d14d880011c0b30022
:10499c0040c0b30006f70700ca4d8800db4d880005
:1049ac00e501370070002000604d8800064e800045
:1049bc00e14c80000685500004003b00b04c8000a8
:1049cc0000055500c04c800000054500c84d800016
:1049dc00d94d80000a054400e0854c005fb097007b
:1049ec00efb097000a0550008b8558004240a90093
:1049fc000e003400b04e80006100600003003200f5
:104a0c00e10f5500e08f5d00020032008040eb00aa
:104a1c00c70137005fb09700efb097000a00500055
:104a2c008b805800d0b79f00e1b79f00f24c8000fc
:104a3c0002005300cf80de000000540081805c0037
:104a4c00820f530006003100ba4c8000c44c800029
:104a5c000a0552000a065000e08658000100370093
:104a6c000006be005fb59700efb597000c06550029
:104a7c008d865d004240a90028003400b74c8000b0
:104a8c00cb4c800087835500613db8008a0f5600df
:104a9c008b8f5e0021003e00d669a900d689a90043
:104aac00af09a9000c004100f04c8800820f5300a4
:104abc000100310006834300800f530007003100d2
:104acc0006035000070020000605440087854c00b3
:104adc00ca4d8800db4d8800004e8800f64c8000e3
:104aec00c04c8000800f530004003900b74c80008c
:104afc000703430000035300f64c8800064e800069
:104b0c00800f53001c003900b74c80000703430092
:104b1c0000005300004e880017003700860f51002c
:104b2c0015003200b74e8000e8846300110032009b
:104b3c00f08363000e003200c04d8800d14d880018
:104b4c00820f530008003100b64c8000cb4c800023
:104b5c0006835500cfb3de00060350008783580050
:104b6c00c64d8800d74d8800024e8800af49a8007a
:104b7c00d689a800d669a800e04c8000f64c8000cd
:104b8c00800f53001e003a0000802000764d8000fc
:104b9c00000063000e003a00f3b79f0085bf9f0032
:104bac00767902000000000086962800970020000d
:104bbc000004430081844b00284d8800394d880047
:104bcc00ae89a900ffb197008fba97000c0037008f
:104bdc00c04d8000d14d80005fb59700efb59700b8
:104bec008a0f50008b8f580005003a00b04e8000a1
:104bfc006100600002003200ae89a900af69a90013
:104c0c00c04d80005fab970000005300dfb59700ec
:104c1c000b004000364e8000e00f530003003a00ba
:104c2c00860f500001003200af29a800304e8800da
:104c3c00604d8000e80f50001a003a00c04d800013
:104c4c00d14d80005fb39700efb39700860f5000f3
:104c5c00878f580035003a00b04e8000610060002c
:104c6c0032003200f3b79f0085bf9f0076790200b7
:104c7c0000000000464b2c004700200000044300bd
:104c8c0081844b00284d8800394d8800ae89a800de
:104c9c0090002000604d8800ffb197008fba9700fc
:104cac0022003700e90f50000a003a008fb4970039
:104cbc00e08f54001d003a005fb59700efb59700e8
:104ccc00ca4d8800db4d88008940780040c1b30094
:104cdc006efe3700ea0f500014003a00c04d800001
:104cec00d14d80005fb19700efb19700820f50005b
:104cfc00838f580010013a0065fe37001000200029
:104d0c0001002000c44d8000d54d800004004000ff
:104d1c00858048005fb39700efb39700860f500073
:104d2c00878f580004013a0059fe37000302b20085
:104d3c0001013a00604d8000eb0f5000fe00320084
:104d4c00ea0f5000fc003200ec0f5000fa00320069
:104d5c00cfb39700e08f5300a2003200e00f570052
:104d6c0053003c004fa897004200de00c003b20085
:104d7c000e00500085bf9f00be77020000000000af
:104d8c004fb497008e0644000fbc97008d0f540053
:104d9c00010036000d0478006140b800ea4d800037
:104dac00fb4d80000a0540008b854800ea4d8800c9
:104dbc00fb4d8800004d8000d94c800080014400e0
:104dcc00898f5100140036008904e8008084540057
:104ddc00090278008041eb000081eb00219b200050
:104dec00914078007bf50700890454000902780093
:104dfc008041eb000081eb00219b2000914078006a
:104e0c00c04c800073f50700c04c800080844400c7
:104e1c00094d880008003700080278008041eb003b
:104e2c000081eb00219b20009140780069f5070080
:104e3c0008007800a029b400a04e8000e10f4000cb
:104e4c006800320008045000a84e8800434e8000d1
:104e5c008301440014003300e00f540061003c0057
:104e6c006118b800e44d8000f54d8000040240004c
:104e7c0085824800e44d8800f54d8800004d800087
:104e8c0000804100004d8800d34c8000830f5000ff
:104e9c0005003600c44c8000848151008381ea00f7
:104eac0003004000004d8800d4a9ef004d003700ee
:104ebc004fb397000e004300850f500002003600e0
:104ecc008e825200c5b79f004fa897004200de00ab
:104edc00c003b200be77020000000000054d800048
:104eec0005004700d34c8000cfb3970000834300ec
:104efc00830f5300160036000304e8000504540029
:104f0c000e0454000e003300080278008041eb00c0
:104f1c000081eb00219b2000914078002df50700cb
:104f2c00cfb49700088254008041eb000081eb0065
:104f3c00219b200091407800c04c80000900370074
:104f4c00c54c8000858151008381ea00030040003c
:104f5c004fb297008041eb000081eb00219b2000b9
:104f6c00914078001bf50700a34e8000e18f4100b3
:104f7c0004003a00ae4e88004fb597004a4e8800a8
:104f8c0018003700cfb597000e804500454e8000c5
:104f9c00830f57000c00310085824100850f5000b3
:104fac0002003e00830f5000030031004fb0970009
:104fbc00404e8800020037008e825200454e880019
:104fcc00ae4e88000700370005824100840f500068
:104fdc0004003600840f570002003e00830150008d
:104fec00434e8800bfb09700e08f5000170032008e
:104ffc00604d8000e70f500002003200a009f8005d
:10500c00a209f900704d80000008b20005003200c2
:10501c0011c0b30000c1b30065f5070023f507000c
:10502c000a003700aee9a800734d80000304b200fb
:10503c00808f510005003a00aec9a8007e790200ad
:10504c000000000078004000504d88000fb1970020
:10505c00e00f510038003200100020000100200049
:10506c00e44d8000f54d8000040040008580480030
:10507c003fb497001fb39700afb3970008014300ec
:10508c00e0814b00820f5000838f58002a003a00b9
:10509c00e04d8800f14d8800604d8000010020003b
:1050ac0066005000e0805800e30f5000e08f58007d
:1050bc001e003e00006001000300370007003700af
:1050cc000d00370016003700c0002000604d88002e
:1050dc0011c0b30010c1b30016003700b00020009f
:1050ec00604d88007e790200000000000003b000d3
:1050fc00504d88000d003700c04d8000d14d800010
:10510c005fb59700efb597008a0f50008b8f580052
:10511c0003003200a0002000604d8800030037001f
:10512c008040eb0000c1b30058fd370011c0b30044
:10513c0000c1b3001ef50700963c02000000000001
:10514c00100020004f0778004f06be004f05be0030
:10515c004f04be004f03b100000006001fdc970097
:10516c002fa89700bfa89700d0b79f00e1b79f006a
:10517c000fa997009fa9970092b79f00a3b79f0014
:10518c00ae09a900ae29a900ae49a900704d800056
:10519c00700060002dfd3a0024fd3700889fbe0092
:1051ac008a9fbe008c1f780081057800020478006d
:1051bc00834478000005eb00e14f500056003e00a0
:1051cc0067f407008a8f550001003a001b0020008d
:1051dc009a09ed00bc4c80000c06500088854500f7
:1051ec000005eb008c8f55004b003e00aff4070020
:1051fc00638064008a0f500001003a003940b3000c
:10520c008984fb0062806400050032008b05560027
:10521c0061806400010032008b05d10008844500d8
:10522c009609ec0008044000044d8000a04e80005c
:10523c00e10f40000a003200414e800001024200a2
:10524c0000024200d04c8000800f52000400360057
:10525c00c14c8000010050000080ea0000024200b6
:10526c00104d8000840f500003003900840f500053
:10527c0007003600c04c8000800f5400060036003a
:10528c00648064000005eb008a0f500022003a0095
:10529c00184d8800084d8800104d8000800f52007a
:1052ac0011003100e48464000f003200c24c800015
:1052bc0002025200239b2000934178008340780027
:1052cc000800780043f40700004d8000114d800069
:1052dc00810f500004003100c14c800001005000cf
:1052ec0008004000004d8800c84c8800b04c80007d
:1052fc00004e8800f04c8800e04c88001a0020001a
:10530c00604d8000e70f500003003a008a4078009f
:10531c0000c1b300a6f407000a0078004f0678001d
:10532c004f05be004f04be0000000600e487470096
:10533c00889fbe008a9fbe008c9fbe008e1f780087
:10534c0080457800810678000207780025ae2000a1
:10535c00eacabf00e0cf55000b0032000080fb0012
:10536c004200dd000080e8000002eb0084017800c0
:10537c00040178008b40780065407800181e02000c
:10538c0000000000060037000080fb004200dd003a
:10539c000080e80065407800c81a02000000000098
:1053ac00000578002c002000e10f45006a00320057
:1053bc000853800019538000e10f570011003e0084
:1053cc00e08f560012003200a3ae2000934178000b
:1053dc008381fb008c19dd000a0178008000eb0052
:1053ec0040ae200063407800641b02000000000007
:1053fc0000045400e0845c000853880019538800b2
:10540c00350037000006eb008c8f560010003a0078
:10541c00a3ae2000934178008381fb00c219dd000c
:10542c000a0178008000eb0040ae20006340780059
:10543c00641b02000000000000045400e0845c00c7
:10544c0008538800195388000006eb003100370020
:10545c000e81e900eacabf00820f55002000360019
:10546c0023ae20000080fb004200dd000080e8003d
:10547c008d0078006340780083bf9f00641b02009e
:10548c000000000000045400e0845c000853880015
:10549c0019538800620117000a014100eacabf00d3
:1054ac000080fb004200dd000080e8008c007800ea
:1054bc008fb9970063407800641b02000000000065
:1054cc0000045400e0845c000853880019538800e1
:1054dc008e864600ecfe9f001c0020000d0037005d
:1054ec000080fb004200dd000a0178008d0078008e
:1054fc0043ae200060c07900641b02000000000075
:10550c0000045400e0845c000853880019538800a0
:10551c008c767d00e0cf55000f00320008538000e0
:10552c0019538000a2ae2000124178000281fb00ca
:10553c004211dd008000eb0040ae2000624078009c
:10554c000c1b02000000000000005400e0805c0016
:10555c0000538800115388000c0078004f07780026
:10556c004f06be004f05be004f04be004f00b100f9
:10557c0000000600889fbe008a9fbe000044780091
:10558c00a2ae200012417800824f5400200032005d
:10559c000281fb00290820000991b9002a972000fc
:1055ac000201450002007800603e0200000000008d
:1055bc00800578008900780000a620000e400200cb
:1055cc00000000000b007800603e020000000000ac
:1055dc000880fb000980b90000004500763e0200ff
:1055ec0000000000000578008900780000a620006b
:1055fc00d63f0200000000000a007800763e020050
:10560c00000000000004fd00eaeab7000004fd0001
:10561c004f05be004f04be0000000600a2ae2000e5
:10562c00124178000281fb004211dd00e1c7b3009a
:10563c0040ae2000624078006e19020000000000ad
:10564c0000000600889fbe008a1f7800ea6aef00ff
:10565c002a082000299720001d0037000080fb003d
:10566c004200dd0028ae200000044400001ceb00ca
:10567c0084c0b300030520000041eb006000b800bb
:10568c002c17020000000000004c780074eaef00b8
:10569c0075eaef00eacabf000080fb000a80b9007f
:1056ac0000804400603e020000000000000478000e
:1056bc002108200000a620000e400200000000007f
:1056cc0008007800603e020000000000ea6aec006e
:1056dc00eacabf00e14f5000e0ff3600ea6aef0073
:1056ec004f0578004f04be00000006000200fa00cf
:1056fc00889fbe008a9fbe008c1f780080047800b3
:10570c00090078006a06020000000000000478001e
:10571c0009057800dcc3b3006bc2b3001e00370070
:10572c003a4078000804e9008c4f50000200320027
:10573c008b4f500002003a00805ceb0016003700e3
:10574c00b1c2b300814f500002003a0000c2b30056
:10575c000d00370051c2b300814f50000a003a00cf
:10576c00e10f54000a0036003a407800d0f79f0051
:10577c003a407800c0f79f000884e9002fb89700e2
:10578c003867020000000000805c780002003700df
:10579c000004eb0002003700e00f5400e0ff3a0079
:1057ac00884c780009007800086878004f0678006b
:1057bc004f05be004f04be000080fa00000006003a
:1057cc00889fbe000004be001900370088007800d6
:1057dc00090078005006020000000000000178006b
:1057ec00e00f510006003a00090078006a0602003a
:1057fc00000000000000e80000004400100037002a
:10580c00080078006a060200000000000001780021
:10581c000201e80002044400080078006a06020055
:10582c0000000000000178000201e80002044400be
:10583c000040eb00984f1000e4ff3a000000eb0032
:10584c004f04be0000000600889fbe0000047800d4
:10585c000101780088007800d0c3b300b3fe0700c4
:10586c0080047800e00f5400050032000040eb008b
:10587c00984f100002003200080078009bff0700d0
:10588c00090078004f04be0000000600889fbe008f
:10589c008a9fbe008c1f78000004780001067800f7
:1058ac000c0178008800780060c2b3009ffe0700ee
:1058bc0080047800e28f540013003a000a538000f1
:1058cc001b538000a1ae2000914078008180fb002a
:1058dc00c208dd0040ae200061407800c81a02000a
:1058ec00000000006102b800840f5500858f5d0038
:1058fc0005003a000c017800880078000040eb00ad
:10590c008afe070080047800e00f54000500320086
:10591c000040eb00984f10000200320008007800a5
:10592c0072ff0700090078004f0678004f05be0093
:10593c004f04be00000006004000fa00889fbe0025
:10594c008a9fbe008c1f78006253800073538000c6
:10595c00e00f5100e08f59000a003a00ba510200e2
:10596c000000000000447800e14f44004300320086
:10597c0008407800a8550200000000006053880021
:10598c000c00370060538000fa5002000000000049
:10599c0000447800e14f4400380032002100200020
:1059ac00725380008001eb000840780070540200b4
:1059bc00000000002aae2000eacabf000080fb00f5
:1059cc004200dd000080e8006a4078003c190200cb
:1059dc0000000000800478000c0420008a05780088
:1059ec001d003700090178008c8f5400010036002f
:1059fc000204200061fb2f008f80400008407800db
:105a0c004e5002000000000000057800e00f550029
:105a1c0006003a0008407800b44f02000000000075
:105a2c006c2aef006e2aef0014003700eacabf00a0
:105a3c000080fb004200dd000080e8000a017800d5
:105a4c0061fb2f008f8040006b407800f019020042
:105a5c00000000008a845400e08f5400e1ff3a00fb
:105a6c000840780088550200000000007053880040
:105a7c0008407800b44f0200000000004f06780088
:105a8c004f05be004f04be000080fa000000060067
