:020000040000FA
:0600000014EFA2F0120053
:020006001200E6
:0600080067EF74F0120026
:02000E000004EC
:04001000A300000049
:02001400FFFFEC
:02001600FEFEEC
:0600180041EF74F012003C
:02001E001E00C2
:1000200080450100C0090000010000007F4501007B
:10003000BF090000010000007D450100B509000076
:10004000020000000F450100000E00006E000000DD
:100050000E450100BE090000010000000545010039
:100060007D0900000900000003450100B3090000FC
:100070000200000002450100BD090000010000006F
:1000800000450100B109000002000000FD4401002C
:10009000A609000003000000FB440100AF090000B6
:1000A00002000000E8440100E80600001300000020
:1000B000E7440100BC09000001000000E344010026
:1000C000A209000004000000E2440100BB09000096
:1000D00001000000E0440100AD0900000200000042
:1000E000D84401008609000008000000D744010040
:1000F000BA09000001000000D6440100B90900005F
:1001000001000000518F0000B8090000010000004C
:10011000D3440100FD050000030000008B440100F2
:10012000000700004800000081440100730900003E
:100130000A0000007F440100AB090000020000003B
:100140007D440100A9090000020000001600000023
:10015000FE07000002000000AF430100B7090000E5
:1001600001000000794401009E0900000400000025
:100170006F440100690900000A000000140000003B
:08018000FE0000000200000077
:08018800030145510901A95DC5
:1001900001E11200FE0EA95D0CE01C0EE66EE66A9F
:1001A000290EE66E030EE66EA95101EC19F080EC03
:1001B00019F045C3A9F9FE0E0301455D01E11200E6
:1001C0001C0EE66EE66A455101EC19F0290EE66E4A
:1001D000030EE66E80EF19F00901A951AA5D01E155
:1001E0001200FE0EAA5D21E0270E0301C56FC66B4B
:1001F0000301010EC46F0301020EC26F030EC36F31
:1002000009016AEC19F01B0EEDEC1AF0EFCFC1F307
:100210006AEC19F0EECFBFF3EFCFC0F30301270E66
:10022000BF5F000EC05B69EC16F0A9C9AAF9270EE2
:1002300064EC19F029C3C2F32AC3C3F30301C25FFC
:10024000000EC35BA5EC1AF0020EBF6F030EC06F69
:1002500069EF16F00C01EE0E1D6F050E1E6F030107
:10026000005101110FE167EC63F01EC000F31FC0E5
:1002700001F3FF0E03010017070E0117000E002700
:10028000040E01233C0EE66EE66AE66AC10EE66ED7
:10029000050EE66E54EC87F0006E050EE15E005030
:1002A0000C01156B146B14512BEC17F001E38ED07D
:1002B00014CC45F369DF82EC17F0BBEC17F0F62A9B
:1002C000000EF722F8220800F5CF1CFC82EC17F094
:1002D000BBEC17F0020EF626000EF722F8220900FA
:1002E000F5CF16FC0A00F5CF17FC82EC17F06FEC87
:1002F0001BF0040EF626000EF722F8220900F5CFB7
:1003000018FC0A00F5CF19FC0C011C5128E11DCC8A
:100310001AFC1ECC1BFC270E036A1625026E175111
:100320000322A8EC1AF002501825006E0350192180
:1003300015EC1BF000501D2701501E231DCC00F0B2
:100340001ECC01F0026A036AD880EE0E0054450EFE
:100350000154000E0254000E035402E2EFD7FFD7FF
:100360001CCC44F3270E0C011A250301296F000E43
:100370000C011B2103012A6F29510C0116250301D1
:100380002B6F2A510C01172103012C6F010E2B2713
:10039000000E2C232B510C01182503012D6F2C511D
:1003A0000C01192103012E6F0D0E3F6F409714DFD2
:1003B00082EC17F01CC003F06FEC1BF00800F5CFC7
:1003C00028F3F9EC0FF00C01142B6DD712000C017F
:1003D0003B6B3B512BEC17F001E390D03BCC45F34A
:1003E000D3DE0D0E03013F5D01E085D0F5DE030194
:1003F0004D51285D01E07FD0180E256F020E266F4B
:100400004A510CE14BC312F34CC313F34087040E63
:100410003F6F4BC342F34CC343F36AD0000E005D01
:10042000040E015906E3880ED8800055130E0155BD
:1004300003E2006B040E016F00C312F301C313F358
:10044000002B000E01234BC310F34CC311F3F1EC4E
:100450001AF0030140894A51040A25E0070A11E015
:10046000020A02E0030A44E1B5EC19F0020E4A5D0B
:1004700002E0000E01D0010E2495E8B024853F6B08
:1004800037D048514625026E495147210CEC19F0EE
:10049000B5EC19F0276B270E026F036B046B056B2D
:1004A000020E3F6F25D046C3E9FF47C3EAFFBEEC0B
:1004B00019F046C3E9FF47C3EAFF0450EE24026E79
:1004C0000550EE200CEC19F00A0EE66EE66A46C303
:1004D000E6FF47C3E6FF2BEC1AF0F7EC18F0030138
:1004E000050E3F6F28EC1BF0020EAD6F37EC0CF0E1
:1004F0000C013B5112000C013B2B6BD7FE0C03018E
:100500004E512BEC17F001E3010C4EC345F33CDEDA
:10051000030141A902D04199010C000C03014F5184
:100520002BEC17F001E3000C4FC345F32DDE070E53
:1005300003013F5D01E0000C010C030150512BEC65
:1005400017F001E3120050C345F358EC1AF0030111
:100550003F51080A38E0010A36E0050A34E0020A91
:100560002FE0050A1FE00D0A0FE0010A0DE0070A5F
:1005700031E0020A2FE0010A2DE0060A2BE0040A0E
:1005800022E1EAEC70F026D0F3EC18F003011451EC
:10059000151106E00E512F19F7E10F513019F4E152
:1005A000080E0FD0F3EC18F003011451151106E0FA
:1005B0000E512F19F7E10F513019F4E10C0E01D053
:1005C0000D0E3F6F12000301AE6B0301140EAD6FF1
:1005D00037EC0CF0F9EF0FF0030151512BEC17F051
:1005E00001E3120051C345F3CFDD0301409751C32E
:1005F00050F39DEF02F0030152512BEC17F003E38F
:10060000F36AF46A120052C345F3ADEC1AF00A0E15
:10061000E66EE66A2BEC1AF0530EE66E030EE66EFB
:10062000F7EC18F010C35DF311C35EF3530E006EC8
:10063000030EFBEF17F003015F512BEC17F001E302
:1006400012005FC345F3ADEC1AF003010E512F19F0
:1006500002E10F51301902E0B4EC17F0120003016F
:1006600060512BEC17F00CE260C345F38DDD3FC306
:1006700045FC070E0C01455D06E00B0E455D03E0F1
:10068000F36AF46A1200030131512F5D325130597F
:1006900016E329512B5D026E2C512A55036E02067A
:1006A000000E035A31512F5D046E30513255056EE4
:1006B0000450025C006E05500358FBEF17F02F51F9
:1006C000315D006E32513055016E0006000E015A48
:1006D00000C0F3FF01C0F4FF1200030161512BECD5
:1006E00017F001E3000C61C345F34EDD61C360F315
:1006F000B6DFF3CF0FFCF4CF10FC0C01F350F41075
:1007000001E1000C010E0F1904E1105102E1B1ECFE
:100710001AF003014151010B0CE161EC1BF00C01DB
:100720000F51005C1051015804E3B1EC1AF00301C1
:100730004181010E0301C56FC66B0301C46F030144
:10074000620EC26F030EC36F3FEC1BF003012F2B31
:10075000000E30232B512F5D2C51305902E398ECC1
:1007600019F00C01010E0F1905E1105103E1B1EC74
:100770001AF0010C030140BB02D0B8EC17F0010CD9
:100780000C01A56BA66B030163512BEC17F010E273
:1007900063C345F3F9DC63C360F361DFF3CFA3FC0C
:1007A000F4CFA4FC0C01F350F41005E1B5EC1AF001
:1007B000F36AF46A1200A3CCA1FCA4CCA2FC3AEC2C
:1007C0001AF004E266C3A1FC67C3A2FC4151010B0D
:1007D0000CE161EC1BF00C01A351005CA451015829
:1007E00004E3B5EC1AF00301418103012F510C0120
:1007F000A125006E030130510C01A2215FEC1AF01B
:100800001EE32F512B5D0C01A56F030130512C59B4
:100810000C01A66FA5CCC5F3E8CFC6F375EC18F0B4
:100820000C01A551030164270C01A65103016523A6
:100830000C01A551A15FA651A25B98EC19F0A1CCC7
:10084000C5F3A2CCC6F375EC18F00C01A15103015D
:100850002F270C01A251030130230C013AEC1AF0AE
:1008600003E3B5EC1AF004D040BB02D0B8EC17F0AB
:100870000C01A151A525006EA251A621FBEF17F096
:100880000C012E6B2F6B030168512BEC17F010E25B
:1008900068C345F379DC68C360F3E1DEF3CF2CFC79
:1008A000F4CF2DFC0C01F350F41005E1B9EC1AF073
:1008B000F36AF46A120003014151010B0CE161EC8F
:1008C0001BF00C012C51005C2D51015804E3B9ECD4
:1008D0001AF0030141812CCC2AFC2DCC2BFCC5EC59
:1008E00019F004E26CC32AFC6DC32BFC2F510C01E0
:1008F0002A25006E030130510C012B215FEC1AF008
:1009000022E32F512B5D0C012E6F030130512C5926
:100910000C012F6F2ECCCDF3E8CFCEF3ACEC18F05A
:100920002ECC00F02FCC01F0026A005003016927A1
:1009300001506A2302506B230C012E512A5F2F5164
:100940002B5B98EC19F02ACCCDF32BCCCEF3ACEC8E
:1009500018F00C012A5103012F270C012B51030120
:100960003023C5EC19F003E3B9EC1AF004D040BB16
:1009700002D0B8EC17F00C012A512E25006E2B5135
:100980002F21FBEF17F06FC3E6FF70C3E6FF39ECD2
:1009900088F0E552E552F3CF66F3F4CF67F36FC307
:1009A00064F370C365F36EC363F3EADE03016F5152
:1009B000F324006E7051F420FBEF17F072C3E6FFD2
:1009C00073C3E6FF74C3E6FF47EC88F0E552E552D7
:1009D000E5521FC06CF320C06DF372C369F373C39B
:1009E0006AF374C36BF371C368F34ADF056A0301EA
:1009F0007251F324006E7351F420016E745105207E
:100A0000026E00C01FF001C020F0216E1200030131
:100A100075512BEC17F003E3F36AF46A120075C307
:100A200045F3C4EC00F0030129512B5D0C01026F6A
:100A300003012A512C590C01036F010E025F000EB5
:100A4000035B75C360F30BDE0C01F350025D006EB7
:100A50000351F454FBEF17F076C377F30CD896EC00
:100A60001BF0F350F41006E076C345F358EC1AF08F
:100A7000B4EC17F01200030177512BEC17F003E3ED
:100A8000F36AF46A120077C345F3C4EC00F019EC82
:100A90001AF006E33551335D006E3451365513D0EC
:100AA00035512D5D026E2E513655036EA8EC1AF0AD
:100AB0002B51335D046E34512C55056E02500424C5
:100AC000006E03500520FBEF17F078C377F3D3DFF8
:100AD000F3CF39FCF4CF3AFC0C01F350F41001E1F0
:100AE000000C78C345F3C4EC00F0030179517A118E
:100AF0000FE0010E64EC19F035C3C2F336C3C3F343
:100B00000301C16F79C3BFF37AC3C0F369EC16F078
:100B10000301352B000E362335512D5D36512E59EC
:100B200002E2BDEC1AF00C01010E391905E13A514F
:100B300003E103014185010C030140BB02D015EC28
:100B400018F0010C0C01636B646B7BC377F393DFCC
:100B5000F3CF61FCF4CF62FC0C01F350F41003E11D
:100B6000F36AF46A12007BC345F3C4EC00F003019E
:100B70007E510C01615D03017F510C01625904E259
:100B800061CC7EF362CC7FF3030135517E25006E8C
:100B900036517F211FEC1AF029E235512D5D0C01F1
:100BA000636F030136512E590C01646F010E6327E8
:100BB000000E642303017C517D110EE063CCC5F36C
:100BC00064CCC6F37EEC18F00C01635103017C2762
:100BD0000C01645103017D230C01635103017E5F0D
:100BE0000C01645103017F5BBDEC1AF07C517D1157
:100BF00006E07EC3C5F37FC3C6F37EEC18F00301A5
:100C00007E5135277F5136230C01635103017E2726
:100C10000C01645103017F237E510C01615D006E64
:100C2000625103017F55016E00507E5D01507F5976
:100C300002E3418504D040BB02D015EC18F07EC31E
:100C4000F3FF7FC3F4FF1200030180512BEC17F078
:100C500003E3F36AF46A120080C345F3C4EC00F0C6
:100C600003012B512D5D0C013B6F03012C512E59BB
:100C70000C013C6F80C377F3FEDE0C01F3503B5D4B
:100C8000006E3C51F454FBEF17F0030181512BEC43
:100C900017F003E28451851103E1F36AF46A12004C
:100CA00081C345F3C4EC00F081C377F3E4DEF3CFF6
:100CB00002FCF4CF03FC030186518425006E8751AA
:100CC0008521016E0C010050F35C0150F4580BE2D9
:100CD000030186510C01025D0301846F87510C01F1
:100CE00003590301856F0301355186250C01006FFF
:100CF0000301365187210C01016F005103012D5D65
:100D00000C01015103012E5906E2ACEC17F00C0165
:100D1000005F0150015B0C01005103012D5D0C01CE
:100D2000046F015103012E590C01056F010E0427B8
:100D3000000E0523030184510C01045D030185515C
:100D40000C01055907E384C3C5F385C3C6F313EC4F
:100D500019F022D004CCC5F305CCC6F313EC19F07E
:100D600069EC16F00C0104510301845D0301C56FA9
:100D70000C01055103018559CEEC19F0B3EC1BF0C1
:100D8000030182510C0104250301BF6F030183514C
:100D90000C0105210301C06F69EC16F084C3F3FF59
:100DA00085C3F4FF120089C386F38AC387F3010E5B
:100DB0000301846F856B0301060E826F0C0E836F37
:100DC00088C381F362DF0C010651120003018B51CD
:100DD0002BEC17F003E28E518F1103E1F36AF46AF2
:100DE00012008BC345F3C4EC00F08BC377F343DEF2
:100DF00003019051F35C0C013B6F03019151F458D6
:100E00000C013C6FD7EC19F001E205D103019251BE
:100E100093110DE00C013B510301925D0C013C511B
:100E20000301935904E292C33BFC93C33CFC35514C
:100E300090250C013F6F0301365191210C01406F49
:100E40003F5103012D5D0C01405103012E5906E273
:100E5000ACEC17F00C013F5F0150405B3FCC39FC1C
:100E600040CC3AFC0C013F5103012D5D0C013D6F5C
:100E7000405103012E590C013E6F010E3D27000E1B
:100E80003E2390C33FFC91C340FC8EC341FC8FC303
:100E900042FC8CC343FC8DC344FC03018CC3E9FFBB
:100EA0008DC3EAFF8C2B8D23EFCF46FC0C01486BE2
:100EB0000301945109E0610E0C01465D05E34651C2
:100EC0007A0802E3E00E46270C01200E476FE85037
:100ED0003D5D000E3E5902E23DCC47FC47513B5D73
:100EE000000E3C5902E23BCC47FC475164EC19F040
:100EF00039CCC2F33ACCC3F3A5EC1AF0490EBF6F5C
:100F00000C0EC06F69EC16F00C014751B1EC19F0F2
:100F1000392701503A234751B1EC19F03D5F015098
:100F20003E5B3D513E1106E12BC339FC2CC33AFC1C
:100F30003D693E69030194513EE00C01456B475108
:100F4000455D5FE24BEC18F0EFCF00F0610E005C06
:100F50000BE34BEC18F0EF507A0806E3E00E006E5E
:100F60004BEC18F00050EF264BEC18F0EF50465DBC
:100F70000EE166EC1AF02CE01FEC19F0610E465DF4
:100F800018E346517A0815E3E00E462712D041CC0B
:100F90008EF342CC8FF348510CE0BAEC18F0610E9E
:100FA0000C01465D05E346517A0802E3E00E462750
:100FB000486B452BC4D70C01456B4751455D21E279
:100FC0004BEC18F0EF50465D10E166EC1AF00AE1C8
:100FD0000C0141513F5D026E40514255036E455137
:100FE0008BEF18F01FEC19F00AD041CC8EF342CCF5
:100FF0008FF3485104E0BAEC18F00C01486B452B14
:10100000DCD70C014751B1EC19F03B5F01503C5B60
:10101000D7EC19F003E2F368F46812004751B1EC21
:1010200019F03F27015040234FD7030195512BEC76
:1010300017F003E299519A1103E1F36AF46A12007E
:1010400095C345F3C4EC00F095C377F314DD0301B9
:101050009B51F35C0C01026F03019C51F4580C018D
:10106000036FE0EC19F001E205D103019D519E11DF
:101070000DE00C01025103019D5D0C0103510301C0
:101080009E5904E29DC302FC9EC303FC35519B257F
:101090000C01066F030136519C210C01076F0651AC
:1010A00003012D5D0C01075103012E5906E2ACEC42
:1010B00017F00C01065F0150075B06CC00FC07CC63
:1010C00001FC0C01065103012D5D0C01046F075159
:1010D00003012E590C01056F010E0427000E052394
:1010E0009BC306FC9CC307FC99C308FC9AC309FC7C
:1010F00096C30AFC97C30BFC98C30CFC030196C370
:10110000F6FF962B97C3F7FF47EC1BF0106B03011C
:101110009F5109E0610E0C010E5D05E30E517A0846
:1011200002E3E00E0E270C01200E0F6FE850045D65
:10113000000E055902E204CC0FFC0F51025D000EB7
:10114000035902E202CC0FFC0F5164EC19F000CC01
:10115000C2F301CCC3F3A5EC1AF0110EBF6F0C0E55
:10116000C06F69EC16F00C010F51B1EC19F00027BB
:10117000015001230F51B1EC19F0045F0150055BE0
:101180000451051106E12BC300FC2CC301FC0469CA
:10119000056903019F513EE00C010D6B0F510D5D80
:1011A0005FE252EC18F0EFCF00F0610E005C0BE351
:1011B00052EC18F0EF507A0806E3E00E006E52ECA5
:1011C00018F00050EF2652EC18F0EF500E5D0EE1D3
:1011D0006DEC1AF02CE05EEC18F0610E0E5D18E379
:1011E0000E517A0815E3E00E0E2712D008CC99F3C1
:1011F00009CC9AF310510CE000EC18F0610E0C01D0
:101200000E5D05E30E517A0802E3E00E0E27106B27
:101210000D2BC4D70C010D6B0F510D5D21E252EC6B
:1012200018F0EF500E5D10E16DEC1AF00AE10C01C0
:101230000851065D026E07510955036E0D518BEF83
:1012400018F05EEC18F00AD008CC99F309CC9AF3A8
:10125000105104E000EC18F00C01106B0D2BDCD7E2
:101260000C010F51B1EC19F0025F0150035BE0EC8F
:1012700019F003E2F368F46812000F51B1EC19F0B1
:101280000627015007234FD7A6C394F3A4C392F3B4
:10129000A5C393F3A2C390F3A3C391F3010E03017B
:1012A0008E6F8F6B0301A10E8C6F030E8D6FA0C329
:1012B0008BF3E6EF06F00C01006B00512BEC17F0FE
:1012C00001E309D200CC45F3C4EC00F00C01036B40
:1012D000016B026B03014151020B03E14151040B0D
:1012E0000EE04BEC48F000090AE00C01100E036F11
:1012F00003014151040B01E0010E0C01016F0301D8
:1013000040AB11D086ECA0F003011E503B5D006E97
:101310001F503C59016EE83402E2C2EC1AF003E3BC
:101320000C01100E036F030140AD09D075EC19F0EC
:1013300002E2C2EC1AF003E30C01100E036F0B0E75
:1013400003013F5D0CE175EC19F002E2C2EC1AF00A
:1013500006E30C01110E036F03010C0E3F6F040E28
:101360003F5D53E10C01046B056B030E045D000E41
:1013700005594BE2E7EC1AF09BEC1BF046E0E7EC7A
:101380001AF0FEEC18F070EC18F00301425100184E
:1013900037E14351011834E1ECEC00F00A0EE66E3F
:1013A000E66AE7EC1AF0E9EC19F02BEC1AF006EC1F
:1013B00087F0060EE15EE7EC1AF0C7EC1AF0EECF0C
:1013C00010F3EDCF11F3E7EC1AF00C0EEDEC1AF080
:1013D000EECF0AF3EECF0BF3EECF0CF3EFCF0DF31E
:1013E00003010A2B0B230C230D232CEC18F00C010A
:1013F000120E036F0301060E3F6F32EC17F005D09B
:101400000C01042B000E0523B0D70C0103510AE098
:10141000015102E0000E01D0010E0301AE6F03CCBA
:10142000ADF325DA030140B92FD0070E3F5D01E08F
:101430004FD138EC18F001E04BD103014051070BBC
:10144000060816E14051080B01E0010E0C01036F84
:1014500000CC50F39DEC02F000CC50F39DEC02F078
:101460000C01035101E034D103010E0E3F6F30D166
:10147000ECEC00F00301020EAE6F0301100E3CEC29
:101480001BF077EC17F024D138EC18F001E020D1F4
:10149000ECEC00F003013F510C0A01E1CDD0060A4B
:1014A00001E1C4D0030A01E1D0D0010A01E1BAD0C0
:1014B0000F0A01E1AED00C0A01E1ABD00D0A01E147
:1014C0009DD0030A01E187D0060A5AE0010A48E0EC
:1014D000030A21E0010A01E0BDD0E5EC70F000094B
:1014E00001E1B8D00301010E3F6F24A50BD0080124
:1014F0008C6F18C389F819C38AF81AC38BF817ECD4
:1015000071F0A8D00801886F18C386F819C387F84E
:10151000F7EC70F09FD00801060E8D6F0C0E8E6FE9
:101520003AEC71F0000901E195D0EAEC70F00009A5
:1015300013E006CC18F307CC19F308CC1AF309CC46
:101540001BF30301020E3F6F2CEC18F0276B270EE4
:10155000026F036B046B50D077EC17F03F6B7AD0BF
:1015600086ECA0F01EC03BF31FC03CF30301180E35
:10157000EE6F030EEF6F08EC86F00301030E29D027
:1015800003011C0EF26F030EF36F0301180EF06FD0
:10159000030EF16F35EC86F0000915E186ECA0F042
:1015A00003013B511E5C006E3C511F58016E005000
:1015B000025D015003594EE2060E275D02E274EC13
:1015C0001AF0020E06D00C01020E036F016B03012C
:1015D000050E3F6F3FD00C01020E036F010E016F2D
:1015E000040E0301275D36E3040E276F200E026F01
:1015F000EF0E036F090E046F056B2CD0020E275DF2
:1016000003E20C01120E1DD040B71FD00C01020ED8
:1016100007D0050E275D0DE3080E3F6F0C01110E7C
:10162000036F18D0050E275D10E209D0050E275D67
:101630000CE20C01100E05D0050E275D06E20C0130
:10164000110E036F010E016F05D00C01140E036F14
:10165000010E026F0C01035136E001512EE003012F
:1016600074EC1AF031510E5D0C01046F030132511C
:101670000F590C01056F030130EC1AF007E2A1ECE1
:1016800017F000500C0104270150052304CC00F092
:1016900005CC01F0026A036A0050030140EC19F026
:1016A0000C010451030114270C01055103011523FA
:1016B000CAEC1AF00301AE6B03D00301010EAE6F4A
:1016C00003CCADF3D4D80C01025102E0F9EC0FF0D9
:1016D0000C01002BF2D5046B056B030E045D000EAC
:1016E00005592FE2E7EC1AF09BEC1BF001E1120028
:1016F000E7EC1AF0CFEC1AF048EC19F002C0E6FF64
:1017000003C0E6FF86ECA0F0E552E7CF03F0E55218
:10171000E7CF02F002501E5C006E03501F58016EAE
:10172000DC0ED8800054010E015406E232EC17F0B2
:101730000C010407000E055B0C01042B000E0523B1
:10174000CCD71200A7C3E9FFA8C3EAFFEECF14FC71
:10175000EECF15FCEECF16FCEFCF17FCA9C3E9FFC7
:10176000AAC3EAFFEECF18FCEECF19FCEECF1AFCAD
:10177000EFCF1BFC0C011C6B060E1D6FABC31EFCD8
:10178000ACC31FFCABC3C8F6ACC3C9F6D6EC66F05D
:10179000F3CF1EFCF4CF1FFC0C0E0601D06FD16BF3
:1017A0000601140ECE6F0C0ECF6FF1EC66F0F3CF86
:1017B00020FCF4CF21FC0C01201F211FABC319FF1B
:1017C000ACC31AFFA1EC4AF0F3CF22FCF4CF23FC08
:1017D0000C01F350201948E12351211945E10E0174
:1017E0007C6B7D6B63EC97F0140E0F01236F246B01
:1017F0000F01000E216F0C0E226F41EC4BF0030124
:10180000000EB36F0C0EB46FB3DB0C010C5166EC21
:101810001BF0040DF3507BEC1AF000C024FC0050C8
:10182000006E016AE8500301AB5DAB6F0150AC592B
:10183000AC6F140EAB5F000EAC5BA7C3B1F3A8C3D3
:10184000B2F30301000EAF6F0C0EB06F56DA000951
:101850000BE0ABC3B7F3ACC3B8F30301000EB56F35
:101860000C0EB66F98EC10F052EC48F0010CECEC5A
:1018700000F00301ADA102D04187AD91409B409D96
:10188000409F4193419541914BEC48F00009FCE0A9
:10189000060E0301AD1504E00C016B6B6C6BB0D050
:1018A0000E512F1907E10F51301904E10C016B6B38
:1018B0006C6B8ED02F510E5D30510F591FE20E51BF
:1018C0002F5D0C016B6F03010F5130599DEC19F026
:1018D00004E214C36BFC15C36CFCF2EC19F005E2D6
:1018E00025C36BFC26C36CFC41856BCCC5F36CCC6B
:1018F000C6F3C9EC18F0FBEC19F06AD00E512B5D61
:101900000C01696F03010F512C590C016A6F695169
:1019100003012F25006E0C016A5103013021016E75
:101920002951005C0C016B6F03012A5101589DEC99
:1019300019F004E214C36BFC15C36CFCF2EC19F053
:1019400005E225C36BFC26C36CFC41850C01695183
:101950006B5D6A516C5904E26BCC69FC6CCC6AFC1F
:1019600069CCC5F36ACCC6F3C9EC18F00C01695117
:101970006B5D696F6A516C596A6F69516A111FE03A
:1019800069CCC5F36ACCC6F344C3C4F329C3C2F31C
:101990002AC3C3F30301C16B03010E512B5D006E1B
:1019A0002C510F55016E026A036A360E0026C7ECF1
:1019B0001BF000C0BFF301C0C0F369EC16F0FBECF4
:1019C00019F02B510E5D2C510F5902E375EC1BF0F1
:1019D000030141A715D014510C016B1904E1030157
:1019E00015510C016C190CE0030125510C016B1908
:1019F00004E1030126510C016C1902E00301AD81E1
:101A00000C016B516C1104E1030E0301AD151CE0D8
:101A10000C016B510301145F0C016C510301155B48
:101A20000C016B516C1102E00301AD870301AEA103
:101A300007D0276BF20E026F9E0E036F046B056BCF
:101A400096EC18F0408929D0AEA319D0400EE96E6B
:101A5000030EEA6EEF50070BE82AE850070BF36E0F
:101A6000F46EF80EEF14F310EF6E0607000E075B2E
:101A7000085B095B010E0C016B6F6C6B0ED040A90B
:101A80000CD0AEB108D0275106E02707D890053317
:101A900004330333023396EC18F012C347FC13C32C
:101AA00048FC10C349FC11C34AFC06C34BFC07C3E6
:101AB0004CFC08C34DFC09C34EFC0AC34FFC0BC3CE
:101AC00050FC0CC351FC0DC352FC0C0153915393B9
:101AD00053955397ADC354FC596B5A6B6B5103012B
:101AE00006270C016C5103010723000E082309236C
:101AF000ADA315D0ADB905D00C014F6B506B516B38
:101B0000526B030124A306D00C014B074C5B4D5BC9
:101B10004E5B05D0062B07230823092324830301EA
:101B2000ADB124813551335D365134590AE32CEC83
:101B300019F00C010250005C556F03500158566FAC
:101B40000DD03351355D0C01556F030134513659B9
:101B50000C01566F010E555F000E565B81EC48F08C
:101B6000F3CF45FCF4CF46FC0C01400EF35C000EB5
:101B7000F45803E2456B466B04D0400E455F000EFF
:101B8000465B5551455D5651465904E245CC55FCDE
:101B900046CC56FC0301470EB36F0C0EB46FE8D968
:101BA000140E0C016B27000E6C235389539B538D2D
:101BB000539F0301ADA323D0040E0C016B27000E2D
:101BC0006C23020E5B6F040E5C6F020E5D6F180ECD
:101BD0005E6F010E006E530EE96E0C0EEA6EEF5052
:101BE00066EC1BF000240F0BF36EF46EF346F34625
:101BF000F346F3460F0EEF14F310EF6EF4508EC75A
:101C00005FFC8FC760FC90C761FC91C762FC18C382
:101C100063FC19C364FC1AC365FC1BC366FC0C019E
:101C2000676B060E686F6BCC69FC6CCC6AFC6BCC86
:101C3000C8F66CCCC9F6D6EC66F0F3CF69FCF4CFED
:101C40006AFC0C0E0601D06FD16B06015F0ECE6FE1
:101C50000C0ECF6FF1EC66F0F3CF57FCF4CF58FCCD
:101C60000C01571F581F0E0E0F01116F126B48EC1D
:101C70004AF06BCC7AFE6CCC7BFE0E01060E796FBF
:101C80000E01180E776F030E786FF0EC96F0140EBD
:101C9000D2EC1AF0470E266F0C0E276F79EC4BF042
:101CA0000301ADA309D0040ED2EC1AF05B0E266F2F
:101CB0000C0E276F79EC4BF0220E0F01136F146B93
:101CC0005BEC4AF06BCC19FF6CCC1AFFA1EC4AF02C
:101CD000F3CF45FCF4CF46FC320E0F01116F126BAF
:101CE00048EC4AF0020ED2EC1AF0450E266F0C0EAC
:101CF000276F79EC4BF0FEEF49F0A8EC17F0EE50AF
:101D0000ED1001E1000C0C01FE0E266F35EC1AF00F
:101D1000BEEC19F035EC1AF00450EE24026E0550BA
:101D2000EE20036E0BEC1BF00250EE24006E03500D
:101D3000EE20016EA8EC17F00050EE18276F01504E
:101D4000EE18286F256B25512BEC17F048E225CCB7
:101D500045F3C4EC00F00D0E03013F5D3DE0040EC1
:101D60003F5D0BE16CEC1BF00050421935E1015076
:101D7000431932E125CC26FC2FD00C012751030159
:101D800042192AE10C0128510301431925E1ECEC29
:101D900000F06CEC1BF00301125100181DE113510F
:101DA00001181AE10BEC1BF048EC19F01051021865
:101DB00013E11151031810E135EC1AF0EE50181927
:101DC0000BE1EE50191908E1EE501A1905E1EE5039
:101DD0001B1902E101E1010C0C01252BB4D7FE0E09
:101DE000265D21E026CC45F3ADEC1AF0FE0E0C0189
:101DF000265D19E027CC42F328CC43F342EC1AF0DD
:101E00002BEC1AF0F7EC18F00BEC1BF0EECF10F304
:101E1000EDCF11F3A8EC17F0EECF12F3EDCF13F3E3
:101E2000D7EC1AF0010C0BEC1BF00D0EEDEC1AF0D8
:101E3000EF50020B01E1000C0501F951FA1101E02C
:101E4000000C0C01296B2A6B030E295D000E2A5928
:101E50003BE2E1EC1AF09BEC1BF036E0E1EC1AF00F
:101E6000FEEC18F070EC18F0A8EC17F048EC19F044
:101E70000250001824E10350011821E1E1EC1AF0AE
:101E8000C7EC1AF070EC18F00BEC1BF048EC19F0F2
:101E90000250001814E10350011811E135EC1AF05A
:101EA000B7EC1BF0EE500001001808E1EE500118ED
:101EB00005E1EE50021802E1EE50031848E00C0173
:101EC000292B000E2A23C0D7256B25512BEC17F0A8
:101ED0004EE225CC45F3C4EC00F0030140A744D00A
:101EE000ECEC00F06CEC1BF00050030112193CE12B
:101EF0000150131939E142EC1AF0E1EC1AF0E9EC67
:101F000019F080EC19F00BEC1BF070EC18F0E1EC20
:101F10001AF0C7EC1AF000C0EEFF01C0EDFF0BECA9
:101F20001BF0040EEDEC1AF0B7EC1BF00C0EEDEC10
:101F30001AF000C0EEFF7BEC1BF06CEC1BF0E1EC48
:101F40001AF0FEEC18F000C0EEFF01C0EDFF86ECC9
:101F5000A0F01FC001F0E1EC1AF0CFEC1AF01EC0A7
:101F6000EEFF01C0EDFF000C0C01252BAED7000CDD
:101F700010EC1BF098EC17F0F3CFEEFF01C0EDFF73
:101F800010EC1BF0020EEDEC1AF098EC17F0020EBC
:101F9000F3CFEBFF030E87EC19F0040EE6EC17F01D
:101FA000040EA6EC18F0080EE6EC17F0080EA6ECEE
:101FB00018F00E0EEDEC1AF098EC17F00E0EF3CFB1
:101FC000EBFF0F0E87EC19F0FEEC18F098EC17F011
:101FD000100EF3CFEBFF110E87EC19F0CFEC1AF0D7
:101FE00098EC17F0120EF3CFEBFF130E01C0EBFFCE
:101FF0001200ECEC00F012C342F313C343F398EC6D
:1020000019F029C331F32AC332F32BC333F32CC3A2
:1020100034F3BDEC1AF003014051080B02E0040E4A
:1020200001D00D0E3F6F4091409340954099409BE9
:10203000409D409F41914193419541974189249111
:10204000249324972499D7EC1AF02BEC63F0F3CF68
:1020500006F3F4CF07F32BEC63F0F3CF08F3F4CFE0
:1020600009F3030122692369010E146F156B120035
:102070000C0E0E017C6F7D6B63EC97F031EC4BF036
:102080000C01416FF00E4115E840E8403F0B7BEC3E
:102090001AF000C041FC005046E0070E04EC1AF0B4
:1020A0000C014151410700093EE0DCEC1AF0E85018
:1020B0003AE04205F5E0020E425D26E1030E415D85
:1020C00032E3436B446BDCEC1AF0040E425D08E132
:1020D00031EC4BF00C01446F31EC4BF00C01436FD1
:1020E000180E435D020E44591EE3B40ED8804355CA
:1020F000050E445504E2B40EF36E050E17D043CC22
:10210000F3FF44CCF4FF1200020E415D0CE3DCEC63
:102110001AF0E850415D07E3425104EC1AF00C015B
:102120004251415FBDD7180EF36E020EF46E1200DD
:102130002DEC1BF00D0EEDEC1AF0EFCF33FC2DEC77
:102140001BF0080EEDEC1AF0EECF34FCEECF35FCB0
:10215000EECF36FCEFCF37FC2DEC1BF0040EEDEC90
:102160001AF0EECF38FCEECF39FCEECF3AFCEFCFD1
:102170003BFC030140914093409540B902D077EC7D
:1021800017F03F51050A1FE0010A08E0B7C33CFC05
:10219000B8C33DFC0C0133A14AD046D00C0133B585
:1021A00010D033A906D04DEC19F0040E3CEC1BF016
:1021B00008D033A306D0D7EC18F082EC1AF039EF30
:1021C00019F0F9EF0FF00C0133B5120033A910D05C
:1021D00025EC1AF00301061908E1EE50071905E194
:1021E000EE50081902E1EE50091902E0C9EF17F0AC
:1021F0000C0133A38AEF15F0D7EC18F00CEC1AF0B1
:10220000EECF14F3EDCF15F382EC1AF00C0133A9E5
:1022100009D0B4EC17F00301070E3F6F77EC17F00D
:102220004099120039EF19F03C2B000E3D2333A3E7
:1022300003D03C2B000E3D2319EC1AF00AE32CECE2
:1022400019F00C010250005C316F03500158326FDD
:102250000DD03351355D0C01316F030134513659C6
:102260000C01326F010E315F000E325B0A0EE96E17
:10227000030EEA6EEE50385D2B6FEE5039592C6F1D
:10228000EE503A592D6FEE503B592E6F2BCC2FFC50
:102290002CCC30FC3E6B3C513D115FE03151321192
:1022A00069E0800E2E1503E1E1EC18F03BE33CCC35
:1022B00000F03DCC01F0026A036A2B0EE96E0C0EB1
:1022C000EA6EEE500026EE500122EE500222EE5051
:1022D00003220334000E031809E6D880000E0054D0
:1022E000000E0154000E0254000E03541DE23C5136
:1022F000315D046E32513D55056E066A076A05AEC2
:1023000002D00668076807502E19E8AE02D02E35B5
:1023100008D02B51045C2C5105582D5106582E51D4
:10232000075802E3010E3E6F82EC1BF02E5103189A
:10233000E8AE02D0033402D050EC1BF01BE22F5168
:102340003C25046E30513D21056EE83413E2045003
:102350000008000E05540EE20BD02B512C112D114C
:102360002E1106E0800E2E1505E1E1EC18F002E2D8
:10237000010E3E6F3E5104E133B5CCD3B4EF17F0FC
:10238000060E331502E0F9EF0FF033A91200030136
:102390003F510C0A01E1B0D10B0A1CE00F0A1AE010
:1023A000010A18E0020A16E0010A14E00C0A01E032
:1023B000BFD125EC1AF0061908E1EE50071905E126
:1023C000EE50081902E1EE50091902E0C9EF17F0CA
:1023D000070E3F6F0E512F5D0C01296F03010F5146
:1023E00030590C012A6F800E2A1508E00301A1EC78
:1023F00017F000500C01292701502A2329CC00F0A6
:102400002ACC01F0026A036A9FEC1BF0EE50002414
:10241000256FEE500120266FEE500220276FEE5000
:102420000320286F250EE96E0C0EEA6EEE50E4ECE8
:1024300018F002E6A7EC19F015E203012451010B94
:102440000AE0010E0C01251905E1265103E127518F
:1024500001E1285102E04AEF1AF03407000E355B23
:10246000365B375B030110EC1AF001AE02D0026854
:1024700003689FEC1BF00050EE5C0C01256F0150CF
:10248000EE58266F0250EE58276F0350EE58286F13
:10249000030130EC1AF00BE2A4EC1BF000500C012D
:1024A000255F0150265B0250275B0350285B250EF9
:1024B000E96E0C0EEA6EEE500C01E4EC18F002E648
:1024C000A7EC19F06CE20301A4EC1BF00C01255100
:1024D000005C2651015827510258285103585FE3E8
:1024E000030124972499419131C329FC32C32AFC6A
:1024F0000C012551030131270C0126510301322320
:102500000C01295103010E5D0C012A5103010F59E1
:1025100009E330EC1AF02FE20E51315D006E3251BA
:102520000F551BD0A1EC17F00E5100240C01296FA0
:1025300003010F5101200C012A6F030131510C01DD
:10254000295D030132510C012A5915E22951030179
:10255000315D006E32510C012A55016E00010050B0
:10256000030106270001015003010723000E082381
:102570000923CAEC1AF003012B51315D2C51325959
:1025800006E3A1EC17F00050315F0150325B2B5194
:102590000E5D2C510F5928E375EC1BF025D003017B
:1025A0000E51311902E10F5132191EE024A71BD040
:1025B00024A918D010EC1AF001AE02D0026803680A
:1025C000005040EC19F030EC1AF009E2A4EC1BF0DA
:1025D00001AE02D002680368005040EC19F0CAEC6A
:1025E0001AF04185248924872F5131191CE130517B
:1025F000321919E141B704D077EC17F0409913D0A4
:1026000059EC18F010E1EE5035190DE1EE50361985
:102610000AE1EE50371907E106E103012451010BED
:1026200002E04099419725EC1AF00301065D006E27
:10263000EE500759016EEE500859026EEE500959DE
:10264000036E0CEC1AF00C010050EE5C3F6F015071
:10265000EE58406F03011451151106E10C013F5172
:10266000401102E0030141833FCC14F340CC15F349
:10267000080E03013F5D20E159EC18F059E1EE50DE
:10268000351956E1EE50361953E1EE50371950E145
:102690004FE103012451010B4BE0F1EC1AF0BA0EAB
:1026A000030137271A0E3823030E3923000E3A236D
:1026B0004089090E3F6F3CD0090E3F5D0AE10C01D5
:1026C00033B136D04DEC19F0140E3CEC1BF0F9EFA1
:1026D0000FF00A0E3F5D2CE159EC18F00CE1EE50C2
:1026E000351909E1EE50361906E1EE50371903E1CC
:1026F00001E010D27EDC120006C300F007C301F037
:1027000008C302F009C303F0002AC7EC1BF0005015
:102710000C0134190CE10150351909E10250361948
:1027200006E10350371903E101E0F4D162DC120045
:102730000C0133BB12000B0E03013F5D01E11200DF
:102740000A0E3F5D01E112000C0E3F5D01E1120037
:10275000B751B81101E166D10C01303504E22F51B7
:102760000008000E305501E2A2D068EC18F0006EAF
:10277000016A2F51F35C0E017C6F0C01305101583E
:102780000E017D6F63EC97F00C012F510301B72709
:102790000C0130510301B823B7510C01315D030125
:1027A000B8510C01325904E231CCB7F332CCB8F352
:1027B0000301B7510A27B8510B23000E0C230D2338
:1027C0003351B725006E3451B8211FEC1AF024E2C2
:1027D00033512D5D0C01296F030134512E590C0129
:1027E0002A6F010E2927000E2A2389EC1BF033C320
:1027F000BFF334C3C0F3FCEC1AF08BEC19F0006E9D
:10280000B8510C012A55016E03012B510024336F7E
:102810002C510120346F0CD022EC1BF033C3BFF3DA
:1028200034C3C0F356DA0301B7513327B851342308
:10283000221D01E1231D01E1F5D0B751225FB851FE
:10284000235B165122250C01296F03011751232107
:102850000C012A6F800E2A1502E0030125D0030126
:10286000233504E222510008000E235501E2DAD09C
:102870000C01295103010A270C012A5103010B23E2
:10288000000E0C230D230C012951030133270C01E9
:102890002A510301342333512D5D34512E5904E262
:1028A0005BDB335F0150345B22692369BBD0303579
:1028B00001E3B8D02F510008000E305501E3B2D02B
:1028C0000301B7510C012F25006E0301B8510C0113
:1028D0003021016E0050315D0150325909E22F5113
:1028E000315D0301B76F0C01305132590301B86FEC
:1028F000EFDB0E017C6F7D6B63EC97F0A9EC1BF0B6
:10290000026EAEEC1BF0036E02500301B725006EA1
:102910000350B8211FEC1AF031E233512D5D006EE7
:102920002E51345515EC1BF00C012F51005C296F12
:10293000305101582A6F800E2A1508E189EC1BF0EE
:1029400052EC19F0C06FFCEC1AF01DD022EC1BF019
:10295000A9EC1BF0006EAEEC1BF0016E03012B51D5
:102960002D5D026E2E512C55036EA8EC1AF003015A
:102970000250005CBF6F0350015804D022EC1BF0E2
:1029800052EC19F0C06FA5D90301221D0BE1231DE4
:1029900009E12FCC22F330CC23F3B7C316F3B8C32D
:1029A00017F340D022510C012F5D030123510C017C
:1029B00030591EE23DDB06E30C0158EC19F02351BF
:1029C000055805E2B7C316F3B8C317F30CD091EC62
:1029D00019F00C012F51005C0301166F0C013051EE
:1029E00001580301176F2FCC22F330CC23F31AD0F8
:1029F0001FDB18E291EC19F00C012F51005C3051F3
:102A0000015810E358EC19F0026E23510558036E7B
:102A10001651025C006E17510358016E00501627C4
:102A2000015017230C013C513D1119E0070E030121
:102A30003F5D04E033C335F334C336F340AF04D015
:102A400093DAECEC00F00BD0408F40BD08D0408D05
:102A500089EC1AF00F0E03013D27000E3E230C01F6
:102A600033A158D00AC300F00BC301F00CC302F02D
:102A70000DC303F0002AC7EC1BF03CCC04F03DCCA6
:102A800005F0066A076A380EE96E0C0EEA6EEE5023
:102A90000426EE500522EE500622EE50072200508A
:102AA000041838E10150051835E10250061832E1EA
:102AB000035007182FE12EE18FEC1BF03F51090A5C
:102AC00024E0010A12E00F0A06E0010A22E10C0EDE
:102AD0003F6FF3EF18F00B0E3F6F89EC1AF01F0EEB
:102AE00003013D27000E3E2314D0E3DA0AE1EE5045
:102AF000351907E1EE50361904E1EE50371901E1BE
:102B000004E003010A0E3F6F04D04AEC1AF0F9EF1B
:102B10000FF02ADA12000301B9519DD901E3000C2C
:102B2000B9C345F3C4EC00F00301BA51BB1103E192
:102B3000010EBA6FBB6B29512D5D0C01006F0301B3
:102B40002A512E590C01016F010E005F000E015B2E
:102B5000030190EC1AF00C010050005D0150015986
:102B600001E2000CECEC00F0030E0301BE1502E1E3
:102B7000030EBE13BCC304FCBDC305FC90EC1AF0ED
:102B800000500C01005F0150015B0301BEA313D094
:102B9000BEA10CD000CC00F001CC01F0D8900132E5
:102BA000003200500C010427015004D00C010051E8
:102BB000042701510523030129510C010425006F4D
:102BC00003012A510C010521016F010E0027000E9F
:102BD000012333C302FC34C303FC0301221D01E1C2
:102BE000231D13E09EDB00500C010227015003233C
:102BF000025103012D5D0C01035103012E5905E221
:102C0000ABD90C01025F0150035B0C0102510301BF
:102C1000355D0C010351030136590CE20C010051E2
:102C20000301355D0C0101510301365918E2BEA5BF
:102C30000ED0000C50EC1AF00AE2005103012B5D9B
:102C40000C01015103012C590AE2BEB5000C00CC65
:102C500035F301CC36F300CC33F301CC34F303016C
:102C600050EC1AF025E2040E0301BE1521E02B51B1
:102C70000C01025D0301C56F03012C510C010359C6
:102C80008DDB44C3C1F300CCBFF301CCC0F321D82A
:102C9000D0DB0EE20C01005103012B5D006E2C51C4
:102CA0000C010155016E00500301335F0150345B8C
:102CB00000CC2BF301CC2CF3D7EC1AF029C331F361
:102CC0002AC332F335DB070E03013F5D01E14CD926
:102CD000010C0301C4512AE0010A01E01200C151B4
:102CE00011E0010A01E01200C5C3E6FFC6C3E6FF1A
:102CF000C2C3E6FFC3C3E6FFBFC3E6FFC0C3E6FF30
:102D0000F7EF18F0BF1D01E1C01D06E0BFC311FFC2
:102D1000C0C312FF48EC4AF0C5C328FFC6C329FF51
:102D2000C2C326FFC3C327FF79EF4BF0C15117E0A1
:102D3000010A01E01200C21D01E1C31D06E0C2C389
:102D400013FFC3C314FF5BEC4AF0C5C323FFC6C324
:102D500024FFBFC321FFC0C322FF41EF4BF0C5C317
:102D60001FFFC6C320FFC2C31DFFC3C31EFFBFC3D7
:102D70001BFFC0C31CFFC4EC4AF01EEC4BF0000963
:102D8000FCE012000301C9510EE0010A01E012004B
:102D9000CDC3E6FFCEC3E6FFCADBC7C3E6FFC8C3A9
:102DA000E6FF9EEF1AF0C71D01E1C81D06E0C7C38C
:102DB00011FFC8C312FF48EC4AF0100E0C01286F37
:102DC000296B0301CD51CE1137E00C0128510301CD
:102DD000CD5D0C0129510301CE5904E2CDC328FC7D
:102DE000CEC329FC28CCE6FF29CCE6FFA0DB180ED9
:102DF000E66E0C0EE66EA2DB28CC28FF29CC29FF5C
:102E00000F01180E266F0C0E276F79EC4BF028CCB3
:102E100000F029CC01F0026A00500301CA270150DA
:102E2000CB230250CC230C0128510301CD5F0C01B0
:102E300029510301CE5BC5D71200140EEA02F3CF6D
:102E4000EAFFE902F3CFE9FFF450EA26C10EE926D2
:102E5000050EEA221200006E016A090E005C000EE7
:102E60000158120004CCC5F305CCC6F30301020ED1
:102E7000D880C557000EC657140EC603F3CFC6F34D
:102E8000C503F3CFC5F3F450C6270301010EC46F89
:102E90000C0104250301C26F000E0C010521030182
:102EA000C36F140EC303F3CFC3F3C203F3CFC2F354
:102EB000F450C327C10EC227050EC323B3EC1BF089
:102EC000140E206E216A04CC25F005CC26F0FAEC15
:102ED0009FF01EC0BFF31FC0C0F3C10E0301BF2788
:102EE000050EC023F6DE0501F96BFA6B120079DBE3
:102EF000740E03013727350E3823060E3923000ED2
:102F00003A231200460E006E430E016E010E026E51
:102F100014CC03F0046A056A060E246E256A266A3C
:102F200014CC1FF004C020F005C021F018EFA0F071
:102F3000EECFC8F6EDCFC9F6D6EC66F0F7DB10EFB2
:102F40001BF029512B5D006E2C512A55016E120089
:102F500062DB020EEDEF1AF02B512D5D006E2E514B
:102F60002C5563DB0050120073DB100E3CEF1BF09E
:102F700079DB060E60D300501C24F36E01501D2037
:102F8000F46E02501E20F86EF4CFF7FFF3CFF6FF79
:102F9000120006C338FC07C339FC08C33AFC09C356
:102FA0003BFCECDB55DB040E67DB38CC06F339CC9D
:102FB00007F33ACC08F33BCC09F312000301C46BCE
:102FC0000301C269C36944C3C1F3120006DBEECF3B
:102FD000CAF6EECFCBF6EECFCCF6EFCFCDF6DBECEC
:102FE00066F01EC000F01FC001F020C002F021C03A
:102FF00003F010EF1BF0016E00C0F3FFF46E12003F
:103000000ACC96F30BCC97F30CCC98F303010ACCC3
:10301000F6FF962B0BCCF7FF000E97230CCCF8FF96
:1030200098230800F5CF0EFC12001CDB1F0E03D303
:103030002F510301B725006E0C0130510301B82157
:10304000016E22511625026E23511721036E005086
:10305000025C0150035812001A511825026E1B51D0
:103060001921036E02501025006E0350112121D347
:103070007CECA0F0030137511E5C006E38511F58E4
:10308000016E39512058026E3A512158036E0001E9
:10309000800E031412004551EA6A490FE96E0C0EC6
:1030A000EA2212000D51EA6A110FE96E0C0EEA22B3
:1030B000120045DBEE500C013419120096C3F6FFE6
:1030C000962B97C3F7FF000EE2DA010E106F120085
:1030D000C4DA0C0E82DAEF50F9DA040DF350120064
:1030E000EECF00F0EFCF01F012000301010EC46F2C
:1030F00064C3C2F365C3C3F33FEF1BF044C3C4F31F
:1031000035C3C2F336C3C3F32EDB7CC3BFF37DC329
:10311000C0F369EF16F000010224006E000E0320D8
:1031200084DA00C0F3FF01C0F4FF12007CECA0F0D1
:103130001E5003010225376F1F500321386F2050A6
:103140000421396F215005213A6F120046DA1EC062
:10315000EEFFD1DA10EF1BF069C3CAF36AC3CBF3F9
:103160006BC3CCF344C3C9F32FC3C7F330C3C8F355
:10317000C2EF16F043CC8CF344CC8DF3030143CC67
:10318000E9FF44CCEAFF8C2B000E8D23EFCF46FCE9
:10319000120044C3C4F30EC3C2F30FC3C3F303014D
:1031A000C16B360E0301BF6FC06B69EF16F038CCF0
:1031B0000AF339CC0BF33ACC0CF33BCC0DF38FEF85
:1031C0001BF0A0DA50EF1BF0345D256FEE5035593F
:1031D000266FEE503659276FEE503759286FE83476
:1031E000000E2819120034DA110E3CEF1BF006EC29
:1031F00087F0006E060EE15E00501200100EEDEF3B
:103200001AF01C0D93DA000E0026010E012200C0F8
:10321000E6FF01C0E6FF1200036E02504B25006E70
:1032200003504C2146D244C3C4F300CCC2F301CCBA
:10323000C3F399DA82C3BFF383C3C0F312008CC314
:10324000E9FF8DC3EAFF8C2B000E8D23EFCF46FCE8
:103250000C01010E486F12002B512D5D006E2E5196
:103260002C55016E3551335D026E34513655036E67
:103270001200EED9120E00DA0301060E3F6F1200A3
:10328000065F0150075B0250085B0350095B1200A8
:10329000EECF02F0EFCF03F0120070DA0301AE6B55
:1032A0000301120056DA0301BF6F58DA030112005E
:1032B0002F510301B725046E0C0130510301B821D1
:1032C000056E2251045C12000301C56FC66B44C336
:1032D000C4F31200AA511C0DF3CFE9FFF4CFEAFFAB
:1032E000000EE926010EEA22120086ECA0F003018E
:1032F0001E503D5D006E1F503E59016EE8341200B5
:1033000006EC87F0026E060EE15E0250120001C06C
:10331000EBFF10EF1BF0DDDC0C0129510301B75D61
:10332000120022511625006E23511721016E120042
:1033300029C32FF32AC330F312000C016C6F6B51B9
:103340000301145D0C016C51030115591200D88062
:10335000000E2555000E2655000E2755000E285547
:103360001200006E016A0050120046C318F347C3F2
:1033700019F348C31AF349C31BF31200020E2DD9E7
:10338000EECF04F0EFCF05F012000C012C51030139
:103390006C5D0C012D5103016D5912000301C66FC4
:1033A00044C3C4F32BC3C2F32CC3C3F31200030101
:1033B0008E510C013B5D03018F510C013C591200F1
:1033C000030199510C01025D03019A510C0103594B
:1033D0001200E9CF00F0EACF01F0E9CFE6FFEACF33
:1033E000E6FF12000C016B510301255D0C016C51CD
:1033F0000301265912000C016B5103010E270C0129
:103400006C5103010F2312000F01236F246B0F0176
:10341000216B226B41EF4BF020D90E0EEDEF1AF02D
:1034200031510E5D006E0F513255016E026A036A12
:10343000120003013551335D365134591200016ECB
:1034400000502D5D01502E591200340EE96E0C0E05
:10345000EA6EEE501200180EE66E030EE66E1200D3
:1034600031510E5D32510F591200B1C3E9FFB2C3A1
:10347000EAFF1200A3510301665D0C01A451030190
:10348000675912000A0EE66EE66AB1C3E6FFB2C3E0
:10349000E6FF12000301AE6B0301100E3CEF1BF0C0
:1034A00035510C01025D030136510C010359120024
:1034B000C4EC00F033C335F334C336F31200016EAD
:1034C00003012B51005C2C510158120003018E079F
:1034D000000E8F5B8E518F11120003019907000EB1
:1034E0009A5B99519A111200272BD8900237033713
:1034F000043705371200006E016A140E005E000EDC
:10350000015A120038EC10F0F3CF25F3F4CF26F374
:10351000120086ECA0F01EC03DF31FC03EF3120067
:10352000BA51BC25006EBB51BD21016E1200CAC349
:10353000E6FFCBC3E6FFCCC3E6FF120031EC87F019
:10354000006E070EE15E005012000DD9030112005B
:10355000010E0226000E03221200C4EC00F0ECEF74
:1035600000F061C35FF31BEF03F063C35FF31BEF76
:1035700003F068C35FF31BEF03F02BC335F32CC3D9
:1035800036F3120000500008000E015412000A0E1B
:10359000EDEF1AF031C30EF332C30FF31200120E27
:1035A000EDEF1AF00F01286F296B0F01120029C3EC
:1035B0000EF32AC30FF3120031EC4BF00C01426FF3
:1035C000120029CCE9FF2ACCEAFF1DEF17F004CC4A
:1035D000E9FF05CCEAFF1DEF17F0E926000EEA220D
:1035E00012007CECA0F01EC037F31FC038F320C0DF
:1035F00039F321C03AF312008EDE0301C56F0C01CE
:103600002A510301B8590301C66FD8DC2BC3BFF39D
:103610002CC3C0F31200AFC3E9FFB0C3EAFF12002E
:10362000B3C3E9FFB4C3EAFF1200016E010E002626
:10363000000E012212000026AAD800C03BF301C0F0
:103640003CF31200B7C3C5F3B8C3C6F3DEEF17F0FF
:103650000301010EAE6F03011200B5C3E9FFB6C34B
:10366000EAFF1200408B86ECA0F01EC000F01FC0E5
:1036700001F0026A036A1200AD6F37EF0CF044C329
:10368000C1F32FC3BFF330C3C0F369EF16F0972324
:1036900098C3F8FF98230800F5CF0EFC0C01120028
:1036A00000502B5D01502C5902502D5903502E59BA
:1036B0001200016E00501219426F01501319436F2E
:1036C00012003FDCD890013200321200F00BE842C9
:1036D000E842E842E84212003BDC70EF18F01DC0FF
:1036E00004F01EC005F0BBEF17F02BDC00500E5F9E
:1036F00001500F5B120001C0EEFF02C0EEFF03C0DD
:10370000EEFF120031CC00F032CC01F0026A036A05
:10371000120029CCC5F32ACCC6F3DEEF17F0030163
:103720000A2B000E0B230C230D231200F3CF00F005
:10373000F4CF01F0120062DDEE50ED101200060E23
:10374000E96E030EEA6E1200A1EC17F0026A036A3A
:103750001200030133510C012F25120003013451D3
:103760000C01302112000301010EC16F1200EECFD7
:1037700000F0EECF01F08CDDE1EF1AF034CC06F36F
:1037800035CC07F336CC08F337CC09F31200000E22
:083790000122022203221200B3
:08379800490E0801BF1905E10B
:1037A000C05103E1C15101E1C25101E1E4D2480E2F
:1037B000BF1905E1C05103E1C15101E1C25101E16D
:1037C000D8D2470EBF1905E1C05103E1C15101E153
:1037D000C25101E1C8D2460EBF1905E1C05103E153
:1037E000C15101E1C25101E1BCD2450EBF1905E151
:1037F000C05103E1C15101E1C25101E1AFD2440E18
:10380000BF1905E1C05103E1C15101E1C25101E11C
:103810009FD2430EBF1905E1C05103E1C15101E13F
:10382000C25101E193D2420EBF1905E1C05103E13B
:10383000C15101E1C25101E186D2330EBF1905E148
:10384000C05103E1C15101E1C25101E173D2310E16
:10385000BF1905E1C05103E1C15101E1C25101E1CC
:1038600063D2300EBF1905E1C05103E1C15101E13E
:10387000C25101E157D22F0EBF1905E1C05103E13A
:10388000C15101E1C25101E14AD22E0EBF1905E139
:10389000C05103E1C15101E1C25101E13ED22D0EFF
:1038A000BF1905E1C05103E1C15101E1C25101E17C
:1038B00032D22C0EBF1905E1C05103E1C15101E123
:1038C000C25101E126D22B0EBF1905E1C05103E11F
:1038D000C15101E1C25101E11AD22A0EBF1905E11D
:1038E000C05103E1C15101E1C25101E10ED2290EE3
:1038F000BF1905E1C05103E1C15101E1C25101E12C
:1039000002D2280EBF1905E1C05103E1C15101E106
:10391000C25101E1F6D1270EBF1905E1C05103E103
:10392000C15101E1C25101E1EAD1260EBF1905E101
:10393000C05103E1C15101E1C25101E1DED1250EC7
:10394000BF1905E1C05103E1C15101E1C25101E1DB
:10395000D2D1240EBF1905E1C05103E1C15101E1EB
:10396000C25101E1C6D1230EBF1905E1C05103E1E7
:10397000C15101E1C25101E1BAD1220EBF1905E1E5
:10398000C05103E1C15101E1C25101E1AED1210EAB
:10399000BF1905E1C05103E1C15101E1C25101E18B
:1039A000A2D1200EBF1905E1C05103E1C15101E1CF
:1039B000C25101E196D11F0EBF1905E1C05103E1CB
:1039C000C15101E1C25101E18AD11E0EBF1905E1C9
:1039D000C05103E1C15101E1C25101E17ED11D0E8F
:1039E000BF1905E1C05103E1C15101E1C25101E13B
:1039F00072D11C0EBF1905E1C05103E1C15101E1B3
:103A0000C25101E166D11B0EBF1905E1C05103E1AE
:103A1000C15101E1C25101E156D11A0EBF1905E1B0
:103A2000C05103E1C15101E1C25101E14AD1190E76
:103A3000BF1905E1C05103E1C15101E1C25101E1EA
:103A40003ED1180EBF1905E1C05103E1C15101E19A
:103A5000C25101E131D1170EBF1905E1C05103E197
:103A6000C15101E1C25101E122D1160EBF1905E198
:103A7000C05103E1C15101E1C25101E116D1150E5E
:103A8000BF1905E1C05103E1C15101E1C25101E19A
:103A900003D1140EBF1905E1C05103E1C15101E189
:103AA000C25101E1F4D0130EBF1905E1C05103E189
:103AB000C15101E1C25101E1E5D0120EBF1905E18A
:103AC000C05103E1C15101E1C25101E1D7D0110E52
:103AD000BF1905E1C05103E1C15101E1C25101E14A
:103AE000C8D0100EBF1905E1C05103E1C15101E179
:103AF000C25101E1BAD00F0EBF1905E1C05103E177
:103B0000C15101E1C25101E1ABD00E0EBF1905E177
:103B1000C05103E1C15101E1C25101E19DD00D0E3F
:103B2000BF1905E1C05103E1C15101E1C25101E1F9
:103B300091D00C0EBF1905E1C05103E1C15101E163
:103B4000C25101E183D00B0EBF1905E1C05103E161
:103B5000C15101E1C25101E177D00A0EBF1905E15F
:103B6000C05103E1C15101E1C2516CE0090EBF191E
:103B700005E1C05103E1C15101E1C25161E0080E0C
:103B8000BF1905E1C05103E1C15101E1C25156E045
:103B9000070EBF1905E1C05103E1C15101E1C25156
:103BA0004BE0060EBF1905E1C05103E1C15101E12F
:103BB000C25140E0050EBF1905E1C05103E1C151FA
:103BC00001E1C25135E0040EBF1905E1C05103E126
:103BD000C15101E1C2512AE0030EBF1905E1C051F4
:103BE00003E1C15101E1C2511FE0020EBF1905E11D
:103BF000C05103E1C15101E1C2510FE0010EBF19F3
:103C000001E0BBD0C05101E0B8D0C15101E0B5D056
:103C1000C25101E0B2D0D9EF33F00801D10EDD6F0F
:103C20008A0EDE6F000E8CD0EEEF33F0CFEF1EF079
:103C3000F6EF31F0070E0BD0060E09D0050E07D0B7
:103C4000040E05D0030E03D0020E01D0010E0401B4
:103C5000E96F2FD031EF33F0010E0401ED6F02D088
:103C60000401ED6BEE6B040E1BD0010E0401ED6F31
:103C700002D00401ED6BEE6B030E12D0010E0401B5
:103C8000ED6F02D00401ED6BEE6B020E09D0010E58
:103C90000401ED6FEE6B04D00401ED6BEE6B010ED1
:103CA0000401EB6FEC6BBAEF32F026EF32F0040157
:103CB000E96BEA6B67EF32F00401E76B07D0010EA6
:103CC00003D0020E01D0030E0401E76FE86B2EEF64
:103CD00032F01AEF33F004EF34F0EAEF34F0C9EFCA
:103CE00034F0D1EF34F0C5EF34F0C6EF34F0C7EF65
:103CF00034F0F4EF34F09FEF34F05DEF34F062EF26
:103D000034F06DEF34F077EF34F081EF34F08BEF77
:103D100034F095EF34F0BEEF34F0C0EF34F004012E
:103D2000F76B05D0010E01D0020E0401F76FF86B9E
:103D3000C8EF34F00801C60EDD6F8A0EDE6F000E8C
:103D4000DF6F46EF28F00401F36B05D0010E01D0C0
:103D5000020E0401F36FF46BBCEF34F00401F56B59
:103D600005D0010E01D0020E0401F56FF66BBDEF18
:103D700034F0E4EF34F0E7EF34F0040E03016C6F3D
:103D80006D6B0301C10E696F8A0E6A6F000E6B6F57
:103D900069EC2AF0EE52EFCF68F340EF04F0030134
:103DA0007E0E626F80EF2BF00401836B020E835D49
:103DB00030E2CAEC28F0EF6A0301080E4D6F500E96
:103DC00003014B6F4C6B03014A6B0301466B476B5E
:103DD000486B496BE7EC01F0E66E69EC2AF0EE52B5
:103DE000E552E750EF6E14691569835131EC29F003
:103DF0002BEC2AF0F3CF00FCF4CF01FC86EC29F089
:103E000000CC11FF01CC12FF48EC4AF00401832BD7
:103E1000CDD7836B12000C01866B020E865D36E2F5
:103E20003BEC29F0EE52EF50FE082DE03BEC29F080
:103E3000EE52EFCF4EF37FEC02F0000914E086CC97
:103E4000C3F825D869EC2AF0EF6AFF0E145D02E092
:103E5000B9EC29F0FF0E155D02E0C0EC29F003017A
:103E6000040EFEEC2AF00C013BEC29F0EF5007E1C8
:103E70003BEC29F02CEC29F04EEC29F004E086CC48
:103E8000C3F805D83ED80C01862BC7D71200040111
:103E900083510801C35D01E112000401835131EC3B
:103EA00029F02BEC2AF0F3CF00FCF4CF01FC86ECD8
:103EB00029F000CC11FF01CC12FF48EC4AF00801B8
:103EC000C35131EC29F000C013FF01C014FF5BECBB
:103ED0004AF0F3CF00FCF4CF01FC7F0E0F01236FFB
:103EE000246B0F01000E216F040E226F41EC4BF08A
:103EF00000CC13FF01CC14FF5BEC4AF0C3C883F481
:103F000012000C01010E736F69EC2AF0EF500B0ADE
:103F100002E1ECEF23F0010A02E1C9EF23F0030A0A
:103F200002E1B2EF23F0010A01E1B9D30F0A01E186
:103F30001FD3010A01E102D3030A01E17AD2010A87
:103F400001E16ED2070A01E147D2010A01E1A4D1E1
:103F5000030A27E0010A02E0F9EF23F026EC2BF038
:103F6000F3CF6DFCF4CF6EFCF350F41002E1F9EFE7
:103F700023F004011A0E106F040E116FCAEC28F022
:103F8000010EEF6E1769166BF2EC28F00C690D69E3
:103F90000E690F6946EC2AF07E6B0301050EFEECFC
:103FA0002AF0EFEC28F00A0E51EC2BF078EC2AF016
:103FB0000001F31C14E1011C12E169EC2AF082EC0F
:103FC0002AF004E189EC2AF00C01736B19EC29F05A
:103FD00002E660EC29F002E3F9EF23F042D2F2ECC2
:103FE00028F078EC2BF00C01050ED880F354000E6D
:103FF000F45403E2050E6D6F6E6B010ECCEC29F0EC
:104000001A0E7C6F040E7D6FFBEC2AF0030EE66E39
:10401000E66AEF0EE66E830EE66E000ECDEC2AF039
:1040200003E10401186B12D0040EE66EE66AEA0E94
:10403000E66E830EE66E000ECDEC2AF004E104017C
:10404000010E186F03D00401070ECAD178EC2BF0D3
:104050000301A66BF3CFA4F3F4CFA5F30301A26B86
:10406000A36B03013F0EA16F69EC2AF0D6EC29F097
:104070000C01F3506D5DF4506E5904E36FCC6DFC90
:1040800070CC6EFC590ED8806D55000E6E5501E255
:10409000ECD06DEC2BF0E4EC2AF01A0EF324E96E70
:1040A000040EF420EA6E00EC2AF01A0EE66E040EFE
:1040B000E66EB6EC2AF0E4EC2AF00B0EE66EE66A49
:1040C000DF0EE66E830EE66E000EE66E1B0EE66EEB
:1040D000040E52EC29F00CE1D9EC29F0185102E160
:1040E000080E01D0090E186FCAEC28F0020E2ED26D
:1040F0007EEC29F002E0E3EC29F0FF0E0401145DF0
:1041000031E17EEC29F00EE00C016FCCE9FF70CCC0
:10411000EAFF6F2B000E70231A0EE926040EEA2226
:104120002F0EEF6E31EC2AF01A0E0C016F25006E87
:10413000040E7021016E00C0E6FFE66E20EC88F0F0
:10414000026E050EE15E025031EC2AF047EC88F079
:10415000E552E552E5521F500C016F2720507023A5
:10416000E3EC29F01A0E0C016F25746F040E702118
:10417000756F010E745F000E755B1A0E741902E103
:10418000040E751909E074CCE9FF75CCEAFFEF5015
:104190002E0802E07407EFD7742B000E752304017C
:1041A000196B0B0EE76E1919E8AE02D0E73402D096
:1041B000E750195D23E2130E006E420E016E010EF0
:1041C000026E19C403F0046A056A03AE02D00468E3
:1041D00005689AEC2AF0F5CFC5F60900F5CFC6F6CA
:1041E0000800F5CFC7F674CCC3F675CCC4F697ECCF
:1041F00066F0000903E00401192BD3D7D9EC29F0AC
:10420000FF0E145D18E014C4F2F0B9EC5AF0F3504C
:10421000020B11E014C4FDF0B3EC5BF0F3CFD4F06B
:10422000F4CFD5F0010E0001D427000ED5230BECFE
:1042300058F00401156F78EC2BF0F350F4101CE0EB
:104240000401010E166F0301710E796F0C0E7A6F67
:1042500069EC2AF016EC2AF00C016D07000E6E5B7B
:10426000620E6D5D000E6E5903E30401050EB8D0B9
:104270006DEC2BF06AEC29F07CEC2BF0010EF324B2
:1042800003017E6F000EF4207F6F030169EC2BF0B9
:1042900069EC2AF0020EEF6E7CEC2BF00C01F31CA3
:1042A00013E16E1D11E169EC2AF082EC2AF004E1C1
:1042B00089EC2AF00C01736B19EC29F002E660EC32
:1042C00029F001E396D2CDD0F2EC28F00C01010EDA
:1042D0006D190BE16E5109E1020E4BEC2AF069EC0D
:1042E0002BF069EC2AF0030E31D10301A66B6DCCE3
:1042F000A4F36ECCA5F30301A26BA36B03013A0EEA
:10430000A16F69EC2AF0D6EC29F0020E0C016F27A0
:10431000000E7023736B100ED8806F55000E705511
:1043200002E2010E54D06FCC7EF370CC7FF3030118
:10433000760E7C6F0C0E7D6FFBEC2AF0BEEC2AF043
:10434000760EE9260C0EEA22EF6A0C016F516D5FC2
:1043500070516E5B726B7251006E016A030E005CED
:10436000000E01582EE2850E006E420E016E010E07
:10437000026E72CC03F0046A056A21EC2AF072CC5A
:104380001FF0CFEC28F0F5CFE6FF0900F5CFE6FFF0
:104390000800F5CFE6FF760EE66E0C0EE66EE9EC51
:1043A00087F0066E050EE15E0650000907E172CC4B
:1043B000C4F8E8DA0C01010E736F03D00C01722B04
:1043C000CAD7735102E07CEC2BF0010E0C01CCEC4F
:1043D00029F069EC2BF060D7800E175D03E2030E25
:1043E000186FB1D010C4E9FF11C4EAFF00EC2AF045
:1043F000F3CF10F4F4CF11F4080E0401185D01E1BD
:10440000A2D0CAEC28F0040EEF6E165104E1CAECFB
:1044100028F0050EEF6E0C01736B0401166BE9D1E9
:10442000C5EC2BF0020801E1E4D169EC2AF0050E9D
:10443000EF6E26EC2BF055EC2BF0F35004010C1929
:1044400014E101500D1911E102500E190EE1035053
:104450000F190BE10AE119EC29F002E660EC29F0F2
:1044600004E22CEC2BF00B0E71D0180515E0090EB0
:10447000E76E1819E8AE02D0E73402D0E750185DB5
:1044800059E30B0EE76E1819E8AE02D0183503D0C9
:10449000E750D88018554EE3090EE76E1819E8AEBC
:1044A00002D0E73402D0E750185D13E30B0EE76E3D
:1044B0001819E8AE02D0183503D0E750D880185547
:1044C00008E367EC27F00C01716FE85006E1040186
:1044D0003AD065EC2CF00C01716F020E715D0CE1AD
:1044E00029EC2BF050EC2AF00401010E0C5F000EB9
:1044F0000D5B0E6B0F6B7DD171051CE129EC2BF070
:1045000050EC2AF004010E6B0F6BF2EC28F0A4ECD7
:1045100029F00C5DEE500D59EE500E59EE500F592A
:1045200006E2CAEC28F082EC2AF001E062D1040134
:10453000060E08D069EC2AF0060EEF6EFF0E145D31
:1045400007E1040E186FCAEC28F0070EEF6EA4D036
:1045500046EC2AF0FF0E155D05E104690569066960
:10456000076902D0EDEC29F069EC2AF0070EEF6E36
:104570000301020EFEEC2AF05B0E006E420E016E8D
:10458000010E026E18C403F0046A056A03AE02D07D
:10459000046805681AEC2BF00C0E0401185D0DE19F
:1045A00034EC2BF0C20E726F830E736F000E65EC4D
:1045B0002BF034EC2BF0E9EC2AF00401185106E062
:1045C000180504E0CAEC28F00B0E04D10B0E195D9F
:1045D0001BE00301B30E726F830E736F000E65EC68
:1045E0002BF0370E006E420E016E010E026E19C4E2
:1045F00003F0046A056A03AE02D0046805681AEC89
:104600002BF00301E9EC2AF014C4F2F0B9EC5AF0F3
:10461000F350010B08E003019A0E726F830E736F63
:10462000000E65EC2BF003018A0E726F830E736F20
:10463000000E65EC2BF0040118050CE0E868041985
:1046400008E1E868051905E1E868061902E1E8688B
:10465000071907E00301810E726F830E736F000E5E
:104660000DD00301780E726F830E736F000E62EC33
:104670002BF0740E726F830E736F000E62EC2BF0D2
:10468000E9EC2AF00401165104E0CAEC28F0080E07
:1046900002D083EC2BF0EF6E0C01736BAAD01A0ED4
:1046A000126F040E136F16515AE00301670E726FFA
:1046B000830E736F000E65EC2BF091EC29F022E075
:1046C000200E0C01715D03E103012B0E14D0300E9E
:1046D000715D0FE37151390803E2410E715D09E329
:1046E00071515A0803E2610E715D03E371517A085A
:1046F00004E209EC2BF0626F02D071CC62F380EC23
:104700002BF0DBD703013D0E626F80EC2BF091ECB8
:1047100029F01FE0200E0C01715D03E103012B0E57
:10472000F3D7300E715D0FE37151390803E2410E8A
:10473000715D09E371515A0803E2610E715D03E393
:1047400071517A0803E209EC2BF0DED771CC62F3E9
:10475000DCD70301E9EC2AF004011607A4D783ECA7
:104760002BF0EF6E0C01736B4AD8000909E0B9EC2D
:1047700029F0CAEC28F00B0EEF6E0C01010E736FDE
:1047800059EC2BF04EEC29F034E10C01010E736F63
:1047900030D00C01010E736F59EC2BF078EC2AF03D
:1047A000100EF35C000EF45824E308C4BFF809C4EB
:1047B000C0F80AC4C1F80BC4C2F8CCEC1BF0040169
:1047C0000C510D110E110F1114E10C01736B69ECFA
:1047D0002AF0090EEF6E0DD0FF0E145D02E0B9EC69
:1047E00029F0FF0E155D02E0C0EC29F02CEC2BF057
:1047F000EF6A0C01735102E181EF1FF0120059ECD6
:104800002BF0F3CF02FCF4CF03FCF3CF04F0F4CF92
:1048100005F0066A076AA4EC29F00401045D086E3D
:10482000EE500559096EEE5006590A6EEE500759C2
:104830000B6E0850F35C0950F4580A5006580B50A0
:10484000075807E202CC00F003CC01F0026A036AC9
:104850000DD0A4EC29F0045D006EEE500559016EF8
:10486000EE500659026EEE500759036E00C000FC70
:1048700001C001FC0C010050040100270C01015093
:1048800004010123000E022303230C01000ED88033
:104890000055000E015530E2400E005D000E01593A
:1048A00005E200CCDDF001CCDEF004D00001400ECA
:1048B000DD6FDE6B0001050EDB6F0C0EDC6F14C4C8
:1048C000DAF0BBEC58F0F3CF02FCF4CF03FC0C01A0
:1048D000F350F41001E1010C02CC66F303CC67F352
:1048E0000301050E646F0C0E43EC2BF00C0102511A
:1048F000005F0351015BC9D7A4EC29F0040104193E
:1049000040E1EE5005193DE1EE5006193AE1EE5056
:10491000071937E136E1CAEC28F00A0EEF6E0C6B8E
:104920000D6B0E6B0F6B0001D86BD96B14C4D7F0F5
:1049300057EC58F00001040ED86F0C0ED96F14C458
:10494000D7F057EC58F0000906E03FEC2AF07E0E55
:104950000C01045DEFE13FEC2AF00001080EE06F6E
:10496000040EE16F15C4DFF00FEC59F0EDEC29F007
:10497000000907E104010469056906690769C0ECDB
:1049800029F0000C0801C45102E149EF25F0C405EB
:1049900002E1D0EF24F0020EC45D01E1C9D812009B
:1049A000040117BF1200060E4BEC2AF069EC2BF045
:1049B000F0EC2AF079EC29F0F3CF31FC030E0C0176
:1049C0003127FC0E3117326B240E315D000E325947
:1049D00003E3240E316F326B330E5B6F0C0E5C6F92
:1049E000000ED8803155000E325526E2040E030128
:1049F0007E6F7F6B5BCC7CF35CCC7DF3FBEC2AF0B1
:104A0000030E0601B16FB26B5BCCAFF65CCCB0F6B7
:104A1000040E0601AD6FAE6B5BCCABF65CCCACF6B6
:104A200000EC65F0040E0C01315F000E325B030EEA
:104A30005B27000E5C23D4D755EC2AF0EF6A316B6C
:104A4000326B330E5B6F0C0E5C6F280E315D000E07
:104A500032590BE255EC2AF0EF503A0806E0312BC0
:104A6000000E32235B2B5C23F0D755EC2AF05B2B36
:104A7000000E5C23EF6A5BCC88F45CCC89F4040103
:104A8000330E866F0C0E876FA1EC2BF00401176FAD
:104A90001200F0EC2AF0D3EC2AF010C400F011C49C
:104AA00001F07E0ED8800056040E0156020E005E04
:104AB000000E015A0C010050F35C0150F45802E35F
:104AC00089EF2AF00C013351341131E088DB3B0EC1
:104AD00051EC2BF0F3CF31FCF4CF32FC0C0133510D
:104AE000F35C3451F45805E231CC7EF332CC7FF3E1
:104AF00004D033CC7EF334CC7FF310C47CF311C4E8
:104B00007DF3FBEC2AF0E6DB0C013351315D3451CF
:104B1000325908E25CEC2BF062DB200E51EC2BF0FA
:104B2000BDDBF8E0F0EC2AF0D3EC2AF0CBD7120092
:104B3000F0EC2AF0DEDBF3CF31FCF4CF32FC0C01D9
:104B40000A0EF35C000EF45805E30401020E186F20
:104B500046EF2AF031CC7EF332CC7FF30301330EE3
:104B60007C6F0C0E7D6FFBEC2AF0F3CF31FCF4CFA1
:104B700032FC330E0C01F324E96E0C0EF420EA6EC5
:104B8000EF6A330EE66E0C0EE66E47EC89F0E552E6
:104B9000E5521EC000F41FC001F420C002F421C081
:104BA00003F41200C5C8E6FFC6C8E6FFB6EC2AF05B
:104BB000F3CF3DFCF4CF3EFCC5C83BFCC6C83CFC73
:104BC000C5C839FCC6C83AFC0C013D513E1142E053
:104BD0001BEC2AF0000E3A23EFCF3FFC3D073E5B73
:104BE0003D0E3F5D03E0260E3F5D03E14FDBEF6AC4
:104BF000EBD72B0E3F5D03E149DB200E25D0250EC0
:104C00003F5D24E1020E3D5D000E3E5903E23D6B27
:104C10003E6BDAD71BEC2AF0000E3A23EFCF41FCB3
:104C20001BEC2AF03A23EFCF40FC3D073E5B3D07EB
:104C30003E5B40CCBFF641CCC0F65FEC66F0E66E62
:104C40000C0124DBE552E750EF6EBED71FDB3FCCF3
:104C5000EFFFBAD71BDBEF6A3BCCE9FF3CCCEAFFA6
:104C6000EF6A3BCCF3FF3CCCF4FF1200C7C8E9FF6E
:104C7000C8C8EAFFEF5020E05AEC2AF0C9C8E6FFA6
:104C8000CAC8E6FFC9EC87F0E552E552E552E552A5
:104C900000090DE1C9C8E6FFCAC8E6FFB6EC2AF074
:104CA0000801C751F324006EC851F42058D39FEC7B
:104CB0002AF09FEC2AF0DAD7F36AF46A1200CBC824
:104CC000E9FFCCC8EAFFEF5027E037DB1FC000F058
:104CD00020C001F021C002F0002A000E01220222B1
:104CE00000C0E6FF01C0E6FFD9EC2AF0E8DBE7EC04
:104CF00086F0036E070EE15E0350000908E11DDB3C
:104D00000801CB511F24006ECC51202028D3A6ECE3
:104D10002AF0A6EC2AF0D3D7F36AF46A1200D2C8BC
:104D2000DBF8D3C8DCF8D0C8D9F8D1C8DAF8080164
:104D30003D0ED86F46D80C016C6F0801D051D111CF
:104D40000BE0D0C8E9FFD1C8EAFFEF5005E0D0C8BA
:104D5000C5F8D1C8C6F826DF0C016C51120046DB3D
:104D6000260ED86F2ED80C016C6F020E6C5D17E109
:104D700029EC2BF055EC2BF004010051F3180FE156
:104D8000015101180CE10251021809E10351031805
:104D900006E105E12BDBD86B14D80C016C6F080120
:104DA000D451D5110BE0D4C8E9FFD5C8EAFFEF50C4
:104DB00005E0D4C8C5F8D5C8C6F8F4DE0C016C51BE
:104DC00012000801D85106E0C8DBD8C8A1F381DB86
:104DD00094DB02D029EC2BF0F3CF6AFCF4CF6BFC10
:104DE0000C01F31C03E16B1D01E1020C0801020E32
:104DF000DB5D000EDC5906E2D951DA1103E03CEC30
:104E00002BF038D0D951DA1104E13CEC2BF00C0135
:104E100043D0FEDA0C016A51005C6B5101582EE25E
:104E2000DBC87EF3DCC87FF30301020E7E5F000E59
:104E30007F5B4AEC2BF0DBC804F0DCC805F0020E07
:104E4000045E000E055A04500C016A5D03017E6F7A
:104E500005500C016B5903017F6F030169EC2BF0C6
:104E60003BDBD6DA0801D9510024E96EDA51012082
:104E7000EA6EEF6A0C01010E696F0FD025DB4AEC78
:104E80002BF00801D9510C016A25E96E0801DA51AD
:104E90000C016B21EA6EEF6A696B0801D85114E0CE
:104EA0005CEC2BF0006E016A026A036A00AE03D06C
:104EB00001680268036800500401005F0150015B53
:104EC0000250025B0350035B0C01695112000401A4
:104ED00018510A0A01E185D0010A66E0020A01E0E0
:104EE000D4D0CBD9040E53DA620E966F830E976F2F
:104EF000000E986FEEDAFDD9A9DA0C01F31C01E17E
:104F0000421D44E041CC7EF342CC7FF303017C6B35
:104F10007D6BDFDA55DB9ADBEBDA0A0EF35C000E11
:104F2000F45805E20C01412B000E4223010C0A0E3D
:104F3000B2DA310E7C6F0C0E7D6FCBDA41DB0A0EDC
:104F4000E66EE66A570EE66E830EE66E000EE66EBD
:104F5000310EE66E0C0EA6D915E104010A0E186F8B
:104F6000B2EC59F00401146F060E0001EB6FEC6B0C
:104F70000001350EE96F0C0EEA6F14C4E8F0F6EC90
:104F800059F0020C04010B0E186F020C62DBF3CF18
:104F90007EF3F4CF7FF30301040E7E5F000E7F5B90
:104FA000030197DB99DA010C51DBF6D8F3D8EE5206
:104FB000EFCF76F32CEC05F0640E0401005D000EDB
:104FC0000159000E0259000E03595BE3D880000E10
:104FD0000055000E0155000E0255800E035555E296
:104FE00050D034DB33DA61DBF3500401005DF45060
:104FF0000159025002590350035904E200C441FC14
:1050000001C442FC0C01000ED8804155000E4255EF
:105010002CE2100E415D000E425905E241CC7EF3B8
:1050200042CC7FF304D00301100E7E6F7F6B03012F
:10503000310E7C6F0C0E7D6FDEDAF3CF43FCF4CFC4
:1050400044FCAAD80C01F350415FF450425BF3CF0B
:10505000EBF0F4CFECF00001310EE96F0C0EEA6FCB
:1050600014C4E8F0F6EC59F0CDD704010051011159
:10507000021103110AE10001010EED6F3CEC5AF040
:10508000040188D8070EEF6E000C010C04010C51CE
:105090000D110E110F1114E1DDC8D1F0DEC8D2F0F0
:1050A000DFC8D3F059EC57F00C01446FFF0E445D9C
:1050B00001E1120044CCFDF0B3EC5BF0F1D91AD061
:1050C0000CC4D4F00DC4D5F00BEC58F00C01446FB7
:1050D000FF0E445D01E112000001020EE76F0EC4F5
:1050E000E3F00FC4E4F00001E56BE66B44CCE2F0C2
:1050F00023EC59F0DEDAF3CF00FCF4CF01FC0C0115
:10510000000ED8800055000E015538E2400E005DBB
:10511000000E015905E200CCDDF001CCDEF004D038
:105120000001400EDD6FDE6B0001040EDB6F0C0E24
:10513000DC6F44CCDAF0BBEC58F0F3CF02FCF4CFD8
:1051400003FC0C01F350F4100AE144CCD6F04CEC13
:1051500058F004010C6B0D6B0E6B0F6B120002CC40
:1051600066F303CC67F30301040E646F0C0E8BDA55
:105170000C010251005F0351015BC1D744CCFCF02C
:1051800082EC5BF01EC00EF41FC00FF444CCD6F0CE
:105190004CEF58F08351C4D1ABD96CEF2AF004C066
:1051A00020F005C021F018ECA0F01CC003F01DC0D9
:1051B00004F01EC005F000501C24F36E01501D20A9
:1051C000F46E02501E20F86EF4CFF7FFF3CFF6FF17
:1051D00009001200EE52EFCF7BF3A2EF05F0BDD92C
:1051E000030112007CECA0F01EC008F41FC009F4FB
:1051F00020C00AF421C00BF48A0E04010827F00E27
:1052000009231B0E0A23000E0B231200EE52EFCFD0
:1052100071F3DEEF04F071D9F3CF6DFCF4CF6EFCC7
:105220001200A4D965D9010E0026000E01220050FB
:1052300012007CECA0F0040108511E5C006E0951C4
:105240001F58016E0A512058026E0B512158036EEF
:10525000E834000E03181200EE52EFCF77F33BEF65
:1052600005F07F0D22DAEE0E0026450E0122000E1B
:10527000022203221200865153D103019F6B0301C6
:105280009D6B9E6B03019B6B9C6B12003BCCE9FFFB
:105290003CCCEAFF3B2B000E3C23120029D9F350F3
:1052A000F4101200E66EE7EC86F0006E070EE15E89
:1052B000005000091200EE52EFCF61F36DEF03F0E2
:1052C000D880000E0054000E0154000E0254000E4F
:1052D00003541200F35004011027F450112310C49A
:1052E000E9FF11C4EAFF102B000E1123260EEF6E0A
:1052F0001200EE52EFCF95F315EF08F03FD91A0EDA
:10530000E926040EEA22EF502F0812007F0E0F014B
:10531000286F296B0F01000E266F040E276F79EF9F
:105320004BF0040112C4E9FF13C4EAFF122B000E74
:105330001323EFCF71FCEF5012003BD947EC88F0FC
:10534000E552E552E5521200000EE96E040EEA6ED7
:10535000EE501200EE52EFCF60F32FEF03F0016E2C
:10536000010E0026000E012200C0F3FF01C0F4FF71
:10537000120014C4D6F04CEC58F004011469120069
:1053800015C4D6F04CEC58F0040115691200030165
:10539000996F9A6B030112006D2503017E6F000E59
:1053A0000C016E2103017F6F03011200A6D8E4EF08
:1053B0002AF004011B0E846F040E856F88EC2BF01D
:1053C0000401176F120000011B0ECF6F040ED06F87
:1053D000A6EC56F00401146F12000001040EE06FF9
:1053E000040EE16F15C4DFF00FEF59F0D6C8DBF8FB
:1053F000D7C8DCF8D4C8D9F8D5C8DAF80801120043
:10540000EF6A08011A0EC56F040EC66FD2EF25F0C1
:10541000DBC800F0DCC801F0020E005E000E015A8D
:105420001200EE52EFCFB9F38BEF15F0EE52EFCF43
:1054300078F365EF05F039CCE9FF3ACCEAFF392B78
:105440001200030E246E256A266A1200F3CF41FC77
:10545000F4CF42FC120000C011FF01C012FF48EF60
:105460004AF0D50EE66E830EE66E000EE66E120072
:10547000EE52EFCF6EF3C3EC04F00301120004010F
:10548000002B000E0123022303231200006B016B8B
:10549000026B036B120003017E6F7F6B030112002E
:1054A000F3CF0CF4F4CF0DF412005BCCE9FF5CCC2D
:1054B000EAFF1200C7C8E6FFC8C8E6FF1200CBC863
:1054C000E6FFCCC8E6FF12006ACC7EF36BCC7FF31C
:1054D00012000401CAEF28F0026A036AF3500401C3
:1054E000005FF450015B0250025B0350035B12004B
:1054F000F3CF00F0F4CF01F01200EE52EFCFA0F3A3
:1055000044EF09F0EE52EFCF80F324EC06F04EEFBB
:1055100029F00401050E186F3DDE070EEF6E120034
:10552000E96EEA6AD890E936EA367F0EE926040E7B
:10553000EA22120086DF03C01FF0CFEF28F0BADFA7
:1055400070DE0801C7270150C8231200B8DF69DEEA
:105550000801CB270150CC2312000301A66B0301E5
:10556000A46BA56B0301A26BA36B120039EC88F04E
:10557000E552E55212002EDECCEF28F06FCCE9FFA9
:1055800070CCEAFFE906000EEA5A120094DE71CCF4
:10559000C2F68AEC66F003011200E66E1A0EE66EA1
:1055A000040E52EF29F0A5DEF3CF33FCF4CF34FC28
:1055B0001200CDC8E6FFCEC8E6FFCFC8E6FF120056
:1055C00009DE44DFCCEF28F0F3CF6FFCF4CF70FCA2
:1055D0001200100E726F420E736F010E65EF2BF00A
:1055E0004CDE020ED4DE100E966F420E976F010E47
:1055F000986F69EF2AF06DDFEAEF28F0BE6F0301C4
:10560000BC6BBD6B010E0301BA6FBB6B62DF11EFA8
:105610002AF00301250E626F73D871CCC1F67CECC1
:1056200066F00301626F55DFC6EF2AF0A16F51DF0C
:105630000BEF29F07FDFF5CF72F30900F5CF73F39D
:105640000800F5CF74F345DF06EF29F0A3DD2CEF5A
:1056500029F03FDF2CEF29F09DDDEE52EFCF50F324
:105660009DEC02F069EF2AF003011A0E6F6F040E31
:10567000706F2FDF38EF2AF027DF03017C6B7D6B23
:1056800028DFBBEF2AF0656F24DFEE52EFCF63F324
:10569000C0EF03F0D9C87CF3DAC87DF31ADFBBEFA3
:1056A0002AF0A16F16DF7DEF2AF022DF026A036A7B
:1056B00012000FDFAAEF29F00301796B7A6B09DF83
:1056C00016EF2AF002D803011200746F02DF06EF12
:1056D00029F07C6B7D6BFBEF2AF06DCC7EF36ECCFA
:1056E0007FF303011A0E7C6F040E7D6FFBEF2AF02F
:1056F00076DD200E16EF2BF072DD0A0E16EF2BF082
:10570000E8DE5BEF29F0030164DFE3DE090E12003F
:10571000070EE66EE66AF40EE66E820EE66E000E88
:105720005DEC36F001E1000C040EE66EE66AEF0E69
:10573000E66E820EE66E000E5DEC36F001E1000CC6
:10574000800CE90EE66E820EE66E000EE66E86C4F2
:10575000E6FF87C4E6FFE9EC87F055EC36F0000978
:1057600013E1DF0EE66E820EE66E000EE66E88C472
:10577000E6FF89C4E6FFE9EC87F0016E050EE15E05
:105780000150000901E1800C000C140E0001FA6FB9
:10579000FB6B0001020EF86F0C0E66EC35F02BEC83
:1057A00036F04EE10801D00ECD6F820ECE6F000EA6
:1057B00026EC36F00AE07DEC35F002E0000E01D078
:1057C000010EE8B09188E8A091980801CB0ECD6F4A
:1057D000820ECE6F000E26EC36F00AE07DEC35F03E
:1057E00002E0000E01D0010EE8B09186E8A091968B
:1057F0000801C60ECD6F820ECE6F000E26EC36F07D
:105800000AE07DEC35F002E0000E01D0010EE8B0B8
:105810009184E8A091940801C10ECD6F820ECE6FE5
:10582000000E26EC36F050E07DEC35F002E0000E84
:1058300001D0010EE8B09182E8B046D09192000C00
:105840000B0EE66EE66AB50EE66E820EE66E000E92
:10585000E66E2BEC36F004E10401010E166F000C2D
:10586000080EE66EE66AAC0EE66E820EE66E000E7E
:10587000E66E2BEC36F028E10801A80ECD6F820E03
:10588000CE6F000E17EC35F0F3CFE9FFF4CFEAFF4F
:10589000EF50370A18E0010A14E0030A10E0010A89
:1058A0000CE0070A08E0010A04E0030A0DE1917226
:1058B000000C9174000C9176000C9178000C917A98
:1058C000000C917C000C917E000C140E0001FA6F0C
:1058D000FB6B0001A10EF86F0C0E66EC35F031EC9D
:1058E00036F002E19FEF2CF00A0EE66EE66A9D0E9E
:1058F000E66E820EE66E000EE66E31EC36F002E1E8
:10590000B8EF2EF0120EE66EE66A8A0EE66E820E92
:10591000E66E000EE66E31EC36F002E10EEF2DF091
:105920007A0EE66E820EE66E000EE66EA10EE66E52
:105930000C0E0BEC35F002E181EF2FF0000C0401AE
:105940007E51010A0BE0010A68E1640E98EC35F023
:10595000020801E1010C0401010E7E6F760EE66E75
:10596000820EE66E000EF8EC35F006E10C011A0E20
:10597000006F040E016F03D00C01006B016B640E0D
:105980000801D66FD76B00CCD4F801CCD5F8AFECBA
:1059900026F0020801E1010C0C010051011103E1A4
:1059A00004017E6B020CEBEC35F039EC88F0E5522B
:1059B000E55212EC36F0200E94EC35F019E2200E90
:1059C000E66EE66AE66E9C0EE66E080EE66E54EC37
:1059D00087F055EC36F0EBEC35F09C0EE66E080ED9
:1059E000E66EFFEC87F0E552E552E552E5520AD04B
:1059F000200EE66EE66AEBEC35F09C0EE66E080EC5
:105A000084EC35F0F1EC95F06B0EE66E820EE66EEE
:105A1000000E36EC35F0F0EF35F0020C37EC36F0D6
:105A2000F3CF04F0F4CF05F0F3CFE6FFF4CFE6FFB9
:105A3000FEEC34F0EFCF80F324EC06F0E552E7CF34
:105A400005F0E552E7CF04F00450F324006E055052
:105A5000F420016E026A036A04010051005C0151E6
:105A60000158025102580351035801E275D137EC35
:105A700036F012EC36F0026A036A04010051F35C5E
:105A80000151F458025102580351035801E2010C2C
:105A9000330E08016B6F6C6B0801000E696F0C0E02
:105AA0006A6F0801060E656F666B676B686B47EC83
