:020000040000FA
:06000000BDEF9DF01200AF
:020006001200E6
:0600080075EF75F0120017
:02000E000004EC
:04001000A300000049
:02001400FFFFEC
:02001600FEFEEC
:060018004FEF75F012002D
:02001E001D00C3
:10002000BB3C01001A0A000001000000BA3C0100BC
:10003000190A000001000000B83C0100100A00008D
:10004000020000004A3C0100000500006E000000B4
:10005000493C0100180A000001000000403C01007A
:10006000D8090000090000003E3C01000E0A000013
:10007000020000003D3C0100170A000001000000E2
:100080003B3C01000C0A000002000000383C01006B
:10009000070A000003000000253C01007809000069
:1000A00013000000243C0100160A000001000000BB
:1000B000203C0100000A0000040000001F3C010079
:1000C000150A0000010000001D3C01000A0A0000A2
:1000D00002000000153C0100E109000008000000DA
:1000E000143C0100140A000001000000133C010050
:1000F000130A000001000000123C0100120A000077
:10010000010000000F3C0100040A00000300000091
:10011000C73B01004A07000048000000BD3B01004A
:10012000CE0900000A000000BB3B01003E0F0000AA
:1001300002000000B93B0100FE09000002000000BF
:1001400016000000FE070000020000000D3B010049
:10015000FF08000001000000B53B0100FA090000A3
:1001600004000000AB3B0100C40900000A000000CD
:0C01700014000000FE000000020000006F
:04017C0003014551E5
:100180000901FE5D01E11200FE0EFE5D0CE01C0E99
:10019000E66EE66A290EE66E030EE66EFE5102EC8E
:1001A00019F081EC19F045C3FEF9FE0E0301455D1F
:1001B00001E112001C0EE66EE66A455102EC19F0F0
:1001C000290EE66E030EE66E81EF19F00901FE516D
:1001D000FF5D01E11200FE0EFF5D21E0270E03012D
:1001E000C56FC66B0301010EC46F0301020EC26F1F
:1001F000030EC36F09016BEC19F01B0EEEEC1AF045
:10020000EFCFC1F36BEC19F0EECFBFF3EFCFC0F33C
:100210000301270EBF5F000EC05B69EC16F0FEC93C
:10022000FFF9270E65EC19F029C3C2F32AC3C3F303
:100230000301C25F000EC35BA6EC1AF0020EBF6F93
:10024000030EC06F69EF16F00D01C20E1D6F0F0E89
:100250001E6F0301005101110FE16DEC61F01EC032
:1002600000F31FC001F3FF0E03010017070E011773
:10027000000E0027040E01233C0EE66EE66AE66AD5
:10028000430EE66E080EE66ED2EC86F0006E050EAA
:10029000E15E00500D01156B146B14512BEC17F03F
:1002A00001E38ED014CD45F369DF82EC17F0BBEC8F
:1002B00017F0F62A000EF722F8220800F5CF1CFDF1
:1002C00082EC17F0BBEC17F0020EF626000EF722B8
:1002D000F8220900F5CF16FD0A00F5CF17FD82ECD4
:1002E00017F070EC1BF0040EF626000EF722F82231
:1002F0000900F5CF18FD0A00F5CF19FD0D011C51BD
:1003000028E11DCD1AFD1ECD1BFD270E036A162503
:10031000026E17510322A9EC1AF002501825006E44
:100320000350192116EC1BF000501D2701501E230D
:100330001DCD00F01ECD01F0026A036AD880FE0ECA
:1003400000541E0E0154000E0254000E035402E22B
:10035000EFD7FFD71CCD44F3270E0D011A2503015B
:10036000296F000E0D011B2103012A6F29510D0178
:10037000162503012B6F2A510D01172103012C6F44
:10038000010E2B27000E2C232B510D0118250301E4
:100390002D6F2C510D01192103012E6F0D0E3F6F92
:1003A000409714DF82EC17F01CC003F070EC1BF0D8
:1003B0000800F5CF28F3F9EC0FF00D01142B6DD7E1
:1003C00012000D013B6B3B512BEC17F001E390D079
:1003D0003BCD45F3D3DE0D0E03013F5D01E085D03B
:1003E000F5DE03014D51285D01E07FD0180E256F29
:1003F000020E266F4A510CE14BC312F34CC313F3A8
:100400004087040E3F6F4BC342F34CC343F36AD0A3
:10041000000E005D040E015906E3880ED8800055D9
:10042000130E015503E2006B040E016F00C312F3BB
:1004300001C313F3002B000E01234BC310F34CC375
:1004400011F3F2EC1AF0030140894A51040A25E045
:10045000070A11E0020A02E0030A44E1B6EC19F0CF
:10046000020E4A5D02E0000E01D0010E2495E8B0B4
:1004700024853F6B37D048514625026E49514721AC
:100480000DEC19F0B6EC19F0276B260E026F036B1A
:10049000046B056B020E3F6F25D046C3E9FF47C3CF
:1004A000EAFFBFEC19F046C3E9FF47C3EAFF045077
:1004B000EE24026E0550EE200DEC19F00A0EE66EE9
:1004C000E66A46C3E6FF47C3E6FF2CEC1AF0F8ECF9
:1004D00018F00301050E3F6F29EC1BF0020EAD6F03
:1004E00031EC0CF00D013B5112000D013B2B6BD791
:1004F000FE0C03014E512BEC17F001E3010C4EC32F
:1005000045F33CDE030141A902D04199010C000CE6
:1005100003014F512BEC17F001E3000C4FC345F3DF
:100520002DDE070E03013F5D01E0000C010C03010D
:1005300050512BEC17F001E3120050C345F359EC76
:100540001AF003013F51080A38E0010A36E0050AB3
:1005500034E0020A2FE0050A1FE00D0A0FE0010A4D
:100560000DE0070A31E0020A2FE0010A2DE0060A39
:100570002BE0040A22E1F0EC6EF026D0F4EC18F047
:1005800003011451151106E00E512F19F7E10F5117
:100590003019F4E1080E0FD0F4EC18F003011451F7
:1005A000151106E00E512F19F7E10F513019F4E142
:1005B0000C0E01D00D0E3F6F12000301AE6B030154
:1005C000140EAD6F31EC0CF0F9EF0FF00301515147
:1005D0002BEC17F001E3120051C345F3CFDD03010B
:1005E000409751C350F397EF02F0030152512BECA7
:1005F00017F003E3F36AF46A120052C345F3AEEC5A
:100600001AF00A0EE66EE66A2CEC1AF0530EE66E4D
:10061000030EE66EF8EC18F010C35DF311C35EF341
:10062000530E006E030EFBEF17F003015F512BEC2E
:1006300017F001E312005FC345F3AEEC1AF00301BB
:100640000E512F1902E10F51301902E0B4EC17F0EE
:100650001200030160512BEC17F00CE260C345F36C
:100660008DDD3FC345FD070E0D01455D06E00B0E18
:10067000455D03E0F36AF46A1200030131512F5D16
:100680003251305916E329512B5D026E2C512A55F7
:10069000036E0206000E035A31512F5D046E305175
:1006A0003255056E0450025C006E05500358FBEF96
:1006B00017F02F51315D006E32513055016E00063A
:1006C000000E015A00C0F3FF01C0F4FF1200030145
:1006D00061512BEC17F001E3000C61C345F34EDDD3
:1006E00061C360F3B6DFF3CF0FFDF4CF10FD0D0152
:1006F000F350F41001E1000C010E0F1904E1105148
:1007000002E1B2EC1AF003014151010B0CE162EC81
:100710001BF00D010F51005C1051015804E3B2ECC5
:100720001AF003014181010E0301C56FC66B03017D
:10073000C46F0301620EC26F030EC36F40EC1BF067
:1007400003012F2B000E30232B512F5D2C513059DC
:1007500002E399EC19F00D01010E0F1905E110519A
:1007600003E1B2EC1AF0010C030140BB02D0B8EC7B
:1007700017F0010C0D01AF6BB06B030163512BEC53
:1007800017F010E263C345F3F9DC63C360F361DF84
:10079000F3CFADFDF4CFAEFD0D01F350F41005E144
:1007A000B6EC1AF0F36AF46A1200ADCDABFDAECD33
:1007B000ACFD3BEC1AF004E266C3ABFD67C3ACFDD5
:1007C0004151010B0CE162EC1BF00D01AD51005CDD
:1007D000AE51015804E3B6EC1AF003014181030164
:1007E0002F510D01AB25006E030130510D01AC21DD
:1007F00060EC1AF01EE32F512B5D0D01AF6F03016A
:1008000030512C590D01B06FAFCDC5F3E8CFC6F311
:1008100075EC18F00D01AF51030164270D01B051C3
:10082000030165230D01AF51AB5FB051AC5B99EC97
:1008300019F0ABCDC5F3ACCDC6F375EC18F00D01D6
:10084000AB5103012F270D01AC51030130230D01E2
:100850003BEC1AF003E3B6EC1AF004D040BB02D034
:10086000B8EC17F00D01AB51AF25006EAC51B021C3
:10087000FBEF17F00D012E6B2F6B030168512BEC72
:1008800017F010E268C345F379DC68C360F3E1DE7A
:10089000F3CF2CFDF4CF2DFD0D01F350F41005E145
:1008A000BAEC1AF0F36AF46A120003014151010B29
:1008B0000CE162EC1BF00D012C51005C2D51015834
:1008C00004E3BAEC1AF0030141812CCD2AFD2DCDB1
:1008D0002BFDC6EC19F004E26CC32AFD6DC32BFDA1
:1008E0002F510D012A25006E030130510D012B21DE
:1008F00060EC1AF022E32F512B5D0D012E6F0301E6
:1009000030512C590D012F6F2ECDCDF3E8CFCEF302
:10091000BBEC18F02ECD00F02FCD01F0026A005094
:100920000301692701506A2302506B230D012E51E8
:100930002A5F2F512B5B99EC19F02ACDCDF32BCDEB
:10094000CEF3BBEC18F00D012A5103012F270D0146
:100950002B5103013023C6EC19F003E3BAEC1AF073
:1009600004D040BB02D0B8EC17F00D012A512E255F
:10097000006E2B512F21FBEF17F06FC3E6FF70C302
:10098000E6FF7AEC87F0E552E552F3CF66F3F4CF59
:1009900067F36FC364F370C365F36EC363F3EADE9A
:1009A00003016F51F324006E7051F420FBEF17F038
:1009B00072C3E6FF73C3E6FF74C3E6FF88EC87F0FB
:1009C000E552E552E5521FC06CF320C06DF372C3CF
:1009D00069F373C36AF374C36BF371C368F34ADFDB
:1009E000056A03017251F324006E7351F420016E05
:1009F00074510520026E00C01FF001C020F0216E6E
:100A00001200030175512BEC17F003E3F36AF46A4B
:100A1000120075C345F3BEEC00F0030129512B5DB4
:100A20000D01026F03012A512C590D01036F010EB4
:100A3000025F000E035B75C360F30BDE0D01F35024
:100A4000025D006E0351F454FBEF17F076C377F3A9
:100A50000CD897EC1BF0F350F41006E076C345F386
:100A600059EC1AF0B4EC17F01200030177512BEC9B
:100A700017F003E3F36AF46A120077C345F3BEECA0
:100A800000F01AEC1AF006E33551335D006E345174
:100A9000365513D035512D5D026E2E513655036EED
:100AA000A9EC1AF02B51335D046E34512C55056EB0
:100AB00002500424006E03500520FBEF17F078C3AA
:100AC00077F3D3DFF3CF39FDF4CF3AFD0D01F350C7
:100AD000F41001E1000C78C345F3BEEC00F0030113
:100AE00079517A110FE0010E65EC19F035C3C2F3AC
:100AF00036C3C3F30301C16F79C3BFF37AC3C0F335
:100B000069EC16F00301352B000E362335512D5DAF
:100B100036512E5902E2BEEC1AF00D01010E3919C0
:100B200005E13A5103E103014185010C030140BB9A
:100B300002D015EC18F0010C0D01636B646B7BC3E4
:100B400077F393DFF3CF61FDF4CF62FD0D01F35036
:100B5000F41003E1F36AF46A12007BC345F3BEECC0
:100B600000F003017E510D01615D03017F510D0114
:100B7000625904E261CD7EF362CD7FF3030135510A
:100B80007E25006E36517F2120EC1AF029E2355186
:100B90002D5D0D01636F030136512E590D01646FF8
:100BA000010E6327000E642303017C517D110EE0CA
:100BB00063CDC5F364CDC6F37EEC18F00D0163512F
:100BC00003017C270D01645103017D230D01635155
:100BD00003017E5F0D01645103017F5BBEEC1AF0DF
:100BE0007C517D1106E07EC3C5F37FC3C6F37EEC66
:100BF00018F003017E5135277F5136230D016351D3
:100C000003017E270D01645103017F237E510D01F5
:100C1000615D006E625103017F55016E00507E5D83
:100C200001507F5902E3418504D040BB02D015EC4E
:100C300018F07EC3F3FF7FC3F4FF1200030180515D
:100C40002BEC17F003E3F36AF46A120080C345F358
:100C5000BEEC00F003012B512D5D0D013B6F030134
:100C60002C512E590D013C6F80C377F3FEDE0D0130
:100C7000F3503B5D006E3C51F454FBEF17F0030161
:100C800081512BEC17F003E28451851103E1F36AE3
:100C9000F46A120081C345F3BEEC00F081C377F320
:100CA000E4DEF3CF02FDF4CF03FD0301865184257A
:100CB000006E87518521016E0D010050F35C0150DB
:100CC000F4580BE2030186510D01025D0301846FAC
:100CD00087510D0103590301856F030135518625A5
:100CE0000D01006F0301365187210D01016F005185
:100CF00003012D5D0D01015103012E5906E2ACECFB
:100D000017F00D01005F0150015B0D01005103015F
:100D10002D5D0D01046F015103012E590D01056F69
:100D2000010E0427000E0523030184510D01045D0B
:100D3000030185510D01055907E384C3C5F385C33C
:100D4000C6F314EC19F022D004CDC5F305CDC6F3DB
:100D500014EC19F069EC16F00D0104510301845DE7
:100D60000301C56F0D01055103018559CFEC19F041
:100D7000B4EC1BF0030182510D0104250301BF6F88
:100D8000030183510D0105210301C06F69EC16F0C9
:100D900084C3F3FF85C3F4FF120089C386F38AC3BB
:100DA00087F3010E0301846F856B0301060E826FCA
:100DB0000D0E836F88C381F362DF0D0106511200AF
:100DC00003018B512BEC17F003E28E518F1103E1DD
:100DD000F36AF46A12008BC345F3BEEC00F08BC3D8
:100DE00077F343DE03019051F35C0D013B6F030188
:100DF0009151F4580D013C6FD8EC19F001E205D186
:100E00000301925193110DE00D013B510301925DDD
:100E10000D013C510301935904E292C33BFD93C37E
:100E20003CFD355190250D013F6F03013651912155
:100E30000D01406F3F5103012D5D0D014051030134
:100E40002E5906E2ACEC17F00D013F5F0150405BFC
:100E50003FCD39FD40CD3AFD0D013F5103012D5DE0
:100E60000D013D6F405103012E590D013E6F010EE2
:100E70003D27000E3E2390C33FFD91C340FD8EC32E
:100E800041FD8FC342FD8CC343FD8DC344FD03016F
:100E90008CC3E9FF8DC3EAFF8C2B8D23EFCF46FD7A
:100EA0000D01486B0301945109E0610E0D01465D8F
:100EB00005E346517A0802E3E00E46270D01200EB5
:100EC000476FE8503D5D000E3E5902E23DCD47FDC3
:100ED00047513B5D000E3C5902E23BCD47FD475177
:100EE00065EC19F039CDC2F33ACDC3F3A6EC1AF094
:100EF000490EBF6F0D0EC06F69EC16F00D01475122
:100F0000B2EC19F0392701503A234751B2EC19F0ED
:100F10003D5F01503E5B3D513E1106E12BC339FD63
:100F20002CC33AFD3D693E69030194513EE00D0139
:100F3000456B4751455D5FE24BEC18F0EFCF00F099
:100F4000610E005C0BE34BEC18F0EF507A0806E3FF
:100F5000E00E006E4BEC18F00050EF264BEC18F052
:100F6000EF50465D0EE167EC1AF02CE020EC19F032
:100F7000610E465D18E346517A0815E3E00E4627F8
:100F800012D041CD8EF342CD8FF348510CE0C9EC25
:100F900018F0610E0D01465D05E346517A0802E343
:100FA000E00E4627486B452BC4D70D01456B4751D2
:100FB000455D21E24BEC18F0EF50465D10E167EC27
:100FC0001AF00AE10D0141513F5D026E4051425558
:100FD000036E45518BEF18F020EC19F00AD041CD8B
:100FE0008EF342CD8FF3485104E0C9EC18F00D01A7
:100FF000486B452BDCD70D014751B2EC19F03B5F34
:1010000001503C5BD8EC19F003E2F368F46812007D
:101010004751B2EC19F03F27015040234FD703014D
:1010200095512BEC17F003E299519A1103E1F36A01
:10103000F46A120095C345F3BEEC00F095C377F354
:1010400014DD03019B51F35C0D01026F03019C5100
:10105000F4580D01036FE1EC19F001E205D1030131
:101060009D519E110DE00D01025103019D5D0D0189
:10107000035103019E5904E29DC302FD9EC303FD7B
:1010800035519B250D01066F030136519C210D0141
:10109000076F065103012D5D0D01075103012E5904
:1010A00006E2ACEC17F00D01065F0150075B06CDC0
:1010B00000FD07CD01FD0D01065103012D5D0D0160
:1010C000046F075103012E590D01056F010E04270E
:1010D000000E05239BC306FD9CC307FD99C308FDB5
:1010E0009AC309FD96C30AFD97C30BFD98C30CFD77
:1010F000030196C3F6FF962B97C3F7FF48EC1BF04E
:10110000106B03019F5109E0610E0D010E5D05E3B7
:101110000E517A0802E3E00E0E270D01200E0F6F2C
:10112000E850045D000E055902E204CD0FFD0F5199
:10113000025D000E035902E202CD0FFD0F5165EC76
:1011400019F000CDC2F301CDC3F3A6EC1AF0110ED5
:10115000BF6F0D0EC06F69EC16F00D010F51B2ECB0
:1011600019F00027015001230F51B2EC19F0045F70
:101170000150055B0451051106E12BC300FD2CC392
:1011800001FD0469056903019F513EE00D010D6BEE
:101190000F510D5D5FE252EC18F0EFCF00F0610EE1
:1011A000005C0BE352EC18F0EF507A0806E3E00E17
:1011B000006E52EC18F00050EF2652EC18F0EF5091
:1011C0000E5D0EE16EEC1AF02CE05EEC18F0610E94
:1011D0000E5D18E30E517A0815E3E00E0E2712D0CB
:1011E00008CD99F309CD9AF310510CE000EC18F0FA
:1011F000610E0D010E5D05E30E517A0802E3E00E6B
:101200000E27106B0D2BC4D70D010D6B0F510D5D0B
:1012100021E252EC18F0EF500E5D10E16EEC1AF086
:101220000AE10D010851065D026E07510955036E72
:101230000D518BEF18F05EEC18F00AD008CD99F341
:1012400009CD9AF3105104E000EC18F00D01106B79
:101250000D2BDCD70D010F51B2EC19F0025F0150DC
:10126000035BE1EC19F003E2F368F46812000F513C
:10127000B2EC19F00627015007234FD7A6C394F309
:10128000A4C392F3A5C393F3A2C390F3A3C391F3B2
:10129000010E03018E6F8F6B0301A10E8C6F030E85
:1012A0008D6FA0C38BF3E0EF06F00D01006B0051D2
:1012B0002BEC17F001E309D200CD45F3BEEC00F0B2
:1012C0000D01036B016B026B03014151020B03E142
:1012D0004151040B0EE03DEC4EF000090AE00D0117
:1012E000100E036F03014151040B01E0010E0D01CB
:1012F000016F030140AB11D035EC9CF003011E508F
:101300003B5D006E1F503C59016EE83402E2C3ECB5
:101310001AF003E30D01100E036F030140AD09D075
:1013200076EC19F002E2C3EC1AF003E30D01100EA3
:10133000036F0B0E03013F5D0CE176EC19F002E246
:10134000C3EC1AF006E30D01110E036F03010C0E3E
:101350003F6F040E3F5D53E10D01046B056B030EFF
:10136000045D000E05594BE2E8EC1AF09CEC1BF012
:1013700046E0E8EC1AF0FFEC18F070EC18F003010E
:101380004251001837E14351011834E1E6EC00F016
:101390000A0EE66EE66AE8EC1AF0EAEC19F02CECBC
:1013A0001AF084EC86F0060EE15EE8EC1AF0C8EC68
:1013B0001AF0EECF10F3EDCF11F3E8EC1AF00C0EAB
:1013C000EEEC1AF0EECF0AF3EECF0BF3EECF0CF308
:1013D000EFCF0DF303010A2B0B230C230D232CEC71
:1013E00018F00D01120E036F0301060E3F6F32EC71
:1013F00017F005D00D01042B000E0523B0D70D0109
:1014000003510AE0015102E0000E01D0010E030178
:10141000AE6F03CDADF325DA030140B92FD0070E2F
:101420003F5D01E04FD138EC18F001E04BD10301F2
:101430004051070B060816E14051080B01E0010E70
:101440000D01036F00CD50F397EC02F000CD50F387
:1014500097EC02F00D01035101E034D103010E0EAF
:101460003F6F30D1E6EC00F00301020EAE6F0301D6
:10147000100E3DEC1BF077EC17F024D138EC18F08F
:1014800001E020D1E6EC00F003013F510C0A01E13C
:10149000CDD0060A01E1C4D0030A01E1D0D0010A8F
:1014A00001E1BAD00F0A01E1AED00C0A01E1ABD0E4
:1014B0000D0A01E19DD0030A01E187D0060A5AE036
:1014C000010A48E0030A21E0010A01E0BDD0EBEC8B
:1014D0006EF0000901E1B8D00301010E3F6F24A5B1
:1014E0000BD00701EE6F18C3EBF719C3ECF71AC363
:1014F000EDF71DEC6FF0A8D00701EA6F18C3E8F70D
:1015000019C3E9F7FDEC6EF09FD00701060EEF6FEF
:101510000D0EF06F40EC6FF0000901E195D0F0EC9A
:101520006EF0000913E006CD18F307CD19F308CDCE
:101530001AF309CD1BF30301020E3F6F2CEC18F0D8
:10154000276B260E026F036B046B50D077EC17F0FD
:101550003F6B7AD035EC9CF01EC03BF31FC03CF3D0
:101560000501180EF76F030EF86FA9EC83F0030165
:10157000030E29D005011C0EFB6F030EFC6F050145
:10158000180EF96F030EFA6FD6EC83F0000915E11F
:1015900035EC9CF003013B511E5C006E3C511F5822
:1015A000016E0050025D015003594EE2060E275DA8
:1015B00002E275EC1AF0020E06D00D01020E036F66
:1015C000016B0301050E3F6F3FD00D01020E036F4B
:1015D000010E016F040E0301275D36E3040E276F31
:1015E000700E026F890E036F090E046F056B2CD00D
:1015F000020E275D03E20D01120E1DD040B71FD071
:101600000D01020E07D0050E275D0DE3080E3F6F9A
:101610000D01110E036F18D0050E275D10E209D0E1
:10162000050E275D0CE20D01100E05D0050E275D9D
:1016300006E20D01110E036F010E016F05D00D01C1
:10164000140E036F010E026F0D01035136E00151BC
:101650002EE0030175EC1AF031510E5D0D01046F9F
:10166000030132510F590D01056F030131EC1AF0DE
:1016700007E2A1EC17F000500D01042701500523EB
:1016800004CD00F005CD01F0026A036A00500301A9
:1016900041EC19F00D010451030114270D0105510E
:1016A00003011523CBEC1AF00301AE6B03D0030149
:1016B000010EAE6F03CDADF3D4D80D01025102E09F
:1016C000F9EC0FF00D01002BF2D5046B056B030E46
:1016D000045D000E05592FE2E8EC1AF09CEC1BF0BB
:1016E00001E11200E8EC1AF0D0EC1AF049EC19F024
:1016F00002C0E6FF03C0E6FF35EC9CF0E552E7CF01
:1017000003F0E552E7CF02F002501E5C006E03507A
:101710001F58016EC90ED8800054010E015406E214
:1017200032EC17F00D010407000E055B0D01042BD0
:10173000000E0523CCD71200A7C3E9FFA8C3EAFF18
:10174000EECF14FDEECF15FDEECF16FDEFCF17FD5A
:10175000A9C3E9FFAAC3EAFFEECF18FDEECF19FD3A
:10176000EECF1AFDEFCF1BFD0D011C6B060E1D6F9A
:10177000ABC31EFDACC31FFDABC32AF7ACC32BF735
:10178000DCEC64F0F3CF1EFDF4CF1FFD0C0E07015F
:10179000326F336B0701140E306F0D0E316FF7ECA3
:1017A00064F0F3CF20FDF4CF21FD0D01201F211F98
:1017B000ABC319FFACC31AFF8AEC50F0F3CF22FD84
:1017C000F4CF23FD0D01F350201948E123512119D5
:1017D00045E10901996B9A6B91EC93F0140E0F019E
:1017E000236F246B0F01000E216F0D0E226FFFEC93
:1017F00051F00301000EB36F0D0EB46FB9DB0D0194
:101800000C5167EC1BF0040DF3507CEC1AF000C097
:1018100024FD0050006E016AE8500301AB5DAB6F20
:101820000150AC59AC6F140EAB5F000EAC5BA7C39C
:10183000B1F3A8C3B2F30301000EAF6F0D0EB06F8A
:101840005CDA00090BE0ABC3B7F3ACC3B8F3030138
:10185000000EB56F0D0EB66F98EC10F044EC4EF024
:10186000010CE6EC00F00301ADA102D04187AD917F
:10187000409B409D409F4193419541913DEC4EF0EE
:101880000009FCE0060E0301AD1504E00D016B6BD1
:101890006C6BB3D00E512F1907E10F51301904E1D1
:1018A0000D016B6B6C6B91D02F510E5D30510F5948
:1018B0001FE20E512F5D0D016B6F03010F51305967
:1018C0009EEC19F004E214C36BFD15C36CFDF3EC40
:1018D00019F005E225C36BFD26C36CFD41856BCD78
:1018E000C5F36CCDC6F396EC18F0FCEC19F06DD096
:1018F0000E512B5D0D01696F03010F512C590D0124
:101900006A6F695103012F25006E0D016A510301B1
:101910003021016E2951005C0D016B6F03012A51CA
:1019200001589EEC19F004E214C36BFD15C36CFD65
:10193000F3EC19F005E225C36BFD26C36CFD418570
:101940000D0169516B5D6A516C5904E26BCD69FD03
:101950006CCD6AFD69CDC5F36ACDC6F396EC18F07F
:101960000D0169516B5D696F6A516C596A6F6951FC
:101970006A1122E069CDC5F36ACDC6F344C3C4F34E
:1019800029C3C2F32AC3C3F30301C16B03010E5180
:101990002B5D006E2C510F55016E026A036A070E13
:1019A00000260A0E0122000E0222032200C0BFF30D
:1019B00001C0C0F369EC16F0FCEC19F02B510E5D80
:1019C0002C510F5902E376EC1BF0030141A715D00F
:1019D00014510D016B1904E1030115510D016C192E
:1019E0000CE0030125510D016B1904E1030126519F
:1019F0000D016C1902E00301AD810D016B516C11F9
:101A000004E1030E0301AD151CE00D016B51030150
:101A1000145F0D016C510301155B0D016B516C11CD
:101A200002E00301AD870301AEA107D0276B970E3B
:101A3000026F980E036F046B056BA5EC18F04089DC
:101A400029D0AEA319D0400EE96E030EEA6EEF5016
:101A5000070BE82AE850070BF36EF46EF80EEF144C
:101A6000F310EF6E0607000E075B085B095B010EC3
:101A70000D016B6F6C6B0ED040A90CD0AEB108D0CD
:101A8000275106E02707D890053304330333023388
:101A9000A5EC18F012C347FD13C348FD10C349FD60
:101AA00011C34AFD06C34BFD07C34CFD08C34DFDE2
:101AB00009C34EFD0AC34FFD0BC350FD0CC351FDBE
:101AC0000DC352FD0D015391539353955397ADC3DD
:101AD00054FD596B5A6B6B51030106270D016C5174
:101AE00003010723000E08230923ADA315D0ADB9C8
:101AF00005D00D014F6B506B516B526B030124A34A
:101B000006D00D014B074C5B4D5B4E5B05D0062BA1
:101B100007230823092324830301ADB12481355110
:101B2000335D365134590AE32DEC19F00D010250A2
:101B3000005C556F03500158566F0DD03351355D21
:101B40000D01556F0301345136590D01566F010EC9
:101B5000555F000E565B6DEC4EF0F3CF45FDF4CFB4
:101B600046FD0D01400EF35C000EF45803E2456B98
:101B7000466B04D0400E455F000E465B5551455DF7
:101B80005651465904E245CD55FD46CD56FD03015B
:101B9000470EB36F0D0EB46FEBD9140E0D016B270A
:101BA000000E6C235389539B538D539F0301ADA3A8
:101BB00023D0040E0D016B27000E6C23020E5B6F09
:101BC000040E5C6F020E5D6F180E5E6F010E006EEC
:101BD000530EE96E0D0EEA6EEF5067EC1BF0002419
:101BE0000F0BF36EF46EF346F346F346F3460F0E17
:101BF000EF14F310EF6EF45000C85FFD01C860FDF4
:101C000002C861FD03C862FD18C363FD19C364FD0A
:101C10001AC365FD1BC366FD0D01676B060E686F79
:101C20006BCD69FD6CCD6AFD6BCD2AF76CCD2BF7C2
:101C3000DCEC64F0F3CF69FDF4CF6AFD0C0E070114
:101C4000326F336B07015F0E306F0D0E316FF7ECA3
:101C500064F0F3CF57FDF4CF58FD0D01571F581F07
:101C60000F01DF0E116F090E126F30EC50F06BCDCB
:101C700097F96CCD98F90901060E966F0901180EB7
:101C8000946F030E956F1EEC93F0140ED3EC1AF0C4
:101C9000470E266F0D0E276F4BEC52F00301ADA3DC
:101CA00009D0040ED3EC1AF05B0E266F0D0E276FD1
:101CB0004BEC52F00F01F30E136F090E146F45EC4D
:101CC00050F06BCD19FF6CCD1AFF8AEC50F0F3CFBA
:101CD00045FDF4CF46FD0F01030E116F0A0E126F82
:101CE00030EC50F0020ED3EC1AF0450E266F0D0EBC
:101CF000276F4BEC52F0B3EF4FF0A8EC17F0EE501B
:101D0000ED1001E1000C0D01FE0E266F36EC1AF00D
:101D1000BFEC19F036EC1AF00450EE24026E0550B8
:101D2000EE20036E0CEC1BF00250EE24006E03500C
:101D3000EE20016EA8EC17F00050EE18276F01504E
:101D4000EE18286F256B25512BEC17F048E225CDB6
:101D500045F3BEEC00F00D0E03013F5D3DE0040EC7
:101D60003F5D0BE16DEC1BF00050421935E1015075
:101D7000431932E125CD26FD2FD00D012751030156
:101D800042192AE10D0128510301431925E1E6EC2E
:101D900000F06DEC1BF00301125100181DE113510E
:101DA00001181AE10CEC1BF049EC19F01051021863
:101DB00013E11151031810E136EC1AF0EE50181926
:101DC0000BE1EE50191908E1EE501A1905E1EE5039
:101DD0001B1902E101E1010C0D01252BB4D7FE0E08
:101DE000265D21E026CD45F3AEEC1AF0FE0E0D0186
:101DF000265D19E027CD42F328CD43F343EC1AF0DA
:101E00002CEC1AF0F8EC18F00CEC1BF0EECF10F301
:101E1000EDCF11F3A8EC17F0EECF12F3EDCF13F3E3
:101E2000D8EC1AF0010C0CEC1BF00D0EEEEC1AF0D5
:101E3000EF50020B01E1000C08017B517C1101E025
:101E4000000C0D01296B2A6B030E295D000E2A5927
:101E50003BE2E2EC1AF09CEC1BF036E0E2EC1AF00C
:101E6000FFEC18F070EC18F0A8EC17F049EC19F042
:101E70000250001824E10350011821E1E2EC1AF0AD
:101E8000C8EC1AF070EC18F00CEC1BF049EC19F0EF
:101E90000250001814E10350011811E136EC1AF059
:101EA000B8EC1BF0EE500001001808E1EE500118EC
:101EB00005E1EE50021802E1EE50031848E00D0172
:101EC000292B000E2A23C0D7256B25512BEC17F0A8
:101ED0004EE225CD45F3BEEC00F0030140A744D00F
:101EE000E6EC00F06DEC1BF00050030112193CE130
:101EF0000150131939E143EC1AF0E2EC1AF0EAEC64
:101F000019F081EC19F00CEC1BF070EC18F0E2EC1D
:101F10001AF0C8EC1AF000C0EEFF01C0EDFF0CECA7
:101F20001BF0040EEEEC1AF0B8EC1BF00C0EEEEC0D
:101F30001AF000C0EEFF7CEC1BF06DEC1BF0E2EC45
:101F40001AF0FFEC18F000C0EEFF01C0EDFF35EC19
:101F50009CF01FC001F0E2EC1AF0D0EC1AF01EC0A9
:101F6000EEFF01C0EDFF000C0D01252BAED7000CDC
:101F700011EC1BF098EC17F0F3CFEEFF01C0EDFF72
:101F800011EC1BF0020EEEEC1AF098EC17F0020EBA
:101F9000F3CFEBFF030E88EC19F0040EE6EC17F01C
:101FA000040EB5EC18F0080EE6EC17F0080EB5ECD0
:101FB00018F00E0EEEEC1AF098EC17F00E0EF3CFB0
:101FC000EBFF0F0E88EC19F0FFEC18F098EC17F00F
:101FD000100EF3CFEBFF110E88EC19F0D0EC1AF0D5
:101FE00098EC17F0120EF3CFEBFF130E01C0EBFFCE
:101FF0001200E6EC00F012C342F313C343F399EC72
:1020000019F029C331F32AC332F32BC333F32CC3A2
:1020100034F3BEEC1AF003014051080B02E0040E49
:1020200001D00D0E3F6F4091409340954099409BE9
:10203000409D409F41914193419541974189249111
:10204000249324972499D8EC1AF031EC61F0F3CF63
:1020500006F3F4CF07F331EC61F0F3CF08F3F4CFDC
:1020600009F3030122692369010E146F156B120035
:102070000C0E0901996F9A6B91EC93F0ECEC51F016
:102080000D01416FF00E4115E840E8403F0B7CEC3C
:102090001AF000C041FD005046E0070E05EC1AF0B2
:1020A0000D014151410700093EE0DDEC1AF0E85016
:1020B0003AE04205F5E0020E425D26E1030E415D85
:1020C00032E3436B446BDDEC1AF0040E425D08E131
:1020D000ECEC51F00D01446FECEC51F00D01436F4D
:1020E000180E435D020E44591EE3B40ED8804355CA
:1020F000050E445504E2B40EF36E050E17D043CD21
:10210000F3FF44CDF4FF1200020E415D0CE3DDEC61
:102110001AF0E850415D07E3425105EC1AF00D0159
:102120004251415FBDD7180EF36E020EF46E1200DD
:102130002EEC1BF00D0EEEEC1AF0EFCF33FD2EEC73
:102140001BF0080EEEEC1AF0EECF34FDEECF35FDAD
:10215000EECF36FDEFCF37FD2EEC1BF0040EEEEC8C
:102160001AF0EECF38FDEECF39FDEECF3AFDEFCFCE
:102170003BFD030140914093409540B902D077EC7C
:1021800017F03F51050A1FE0010A08E0B7C33CFD04
:10219000B8C33DFD0D0133A14AD046D00D0133B582
:1021A00010D033A906D04EEC19F0040E3DEC1BF014
:1021B00008D033A306D0D8EC18F083EC1AF03AEF2D
:1021C00019F0F9EF0FF00D0133B5120033A910D05B
:1021D00026EC1AF00301061908E1EE50071905E193
:1021E000EE50081902E1EE50091902E0C9EF17F0AC
:1021F0000D0133A38AEF15F0D8EC18F00DEC1AF0AE
:10220000EECF14F3EDCF15F383EC1AF00D0133A9E3
:1022100009D0B4EC17F00301070E3F6F77EC17F00D
:10222000409912003AEF19F03C2B000E3D2333A3E6
:1022300003D03C2B000E3D231AEC1AF00AE32DECE0
:1022400019F00D010250005C316F03500158326FDC
:102250000DD03351355D0D01316F030134513659C5
:102260000D01326F010E315F000E325B0A0EE96E16
:10227000030EEA6EEE50385D2B6FEE5039592C6F1D
:10228000EE503A592D6FEE503B592E6F2BCD2FFD4E
:102290002CCD30FD3E6B3C513D115FE03151321190
:1022A00069E0800E2E1503E1E2EC18F03BE33CCD33
:1022B00000F03DCD01F0026A036A2B0EE96E0D0EAF
:1022C000EA6EEE500026EE500122EE500222EE5051
:1022D00003220334000E031809E6D880000E0054D0
:1022E000000E0154000E0254000E03541DE23C5136
:1022F000315D046E32513D55056E066A076A05AEC2
:1023000002D00668076807502E19E8AE02D02E35B5
:1023100008D02B51045C2C5105582D5106582E51D4
:10232000075802E3010E3E6F83EC1BF02E51031899
:10233000E8AE02D0033402D051EC1BF01BE22F5167
:102340003C25046E30513D21056EE83413E2045003
:102350000008000E05540EE20BD02B512C112D114C
:102360002E1106E0800E2E1505E1E2EC18F002E2D7
:10237000010E3E6F3E5104E133B5CCD3B4EF17F0FC
:10238000060E331502E0F9EF0FF033A91200030136
:102390003F510C0A01E1B0D10B0A1CE00F0A1AE010
:1023A000010A18E0020A16E0010A14E00C0A01E032
:1023B000BFD126EC1AF0061908E1EE50071905E125
:1023C000EE50081902E1EE50091902E0C9EF17F0CA
:1023D000070E3F6F0E512F5D0D01296F03010F5145
:1023E00030590D012A6F800E2A1508E00301A1EC77
:1023F00017F000500D01292701502A2329CD00F0A4
:102400002ACD01F0026A036AA0EC1BF0EE50002412
:10241000256FEE500120266FEE500220276FEE5000
:102420000320286F250EE96E0D0EEA6EEE50E5ECE6
:1024300018F002E6A8EC19F015E203012451010B93
:102440000AE0010E0D01251905E1265103E127518E
:1024500001E1285102E04BEF1AF03407000E355B22
:10246000365B375B030111EC1AF001AE02D0026853
:102470000368A0EC1BF00050EE5C0D01256F0150CD
:10248000EE58266F0250EE58276F0350EE58286F13
:10249000030131EC1AF00BE2A5EC1BF000500D012A
:1024A000255F0150265B0250275B0350285B250EF9
:1024B000E96E0D0EEA6EEE500D01E5EC18F002E645
:1024C000A8EC19F06CE20301A5EC1BF00D012551FD
:1024D000005C2651015827510258285103585FE3E8
:1024E000030124972499419131C329FD32C32AFD68
:1024F0000D012551030131270D012651030132231E
:102500000D01295103010E5D0D012A5103010F59DF
:1025100009E331EC1AF02FE20E51315D006E3251B9
:102520000F551BD0A1EC17F00E5100240D01296F9F
:1025300003010F5101200D012A6F030131510D01DB
:10254000295D030132510D012A5915E22951030178
:10255000315D006E32510D012A55016E00010050AF
:10256000030106270001015003010723000E082381
:102570000923CBEC1AF003012B51315D2C51325958
:1025800006E3A1EC17F00050315F0150325B2B5194
:102590000E5D2C510F5928E376EC1BF025D003017A
:1025A0000E51311902E10F5132191EE024A71BD040
:1025B00024A918D011EC1AF001AE02D00268036809
:1025C000005041EC19F031EC1AF009E2A5EC1BF0D7
:1025D00001AE02D002680368005041EC19F0CBEC68
:1025E0001AF04185248924872F5131191CE130517B
:1025F000321919E141B704D077EC17F0409913D0A4
:1026000059EC18F010E1EE5035190DE1EE50361985
:102610000AE1EE50371907E106E103012451010BED
:1026200002E04099419726EC1AF00301065D006E26
:10263000EE500759016EEE500859026EEE500959DE
:10264000036E0DEC1AF00D010050EE5C3F6F01506F
:10265000EE58406F03011451151106E10D013F5171
:10266000401102E0030141833FCD14F340CD15F347
:10267000080E03013F5D20E159EC18F059E1EE50DE
:10268000351956E1EE50361953E1EE50371950E145
:102690004FE103012451010B4BE0F2EC1AF0F30E71
:1026A00003013727FA0E3823020E3923000E3A238E
:1026B0004089090E3F6F3CD0090E3F5D0AE10D01D4
:1026C00033B136D04EEC19F0140E3DEC1BF0F9EF9F
:1026D0000FF00A0E3F5D2CE159EC18F00CE1EE50C2
:1026E000351909E1EE50361906E1EE50371903E1CC
:1026F00001E010D27EDC120006C300F007C301F037
:1027000008C302F009C303F0002AC8EC1BF0005014
:102710000D0134190CE10150351909E10250361947
:1027200006E10350371903E101E0F4D162DC120045
:102730000D0133BB12000B0E03013F5D01E11200DE
:102740000A0E3F5D01E112000C0E3F5D01E1120037
:10275000B751B81101E166D10D01303504E22F51B6
:102760000008000E305501E2A2D068EC18F0006EAF
:10277000016A2F51F35C0901996F0D013051015825
:1027800009019A6F91EC93F00D012F510301B727C6
:102790000D0130510301B823B7510D01315D030123
:1027A000B8510D01325904E231CDB7F332CDB8F34F
:1027B0000301B7510A27B8510B23000E0C230D2338
:1027C0003351B725006E3451B82120EC1AF024E2C1
:1027D00033512D5D0D01296F030134512E590D0127
:1027E0002A6F010E2927000E2A238AEC1BF033C31F
:1027F000BFF334C3C0F3FDEC1AF08CEC19F0006E9B
:10280000B8510D012A55016E03012B510024336F7D
:102810002C510120346F0CD023EC1BF033C3BFF3D9
:1028200034C3C0F356DA0301B7513327B851342308
:10283000221D01E1231D01E1F5D0B751225FB851FE
:10284000235B165122250D01296F03011751232106
:102850000D012A6F800E2A1502E0030125D0030125
:10286000233504E222510008000E235501E2DAD09C
:102870000D01295103010A270D012A5103010B23E0
:10288000000E0C230D230D012951030133270D01E7
:102890002A510301342333512D5D34512E5904E262
:1028A0005BDB335F0150345B22692369BBD0303579
:1028B00001E3B8D02F510008000E305501E3B2D02B
:1028C0000301B7510D012F25006E0301B8510D0111
:1028D0003021016E0050315D0150325909E22F5113
:1028E000315D0301B76F0D01305132590301B86FEB
:1028F000EFDB0901996F9A6B91EC93F0AAEC1BF056
:10290000026EAFEC1BF0036E02500301B725006EA0
:102910000350B82120EC1AF031E233512D5D006EE6
:102920002E51345516EC1BF00D012F51005C296F10
:10293000305101582A6F800E2A1508E18AEC1BF0ED
:1029400053EC19F0C06FFDEC1AF01DD023EC1BF016
:10295000AAEC1BF0006EAFEC1BF0016E03012B51D3
:102960002D5D026E2E512C55036EA9EC1AF0030159
:102970000250005CBF6F0350015804D023EC1BF0E1
:1029800053EC19F0C06FA5D90301221D0BE1231DE3
:1029900009E12FCD22F330CD23F3B7C316F3B8C32B
:1029A00017F340D022510D012F5D030123510D017A
:1029B00030591EE23DDB06E30D0159EC19F02351BD
:1029C000055805E2B7C316F3B8C317F30CD092EC61
:1029D00019F00D012F51005C0301166F0D013051EC
:1029E00001580301176F2FCD22F330CD23F31AD0F6
:1029F0001FDB18E292EC19F00D012F51005C3051F1
:102A0000015810E359EC19F0026E23510558036E7A
:102A10001651025C006E17510358016E00501627C4
:102A2000015017230D013C513D1119E0070E030120
:102A30003F5D04E033C335F334C336F340AF04D015
:102A400093DAE6EC00F00BD0408F40BD08D0408D0B
:102A50008AEC1AF00F0E03013D27000E3E230D01F4
:102A600033A158D00AC300F00BC301F00CC302F02D
:102A70000DC303F0002AC8EC1BF03CCD04F03DCDA3
:102A800005F0066A076A380EE96E0D0EEA6EEE5022
:102A90000426EE500522EE500622EE50072200508A
:102AA000041838E10150051835E10250061832E1EA
:102AB000035007182FE12EE190EC1BF03F51090A5B
:102AC00024E0010A12E00F0A06E0010A22E10C0EDE
:102AD0003F6FF4EF18F00B0E3F6F8AEC1AF01E0EEA
:102AE00003013D27000E3E2314D0E3DA0AE1EE5045
:102AF000351907E1EE50361904E1EE50371901E1BE
:102B000004E003010A0E3F6F04D04BEC1AF0F9EF1A
:102B10000FF02ADA12000301B9519DD901E3000C2C
:102B2000B9C345F3BEEC00F00301BA51BB1103E198
:102B3000010EBA6FBB6B29512D5D0D01006F0301B2
:102B40002A512E590D01016F010E005F000E015B2D
:102B5000030191EC1AF00D010050005D0150015984
:102B600001E2000CE6EC00F0030E0301BE1502E1E9
:102B7000030EBE13BCC304FDBDC305FD91EC1AF0EA
:102B800000500D01005F0150015B0301BEA313D093
:102B9000BEA10CD000CD00F001CD01F0D8900132E3
:102BA000003200500D010427015004D00D010051E6
:102BB000042701510523030129510D010425006F4C
:102BC00003012A510D010521016F010E0027000E9E
:102BD000012333C302FD34C303FD0301221D01E1C0
:102BE000231D13E09FDB00500D010227015003233A
:102BF000025103012D5D0D01035103012E5905E220
:102C0000ABD90D01025F0150035B0D0102510301BD
:102C1000355D0D010351030136590CE20D010051E0
:102C20000301355D0D0101510301365918E2BEA5BE
:102C30000ED0000C51EC1AF00AE2005103012B5D9A
:102C40000D01015103012C590AE2BEB5000C00CD63
:102C500035F301CD36F300CD33F301CD34F3030169
:102C600051EC1AF025E2040E0301BE1521E02B51B0
:102C70000D01025D0301C56F03012C510D010359C4
:102C80008EDB44C3C1F300CDBFF301CDC0F321D827
:102C9000D1DB0EE20D01005103012B5D006E2C51C2
:102CA0000D010155016E00500301335F0150345B8B
:102CB00000CD2BF301CD2CF3D8EC1AF029C331F35E
:102CC0002AC332F336DB070E03013F5D01E14CD925
:102CD000010C0301C4512AE0010A01E01200C151B4
:102CE00011E0010A01E01200C5C3E6FFC6C3E6FF1A
:102CF000C2C3E6FFC3C3E6FFBFC3E6FFC0C3E6FF30
:102D0000F8EF18F0BF1D01E1C01D06E0BFC311FFC1
:102D1000C0C312FF30EC50F0C5C328FFC6C329FF63
:102D2000C2C326FFC3C327FF4BEF52F0C15117E0C8
:102D3000010A01E01200C21D01E1C31D06E0C2C389
:102D400013FFC3C314FF45EC50F0C5C323FFC6C334
:102D500024FFBFC321FFC0C322FFFFEF51F0C5C353
:102D60001FFFC6C320FFC2C31DFFC3C31EFFBFC3D7
:102D70001BFFC0C31CFF18EC51F0E6EC51F000093A
:102D8000FCE012000301C9510EE0010A01E012004B
:102D9000CDC3E6FFCEC3E6FFCBDBC7C3E6FFC8C3A8
:102DA000E6FF9FEF1AF0C71D01E1C81D06E0C7C38B
:102DB00011FFC8C312FF30EC50F0100E0D01286F48
:102DC000296B0301CD51CE1137E00D0128510301CC
:102DD000CD5D0D0129510301CE5904E2CDC328FD7B
:102DE000CEC329FD28CDE6FF29CDE6FFA1DB180ED5
:102DF000E66E0D0EE66EA3DB28CD28FF29CD29FF58
:102E00000F01180E266F0D0E276F4BEC52F028CDD8
:102E100000F029CD01F0026A00500301CA270150D9
:102E2000CB230250CC230D0128510301CD5F0D01AE
:102E300029510301CE5BC5D71200140EEA02F3CF6D
:102E4000EAFFE902F3CFE9FFF450EA26430EE92650
:102E5000080EEA221200006E016A090E005C000EE4
:102E60000158120004CDC5F305CDC6F30301020ECF
:102E7000D880C557000EC657140EC603F3CFC6F34D
:102E8000C503F3CFC5F3F450C6270301010EC46F89
:102E90000D0104250301C26F000E0D010521030180
:102EA000C36F140EC303F3CFC3F3C203F3CFC2F354
:102EB000F450C327430EC227080EC323B4EC1BF003
:102EC000140E206E216A04CD25F005CD26F0A9EC64
:102ED0009BF01EC0BFF31FC0C0F3430E0301BF270A
:102EE000080EC023F6DE08017B6B7C6B12007ADBD8
:102EF000E60E03013727F50E3823050E3923000EA1
:102F00003A231200A40E006E3A0E016E010E026EFC
:102F100014CD03F0046A056A060E246E256A266A3B
:102F200014CD1FF004C020F005C021F0C7EF9BF0C6
:102F3000EECF2AF7EDCF2BF7DCEC64F0F8DB11EFE6
:102F40001BF029512B5D006E2C512A55016E120089
:102F500063DB020EEEEF1AF02B512D5D006E2E5149
:102F60002C5564DB0050120074DB100E3DEF1BF09B
:102F70007ADB060E61D300501C24F36E01501D2035
:102F8000F46E02501E20F86EF4CFF7FFF3CFF6FF79
:102F9000120006C338FD07C339FD08C33AFD09C353
:102FA0003BFDEDDB56DB040E68DB38CD06F339CD97
:102FB00007F33ACD08F33BCD09F312000301C46BCC
:102FC0000301C269C36944C3C1F3120007DBEECF3A
:102FD0002CF7EECF2DF7EECF2EF7EFCF2FF7E1EC5A
:102FE00064F01EC000F01FC001F020C002F021C03C
:102FF00003F011EF1BF0016E00C0F3FFF46E12003E
:103000000ACD96F30BCD97F30CCD98F303010ACDBF
:10301000F6FF962B0BCDF7FF000E97230CCDF8FF94
:1030200098230800F5CF0EFD12001DDB1E0E04D301
:103030002F510301B725006E0D0130510301B82156
:10304000016E22511625026E23511721036E005086
:10305000025C0150035812001A511825026E1B51D0
:103060001921036E02501025006E0350112122D346
:103070002BEC9CF0030137511E5C006E38511F5839
:10308000016E39512058026E3A512158036E0001E9
:10309000800E031412004551EA6A490FE96E0D0EC5
:1030A000EA2212000D51EA6A110FE96E0D0EEA22B2
:1030B000120046DBEE500D013419120096C3F6FFE4
:1030C000962B97C3F7FF000EE3DA010E106F120084
:1030D000C5DA0C0E83DAEF50FADA040DF350120061
:1030E000EECF00F0EFCF01F012000301010EC46F2C
:1030F00064C3C2F365C3C3F340EF1BF044C3C4F31E
:1031000035C3C2F336C3C3F32FDB7CC3BFF37DC328
:10311000C0F369EF16F000010224006E000E0320D8
:1031200085DA00C0F3FF01C0F4FF120044C3C4F30A
:103130000EC3C2F30FC3C3F30301C16B0301070E38
:10314000BF6F0A0EC06F69EF16F02BEC9CF01E509B
:1031500003010225376F1F500321386F20500421CF
:10316000396F215005213A6F120038DA1EC0EEFF88
:10317000C3DA11EF1BF069C3CAF36AC3CBF36BC3A5
:10318000CCF344C3C9F32FC3C7F330C3C8F3C2EFB2
:1031900016F043CD8CF344CD8DF3030143CDE9FF0D
:1031A00044CDEAFF8C2B000E8D23EFCF46FD12009D
:1031B00038CD0AF339CD0BF33ACD0CF33BCD0DF3FB
:1031C00090EF1BF0A0DA51EF1BF0345D256FEE504D
:1031D0003559266FEE503659276FEE503759286F04
:1031E000E834000E2819120034DA110E3DEF1BF0FE
:1031F00084EC86F0006E060EE15E00501200100EA8
:10320000EEEF1AF01C0D93DA000E0026010E0122DB
:1032100000C0E6FF01C0E6FF1200036E02504B251E
:10322000006E03504C2146D244C3C4F300CDC2F318
:1032300001CDC3F399DA82C3BFF383C3C0F3120095
:103240008CC3E9FF8DC3EAFF8C2B000E8D23EFCFDB
:1032500046FD0D01010E486F12002B512D5D006ED1
:103260002E512C55016E3551335D026E3451365559
:10327000036E1200EED9120E00DA0301060E3F6F44
:103280001200065F0150075B0250085B0350095BA8
:103290001200EECF02F0EFCF03F0120070DA03015C
:1032A000AE6B0301120056DA0301BF6F58DA030157
:1032B00012002F510301B725046E0D013051030197
:1032C000B821056E2251045C12000301C56FC66B64
:1032D00044C3C4F31200FF511C0DF3CFE9FFF4CF38
:1032E000EAFF000EE926010EEA22120035EC9CF0FE
:1032F00003011E503D5D006E1F503E59016EE834C3
:10330000120084EC86F0026E060EE15E025012009E
:1033100001C0EBFF11EF1BF0DCDC0D0129510301B3
:10332000B75D120022511625006E23511721016E40
:10333000120029C32FF32AC330F312000D016C6F62
:103340006B510301145D0D016C51030115591200FD
:10335000D880000E2555000E2655000E2755000E6C
:1033600028551200006E016A0050120046C318F37F
:1033700047C319F348C31AF349C31BF31200020EE3
:103380002DD9EECF04F0EFCF05F012000D012C5136
:1033900003016C5D0D012D5103016D5912000301F4
:1033A000C66F44C3C4F32BC3C2F32CC3C3F31200D0
:1033B00003018E510D013B5D03018F510D013C59FD
:1033C0001200030199510D01025D03019A510D0193
:1033D00003591200E9CF00F0EACF01F0E9CFE6FF90
:1033E000EACFE6FF12000D016B510301255D0D01CF
:1033F0006C510301265912000D016B5103010E2778
:103400000D016C5103010F2312000F01236F246B78
:103410000F01216B226BFFEF51F020D90E0EEEEF62
:103420001AF031510E5D006E0F513255016E026A75
:10343000036A120003013551335D365134591200CD
:10344000016E00502D5D01502E591200340EE96EB0
:103450000D0EEA6EEE501200180EE66E030EE66ECA
:10346000120031510E5D32510F591200B1C3E9FF04
:10347000B2C3EAFF1200AD510301665D0D01AE510A
:103480000301675912000A0EE66EE66AB1C3E6FF51
:10349000B2C3E6FF12000301AE6B0301100E3DEF55
:1034A0001BF035510D01025D030136510D01035929
:1034B0001200BEEC00F033C335F334C336F3120010
:1034C000016E03012B51005C2C51015812000301C5
:1034D0008E07000E8F5B8E518F111200030199072A
:1034E000000E9A5B99519A111200272BD89002373F
:1034F0000337043705371200006E016A140E005EB0
:10350000000E015A120038EC10F0F3CF25F3F4CF7F
:1035100026F3120035EC9CF01EC03DF31FC03EF3B5
:103520001200BA51BC25006EBB51BD21016E1200C4
:10353000CAC3E6FFCBC3E6FFCCC3E6FF1200AFEC85
:1035400086F0006E070EE15E005012000DD90301F7
:103550001200010E0226000E03221200BEEC00F043
:10356000E6EF00F061C35FF315EF03F063C35FF3B1
:1035700015EF03F068C35FF315EF03F02BC335F3CA
:103580002CC336F3120000500008000E0154120044
:103590000A0EEEEF1AF031C30EF332C30FF312002E
:1035A000120EEEEF1AF00F01286F296B0F011200B7
:1035B00029C30EF32AC30FF31200ECEC51F00D01F6
:1035C000426F120029CDE9FF2ACDEAFF1DEF17F067
:1035D00004CDE9FF05CDEAFF1DEF17F0E926000E47
:1035E000EA2212002BEC9CF01EC037F31FC038F308
:1035F00020C039F321C03AF312008EDE0301C56FFB
:103600000D012A510301B8590301C66FD7DC2BC342
:10361000BFF32CC3C0F31200AFC3E9FFB0C3EAFF8E
:103620001200B3C3E9FFB4C3EAFF1200016E010E3A
:103630000026000E012212000026AAD800C03BF38B
:1036400001C03CF31200B7C3C5F3B8C3C6F3DEEF45
:1036500017F00301010EAE6F03011200B5C3E9FFBD
:10366000B6C3EAFF1200408B35EC9CF01EC000F0A0
:103670001FC001F0026A036A1200AD6F31EF0CF057
:1036800044C3C1F32FC3BFF330C3C0F369EF16F0D7
:10369000972398C3F8FF98230800F5CF0EFD0D017E
:1036A000120000502B5D01502C5902502D5903502F
:1036B0002E591200016E00501219426F0150131959
:1036C000436F12003EDCD890013200321200F00B42
:1036D000E842E842E842E84212003ADC70EF18F0B3
:1036E0001DC004F01EC005F0BBEF17F02ADC00502F
:1036F0000E5F01500F5B120001C0EEFF02C0EEFF33
:1037000003C0EEFF120031CD00F032CD01F0026AAD
:10371000036A120029CDC5F32ACDC6F3DEEF17F0F8
:1037200003010A2B000E0B230C230D231200F3CFF1
:1037300000F0F4CF01F0120062DDEE50ED10120047
:10374000060EE96E030EEA6E1200A1EC17F0026A93
:10375000036A1200030133510D012F2512000301EA
:1037600034510D01302112000301010EC16F12000E
:10377000EECF00F0EECF01F08CDDE2EF1AF034CDA9
:1037800006F335CD07F336CD08F337CD09F3120034
:0A379000000E0122022203221200A3
:06379A00490E09010019AF
:1037A00005E1015103E1025101E1035101E1E4D2DC
:1037B000480E001905E1015103E1025101E10351F5
:1037C00001E1D8D2470E001905E1015103E1025190
:1037D00001E1035101E1C8D2460E001905E1015192
:1037E00003E1025101E1035101E1BCD2450E001990
:1037F00005E1015103E1025101E1035101E1AFD2C1
:10380000440E001905E1015103E1025101E10351A8
:1038100001E19FD2430E001905E1015103E102517C
:1038200001E1035101E193D2420E001905E101517A
:1038300003E1025101E1035101E186D2330E001987
:1038400005E1015103E1025101E1035101E173D2AC
:10385000310E001905E1015103E1025101E103516B
:1038600001E163D2300E001905E1015103E102517B
:1038700001E1035101E157D22F0E001905E1015179
:1038800003E1025101E1035101E14AD22E0E001978
:1038900005E1015103E1025101E1035101E13ED291
:1038A0002D0E001905E1015103E1025101E103511F
:1038B00001E132D22C0E001905E1015103E1025160
:1038C00001E1035101E126D22B0E001905E101515E
:1038D00003E1025101E1035101E11AD22A0E00195C
:1038E00005E1015103E1025101E1035101E10ED271
:1038F000290E001905E1015103E1025101E10351D3
:1039000001E102D2280E001905E1015103E1025143
:1039100001E1035101E1F6D1270E001905E1015142
:1039200003E1025101E1035101E1EAD1260E001940
:1039300005E1015103E1025101E1035101E1DED151
:10394000250E001905E1015103E1025101E1035186
:1039500001E1D2D1240E001905E1015103E1025128
:1039600001E1035101E1C6D1230E001905E1015126
:1039700003E1025101E1035101E1BAD1220E001924
:1039800005E1015103E1025101E1035101E1AED131
:10399000210E001905E1015103E1025101E103513A
:1039A00001E1A2D1200E001905E1015103E102510C
:1039B00001E1035101E196D11F0E001905E101510A
:1039C00003E1025101E1035101E18AD11E0E001908
:1039D00005E1015103E1025101E1035101E17ED111
:1039E0001D0E001905E1015103E1025101E10351EE
:1039F00001E172D11C0E001905E1015103E10251F0
:103A000001E1035101E166D11B0E001905E10151ED
:103A100003E1025101E1035101E156D11A0E0019EF
:103A200005E1015103E1025101E1035101E14AD1F4
:103A3000190E001905E1015103E1025101E10351A1
:103A400001E13ED1180E001905E1015103E10251D7
:103A500001E1035101E131D1170E001905E10151D6
:103A600003E1025101E1035101E122D1160E0019D7
:103A700005E1015103E1025101E1035101E116D1D8
:103A8000150E001905E1015103E1025101E1035155
:103A900001E103D1140E001905E1015103E10251C6
:103AA00001E1035101E1F4D0130E001905E10151C8
:103AB00003E1025101E1035101E1E5D0120E0019C9
:103AC00005E1015103E1025101E1035101E1D7D0C8
:103AD000110E001905E1015103E1025101E1035109
:103AE00001E1C8D0100E001905E1015103E10251B6
:103AF00001E1035101E1BAD00F0E001905E10151B6
:103B000003E1025101E1035101E1ABD00E0E0019B6
:103B100005E1015103E1025101E1035101E19DD0B1
:103B20000D0E001905E1015103E1025101E10351BC
:103B300001E191D00C0E001905E1015103E10251A0
:103B400001E1035101E183D00B0E001905E10151A0
:103B500003E1025101E1035101E177D00A0E00199E
:103B600005E1015103E1025101E103516CE0090E4D
:103B7000001905E1015103E1025101E1035161E046
:103B8000080E001905E1015103E1025101E1035161
:103B900056E0070E001905E1015103E1025101E170
:103BA00003514BE0060E001905E1015103E10251FA
:103BB00001E1035140E0050E001905E1015103E167
:103BC000025101E1035135E0040E001905E10151F4
:103BD00003E1025101E103512AE0030E001905E15E
:103BE000015103E1025101E103511FE0020E0019EE
:103BF00005E1015103E1025101E103510FE0010E22
:103C0000001901E0BBD0015101E0B8D0025101E040
:103C1000B5D0035101E0B2D0C2EF32F00901430E3A
:103C20001E6F880E1F6F000E8CD0D7EF32F0D0EFD2
:103C30001EF07CEF31F0070E0BD0060E09D0050EFA
:103C400007D0040E05D0030E03D0020E01D0010EE2
:103C50000401E96F2FD0B1EF32F0010E0401ED6FD6
:103C600002D00401ED6BEE6B040E1BD0010E0401BB
:103C7000ED6F02D00401ED6BEE6B030E12D0010E5E
:103C80000401ED6F02D00401ED6BEE6B020E09D062
:103C9000010E0401ED6FEE6B04D00401ED6BEE6BD1
:103CA000010E0401EB6FEC6B3AEF32F0ABEF31F049
:103CB0000401E96BEA6BE7EF31F00401E76B07D031
:103CC000010E03D0020E01D0030E0401E76FE86B72
:103CD000B3EF31F09AEF32F0EDEF32F0D3EF33F093
:103CE000B2EF33F0BAEF33F0AEEF33F0AFEF33F0C3
:103CF000B0EF33F0DDEF33F088EF33F046EF33F021
:103D00004BEF33F056EF33F060EF33F06AEF33F000
:103D100074EF33F07EEF33F0A7EF33F0A9EF33F019
:103D20000401F76B05D0010E01D0020E0401F76FFC
:103D3000F86BB1EF33F00901380E1E6F880E1F6F5C
:103D4000000E206F47EF28F00401F36B05D0010E41
:103D500001D0020E0401F36FF46BA5EF33F0040100
:103D6000F56B05D0010E01D0020E0401F56FF66B64
:103D7000A6EF33F0CDEF33F0D0EF33F0040E0301B4
:103D80006C6F6D6B0301330E696F880E6A6F000EE6
:103D90006B6F6AEC2AF0EE52EFCF68F33AEF04F063
:103DA00003017E0E626F81EF2BF00401836B020E24
:103DB000835D30E2CBEC28F0EF6A0301080E4D6F13
:103DC000500E03014B6F4C6B03014A6B0301466BB2
:103DD000476B486B496BE1EC01F0E66E6AEC2AF048
:103DE000EE52E552E750EF6E14691569835132ECDB
:103DF00029F02CEC2AF0F3CF00FDF4CF01FD87EC85
:103E000029F000CD11FF01CD12FF30EC50F004017C
:103E1000832BCDD7836B12000D01866B020E865D5E
:103E200036E23CEC29F0EE52EF50FE082DE03CEC7F
:103E300029F0EE52EFCF4EF379EC02F0000914E0D6
:103E400086CD04F925D86AEC2AF0EF6AFF0E145DDE
:103E500002E0BAEC29F0FF0E155D02E0C1EC29F09A
:103E60000301040EFFEC2AF00D013CEC29F0EF50A9
:103E700007E13CEC29F02DEC29F04FEC29F004E0AF
:103E800086CD04F905D83ED80D01862BC7D7120080
:103E9000040183510901045D01E112000401835111
:103EA00032EC29F02CEC2AF0F3CF00FDF4CF01FD29
:103EB00087EC29F000CD11FF01CD12FF30EC50F05E
:103EC0000901045132EC29F000C013FF01C014FFB6
:103ED00045EC50F0F3CF00FDF4CF01FD7F0E0F0154
:103EE000236F246B0F01000E216F040E226FFFEC75
:103EF00051F000CD13FF01CD14FF45EC50F004C983
:103F000083F412000D01010E736F6AEC2AF0EF507A
:103F10000B0A02E1EDEF23F0010A02E1CAEF23F000
:103F2000030A02E1B3EF23F0010A01E1B9D30F0A5A
:103F300001E11FD3010A01E102D3030A01E17AD2B0
:103F4000010A01E16ED2070A01E147D2010A01E14B
:103F5000A4D1030A27E0010A02E0FAEF23F027ECDC
:103F60002BF0F3CF6DFDF4CF6EFDF350F41002E1B2
:103F7000FAEF23F004011A0E106F040E116FCBEC50
:103F800028F0010EEF6E1769166BF3EC28F00C6940
:103F90000D690E690F6947EC2AF07E6B0301050E6F
:103FA000FFEC2AF0F0EC28F00A0E52EC2BF079EC42
:103FB0002AF00001F31C14E1011C12E16AEC2AF062
:103FC00083EC2AF004E18AEC2AF00D01736B1AEC01
:103FD00029F002E661EC29F002E3FAEF23F042D285
:103FE000F3EC28F079EC2BF00D01050ED880F3549A
:103FF000000EF45403E2050E6D6F6E6B010ECDECF6
:1040000029F01A0E7C6F040E7D6FFCEC2AF0030E73
:10401000E66EE66A610EE66E810EE66E000ECEEC8E
:104020002AF003E10401186B12D0040EE66EE66A72
:104030005C0EE66E810EE66E000ECEEC2AF004E118
:104040000401010E186F03D00401070ECAD179ECE8
:104050002BF00301A66BF3CFA4F3F4CFA5F3030178
:10406000A26BA36B03013F0EA16F6AEC2AF0D7ECA1
:1040700029F00D01F3506D5DF4506E5904E36FCDDE
:104080006DFD70CD6EFD590ED8806D55000E6E55CC
:1040900001E2ECD06EEC2BF0E5EC2AF01A0EF324E2
:1040A000E96E040EF420EA6E01EC2AF01A0EE66EB8
:1040B000040EE66EB7EC2AF0E5EC2AF00B0EE66E85
:1040C000E66A510EE66E810EE66E000EE66E1B0E7F
:1040D000E66E040E53EC29F00CE1DAEC29F01851ED
:1040E00002E1080E01D0090E186FCBEC28F0020E89
:1040F0002ED27FEC29F002E0E4EC29F0FF0E04015F
:10410000145D31E17FEC29F00EE00D016FCDE9FF88
:1041100070CDEAFF6F2B000E70231A0EE926040EF5
:10412000EA222F0EEF6E32EC2AF01A0E0D016F25E7
:10413000006E040E7021016E00C0E6FFE66E61ECB9
:1041400087F0026E050EE15E025032EC2AF088EC38
:1041500087F0E552E552E5521F500D016F272050C0
:104160007023E4EC29F01A0E0D016F25746F040E14
:104170007021756F010E745F000E755B1A0E741955
:1041800002E1040E751909E074CDE9FF75CDEAFF6F
:10419000EF502E0802E07407EFD7742B000E752342
:1041A0000401196B0B0EE76E1919E8AE02D0E73463
:1041B00002D0E750195D23E2710E006E390E016ED8
:1041C000010E026E19C403F0046A056A03AE02D040
:1041D000046805689BEC2AF0F5CF27F70900F5CFB6
:1041E00028F70800F5CF29F774CD25F775CD26F708
:1041F0009DEC64F0000903E00401192BD3D7DAEC3D
:1042000029F0FF0E145D18E014C4F2F0B5EC58F07C
:10421000F350020B11E014C4FDF0AFEC59F0F3CFF2
:10422000D4F0F4CFD5F0010E0001D427000ED52331
:1042300007EC56F00401156F79EC2BF0F350F410F5
:104240001CE00401010E166F0301710E796F0D0E53
:104250007A6F6AEC2AF017EC2AF00D016D07000E58
:104260006E5B620E6D5D000E6E5903E30401050E78
:10427000B8D06EEC2BF06BEC29F07DEC2BF0010E3E
:10428000F32403017E6F000EF4207F6F03016AECBC
:104290002BF06AEC2AF0020EEF6E7DEC2BF00D0194
:1042A000F31C13E16E1D11E16AEC2AF083EC2AF095
:1042B00004E18AEC2AF00D01736B1AEC29F002E696
:1042C00061EC29F001E396D2CDD0F3EC28F00D019A
:1042D000010E6D190BE16E5109E1020E4CEC2AF052
:1042E0006AEC2BF06AEC2AF0030E31D10301A66BC5
:1042F0006DCDA4F36ECDA5F30301A26BA36B0301F7
:104300003A0EA16F6AEC2AF0D7EC29F0020E0D01EB
:104310006F27000E7023736B100ED8806F55000E40
:10432000705502E2010E54D06FCD7EF370CD7FF355
:104330000301760E7C6F0D0E7D6FFCEC2AF0BFEC56
:104340002AF0760EE9260D0EEA22EF6A0D016F5172
:104350006D5F70516E5B726B7251006E016A030E7D
:10436000005C000E01582EE2E30E006E390E016E65
:10437000010E026E72CD03F0046A056A22EC2AF087
:1043800072CD1FF0D0EC28F0F5CFE6FF0900F5CF95
:10439000E6FF0800F5CFE6FF760EE66E0D0EE66E40
:1043A0004BEC87F0066E050EE15E0650000907E152
:1043B00072CD05F9E8DA0D01010E736F03D00D011E
:1043C000722BCAD7735102E07DEC2BF0010E0D0168
:1043D000CDEC29F06AEC2BF060D7800E175D03E27C
:1043E000030E186FB1D010C4E9FF11C4EAFF01EC4D
:1043F0002AF0F3CF10F4F4CF11F4080E0401185D85
:1044000001E1A2D0CBEC28F0040EEF6E165104E1CE
:10441000CBEC28F0050EEF6E0D01736B0401166BEB
:10442000E9D1C3EC2BF0020801E1E4D16AEC2AF0F7
:10443000050EEF6E27EC2BF056EC2BF0F350040139
:104440000C1914E101500D1911E102500E190EE181
:1044500003500F190BE10AE11AEC29F002E661ECB6
:1044600029F004E22DEC2BF00B0E71D0180515E0AD
:10447000090EE76E1819E8AE02D0E73402D0E75013
:10448000185D59E30B0EE76E1819E8AE02D0183527
:1044900003D0E750D88018554EE3090EE76E18197F
:1044A000E8AE02D0E73402D0E750185D13E30B0EFC
:1044B000E76E1819E8AE02D0183503D0E750D8805F
:1044C000185508E368EC27F00D01716FE85006E11C
:1044D00004013AD06CEC2CF00D01716F020E715D8D
:1044E0000CE12AEC2BF051EC2AF00401010E0C5FD8
:1044F000000E0D5B0E6B0F6B7DD171051CE12AEC7C
:104500002BF051EC2AF004010E6B0F6BF3EC28F04A
:10451000A5EC29F00C5DEE500D59EE500E59EE5001
:104520000F5906E2CBEC28F083EC2AF001E062D1CF
:104530000401060E08D06AEC2AF0060EEF6EFF0E9C
:10454000145D07E1040E186FCBEC28F0070EEF6E38
:10455000A4D047EC2AF0FF0E155D05E1046905695A
:104560000669076902D0EEEC29F06AEC2AF0070E22
:10457000EF6E0301020EFFEC2AF0B90E006E390E49
:10458000016E010E026E18C403F0046A056A03AEE0
:1045900002D0046805681BEC2BF00C0E0401185DBA
:1045A0000DE135EC2BF0340E726F810E736F000E3F
:1045B00066EC2BF035EC2BF0EAEC2AF004011851F4
:1045C00006E0180504E0CBEC28F00B0E04D10B0E2E
:1045D000195D1BE00301250E726F810E736F000ED3
:1045E00066EC2BF0950E006E390E016E010E026E18
:1045F00019C403F0046A056A03AE02D004680568B2
:104600001BEC2BF00301EAEC2AF014C4F2F0B5EC39
:1046100058F0F350010B08E003010C0E726F810E8D
:10462000736F000E66EC2BF00301FC0E726F800EB0
:10463000736F000E66EC2BF0040118050CE0E868BF
:10464000041908E1E868051905E1E868061902E1BE
:10465000E868071907E00301F30E726F800E736FAD
:10466000000E0DD00301EA0E726F800E736F000E04
:1046700063EC2BF0E60E726F800E736F000E63EC2E
:104680002BF0EAEC2AF00401165104E0CBEC28F000
:10469000080E02D084EC2BF0EF6E0D01736BAAD0E4
:1046A0001A0E126F040E136F16515AE00301D90E41
:1046B000726F800E736F000E66EC2BF092EC29F097
:1046C00022E0200E0D01715D03E103012B0E14D0D9
:1046D000300E715D0FE37151390803E2410E715DD7
:1046E00009E371515A0803E2610E715D03E37151F0
:1046F0007A0804E20AEC2BF0626F02D071CD62F30B
:1047000081EC2BF0DBD703013D0E626F81EC2BF0C7
:1047100092EC29F01FE0200E0D01715D03E1030111
:104720002B0EF3D7300E715D0FE37151390803E2A0
:10473000410E715D09E371515A0803E2610E715D2A
:1047400003E371517A0803E20AEC2BF0DED771CD56
:1047500062F3DCD70301EAEC2AF004011607A4D7C0
:1047600084EC2BF0EF6E0D01736B4AD8000909E061
:10477000BAEC29F0CBEC28F00B0EEF6E0D01010E18
:10478000736F5AEC2BF04FEC29F034E10D01010E60
:10479000736F30D00D01010E736F5AEC2BF079EC72
:1047A0002AF0100EF35C000EF45824E308C400F95C
:1047B00009C401F90AC402F90BC403F9CDEC1BF0DA
:1047C00004010C510D110E110F1114E10D01736B49
:1047D0006AEC2AF0090EEF6E0DD0FF0E145D02E0B8
:1047E000BAEC29F0FF0E155D02E0C1EC29F02DECCA
:1047F0002BF0EF6A0D01735102E182EF1FF01200FE
:104800005AEC2BF0F3CF02FDF4CF03FDF3CF04F00D
:10481000F4CF05F0066A076AA5EC29F00401045DEF
:10482000086EEE500559096EEE5006590A6EEE50AC
:1048300007590B6E0850F35C0950F4580A5006589B
:104840000B50075807E202CD00F003CD01F0026AD9
:10485000036A0DD0A5EC29F0045D006EEE500559F9
:10486000016EEE500659026EEE500759036E00C0FD
:1048700000FD01C001FD0D010050040100270D01E4
:10488000015004010123000E022303230D01000E39
:10489000D8800055000E015530E2400E005D000E3C
:1048A000015905E200CDDDF001CDDEF004D00001BC
:1048B000400EDD6FDE6B0001050EDB6F0D0EDC6F51
:1048C00014C4DAF0B7EC56F0F3CF02FDF4CF03FDD9
:1048D0000D01F350F41001E1010C02CD66F303CD9C
:1048E00067F30301050E646F0D0E44EC2BF00D0110
:1048F0000251005F0351015BC9D7A5EC29F0040107
:10490000041940E1EE5005193DE1EE5006193AE177
:10491000EE50071937E136E1CBEC28F00A0EEF6EC6
:104920000C6B0D6B0E6B0F6B0001D86BD96B14C445
:10493000D7F053EC56F00001040ED86F0D0ED96F6E
:1049400014C4D7F053EC56F0000906E040EC2AF00E
:104950007E0E0D01045DEFE140EC2AF00001080E2F
:10496000E06F040EE16F15C4DFF00BEC57F0EEECD6
:1049700029F0000907E1040104690569066907696E
:10498000C1EC29F0000C0901055102E14AEF25F0C4
:10499000050502E1D1EF24F0020E055D01E1C9D861
:1049A0001200040117BF1200060E4CEC2AF06AEC4C
:1049B0002BF0F1EC2AF07AEC29F0F3CF31FD030E65
:1049C0000D013127FC0E3117326B240E315D000EC4
:1049D000325903E3240E316F326B330E5B6F0D0ED1
:1049E0005C6F000ED8803155000E325526E2040E61
:1049F00003017E6F7F6B5BCD7CF35CCD7DF3FCECC4
:104A00002AF0030E0701136F146B5BCD11F75CCD19
:104A100012F7040E07010F6F106B5BCD0DF75CCD25
:104A20000EF706EC63F0040E0D01315F000E325BF1
:104A3000030E5B27000E5C23D4D756EC2AF0EF6AF6
:104A4000316B326B330E5B6F0D0E5C6F280E315D78
:104A5000000E32590BE256EC2AF0EF503A0806E00D
:104A6000312B000E32235B2B5C23F0D756EC2AF05F
:104A70005B2B000E5C23EF6A5BCD88F45CCD89F480
:104A80000401330E866F0D0E876FA2EC2BF004012C
:104A9000176F1200F1EC2AF0D4EC2AF010C400F0E9
:104AA00011C401F07E0ED8800056040E0156020E8D
:104AB000005E000E015A0D010050F35C0150F458E5
:104AC00002E38AEF2AF00D013351341131E088DB23
:104AD0003B0E52EC2BF0F3CF31FDF4CF32FD0D0144
:104AE0003351F35C3451F45805E231CD7EF332CDCD
:104AF0007FF304D033CD7EF334CD7FF310C47CF349
:104B000011C47DF3FCEC2AF0E6DB0D013351315D7D
:104B10003451325908E25DEC2BF062DB200E52EC8E
:104B20002BF0BDDBF8E0F1EC2AF0D4EC2AF0CBD787
:104B30001200F1EC2AF0DEDBF3CF31FDF4CF32FDD1
:104B40000D010A0EF35C000EF45805E30401020E99
:104B5000186F47EF2AF031CD7EF332CD7FF303019A
:104B6000330E7C6F0D0E7D6FFCEC2AF0F3CF31FD20
:104B7000F4CF32FD330E0D01F324E96E0D0EF42057
:104B8000EA6EEF6A330EE66E0D0EE66ED4EC84F03C
:104B9000E552E5521EC000F41FC001F420C002F42B
:104BA00021C003F4120006C9E6FF07C9E6FFB7EC0F
:104BB0002AF0F3CF3DFDF4CF3EFD06C93BFD07C90A
:104BC0003CFD06C939FD07C93AFD0D013D513E11B5
:104BD00042E01CEC2AF0000E3A23EFCF3FFD3D07E8
:104BE0003E5B3D0E3F5D03E0260E3F5D03E14FDB84
:104BF000EF6AEBD72B0E3F5D03E149DB200E25D09A
:104C0000250E3F5D24E1020E3D5D000E3E5903E29C
:104C10003D6B3E6BDAD71CEC2AF0000E3A23EFCF47
:104C200041FD1CEC2AF03A23EFCF40FD3D073E5BEF
:104C30003D073E5B40CD21F741CD22F765EC64F0A6
:104C4000E66E0D0124DBE552E750EF6EBED71FDBA9
:104C50003FCDEFFFBAD71BDBEF6A3BCDE9FF3CCD81
:104C6000EAFFEF6A3BCDF3FF3CCDF4FF120008C929
:104C7000E9FF09C9EAFFEF5020E05BEC2AF00AC91E
:104C8000E6FF0BC9E6FF2BEC87F0E552E552E55253
:104C9000E55200090DE10AC9E6FF0BC9E6FFB7ECD2
:104CA0002AF009010851F324006E0951F42058D369
:104CB000A0EC2AF0A0EC2AF0DAD7F36AF46A12002A
:104CC0000CC9E9FF0DC9EAFFEF5027E037DB1FC031
:104CD00000F020C001F021C002F0002A000E0122E5
:104CE000022200C0E6FF01C0E6FFDAEC2AF0E8DBB2
:104CF00065EC86F0036E070EE15E0350000908E1E3
:104D00001DDB09010C511F24006E0D51202028D3FA
:104D1000A7EC2AF0A7EC2AF0D3D7F36AF46A1200C2
:104D200013C91CF914C91DF911C91AF912C91BF9C3
:104D300009013D0E196F46D80D016C6F0901115123
:104D400012110BE011C9E9FF12C9EAFFEF5005E0AB
:104D500011C906F912C907F926DF0D016C511200BD
:104D600046DB260E196F2ED80D016C6F020E6C5D9E
:104D700017E12AEC2BF056EC2BF004010051F3184C
:104D80000FE1015101180CE10251021809E1035130
:104D9000031806E105E12BDB196B14D80D016C6FCC
:104DA0000901155116110BE015C9E9FF16C9EAFFF3
:104DB000EF5005E015C906F916C907F9F4DE0D0133
:104DC0006C5112000901195106E0C8DB19C9A1F3A1
:104DD00081DB94DB02D02AEC2BF0F3CF6AFDF4CF19
:104DE0006BFD0D01F31C03E16B1D01E1020C0901D8
:104DF000020E1C5D000E1D5906E21A511B1103E044
:104E00003DEC2BF038D01A511B1104E13DEC2BF096
:104E10000D0143D0FEDA0D016A51005C6B5101585F
:104E20002EE21CC97EF31DC97FF30301020E7E5FD3
:104E3000000E7F5B4BEC2BF01CC904F01DC905F084
:104E4000020E045E000E055A04500D016A5D030156
:104E50007E6F05500D016B5903017F6F03016AECF2
:104E60002BF03BDBD6DA09011A510024E96E1B5105
:104E70000120EA6EEF6A0D01010E696F0FD025DB8C
:104E80004BEC2BF009011A510D016A25E96E09015D
:104E90001B510D016B21EA6EEF6A696B0901195113
:104EA00014E05DEC2BF0006E016A026A036A00AE4A
:104EB00003D001680268036800500401005F0150DC
:104EC000015B0250025B0350035B0D01695112004C
:104ED000040118510A0A01E185D0010A66E0020ABC
:104EE00001E0D4D0CBD9040E53DAD40E966F800EE5
:104EF000976F000E986FEEDAFDD9A9DA0D01F31C59
:104F000001E1421D44E041CD7EF342CD7FF3030138
:104F10007C6B7D6BDFDA55DB9ADBEBDA0A0EF35C38
:104F2000000EF45805E20D01412B000E4223010C46
:104F30000A0EB2DA310E7C6F0D0E7D6FCBDA41DBDB
:104F40000A0EE66EE66AC90EE66E800EE66E000E8A
:104F5000E66E310EE66E0D0EA6D915E104010A0EBD
:104F6000186FAEEC57F00401146F060E0001EB6FE2
:104F7000EC6B0001350EE96F0D0EEA6F14C4E8F01A
:104F8000F2EC57F0020C04010B0E186F020C62DBFE
:104F9000F3CF7EF3F4CF7FF30301040E7E5F000EA8
:104FA0007F5B030197DB99DA010C51DBF6D8F3D86C
:104FB000EE52EFCF76F326EC05F0640E0401005DAF
:104FC000000E0159000E0259000E03595BE3D88010
:104FD000000E0055000E0155000E0255800E0355BF
:104FE00055E250D034DB33DA61DBF3500401005D6D
:104FF000F4500159025002590350035904E200C40D
:1050000041FD01C442FD0D01000ED8804155000E46
:1050100042552CE2100E415D000E425905E241CD91
:105020007EF342CD7FF304D00301100E7E6F7F6BC1
:105030000301310E7C6F0D0E7D6FDEDAF3CF43FD81
:10504000F4CF44FDAAD80D01F350415FF450425B08
:10505000F3CFEBF0F4CFECF00001310EE96F0D0E61
:10506000EA6F14C4E8F0F2EC57F0CDD70401005118
:105070000111021103110AE10001010EED6F38EC7C
:1050800058F0040188D8070EEF6E000C010C0401E3
:105090000C510D110E110F1114E11EC9D1F01FC9D1
:1050A000D2F020C9D3F055EC55F00D01446FFF0E3E
:1050B000445D01E1120044CDFDF0AFEC59F0F1D9AF
:1050C0001AD00CC4D4F00DC4D5F007EC56F00D0185
:1050D000446FFF0E445D01E112000001020EE76F14
:1050E0000EC4E3F00FC4E4F00001E56BE66B44CDC1
:1050F000E2F01FEC57F0DEDAF3CF00FDF4CF01FD54
:105100000D01000ED8800055000E015538E2400E0A
:10511000005D000E015905E200CDDDF001CDDEF0AD
:1051200004D00001400EDD6FDE6B0001040EDB6F6A
:105130000D0EDC6F44CDDAF0B7EC56F0F3CF02FD84
:10514000F4CF03FD0D01F350F4100AE144CDD6F085
:1051500048EC56F004010C6B0D6B0E6B0F6B1200DC
:1051600002CD66F303CD67F30301040E646F0D0EE9
:105170008BDA0D010251005F0351015BC1D744CDB1
:10518000FCF07EEC59F01EC00EF41FC00FF444CDAD
:10519000D6F048EF56F08351C4D1ABD96DEF2AF069
:1051A00004C020F005C021F0C7EC9BF01CC003F048
:1051B0001DC004F01EC005F000501C24F36E015009
:1051C0001D20F46E02501E20F86EF4CFF7FFF3CFCF
:1051D000F6FF09001200EE52EFCF7BF39CEF05F0D3
:1051E000BDD9030112002BEC9CF01EC008F41FC0B7
:1051F00009F420C00AF421C00BF48B0E0401082727
:10520000D20E09231A0E0A23000E0B231200EE52AF
:10521000EFCF71F3D8EF04F071D9F3CF6DFDF4CF78
:105220006EFD1200A4D965D9010E0026000E0122E0
:10523000005012002BEC9CF0040108511E5C006E23
:1052400009511F58016E0A512058026E0B51215806
:10525000036EE834000E03181200EE52EFCF77F31E
:1052600035EF05F07F0D22DAFE0E00261E0E01221C
:10527000000E022203221200865153D103019F6BBC
:1052800003019D6B9E6B03019B6B9C6B12003BCDDE
:10529000E9FF3CCDEAFF3B2B000E3C23120029D94D
:1052A000F350F4101200E66E65EC86F0006E070E07
:1052B000E15E005000091200EE52EFCF61F367EF9C
:1052C00003F0D880000E0054000E0154000E02546A
:1052D000000E03541200F35004011027F450112360
:1052E00010C4E9FF11C4EAFF102B000E1123260E93
:1052F000EF6E1200EE52EFCF95F30FEF08F03FD9AB
:105300001A0EE926040EEA22EF502F0812007F0E33
:105310000F01286F296B0F01000E266F040E276FF7
:105320004BEF52F0040112C4E9FF13C4EAFF122B41
:10533000000E1323EFCF71FDEF5012003BD988EC24
:1053400087F0E552E552E5521200000EE96E040EB8
:10535000EA6EEE501200EE52EFCF60F329EF03F049
:10536000016E010E0026000E012200C0F3FF01C0F5
:10537000F4FF120014C4D6F048EC56F0040114698E
:10538000120015C4D6F048EC56F00401156912005D
:105390000301996F9A6B030112006D2503017E6F63
:1053A000000E0D016E2103017F6F03011200A6D8CC
:1053B000E5EF2AF004011B0E846F040E856F89EC63
:1053C0002BF00401176F120000011B0ECF6F040EAB
:1053D000D06FA2EC54F00401146F12000001040E0F
:1053E000E06F040EE16F15C4DFF00BEF57F017C943
:1053F0001CF918C91DF915C91AF916C91BF90901B3
:105400001200EF6A09011A0E066F040E076FD3EF40
:1054100025F01CC900F01DC901F0020E005E000E4F
:10542000015A1200EE52EFCFB9F38BEF15F0EE52A6
:10543000EFCF78F35FEF05F039CDE9FF3ACDEAFF22
:10544000392B1200030E246E256A266A1200F3CF50
:1054500041FDF4CF42FD120000C011FF01C012FF58
:1054600030EF50F0470EE66E810EE66E000EE66EEF
:105470001200EE52EFCF6EF3BDEC04F00301120008
:105480000401002B000E0123022303231200006BF2
:10549000016B026B036B120003017E6F7F6B0301D4
:1054A0001200F3CF0CF4F4CF0DF412005BCDE9FF42
:1054B0005CCDEAFF120008C9E6FF09C9E6FF120049
:1054C0000CC9E6FF0DC9E6FF12006ACD7EF36BCD75
:1054D0007FF312000401CBEF28F0026A036AF35055
:1054E0000401005FF450015B0250025B0350035B58
:1054F0001200F3CF00F0F4CF01F01200EE52EFCF24
:10550000A0F33EEF09F0EE52EFCF80F31EEC06F071
:105510004FEF29F00401050E186F3DDE070EEF6E08
:105520001200E96EEA6AD890E936EA367F0EE9267B
:10553000040EEA22120086DF03C01FF0D0EF28F02D
:10554000BADF70DE09010827015009231200B8DF15
:1055500069DE09010C2701500D2312000301A66B1F
:105560000301A46BA56B0301A26BA36B12007AEC81
:1055700087F0E552E55212002EDECDEF28F06FCD18
:10558000E9FF70CDEAFFE906000EEA5A120094DE48
:1055900071CD24F790EC64F003011200E66E1A0E50
:1055A000E66E040E53EF29F0A5DEF3CF33FDF4CF02
:1055B00034FD12000EC9E6FF0FC9E6FF10C9E6FF71
:1055C000120009DE44DFCDEF28F0F3CF6FFDF4CFFA
:1055D00070FD12006E0E726F390E736F010E66EF62
:1055E0002BF04CDE020ED4DE6E0E966F390E976FE6
:1055F000010E986F6AEF2AF06DDFEBEF28F0BE6FB7
:105600000301BC6BBD6B010E0301BA6FBB6B62DFA4
:1056100012EF2AF00301250E626F73D871CD23F7C4
:1056200082EC64F00301626F55DFC7EF2AF0A16FCF
:1056300051DF0CEF29F07FDFF5CF72F30900F5CFD2
:1056400073F30800F5CF74F345DF07EF29F0A3DD0E
:105650002DEF29F03FDF2DEF29F09DDDEE52EFCF4A
:1056600050F397EC02F06AEF2AF003011A0E6F6F05
:10567000040E706F2FDF39EF2AF027DF03017C6BF8
:105680007D6B28DFBCEF2AF0656F24DFEE52EFCF91
:1056900063F3BAEF03F01AC97CF31BC97DF31ADF79
:1056A000BCEF2AF0A16F16DF7EEF2AF022DF026A3C
:1056B000036A12000FDFABEF29F00301796B7A6BFD
:1056C00009DF17EF2AF002D803011200746F02DF1E
:1056D00007EF29F07C6B7D6BFCEF2AF06DCD7EF33C
:1056E0006ECD7FF303011A0E7C6F040E7D6FFCEF0D
:1056F0002AF076DD200E17EF2BF072DD0A0E17EF81
:105700002BF0E8DE5CEF29F0030164DFE3DE090E35
:02571000120085
:0E571200070EE66EE66A660EE66E800EE66E26
:10572000000E09EC35F001E1000C040EE66EE66AAD
:10573000610EE66E800EE66E000E09EC35F001E1BA
:10574000000C800C5B0EE66E800EE66E000EE66EC0
:1057500086C4E6FF87C4E6FF10EC35F013E1510E76
:10576000E66E800EE66E000EE66E88C4E6FF89C423
:10577000E6FF4BEC87F0016E050EE15E015000097B
:1057800001E1800C000C140E0001FA6FFB6B0001AC
:10579000020EF86F0D0EF96F14C4F7F054EC59F0C7
:1057A000090EE66EE66A470EE66E800EE66E000EA5
:1057B000CAEC34F04EE10901420E0E6F800E0F6FFD
:1057C000000EE5EC34F00AE051EC34F002E0000E9B
:1057D00001D0010EE8B08C88E8A08C9809013D0E3C
:1057E0000E6F800E0F6F000EE5EC34F00AE051EC06
:1057F00034F002E0000E01D0010EE8B08C86E8A083
:105800008C960901380E0E6F800E0F6F000EE5ECBE
:1058100034F00AE051EC34F002E0000E01D0010E49
:10582000E8B08C84E8A08C940901330E0E6F800ED2
:105830000F6F000EE5EC34F04EE051EC34F002E076
:10584000000E01D0010EE8B08C82E8B044D08C92FA
:10585000000C0B0EE66EE66A270EE66E800EE66E14
:10586000000ECAEC34F004E10401010E166F000CC6
:10587000080EE66EE66A1E0EE66E800EE66E000EFE
:10588000CAEC34F028E109011A0E0E6F800E0F6F7A
:10589000000EFBEC33F0F3CFE9FFF4CFEAFFEF505B
:1058A000370A18E0010A14E0030A10E0010A0CE0CC
:1058B000070A08E0010A04E0030A0DE18C72000CFB
:1058C0008C74000C8C76000C8C78000C8C7A000C9C
:1058D0008C7C000C8C7E000C140E0001FA6FFB6BAC
:1058E0000001AB0EF86F0D0EF96F14C4F7F054EC15
:1058F00059F00A0EE66EE66A0F0EE66E800EE66E50
:10590000000E18EC35F002E156EF2EF0120EE66EA6
:10591000E66AFC0EE66E7F0EE66E000E18EC35F0C1
:1059200002E1A2EF2CF0EC0EE66E7F0EE66E000EAA
:10593000E66EAB0EE66E0D0EF4EC33F002E11FEFF7
:105940002FF0000CEAEC34F0F3CF04F0F4CF05F0C4
:10595000F3CFE6FFF4CFE6FFE7EC33F0EFCF80F3D1
:105960001EEC06F0E552E7CF05F0E552E7CF04F074
:105970000450F324006E0550F420016E026A036A9D
:1059800004010051005C01510158025102580351B9
:10599000035801E27DD1EAEC34F0D1EC34F0026A34
:1059A000036A04010051F35C0151F458025102589A
:1059B0000351035801E2010C330E0801EA6FEB6B4F
:1059C0000801000EE86F0D0EE96F0801060EE46F86
:1059D000E56BE66BE76BACEC91F00D012C9D92EC66
:1059E00034F001E127D1060E0901136F146B090190
:1059F0001A0E116F040E126F90EC26F0000901E0F0
:105A000047D15C0E0901176F186B0901200E156F45
:105A1000040E166FB0EC26F0000901E039D1E90E52
:105A2000E66E7F0EE66E000EB0EC34F011E1070179
:105A3000000E066F0D0E10EC34F001E129D100CDFF
:105A400014FD01CD15FD02CD16FD03CD17FDC7D701
:105A5000E60EE66E7F0EE66E000EB0EC34F008E166
:105A60000701080E066F0D0E10EC34F0B8E110D1EE
:105A7000E20EE66E7F0EE66E000EB0EC34F011E141
:105A80000701040E066F0D0E10EC34F001E100D199
:105A900004CD18FD05CD19FD06CD1AFD07CD1BFD62
:105AA0009ED7DD0EE66E7F0EE66E000EB0EC34F093
