:020000040000FA
:06000000B1EF9BF01200BD
:020006001200E6
:0600080086EF67F0120014
:02000E000004EC
:04001000A300000049
:020014001200D8
:020016000000E8
:0600180060EF67F012002A
:02001E001800C8
:100020004D38010026090000010000004C38010095
:1000300025090000010000004A3801001D090000E8
:1000400002000000493801002409000001000000FE
:100050004638010014090000030000004238010086
:100060000A09000004000000403801001B090000DC
:100070000200000038380100E2080000080000001B
:100080003738010023090000010000003638010064
:10009000220900000100000030380100F6080000CD
:1000A000060000002E3801001909000002000000BF
:1000B0002C38010017090000020000002838010058
:1000C000FC0800000400000026380100FE070000C4
:1000D0000200000025380100210900000100000095
:1000E000243801002009000001000000D63701007B
:1000F0006A0500004E000000D0370100F008000043
:100100000600000016000000FE00000002000000D3
:10011000CA370100EA08000006000000557B000015
:100120001F09000001000000C7370100110900008D
:1001300003000000C3370100FC05000004000000BC
:10014000020145510901195D01E11200FE0E195D20
:100150000CE01C0EE66EE66A290EE66E020EE66EF6
:100160001951E4EC18F063EC19F045C219F9FE0ED0
:100170000201455D01E112001C0EE66EE66A455182
:10018000E4EC18F0290EE66E020EE66E63EF19F04D
:10019000090119511A5D01E11200FE0E1A5D21E0FC
:1001A000270E0201C56FC66B0201010EC46F02016A
:1001B000020EC26F020EC36F09014DEC19F01B0E47
:1001C000D0EC1AF0EFCFC1F24DEC19F0EECFBFF248
:1001D000EFCFC0F20201270EBF5F000EC05B4BECF9
:1001E00016F019C91AF9270E47EC19F029C2C2F204
:1001F0002AC2C3F20201C25F000EC35B88EC1AF090
:10020000020EBF6F020EC06F4BEF16F00C01580EBE
:100210001D6F160E1E6F0201005101110FE1E6EC79
:1002200056F01EC000F21FC001F2FF0E02010017BF
:10023000070E0117000E0027040E01233C0EE66E88
:10024000E66AE66A8D0EE66E060EE66E7AEC8AF0D7
:10025000006E050EE15E00500C01156B146B14511D
:100260000DEC17F001E38ED014CC45F269DF64EC9D
:1002700017F09DEC17F0F62A000EF722F82208007E
:10028000F5CF1CFC64EC17F09DEC17F0020EF6267F
:10029000000EF722F8220900F5CF16FC0A00F5CF70
:1002A00017FC64EC17F052EC1BF0040EF626000E5F
:1002B000F722F8220900F5CF18FC0A00F5CF19FC47
:1002C0000C011C5128E11DCC1AFC1ECC1BFC270E76
:1002D000036A1625026E175103228BEC1AF00250A6
:1002E0001825006E03501921F8EC1AF000501D2754
:1002F00001501E231DCC00F01ECC01F0026A036ADF
:10030000D880580E0054360E0154000E0254000ED0
:10031000035402E2EFD7FFD71CCC44F2270E0C01A6
:100320001A250201296F000E0C011B2102012A6F00
:1003300029510C01162502012B6F2A510C0117219E
:1003400002012C6F010E2B27000E2C232B510C01C8
:10035000182502012D6F2C510C01192102012E6F5D
:100360000D0E3F6F409714DF64EC17F01CC003F0D4
:1003700052EC1BF00800F5CF28F2DBEC0FF00C017B
:10038000142B6DD712000C01406B40510DEC17F08F
:1003900001E390D040CC45F2D3DE0D0E02013F5D6B
:1003A00001E085D0F5DE02014D51285D01E07FD0EE
:1003B000180E256F020E266F4A510CE14BC212F245
:1003C0004CC213F24087040E3F6F4BC242F24CC244
:1003D00043F26AD0000E005D040E015906E3880E58
:1003E000D8800055130E015503E2006B040E016F17
:1003F00000C212F201C213F2002B000E01234BC205
:1004000010F24CC211F2D4EC1AF0020140894A51A8
:10041000040A25E0070A11E0020A02E0030A44E1A7
:1004200098EC19F0020E4A5D02E0000E01D0010EB8
:100430002495E8B024853F6B37D048514625026E9D
:1004400049514721EFEC18F098EC19F0276B260E74
:10045000026F036B046B056B020E3F6F25D046C223
:10046000E9FF47C2EAFFA1EC19F046C2E9FF47C223
:10047000EAFF0450EE24026E0550EE20EFEC18F077
:100480000A0EE66EE66A46C2E6FF47C2E6FF0EECDB
:100490001AF0DAEC18F00201050E3F6F0BEC1BF0BE
:1004A000020EAD6F13EC0CF00C01405112000C0168
:1004B000402B6BD7FE0C02014E510DEC17F001E3FF
:1004C000010C4EC245F23CDE020141A902D0419925
:1004D000010C000C02014F510DEC17F001E3000C70
:1004E0004FC245F22DDE070E02013F5D01E0000C18
:1004F000010C020150510DEC17F001E3120050C243
:1005000045F23BEC1AF002013F51080A38E0010ABB
:1005100036E0050A34E0020A2FE0050A1FE00D0A62
:100520000FE0010A0DE0070A31E0020A2FE0010A9C
:100530002DE0060A2BE0040A22E1D2EC6AF026D074
:10054000D6EC18F002011451151106E00E512F19C6
:10055000F7E10F513019F4E1080E0FD0D6EC18F086
:1005600002011451151106E00E512F19F7E10F5138
:100570003019F4E10C0E01D00D0E3F6F1200020194
:10058000AE6B0201140EAD6F13EC0CF0DBEF0FF04D
:10059000020151510DEC17F001E3120051C245F276
:1005A000CFDD0201409751C250F279EF02F0020113
:1005B00052510DEC17F003E3F36AF46A120052C2D1
:1005C00045F290EC1AF00A0EE66EE66A0EEC1AF0AE
:1005D000530EE66E020EE66EDAEC18F010C25DF213
:1005E00011C25EF2530E006E020EDDEF17F0020133
:1005F0005F510DEC17F001E312005FC245F290EC81
:100600001AF002010E512F1902E10F51301902E0C8
:1006100096EC17F01200020160510DEC17F00CE29D
:1006200060C245F28DDD3FC204FC070E0C01045D83
:1006300006E00B0E045D03E0F36AF46A12000201A7
:1006400031512F5D3251305916E329512B5D026E25
:100650002C512A55036E0206000E035A31512F5DAC
:10066000046E30513255056E0450025C006E055028
:100670000358DDEF17F02F51315D006E32513055C8
:10068000016E0006000E015A00C0F3FF01C0F4FF26
:100690001200020161510DEC17F001E3000C61C280
:1006A00045F24EDD61C260F2B6DFF3CF2DFCF4CF30
:1006B0002EFC0C01F350F41001E1000C010E2D1979
:1006C00004E12E5102E194EC1AF002014151010BB8
:1006D0000CE144EC1BF00C012D51005C2E51015833
:1006E00004E394EC1AF002014181010E0201C56F8E
:1006F000C66B0201C46F0201620EC26F020EC36FAD
:1007000022EC1BF002012F2B000E30232B512F5D0A
:100710002C51305902E37BEC19F00C01010E2D191C
:1007200005E12E5103E194EC1AF0010C020140BBEB
:1007300002D09AEC17F0010C0C01576B586B0201B8
:1007400063510DEC17F010E263C245F2F9DC63C2AD
:1007500060F261DFF3CF55FCF4CF56FC0C01F3508F
:10076000F41005E198EC1AF0F36AF46A120055CC23
:1007700053FC56CC54FC1DEC1AF004E266C253FC48
:1007800067C254FC4151010B0CE144EC1BF00C011D
:100790005551005C5651015804E398EC1AF00201DF
:1007A000418102012F510C015325006E020130518D
:1007B0000C01542142EC1AF01EE32F512B5D0C0169
:1007C000576F020130512C590C01586F57CCC5F2AC
:1007D000E8CFC6F257EC18F00C015751020164271C
:1007E0000C015851020165230C015751535F5851B8
:1007F000545B7BEC19F053CCC5F254CCC6F257ECE9
:1008000018F00C01535102012F270C015451020121
:1008100030230C011DEC1AF003E398EC1AF004D01D
:1008200040BB02D09AEC17F00C0153515725006ED3
:1008300054515821DDEF17F00C014D6B4E6B020146
:1008400068510DEC17F010E268C245F279DC68C21D
:1008500060F2E1DEF3CF4BFCF4CF4CFC0C01F35023
:10086000F41005E19CEC1AF0F36AF46A120002013C
:100870004151010B0CE144EC1BF00C014B51005CAD
:100880004C51015804E39CEC1AF0020141814BCC1D
:1008900049FC4CCC4AFCA8EC19F004E26CC249FCBF
:1008A0006DC24AFC2F510C014925006E02013051E6
:1008B0000C014A2142EC1AF022E32F512B5D0C016E
:1008C0004D6F020130512C590C014E6F4DCCCDF2C1
:1008D000E8CFCEF29DEC18F04DCC00F04ECC01F0FC
:1008E000026A00500201692701506A2302506B23FB
:1008F0000C014D51495F4E514A5B7BEC19F049CCDC
:10090000CDF24ACCCEF29DEC18F00C014951020117
:100910002F270C014A5102013023A8EC19F003E300
:100920009CEC1AF004D040BB02D09AEC17F00C01FA
:1009300049514D25006E4A514E21DDEF17F06FC22F
:10094000E6FF70C2E6FFE3EC8AF0E552E552F3CF32
:1009500066F2F4CF67F26FC264F270C265F26EC2E3
:1009600063F2EADE02016F51F324006E7051F4204D
:10097000DDEF17F072C2E6FF73C2E6FF74C2E6FF56
:10098000F1EC8AF0E552E552E5521FC06CF220C04E
:100990006DF272C269F273C26AF274C26BF271C212
:1009A00068F24ADF056A02017251F324006E735146
:1009B000F420016E74510520026E00C01FF001C0CA
:1009C00020F0216E1200020175510DEC17F003E3C7
:1009D000F36AF46A120075C245F2A0EC00F002015D
:1009E00029512B5D0C01026F02012A512C590C0177
:1009F000036F010E025F000E035B75C260F20BDE37
:100A00000C01F350025D006E0351F454DDEF17F05A
:100A100076C277F20CD879EC1BF0F350F41006E0B4
:100A200076C245F23BEC1AF096EC17F01200020188
:100A300077510DEC17F003E3F36AF46A120077C202
:100A400045F2A0EC00F0FCEC19F006E33551335D03
:100A5000006E3451365513D035512D5D026E2E5136
:100A60003655036E8BEC1AF02B51335D046E345106
:100A70002C55056E02500424006E03500520DDEF56
:100A800017F078C277F2D3DFF3CF00FCF4CF01FC8C
:100A90000C01F350F41001E1000C78C245F2A0EC17
:100AA00000F0020179517A110FE0010E47EC19F0C4
:100AB00035C2C2F236C2C3F20201C16F79C2BFF2BF
:100AC0007AC2C0F24BEC16F00201352B000E362331
:100AD00035512D5D36512E5902E2A0EC1AF00C0171
:100AE000010E001905E1015103E102014185010CEC
:100AF000020140BB02D0F7EC17F0010C0C015F6B58
:100B0000606B7BC277F293DFF3CF5DFCF4CF5EFCCA
:100B10000C01F350F41003E1F36AF46A12007BC293
:100B200045F2A0EC00F002017E510C015D5D020176
:100B30007F510C015E5904E25DCC7EF25ECC7FF207
:100B4000020135517E25006E36517F2102EC1AF0EC
:100B500029E235512D5D0C015F6F020136512E598E
:100B60000C01606F010E5F27000E602302017C51B3
:100B70007D110EE05FCCC5F260CCC6F260EC18F0DF
:100B80000C015F5102017C270C01605102017D23A1
:100B90000C015F5102017E5F0C01605102017F5B1D
:100BA000A0EC1AF07C517D1106E07EC2C5F27FC236
:100BB000C6F260EC18F002017E5135277F513623D2
:100BC0000C015F5102017E270C01605102017F235D
:100BD0007E510C015D5D006E5E5102017F55016E1C
:100BE00000507E5D01507F5902E3418504D040BB37
:100BF00002D0F7EC17F07EC2F3FF7FC2F4FF1200C1
:100C0000020180510DEC17F003E3F36AF46A12005D
:100C100080C245F2A0EC00F002012B512D5D0C01C9
:100C2000026F02012C512E590C01036F80C277F222
:100C3000FEDE0C01F350025D006E0351F454DDEF53
:100C400017F0020181510DEC17F003E28451851178
:100C500003E1F36AF46A120081C245F2A0EC00F0ED
:100C600081C277F2E4DEF3CF02FCF4CF03FC020191
:100C700086518425006E87518521016E0C0100503C
:100C8000F35C0150F4580BE2020186510C01025D45
:100C90000201846F87510C0103590201856F020123
:100CA000355186250C01006F0201365187210C0158
:100CB000016F005102012D5D0C01015102012E59FD
:100CC00006E28EEC17F00C01005F0150015B0C0195
:100CD000005102012D5D0C01046F015102012E59DA
:100CE0000C01056F010E0427000E0523020184513B
:100CF0000C01045D020185510C01055907E384C212
:100D0000C5F285C2C6F2F6EC18F022D004CCC5F2CA
:100D100005CCC6F2F6EC18F04BEC16F00C010451C1
:100D20000201845D0201C56F0C0105510201855964
:100D3000B1EC19F096EC1BF0020182510C01042574
:100D40000201BF6F020183510C0105210201C06F36
:100D50004BEC16F084C2F3FF85C2F4FF120089C287
:100D600086F28AC287F2010E0201846F856B02014E
:100D7000060E826F0C0E836F88C281F262DF0C0157
:100D80000651120002018B510DEC17F003E28E5157
:100D90008F1103E1F36AF46A12008BC245F2A0ECF2
:100DA00000F08BC277F243DE02019051F35C0C013C
:100DB000026F02019151F4580C01036FBAEC19F063
:100DC00001E205D10201925193110DE00C01025193
:100DD0000201925D0C0103510201935904E292C297
:100DE00002FC93C203FC355190250C01066F0201F1
:100DF000365191210C01076F065102012D5D0C0146
:100E0000075102012E5906E28EEC17F00C01065F25
:100E10000150075B06CC00FC07CC01FC0C0106511D
:100E200002012D5D0C01046F075102012E590C01C6
:100E3000056F010E0427000E052390C206FC91C227
:100E400007FC8EC208FC8FC209FC8CC20AFC8DC252
:100E50000BFC02018CC2E9FF8DC2EAFF8C2B8D23B3
:100E6000EFCF0DFC0C010F6B0201945109E0610EF4
:100E70000C010D5D05E30D517A0802E3E00E0D272C
:100E80000C01200E0E6FE850045D000E055902E2C1
:100E900004CC0EFC0E51025D000E035902E202CC9E
:100EA0000EFC0E5147EC19F000CCC2F201CCC3F29B
:100EB00088EC1AF0100EBF6F0C0EC06F4BEC16F0E2
:100EC0000C010E5194EC19F00027015001230E5132
:100ED00094EC19F0045F0150055B0451051106E123
:100EE0002BC200FC2CC201FC04690569020194516B
:100EF0003EE00C010C6B0E510C5D5FE22DEC18F026
:100F0000EFCF00F0610E005C0BE32DEC18F0EF501A
:100F10007A0806E3E00E006E2DEC18F00050EF2684
:100F20002DEC18F0EF500D5D0EE149EC1AF02CE0BD
:100F300002EC19F0610E0D5D18E30D517A0815E30E
:100F4000E00E0D2712D008CC8EF209CC8FF20F5193
:100F50000CE0ABEC18F0610E0C010D5D05E30D51DA
:100F60007A0802E3E00E0D270F6B0C2BC4D70C019F
:100F70000C6B0E510C5D21E22DEC18F0EF500D5D65
:100F800010E149EC1AF00AE10C010851065D026E0D
:100F900007510955036E0C516DEF18F002EC19F072
:100FA0000AD008CC8EF209CC8FF20F5104E0ABECE2
:100FB00018F00C010F6B0C2BDCD70C010E5194ECCC
:100FC00019F0025F0150035BBAEC19F003E2F36819
:100FD000F46812000E5194EC19F006270150072313
:100FE0004FD7020195510DEC17F003E299519A1178
:100FF00003E1F36AF46A120095C245F2A0EC00F036
:1010000095C277F214DD02019B51F35C0D01026F72
:1010100002019C51F4580D01036FC3EC19F001E279
:1010200005D102019D519E110DE00D0102510201F9
:101030009D5D0D01035102019E5904E29DC202FD16
:101040009EC203FD35519B250D01066F02013651ED
:101050009C210D01076F065102012D5D0D01075105
:1010600002012E5906E28EEC17F00D01065F0150C9
:10107000075B06CD00FD07CD01FD0D010651020104
:101080002D5D0D01046F075102012E590D01056FF1
:10109000010E0427000E05239BC206FD9CC207FD1E
:1010A00099C208FD9AC209FD96C20AFD97C20BFDBE
:1010B00098C20CFD020196C2F6FF962B97C2F7FF6D
:1010C0002AEC1BF0106B02019F5109E0610E0D012B
:1010D0000E5D05E30E517A0802E3E00E0E270D01C6
:1010E000200E0F6FE850045D000E055902E204CD9A
:1010F0000FFD0F51025D000E035902E202CD0FFDFC
:101100000F5147EC19F000CDC2F201CDC3F288ECCB
:101110001AF0110EBF6F0D0EC06F4BEC16F00D01E3
:101120000F5194EC19F00027015001230F5194EC5A
:1011300019F0045F0150055B0451051106E12BC253
:1011400000FD2CC201FD0469056902019F513EE0CA
:101150000D010D6B0F510D5D5FE234EC18F0EFCF18
:1011600000F0610E005C0BE334EC18F0EF507A08ED
:1011700006E3E00E006E34EC18F00050EF2634EC7D
:1011800018F0EF500E5D0EE150EC1AF02CE040EC40
:1011900018F0610E0E5D18E30E517A0815E3E00EAB
:1011A0000E2712D008CD99F209CD9AF210510CE019
:1011B000E2EC17F0610E0D010E5D05E30E517A08A9
:1011C00002E3E00E0E27106B0D2BC4D70D010D6B43
:1011D0000F510D5D21E234EC18F0EF500E5D10E17F
:1011E00050EC1AF00AE10D010851065D026E07513C
:1011F0000955036E0D516DEF18F040EC18F00AD050
:1012000008CD99F209CD9AF2105104E0E2EC17F002
:101210000D01106B0D2BDCD70D010F5194EC19F063
:10122000025F0150035BC3EC19F003E2F368F4685A
:1012300012000F5194EC19F00627015007234FD7E5
:10124000A6C294F2A4C292F2A5C293F2A2C290F2F4
:10125000A3C291F2010E02018E6F8F6B0201A10EEB
:101260008C6F020E8D6FA0C28BF2C2EF06F00C01E4
:10127000416B41510DEC17F001E309D241CC45F22D
:10128000A0EC00F00C01446B426B436B0201415136
:10129000020B03E14151040B0EE06CEC4CF0000931
:1012A0000AE00C01100E446F02014151040B01E0F1
:1012B000010E0C01426F020140AB11D028EC99F0F5
:1012C00002011E503B5D006E1F503C59016EE83418
:1012D00002E2A5EC1AF003E30C01100E446F0201C8
:1012E00040AD09D058EC19F002E2A5EC1AF003E386
:1012F0000C01100E446F0B0E02013F5D0CE158EC27
:1013000019F002E2A5EC1AF006E30C01110E446F8D
:1013100002010C0E3F6F040E3F5D53E10C01456B63
:10132000466B030E455D000E46594BE2CAEC1AF0BF
:101330007EEC1BF046E0CAEC1AF0E1EC18F052EC3F
:1013400018F002014251001837E14351011834E10D
:10135000C8EC00F00A0EE66EE66ACAEC1AF0CCECB5
:1013600019F00EEC1AF02CEC8AF0060EE15ECAECD5
:101370001AF0AAEC1AF0EECF10F2EDCF11F2CAEC8F
:101380001AF00C0ED0EC1AF0EECF0AF2EECF0BF200
:10139000EECF0CF2EFCF0DF202010A2B0B230C2340
:1013A0000D230EEC18F00C01120E446F0201060E14
:1013B0003F6F14EC17F005D00C01452B000E4623AF
:1013C000B0D70C0144510AE0425102E0000E01D0B6
:1013D000010E0201AE6F44CCADF225DA020140B934
:1013E0002FD0070E3F5D01E04FD11AEC18F001E05D
:1013F0004BD102014051070B060816E14051080B82
:1014000001E0010E0C01446F41CC50F279EC02F086
:1014100041CC50F279EC02F00C01445101E034D19E
:1014200002010E0E3F6F30D1C8EC00F00201020E37
:10143000AE6F0201100E1FEC1BF059EC17F024D117
:101440001AEC18F001E020D1C8EC00F002013F5185
:101450000C0A01E1CDD0060A01E1C4D0030A01E182
:10146000D0D0010A01E1BAD00F0A01E1AED00C0AD6
:1014700001E1ABD00D0A01E19DD0030A01E187D063
:10148000060A5AE0010A48E0030A21E0010A01E0E5
:10149000BDD0CDEC6AF0000901E1B8D00201010E27
:1014A0003F6F24A50BD008013D6F18C23AF819C24E
:1014B0003BF81AC23CF8FFEC6AF0A8D00801396F7B
:1014C00018C237F819C238F8DFEC6AF09FD008016B
:1014D000470E3E6F0C0E3F6F22EC6BF0000901E1EE
:1014E00095D0D2EC6AF0000913E047CC18F248CC52
:1014F00019F249CC1AF24ACC1BF20201020E3F6FDC
:101500000EEC18F0276B260E026F036B046B50D0A5
:1015100059EC17F03F6B7AD028EC99F01EC03BF2E3
:101520001FC03CF20801180E1F6F020E206F93ECD3
:1015300085F00201030E29D008011C0E236F020E54
:10154000246F0801180E216F020E226FC0EC85F087
:10155000000915E128EC99F002013B511E5C006E78
:101560003C511F58016E0050025D015003594EE27C
:10157000060E275D02E257EC1AF0020E06D00C01AF
:10158000020E446F426B0201050E3F6F3FD00C010B
:10159000020E446F010E426F040E0201275D36E316
:1015A000040E276F700E026F890E036F090E046F11
:1015B000056B2CD0020E275D03E20C01120E1DD02C
:1015C00040B71FD00C01020E07D0050E275D0DE3BA
:1015D000080E3F6F0C01110E446F18D0050E275DE9
:1015E00010E209D0050E275D0CE20C01100E05D0AB
:1015F000050E275D06E20C01110E446F010E426FCD
:1016000005D00C01140E446F010E436F0C014451C0
:1016100036E042512EE0020157EC1AF031510E5DD6
:101620000C01456F020132510F590C01466F020146
:1016300013EC1AF007E283EC17F000500C01452779
:101640000150462345CC00F046CC01F0026A036A03
:101650000050020123EC19F00C014551020114273E
:101660000C01465102011523ADEC1AF00201AE6BDC
:1016700003D00201010EAE6F44CCADF2D4D80C0100
:10168000435102E0DBEC0FF00C01412BF2D5456B2E
:10169000466B030E455D000E46592FE2CAEC1AF068
:1016A0007EEC1BF001E11200CAEC1AF0B2EC1AF069
:1016B0002BEC19F002C0E6FF03C0E6FF28EC99F01E
:1016C000E552E7CF03F0E552E7CF02F002501E5C8F
:1016D000006E03501F58016EC90ED8800054010ED1
:1016E000015406E214EC17F00C014507000E465BAE
:1016F0000C01452B000E4623CCD71200A7C2E9FFF0
:10170000A8C2EAFFEECF3CFCEECF3DFCEECF3EFCA4
:10171000EFCF3FFCA9C2E9FFAAC2EAFFEECF40FC2F
:10172000EECF41FCEECF42FCEFCF43FC0C01446B0B
:10173000060E456FABC246FCACC247FCABC26DF6B1
:10174000ACC26EF6C4EC59F0F3CF46FCF4CF47FCC4
:101750000C0E0601756F766B06013C0E736F0C0E56
:10176000746FDFEC59F0F3CF48FCF4CF49FC0C0167
:10177000481F491FABC274F7ACC275F715EC50F0A7
:10178000F3CF4AFCF4CF4BFC0C01F350481948E16D
:101790004B51491945E10801AE6BAF6BF4EC8DF08C
:1017A000140E0701686F696B0701280E666F0C0E37
:1017B000676FABEC4FF00201280EB36F0C0EB46FE5
:1017C000B9DB0C01345149EC1BF0040DF3505EEC15
:1017D0001AF000C04CFC0050006E016AE850020193
:1017E000AB5DAB6F0150AC59AC6F140EAB5F000E2C
:1017F000AC5BA7C2B1F2A8C2B2F20201280EAF6F71
:101800000C0EB06F5CDA00090BE0ABC2B7F2ACC2F1
:10181000B8F20201280EB56F0C0EB66F7AEC10F01C
:1018200089EC4CF0010CC8EC00F00201ADA102D033
:101830004187AD91409B409D409F4193419541918F
:101840006CEC4CF00009FCE0060E0201AD1504E062
:101850000C01266B276BB3D00E512F1907E10F51E6
:10186000301904E10C01266B276B91D02F510E5DCE
:1018700030510F591FE20E512F5D0C01266F0201EE
:101880000F51305980EC19F004E214C226FC15C245
:1018900027FCD5EC19F005E225C226FC26C227FC60
:1018A000418526CCC5F227CCC6F278EC18F0DEECE8
:1018B00019F06DD00E512B5D0C01246F02010F51F8
:1018C0002C590C01256F245102012F25006E0C01AB
:1018D000255102013021016E2951005C0C01266F57
:1018E00002012A51015880EC19F004E214C226FCCE
:1018F00015C227FCD5EC19F005E225C226FC26C24C
:1019000027FC41850C012451265D2551275904E20D
:1019100026CC24FC27CC25FC24CCC5F225CCC6F251
:1019200078EC18F00C012451265D246F25512759BD
:10193000256F2451251122E024CCC5F225CCC6F216
:1019400044C2C4F229C2C2F22AC2C3F20201C16B6C
:1019500002010E512B5D006E2C510F55016E026A73
:10196000036AB20E00260A0E0122000E0222032292
:1019700000C0BFF201C0C0F24BEC16F0DEEC19F073
:101980002B510E5D2C510F5902E358EC1BF0020154
:1019900041A715D014510C01261904E1020115517B
:1019A0000C0127190CE0020125510C01261904E154
:1019B000020126510C01271902E00201AD810C0140
:1019C0002651271104E1030E0201AD151CE00C01A4
:1019D00026510201145F0C0127510201155B0C0115
:1019E0002651271102E00201AD870201AEA107D006
:1019F000276B970E026F980E036F046B056B87ECD5
:101A000018F0408929D0AEA319D0400EE96E020E1D
:101A1000EA6EEF50070BE82AE850070BF36EF46EFE
:101A2000F80EEF14F310EF6E0607000E075B085B6D
:101A3000095B010E0C01266F276B0ED040A90CD05C
:101A4000AEB108D0275106E02707D89005330433FC
:101A50000333023387EC18F012C202FC13C203FCFA
:101A600010C204FC11C205FC06C206FC07C207FC3A
:101A700008C208FC09C209FC0AC20AFC0BC20BFC22
:101A80000CC20CFC0DC20DFC0C010E910E930E95B8
:101A90000E97ADC20FFC146B156B26510201062781
:101AA0000C01275102010723000E08230923ADA3CF
:101AB00015D0ADB905D00C010A6B0B6B0C6B0D6B1F
:101AC000020124A306D00C010607075B085B095B33
:101AD00005D0062B07230823092324830201ADB177
:101AE00024813551335D365134590AE30FEC19F036
:101AF0000C010250005C106F03500158116F0DD0A3
:101B00003351355D0C01106F0201345136590C010F
:101B1000116F010E105F000E115B90EC4CF0F3CFD3
:101B200000FCF4CF01FC0C01400EF35C000EF458F5
:101B300003E2006B016B04D0400E005F000E015BFE
:101B40001051005D1151015904E200CC10FC01CC90
:101B500011FC0201020EB36F0C0EB46FEBD9140E20
:101B60000C012627000E27230E890E9B0E8D0E9F3B
:101B70000201ADA323D0040E0C012627000E27235B
:101B8000020E166F040E176F020E186F180E196FE3
:101B9000010E006E0E0EE96E0C0EEA6EEF5049EC6F
:101BA0001BF000240F0BF36EF46EF346F346F3467E
:101BB000F3460F0EEF14F310EF6EF45000C31AFC4F
:101BC00001C31BFC02C31CFC03C31DFC18C21EFC8A
:101BD00019C21FFC1AC220FC1BC221FC0C01226B83
:101BE000060E236F26CC24FC27CC25FC26CC6DF6D4
:101BF00027CC6EF6C4EC59F0F3CF24FCF4CF25FCCF
:101C00000C0E0601756F766B06011A0E736F0C0EC3
:101C1000746FDFEC59F0F3CF12FCF4CF13FC0C011E
:101C2000121F131F07018A0E586F0A0E596FE5EC39
:101C30004DF026CCACF827CCADF80801060EAB6F02
:101C40000801180EA96F020EAA6F84EC8DF0140E15
:101C5000B5EC1AF0020E6B6F0C0E6C6FEDEC4FF0E2
:101C60000201ADA309D0040EB5EC1AF0160E6B6F8D
:101C70000C0E6C6FEDEC4FF007019E0E5A6F0A0EC2
:101C80005B6FF3EC4DF026CC74F727CC75F715ECB1
:101C900050F0F3CF00FCF4CF01FC0701AE0E586FFB
:101CA0000A0E596FE5EC4DF0020EB5EC1AF0000E7D
:101CB0006B6F0C0E6C6FEDEC4FF0C7EF4DF08AECD4
:101CC00017F0EE50ED1001E1000C0C01FE0E016F5B
:101CD00018EC1AF0A1EC19F018EC1AF00450EE24EC
:101CE000026E0550EE20036EEEEC1AF00250EE2468
:101CF000006E0350EE20016E8AEC17F00050EE18D3
:101D0000026F0150EE18036F006B00510DEC17F0DD
:101D100048E200CC45F2A0EC00F00D0E02013F5D60
:101D20003DE0040E3F5D0BE14FEC1BF0005042190B
:101D300035E10150431932E100CC01FC2FD00C01F8
:101D40000251020142192AE10C0103510201431917
:101D500025E1C8EC00F04FEC1BF002011251001815
:101D60001DE1135101181AE1EEEC1AF02BEC19F0F9
:101D70001051021813E11151031810E118EC1AF078
:101D8000EE5018190BE1EE50191908E1EE501A192E
:101D900005E1EE501B1902E101E1010C0C01002BE1
:101DA000B4D7FE0E015D21E001CC45F290EC1AF0B3
:101DB000FE0E0C01015D19E002CC42F203CC43F2AD
:101DC00025EC1AF00EEC1AF0DAEC18F0EEEC1AF042
:101DD000EECF10F2EDCF11F28AEC17F0EECF12F247
:101DE000EDCF13F2BAEC1AF0010CEEEC1AF00D0E76
:101DF000D0EC1AF0EF50020B01E1000C0601C551C6
:101E0000C61101E0000C0C01046B056B030E045DB0
:101E1000000E05593BE2C4EC1AF07EEC1BF036E0F4
:101E2000C4EC1AF0E1EC18F052EC18F08AEC17F060
:101E30002BEC19F00250001824E10350011821E1A5
:101E4000C4EC1AF0AAEC1AF052EC18F0EEEC1AF00E
:101E50002BEC19F00250001814E10350011811E1A5
:101E600018EC1AF09AEC1BF0EE500001001808E193
:101E7000EE50011805E1EE50021802E1EE50031891
:101E800048E00C01042B000E0523C0D7006B005165
:101E90000DEC17F04EE200CC45F2A0EC00F0020190
:101EA00040A744D0C8EC00F04FEC1BF000500201FA
:101EB00012193CE10150131939E125EC1AF0C4EC78
:101EC0001AF0CCEC19F063EC19F0EEEC1AF052ECCD
:101ED00018F0C4EC1AF0AAEC1AF000C0EEFF01C032
:101EE000EDFFEEEC1AF0040ED0EC1AF09AEC1BF0B9
:101EF0000C0ED0EC1AF000C0EEFF5EEC1BF04FECC5
:101F00001BF0C4EC1AF0E1EC18F000C0EEFF01C0C9
:101F1000EDFF28EC99F01FC001F0C4EC1AF0B2EC10
:101F20001AF01EC0EEFF01C0EDFF000C0C01002BEB
:101F3000AED7000CF3EC1AF07AEC17F0F3CFEEFF0B
:101F400001C0EDFFF3EC1AF0020ED0EC1AF07AECBF
:101F500017F0020EF3CFEBFF030E6AEC19F0040E3C
:101F6000C8EC17F0040E97EC18F0080EC8EC17F048
:101F7000080E97EC18F00E0ED0EC1AF07AEC17F071
:101F80000E0EF3CFEBFF0F0E6AEC19F0E1EC18F038
:101F90007AEC17F0100EF3CFEBFF110E6AEC19F08C
:101FA000B2EC1AF07AEC17F0120EF3CFEBFF130E2F
:101FB00001C0EBFF1200C8EC00F012C242F213C2E3
:101FC00043F27BEC19F029C231F22AC232F22BC261
:101FD00033F22CC234F2A0EC1AF002014051080B8B
:101FE00002E0040E01D00D0E3F6F409140934095EA
:101FF0004099409B409D409F41914193419541971D
:1020000041892491249324972499BAEC1AF0AAECDC
:1020100056F0F3CF06F2F4CF07F2AAEC56F0F3CF66
:1020200008F2F4CF09F2020122692369010E146F4C
:10203000156B12000C0E0801AE6FAF6BF4EC8DF057
:102040009CEC4FF00C01006FF00E0015E840E840EA
:102050003F0B5EEC1AF000C000FC005046E0070E9B
:10206000E7EC19F00C010051000700093EE0BFEC5D
:102070001AF0E8503AE00105F5E0020E015D26E1B4
:10208000030E005D32E3026B036BBFEC1AF0040E2B
:10209000015D08E19CEC4FF00C01036F9CEC4FF0EC
:1020A0000C01026F180E025D020E03591EE3B40EFE
:1020B000D8800255050E035504E2B40EF36E050EEA
:1020C00017D002CCF3FF03CCF4FF1200020E005D28
:1020D0000CE3BFEC1AF0E850005D07E30151E7ECB8
:1020E00019F00C010151005FBDD7180EF36E020EFE
:1020F000F46E120010EC1BF00D0ED0EC1AF0EFCFC6
:102100005BFC10EC1BF0080ED0EC1AF0EECF5CFC80
:10211000EECF5DFCEECF5EFCEFCF5FFC10EC1BF072
:10212000040ED0EC1AF0EECF60FCEECF61FCEECFE7
:1021300062FCEFCF63FC020140914093409540B9AF
:1021400002D059EC17F03F51050A1FE0010A08E0E0
:10215000B7C264FCB8C265FC0C015BA14AD046D092
:102160000C015BB510D05BA906D030EC19F0040E61
:102170001FEC1BF008D05BA306D0BAEC18F065EC9E
:102180001AF01CEF19F0DBEF0FF00C015BB5120039
:102190005BA910D008EC1AF00201061908E1EE5014
:1021A000071905E1EE50081902E1EE50091902E0A5
:1021B000ABEF17F00C015BA36CEF15F0BAEC18F065
:1021C000EFEC19F0EECF14F2EDCF15F265EC1AF04A
:1021D0000C015BA909D096EC17F00201070E3F6FC6
:1021E00059EC17F0409912001CEF19F0642B000E07
:1021F00065235BA303D0642B000E6523FCEC19F070
:102200000AE30FEC19F00C010250005C596F035007
:1022100001585A6F0DD03351355D0C01596F0201D1
:10222000345136590C015A6F010E595F000E5A5B3A
:102230000A0EE96E020EEA6EEE50605D536FEE50CC
:102240006159546FEE506259556FEE506359566F95
:1022500053CC57FC54CC58FC666B645165115FE05D
:1022600059515A1169E0800E561503E1C4EC18F07B
:102270003BE364CC00F065CC01F0026A036A530EC4
:10228000E96E0C0EEA6EEE500026EE500122EE5082
:102290000222EE5003220334000E031809E6D88010
:1022A000000E0054000E0154000E0254000E0354A0
:1022B0001DE26451595D046E5A516555056E066AFA
:1022C000076A05AE02D00668076807505619E8AEDF
:1022D00002D0563508D05351045C5451055855511D
:1022E00006585651075802E3010E666F65EC1BF065
:1022F00056510318E8AE02D0033402D033EC1BF081
:102300001BE257516425046E58516521056EE8346F
:1023100013E204500008000E05540EE20BD0535196
:1023200054115511561106E0800E561505E1C4EC06
:1023300018F002E2010E666F665104E15BB5CCD382
:1023400096EF17F0060E5B1502E0DBEF0FF05BA9CE
:10235000120002013F510C0A01E1B0D10B0A1CE04E
:102360000F0A1AE0010A18E0020A16E0010A14E056
:102370000C0A01E0BFD108EC1AF0061908E1EE5092
:10238000071905E1EE50081902E1EE50091902E0C3
:10239000ABEF17F0070E3F6F0E512F5D0C01516F21
:1023A00002010F5130590C01526F800E521508E096
:1023B000020183EC17F000500C0151270150522309
:1023C00051CC00F052CC01F0026A036A82EC1BF09F
:1023D000EE5000244D6FEE5001204E6FEE50022063
:1023E0004F6FEE500320506F4D0EE96E0C0EEA6EEB
:1023F000EE50C7EC18F002E68AEC19F015E2020183
:102400002451010B0AE0010E0C014D1905E14E515A
:1024100003E14F5101E1505102E02DEF1AF05C074A
:10242000000E5D5B5E5B5F5B0201F3EC19F001AED9
:1024300002D00268036882EC1BF00050EE5C0C01D5
:102440004D6F0150EE584E6F0250EE584F6F0350D3
:10245000EE58506F020113EC1AF00BE287EC1BF000
:1024600000500C014D5F01504E5B02504F5B03501A
:10247000505B4D0EE96E0C0EEA6EEE500C01C7EC8F
:1024800018F002E68AEC19F06CE2020187EC1BF00E
:102490000C014D51005C4E5101584F5102585051A2
:1024A00003585FE3020124972499419131C251FC02
:1024B00032C252FC0C014D51020131270C014E5128
:1024C000020132230C01515102010E5D0C015251E7
:1024D00002010F5909E313EC1AF02FE20E51315D9E
:1024E000006E32510F551BD083EC17F00E510024B3
:1024F0000C01516F02010F5101200C01526F0201BA
:1025000031510C01515D020132510C01525915E259
:1025100051510201315D006E32510C015255016E74
:1025200000010050020106270001015002010723AB
:10253000000E08230923ADEC1AF002012B51315D86
:102540002C51325906E383EC17F00050315F0150F3
:10255000325B2B510E5D2C510F5928E358EC1BF0C8
:1025600025D002010E51311902E10F5132191EE03E
:1025700024A71BD024A918D0F3EC19F001AE02D087
:1025800002680368005023EC19F013EC1AF009E21A
:1025900087EC1BF001AE02D002680368005023EC08
:1025A00019F0ADEC1AF04185248924872F51311997
:1025B0001CE13051321919E141B704D059EC17F040
:1025C000409913D03BEC18F010E1EE505D190DE18D
:1025D000EE505E190AE1EE505F1907E106E10201D3
:1025E0002451010B02E04099419708EC1AF00201D6
:1025F000065D006EEE500759016EEE500859026EEE
:10260000EE500959036EEFEC19F00C010050EE5C2E
:10261000676F0150EE58686F02011451151106E101
:102620000C016751681102E00201418367CC14F28A
:1026300068CC15F2080E02013F5D20E13BEC18F07A
:1026400059E1EE505D1956E1EE505E1953E1EE503E
:102650005F1950E14FE102012451010B4BE0D4EC32
:102660001AF0F30E02013727FA0E3823020E39232F
:10267000000E3A234089090E3F6F3CD0090E3F5DA2
:102680000AE10C015BB136D030EC19F0140E1FECEE
:102690001BF0DBEF0FF00A0E3F5D2CE13BEC18F076
:1026A0000CE1EE505D1909E1EE505E1906E1EE50C5
:1026B0005F1903E101E010D27EDC120006C200F0D7
:1026C00007C201F008C202F009C203F0002AAAEC16
:1026D0001BF000500C015C190CE101505D1909E17F
:1026E00002505E1906E103505F1903E101E0F4D1E5
:1026F00062DC12000C015BBB12000B0E02013F5D9D
:1027000001E112000A0E3F5D01E112000C0E3F5D77
:1027100001E11200B751B81101E166D10C01583541
:1027200004E257510008000E585501E2A2D04AECCD
:1027300018F0006E016A5751F35C0801AE6F0C018E
:10274000585101580801AF6FF4EC8DF00C0157514E
:102750000201B7270C0158510201B823B7510C01EF
:10276000595D0201B8510C015A5904E259CCB7F233
:102770005ACCB8F20201B7510A27B8510B23000E08
:102780000C230D233351B725006E3451B82102ECD0
:102790001AF024E233512D5D0C01516F02013451C6
:1027A0002E590C01526F010E5127000E52236CEC72
:1027B0001BF033C2BFF234C2C0F2DFEC1AF06EEC91
:1027C00019F0006EB8510C015255016E02012B51E7
:1027D0000024336F2C510120346F0CD005EC1BF01A
:1027E00033C2BFF234C2C0F256DA0201B751332706
:1027F000B8513423221D01E1231D01E1F5D0B75169
:10280000225FB851235B165122250C01516F020142
:10281000175123210C01526F800E521502E0020164
:1028200025D00201233504E222510008000E235571
:1028300001E2DAD00C01515102010A270C01525178
:1028400002010B23000E0C230D230C015151020138
:1028500033270C0152510201342333512D5D345181
:102860002E5904E25BDB335F0150345B226923693C
:10287000BBD0583501E3B8D057510008000E585569
:1028800001E3B2D00201B7510C015725006E0201DD
:10289000B8510C015821016E0050595D01505A5930
:1028A00009E25751595D0201B76F0C0158515A594D
:1028B0000201B86FEFDB0801AE6FAF6BF4EC8DF087
:1028C0008CEC1BF0026E91EC1BF0036E02500201C7
:1028D000B725006E0350B82102EC1AF031E23351F3
:1028E0002D5D006E2E513455F8EC1AF00C01575145
:1028F000005C516F58510158526F800E521508E11B
:102900006CEC1BF035EC19F0C06FDFEC1AF01DD049
:1029100005EC1BF08CEC1BF0006E91EC1BF0016ED3
:1029200002012B512D5D026E2E512C55036E8BEC46
:102930001AF002010250005CBF6F0350015804D02E
:1029400005EC1BF035EC19F0C06FA5D90201221D72
:102950000BE1231D09E157CC22F258CC23F2B7C278
:1029600016F2B8C217F240D022510C01575D020195
:1029700023510C0158591EE23DDB06E30C013BECF0
:1029800019F02351055805E2B7C216F2B8C217F282
:102990000CD074EC19F00C015751005C0201166F59
:1029A0000C01585101580201176F57CC22F258CC34
:1029B00023F21AD01FDB18E274EC19F00C01575106
:1029C000005C5851015810E33BEC19F0026E2351A2
:1029D0000558036E1651025C006E17510358016EC4
:1029E00000501627015017230C016451651119E09E
:1029F000070E02013F5D04E033C235F234C236F205
:102A000040AF04D093DAC8EC00F00BD0408F40BD4B
:102A100008D0408D6CEC1AF00F0E02013D27000E1D
:102A20003E230C015BA158D00AC200F00BC201F09A
:102A30000CC202F00DC203F0002AAAEC1BF064CC19
:102A400004F065CC05F0066A076A600EE96E0C0EAC
:102A5000EA6EEE500426EE500522EE500622EE50AD
:102A600007220050041838E10150051835E10250E2
:102A7000061832E1035007182FE12EE172EC1BF02B
:102A80003F51090A24E0010A12E00F0A06E0010A98
:102A900022E10C0E3F6FD6EF18F00B0E3F6F6CEC7F
:102AA0001AF01E0E02013D27000E3E2314D0E3DA79
:102AB0000AE1EE505D1907E1EE505E1904E1EE50B7
:102AC0005F1901E104E002010A0E3F6F04D02DEC12
:102AD0001AF0DBEF0FF02ADA12000201B9519DD98A
:102AE00001E3000CB9C245F2A0EC00F00201BA51BA
:102AF000BB1103E1010EBA6FBB6B29512D5D0C01B7
:102B0000286F02012A512E590C01296F010E285FEE
:102B1000000E295B020173EC1AF00C010050285DD5
:102B20000150295901E2000CC8EC00F0030E02012B
:102B3000BE1502E1030EBE13BCC22CFCBDC22DFCAF
:102B400073EC1AF000500C01285F0150295B020160
:102B5000BEA313D0BEA10CD028CC00F029CC01F02C
:102B6000D8900132003200500C012C27015004D0C3
:102B70000C0128512C2729512D23020129510C0128
:102B80002C25286F02012A510C012D21296F010EDD
:102B90002827000E292333C22AFC34C22BFC020151
:102BA000221D01E1231D13E09FDB00500C012A27A9
:102BB00001502B232A5102012D5D0C012B510201E2
:102BC0002E5905E2ABD90C012A5F01502B5B0C0199
:102BD0002A510201355D0C012B51020136590CE2DC
:102BE0000C0128510201355D0C01295102013659B1
:102BF00018E2BEA50ED0000C33EC1AF00AE2285100
:102C000002012B5D0C01295102012C590AE2BEB5CB
:102C1000000C28CC35F229CC36F228CC33F229CC62
:102C200034F2020133EC1AF025E2040E0201BE1563
:102C300021E02B510C012A5D0201C56F02012C51CC
:102C40000C012B598EDB44C2C1F228CCBFF229CC37
:102C5000C0F221D8D1DB0EE20C01285102012B5D1C
:102C6000006E2C510C012955016E00500201335F9A
:102C70000150345B28CC2BF229CC2CF2BAEC1AF0A0
:102C800029C231F22AC232F236DB070E02013F5D61
:102C900001E14CD9010C0201C4512AE0010A01E012
:102CA0001200C15111E0010A01E01200C5C2E6FFA5
:102CB000C6C2E6FFC2C2E6FFC3C2E6FFBFC2E6FF6E
:102CC000C0C2E6FFDAEF18F0BF1D01E1C01D06E04B
:102CD000BFC258F7C0C259F7E5EC4DF0C5C26DF759
:102CE000C6C26EF7C2C26BF7C3C26CF7EDEF4FF00E
:102CF000C15117E0010A01E01200C21D01E1C31D2C
:102D000006E0C2C25AF7C3C25BF7F3EC4DF0C5C28E
:102D100068F7C6C269F7BFC266F7C0C267F7ABEF14
:102D20004FF0C5C264F7C6C265F7C2C262F7C3C23C
:102D300063F7BFC260F7C0C261F722EC4EF09BECB4
:102D40004FF00009FCE012000201C9510EE0010A37
:102D500001E01200CDC2E6FFCEC2E6FFCBDBC7C268
:102D6000E6FFC8C2E6FF81EF1AF0C71D01E1C81DEA
:102D700006E0C7C258F7C8C259F7E5EC4DF0100E8F
:102D80000C01106F116B0201CD51CE1137E00C0117
:102D900010510201CD5D0C0111510201CE5904E226
:102DA000CDC210FCCEC211FC10CCE6FF11CCE6FF68
:102DB000A1DB000EE66E0C0EE66EA3DB10CC6DF709
:102DC00011CC6EF70701000E6B6F0C0E6C6FEDEC03
:102DD0004FF010CC00F011CC01F0026A005002015B
:102DE000CA270150CB230250CC230C011051020101
:102DF000CD5F0C0111510201CE5BC5D71200140E3C
:102E0000EA02F3CFEAFFE902F3CFE9FFF450EA2642
:102E10008D0EE926060EEA221200006E016A030EEC
:102E2000005C000E0158120045CCC5F246CCC6F23B
:102E30000201020ED880C557000EC657140EC603F5
:102E4000F3CFC6F2C503F3CFC5F2F450C627020193
:102E5000010EC46F0C0145250201C26F000E0C016A
:102E600046210201C36F140EC303F3CFC3F2C203A2
:102E7000F3CFC2F2F450C3278D0EC227060EC32330
:102E800096EC1BF0140E206E216A45CC25F046CC42
:102E900026F012EC96F01EC0BFF21FC0C0F28D0EDD
:102EA0000201BF27060EC023F6DE0601C56BC66B06
:102EB00012007ADBE60E02013727F50E3823050EE5
:102EC0003923000E3A2312009A0E006E370E016E5F
:102ED000010E026E14CC03F0046A056A060E246E1D
:102EE000256A266A14CC1FF004C020F005C021F02A
:102EF00030EF96F0EECF6DF6EDCF6EF6C4EC59F0F4
:102F0000F8DBF3EF1AF029512B5D006E2C512A5596
:102F1000016E120063DB020ED0EF1AF02B512D5D13
:102F2000006E2E512C5564DB0050120074DB100E25
:102F30001FEF1BF07ADB060E61D300501C24F36EEA
:102F400001501D20F46E02501E20F86EF4CFF7FFE2
:102F5000F3CFF6FF120006C260FC07C261FC08C294
:102F600062FC09C263FCEDDB56DB040E68DB60CC5F
:102F700006F261CC07F262CC08F263CC09F21200CF
:102F80000201C46B0201C269C36944C2C1F21200EA
:102F900007DBEECF6FF6EECF70F6EECF71F6EFCF28
:102FA00072F6C9EC59F01EC000F01FC001F020C03D
:102FB00002F021C003F0F3EF1AF0016E00C0F3FF3E
:102FC000F46E12000ACD96F20BCD97F20CCD98F26A
:102FD00002010ACDF6FF962B0BCDF7FF000E9723CB
:102FE0000CCDF8FF98230800F5CF0EFD12001DDB75
:102FF0001E0E04D357510201B725006E0C01585123
:103000000201B821016E22511625026E23511721AB
:10301000036E0050025C0150035812001A5118252B
:10302000026E1B511921036E02501025006E0350D1
:10303000112122D31EEC99F0020137511E5C006E63
:1030400038511F58016E39512058026E3A5121589B
:10305000036E0001800E031412000C51EA6A100F77
:10306000E96E0C0EEA2212000D51EA6A110FE96EA8
:103070000D0EEA22120046DBEE500C015C19120024
:1030800096C2F6FF962B97C2F7FF000EE3DA010E09
:10309000106F1200C5DA0C0E83DAEF50FADA040D65
:1030A000F3501200EECF00F0EFCF01F0120002015A
:1030B000010EC46F64C2C2F265C2C3F222EF1BF0FC
:1030C00044C2C4F235C2C2F236C2C3F22FDB7CC2A4
:1030D000BFF27DC2C0F24BEF16F000010224006E79
:1030E000000E032085DA00C0F3FF01C0F4FF1200D8
:1030F00044C2C4F20EC2C2F20FC2C3F20201C16BDB
:103100000201B20EBF6F0A0EC06F4BEF16F01EEC3D
:1031100099F01E5002010225376F1F500321386FAE
:1031200020500421396F215005213A6F120038DAFE
:103130001EC0EEFFC3DAF3EF1AF069C2CAF26AC228
:10314000CBF26BC2CCF244C2C9F22FC2C7F230C27A
:10315000C8F2A4EF16F00ACC8CF20BCC8DF202016F
:103160000ACCE9FF0BCCEAFF8C2B000E8D23EFCFAE
:103170000DFC120060CC0AF261CC0BF262CC0CF2B6
:1031800063CC0DF272EF1BF0A0DA33EF1BF05C5D45
:103190004D6FEE505D594E6FEE505E594F6FEE50D1
:1031A0005F59506FE834000E5019120034DA110ED6
:1031B0001FEF1BF02CEC8AF0006E060EE15E005053
:1031C0001200100ED0EF1AF01C0D93DAA80E002694
:1031D000030E012200C0E6FF01C0E6FF1200036EED
:1031E00002504B25006E03504C2146D244C2C4F21B
:1031F00000CCC2F201CCC3F299DA82C2BFF283C220
:10320000C0F212008CC2E9FF8DC2EAFF8C2B000EC7
:103210008D23EFCF0DFC0C01010E0F6F12002B510F
:103220002D5D006E2E512C55016E3551335D026EB1
:1032300034513655036E1200EED9120E00DA020137
:10324000060E3F6F1200065F0150075B0250085BDD
:103250000350095B1200EECF02F0EFCF03F0120033
:1032600070DA0201AE6B0201120056DA0201BF6F82
:1032700058DA0201120057510201B725046E0C0101
:1032800058510201B821056E2251045C120002015E
:10329000C56FC66B44C2C4F212001A511C0DF3CFA5
:1032A000E9FFF4CFEAFFA80EE926030EEA22120096
:1032B00028EC99F002011E503D5D006E1F503E59F2
:1032C000016EE83412002CEC8AF0026E060EE15E0C
:1032D0000250120001C0EBFFF3EF1AF0DCDC0C012E
:1032E00051510201B75D120022511625006E235183
:1032F0001721016E120029C22FF22AC230F21200E9
:103300000C01276F26510201145D0C0127510201A7
:1033100015591200D880000E4D55000E4E55000E66
:103320004F55000E50551200006E016A00501200F9
:1033300046C218F247C219F248C21AF249C21BF239
:103340001200020E2DD9EECF04F0EFCF05F01200DF
:103350000C014B5102016C5D0C014C5102016D5985
:1033600012000201C66F44C2C4F22BC2C2F22CC2C8
:10337000C3F2120002018E510C01025D02018F5155
:103380000C0103591200020199510D01025D020165
:103390009A510D0103591200E9CF00F0EACF01F074
:1033A000E9CFE6FFEACFE6FF12000C012651020149
:1033B000255D0C0127510201265912000C012651EE
:1033C00002010E270C01275102010F2312000701F1
:1033D000686F696B0701666B676BABEF4FF020D9C5
:1033E0000E0ED0EF1AF031510E5D006E0F513255B6
:1033F000016E026A036A120002013551335D3651D3
:1034000034591200016E00502D5D01502E591200EA
:103410005C0EE96E0C0EEA6EEE501200180EE66EAF
:10342000020EE66E120031510E5D32510F5912003C
:10343000B1C2E9FFB2C2EAFF120055510201665D56
:103440000C0156510201675912000A0EE66EE66A37
:10345000B1C2E6FFB2C2E6FF12000201AE6B02018A
:10346000100E1FEF1BF035510C012A5D0201365181
:103470000C012B591200A0EC00F033C235F234C21B
:1034800036F21200016E02012B51005C2C510158E2
:10349000120002018E07000E8F5B8E518F111200F9
:1034A00002019907000E9A5B99519A111200272B7D
:1034B000D89002370337043705371200006E016ACF
:1034C000140E005E000E015A12001AEC10F0F3CF39
:1034D00025F2F4CF26F2120028EC99F01EC03DF23E
:1034E0001FC03EF21200BA51BC25006EBB51BD2177
:1034F000016E1200CAC2E6FFCBC2E6FFCCC2E6FFF5
:10350000120057EC8AF0006E070EE15E00501200C8
:103510000DD902011200010E0226000E0322120034
:10352000A0EC00F0C8EF00F061C25FF2F7EF02F02C
:1035300063C25FF2F7EF02F068C25FF2F7EF02F0EA
:103540002BC235F22CC236F2120000500008000ED9
:10355000015412000A0ED0EF1AF031C20EF232C23C
:103560000FF21200120ED0EF1AF007016D6F6E6BA2
:103570000701120029C20EF22AC20FF212009CECBF
:103580004FF00C01016F120004CCE9FF05CCEAFFFB
:10359000FFEF16F045CCE9FF46CCEAFFFFEF16F04F
:1035A000E926000EEA2212001EEC99F01EC037F246
:1035B0001FC038F220C039F221C03AF212008EDE6C
:1035C0000201C56F0C0152510201B8590201C66FC8
:1035D000D7DC2BC2BFF22CC2C0F21200AFC2E9FF8F
:1035E000B0C2EAFF1200B3C2E9FFB4C2EAFF1200A0
:1035F000016E010E0026000E012212000026AAD83C
:1036000000C03BF201C03CF21200B7C2C5F2B8C222
:10361000C6F2C0EF17F00201010EAE6F02011200F8
:10362000B5C2E9FFB6C2EAFF1200408B28EC99F060
:103630001EC000F01FC001F0026A036A1200AD6FE5
:1036400013EF0CF044C2C1F22FC2BFF230C2C0F27D
:103650004BEF16F0972398C2F8FF98230800F5CF98
:103660000EFD0D0112000050535D015054590250DF
:103670005559035056591200016E00501219426FED
:1036800001501319436F12003EDCD8900132003212
:103690001200F00BE842E842E842E84212003ADC4D
:1036A00052EF18F01DC004F01EC005F09DEF17F09A
:1036B0002ADC00500E5F01500F5B120001C0EEFFCC
:1036C00002C0EEFF03C0EEFF120059CC00F05ACC4E
:1036D00001F0026A036A120051CCC5F252CCC6F264
:1036E000C0EF17F002010A2B000E0B230C230D2351
:1036F0001200F3CF00F0F4CF01F0120062DDEE50C3
:10370000ED101200060EE96E020EEA6E120083EC56
:1037100017F0026A036A1200020133510C015725A7
:103720001200020134510C01582112000201010E55
:10373000C16F1200EECF00F0EECF01F08CDDC4EFD0
:103740001AF05CCC06F25DCC07F25ECC08F25FCCDE
:0E37500009F21200000E0122022203221200D2
:02375E00490E12
:103760000701DD1905E1DE5103E1DF5101E1E0511F
:1037700001E1E4D2480EDD1905E1DE5103E1DF513C
:1037800001E1E05101E1D8D2470EDD1905E1DE513A
:1037900003E1DF5101E1E05101E1C8D2460EDD193C
:1037A00005E1DE5103E1DF5101E1E05101E1BCD26D
:1037B000450EDD1905E1DE5103E1DF5101E1E05184
:1037C00001E1AFD2440EDD1905E1DE5103E1DF5125
:1037D00001E1E05101E19FD2430EDD1905E1DE5127
:1037E00003E1DF5101E1E05101E193D2420EDD1925
:1037F00005E1DE5103E1DF5101E1E05101E186D253
:10380000330EDD1905E1DE5103E1DF5101E1E05145
:1038100001E173D2310EDD1905E1DE5103E1DF5123
:1038200001E1E05101E163D2300EDD1905E1DE5125
:1038300003E1DF5101E1E05101E157D22F0EDD1923
:1038400005E1DE5103E1DF5101E1E05101E14AD23E
:103850002E0EDD1905E1DE5103E1DF5101E1E051FA
:1038600001E13ED22D0EDD1905E1DE5103E1DF510C
:1038700001E1E05101E132D22C0EDD1905E1DE510A
:1038800003E1DF5101E1E05101E126D22B0EDD1908
:1038900005E1DE5103E1DF5101E1E05101E11AD21E
:1038A0002A0EDD1905E1DE5103E1DF5101E1E051AE
:1038B00001E10ED2290EDD1905E1DE5103E1DF51F0
:1038C00001E1E05101E102D2280EDD1905E1DE51EE
:1038D00003E1DF5101E1E05101E1F6D1270EDD19ED
:1038E00005E1DE5103E1DF5101E1E05101E1EAD1FF
:1038F000260EDD1905E1DE5103E1DF5101E1E05162
:1039000001E1DED1250EDD1905E1DE5103E1DF51D4
:1039100001E1E05101E1D2D1240EDD1905E1DE51D2
:1039200003E1DF5101E1E05101E1C6D1230EDD19D0
:1039300005E1DE5103E1DF5101E1E05101E1BAD1DE
:10394000220EDD1905E1DE5103E1DF5101E1E05115
:1039500001E1AED1210EDD1905E1DE5103E1DF51B8
:1039600001E1E05101E1A2D1200EDD1905E1DE51B6
:1039700003E1DF5101E1E05101E196D11F0EDD19B4
:1039800005E1DE5103E1DF5101E1E05101E18AD1BE
:103990001E0EDD1905E1DE5103E1DF5101E1E051C9
:1039A00001E17ED11D0EDD1905E1DE5103E1DF519C
:1039B00001E1E05101E172D11C0EDD1905E1DE519A
:1039C00003E1DF5101E1E05101E166D11B0EDD1998
:1039D00005E1DE5103E1DF5101E1E05101E156D1A2
:1039E0001A0EDD1905E1DE5103E1DF5101E1E0517D
:1039F00001E14AD1190EDD1905E1DE5103E1DF5184
:103A000001E1E05101E13ED1180EDD1905E1DE5181
:103A100003E1DF5101E1E05101E131D1170EDD1980
:103A200005E1DE5103E1DF5101E1E05101E122D185
:103A3000160EDD1905E1DE5103E1DF5101E1E05130
:103A400001E116D1150EDD1905E1DE5103E1DF516B
:103A500001E1E05101E103D1140EDD1905E1DE5170
:103A600003E1DF5101E1E05101E1F4D0130EDD1972
:103A700005E1DE5103E1DF5101E1E05101E1E5D073
:103A8000120EDD1905E1DE5103E1DF5101E1E051E4
:103A900001E1D7D0110EDD1905E1DE5103E1DF515F
:103AA00001E1E05101E1C8D0100EDD1905E1DE5160
:103AB00003E1DF5101E1E05101E1BAD00F0EDD1960
:103AC00005E1DE5103E1DF5101E1E05101E1ABD05D
:103AD0000E0EDD1905E1DE5103E1DF5101E1E05198
:103AE00001E19DD00D0EDD1905E1DE5103E1DF514D
:103AF00001E1E05101E191D00C0EDD1905E1DE514B
:103B000003E1DF5101E1E05101E183D00B0EDD194A
:103B100005E1DE5103E1DF5101E1E05101E177D040
:103B20000A0EDD1905E1DE5103E1DF5101E1E0514B
:103B30006CE0090EDD1905E1DE5103E1DF5101E121
:103B4000E05161E0080EDD1905E1DE5103E1DF51CE
:103B500001E1E05156E0070EDD1905E1DE5103E118
:103B6000DF5101E1E0514BE0060EDD1905E1DE51C8
:103B700003E1DF5101E1E05140E0050EDD1905E10F
:103B8000DE5103E1DF5101E1E05135E0040EDD19C2
:103B900005E1DE5103E1DF5101E1E0512AE0030ECE
:103BA000DD1905E1DE5103E1DF5101E1E0511FE0E4
:103BB000020EDD1905E1DE5103E1DF5101E1E051C3
:103BC0000FE0010EDD1901E0BBD0DE5101E0B8D0FD
:103BD000DF5101E0B5D0E05101E0B2D06BEF42F02F
:103BE0000701BC0EFB6F720EFC6F000E8CD080EFD5
:103BF00042F0B2EF1EF025EF41F0070E0BD0060E9B
:103C000009D0050E07D0040E05D0030E03D0020E16
:103C100001D0010E0401E56F2FD05AEF42F0010EE2
:103C20000401E96F02D00401E96BEA6B040E1BD0BA
:103C3000010E0401E96F02D00401E96BEA6B030E87
:103C400012D0010E0401E96F02D00401E96BEA6BA6
:103C5000020E09D0010E0401E96FEA6B04D00401E1
:103C6000E96BEA6B010E0401E76FE86BE3EF41F0EB
:103C700054EF41F00401E56BE66B90EF41F0040175
:103C8000E36B07D0010E03D0020E01D0030E040136
:103C9000E36FE46B5CEF41F043EF42F096EF42F0EC
:103CA00082EF43F05FEF43F067EF43F05BEF43F0E9
:103CB0005CEF43F05DEF43F08CEF43F033EF43F004
:103CC000F1EF42F0F6EF42F001EF43F00BEF43F07B
:103CD00015EF43F01FEF43F029EF43F054EF43F0AB
:103CE00056EF43F00401F36B05D0010E01D0020E34
:103CF0000401F36FF46B5EEF43F00701B10EFB6F4D
:103D0000720EFC6F000EFD6F29EF28F00401EF6BBF
:103D100005D0010E01D0020E0401EF6FF06B52EFDF
:103D200043F00401F16B05D0010E01D0020E040135
:103D3000F16FF26B53EF43F07CEF43F07FEF43F012
:103D4000040E02016C6F6D6B0201AC0E696F720E96
:103D50006A6F000E6B6F4CEC2AF0EE52EFCF68F2F8
:103D60001CEF04F002017E0E626F63EF2BF0040182
:103D7000836B020E835D30E2ADEC28F0EF6A020146
:103D8000080E4D6F500E02014B6F4C6B02014A6BD7
:103D90000201466B476B486B496BC3EC01F0E66E62
:103DA0004CEC2AF0EE52E552E750EF6E14691569BB
:103DB000835114EC29F00EEC2AF0F3CF28FCF4CF59
:103DC00029FC69EC29F028CC58F729CC59F7E5EC07
:103DD0004DF00401832BCDD7836B12000C01656B72
:103DE000020E655D36E21EEC29F0EE52EF50FE0841
:103DF0002DE01EEC29F0EE52EFCF4EF25BEC02F01C
:103E0000000914E065CCE1F725D84CEC2AF0EF6A04
:103E1000FF0E145D02E09CEC29F0FF0E155D02E040
:103E2000A3EC29F00201040EE1EC2AF00C011EECD7
:103E300029F0EF5007E11EEC29F00FEC29F031ECEE
:103E400029F004E065CCE1F705D83ED80C01652BDC
:103E5000C7D71200040183510701E15D01E112009F
:103E60000401835114EC29F00EEC2AF0F3CF00FC8E
:103E7000F4CF01FC69EC29F000CC58F701CC59F7DC
:103E8000E5EC4DF00701E15114EC29F000C05AF7C0
:103E900001C05BF7F3EC4DF0F3CF00FCF4CF01FC75
:103EA0007F0E0701686F696B0701000E666F040ED5
:103EB000676FABEC4FF000CC5AF701CC5BF7F3EC3B
:103EC0004DF0E1C783F412000C01010E366F4CEC8B
:103ED0002AF0EF500B0A02E1CFEF23F0010A02E1D2
:103EE000ACEF23F0030A02E195EF23F0010A01E1B0
:103EF000B9D30F0A01E11FD3010A01E102D3030A7A
:103F000001E17AD2010A01E16ED2070A01E147D24A
:103F1000010A01E1A4D1030A27E0010A02E0DCEF73
:103F200023F009EC2BF0F3CF30FCF4CF31FCF3504D
:103F3000F41002E1DCEF23F004011A0E106F040EFE
:103F4000116FADEC28F0010EEF6E1769166BD5EC12
:103F500028F00C690D690E690F6929EC2AF07E6B57
:103F60000201050EE1EC2AF0D2EC28F00A0E34EC46
:103F70002BF05BEC2AF00001F31C14E1011C12E1B0
:103F80004CEC2AF065EC2AF004E16CEC2AF00C0110
:103F9000366BFCEC28F002E643EC29F002E3DCEFA0
:103FA00023F042D2D5EC28F05BEC2BF00C01050E8F
:103FB000D880F354000EF45403E2050E306F316BD9
:103FC000010EAFEC29F01A0E7C6F040E7D6FDEEC53
:103FD0002AF0030EE66EE66ADA0EE66E6B0EE66E09
:103FE000000EB0EC2AF003E10401186B12D0040EAD
:103FF000E66EE66AD50EE66E6B0EE66E000EB0EC6F
:104000002AF004E10401010E186F03D00401070E29
:10401000CAD15BEC2BF00201A66BF3CFA4F2F4CF74
:10402000A5F20201A26BA36B02013F0EA16F4CEC43
:104030002AF0B9EC29F00C01F350305DF4503159FD
:1040400004E332CC30FC33CC31FC590ED8803055EF
:10405000000E315501E2ECD050EC2BF0C7EC2AF009
:104060001A0EF324E96E040EF420EA6EE3EC29F054
:104070001A0EE66E040EE66E99EC2AF0C7EC2AF0F2
:104080000B0EE66EE66ACA0EE66E6B0EE66E000E6C
:10409000E66E1B0EE66E040E35EC29F00CE1BCEC6E
:1040A00029F0185102E1080E01D0090E186FADEC8D
:1040B00028F0020E2ED261EC29F002E0C6EC29F0C5
:1040C000FF0E0401145D31E161EC29F00EE00C01FA
:1040D00032CCE9FF33CCEAFF322B000E33231A0E29
:1040E000E926040EEA222F0EEF6E14EC2AF01A0EC7
:1040F0000C013225006E040E3321016E00C0E6FF74
:10410000E66ECAEC8AF0026E050EE15E025014EC17
:104110002AF0F1EC8AF0E552E552E5521F500C010D
:10412000322720503323C6EC29F01A0E0C01322519
:10413000376F040E3321386F010E375F000E385B86
:104140001A0E371902E1040E381909E037CCE9FFDD
:1041500038CCEAFFEF502E0802E03707EFD7372BB5
:10416000000E38230401196B0B0EE76E1919E8AE27
:1041700002D0E73402D0E750195D23E2190E006E39
:10418000350E016E010E026E19C403F0046A056A51
:1041900003AE02D0046805687DEC2AF0F5CF6AF61C
:1041A0000900F5CF6BF60800F5CF6CF637CC68F652
:1041B00038CC69F685EC59F0000903E00401192BAD
:1041C000D3D7BCEC29F0FF0E145D18E014C4F2F054
:1041D000DEEC48F0F350020B11E014C4FDF0D8EC13
:1041E00049F0F3CFD4F0F4CFD5F0010E0001D4277D
:1041F000000ED52330EC46F00401156F5BEC2BF07C
:10420000F350F4101CE00401010E166F0201340E8D
:10421000796F0C0E7A6F4CEC2AF0F9EC29F00C0156
:104220003007000E315B620E305D000E315903E342
:104230000401050EB8D050EC2BF04DEC29F05FECEA
:104240002BF0010EF32402017E6F000EF4207F6F2D
:1042500002014CEC2BF04CEC2AF0020EEF6E5FECFE
:104260002BF00C01F31C13E1311D11E14CEC2AF091
:1042700065EC2AF004E16CEC2AF00C01366BFCECE6
:1042800028F002E643EC29F001E396D2CDD0D5EC3C
:1042900028F00C01010E30190BE1315109E1020E39
:1042A0002EEC2AF04CEC2BF04CEC2AF0030E31D122
:1042B0000201A66B30CCA4F231CCA5F20201A26BB4
:1042C000A36B02013A0EA16F4CEC2AF0B9EC29F075
:1042D000020E0C013227000E3323366B100ED880ED
:1042E0003255000E335502E2010E54D032CC7EF22C
:1042F00033CC7FF20201390E7C6F0C0E7D6FDEEC49
:104300002AF0A1EC2AF0390EE9260C0EEA22EF6A17
:104310000C013251305F3351315B356B3551006EDA
:10432000016A030E005C000E01582EE28B0E006E37
:10433000350E016E010E026E35CC03F0046A056A7B
:1043400004EC2AF035CC1FF0B2EC28F0F5CFE6FFF4
:104350000900F5CFE6FF0800F5CFE6FF390EE66E5F
:104360000C0EE66EB4EC8AF0066E050EE15E0650A9
:10437000000907E135CCE2F7E8DA0C01010E366FEF
:1043800003D00C01352BCAD7365102E05FEC2BF07D
:10439000010E0C01AFEC29F04CEC2BF060D7800E35
:1043A000175D03E2030E186FB1D010C4E9FF11C40A
:1043B000EAFFE3EC29F0F3CF10F4F4CF11F4080E88
:1043C0000401185D01E1A2D0ADEC28F0040EEF6EFF
:1043D000165104E1ADEC28F0050EEF6E0C01366BC2
:1043E0000401166BE9D1E5EC3DF0020801E1E4D1EE
:1043F0004CEC2AF0050EEF6E09EC2BF038EC2BF0AC
:10440000F35004010C1914E101500D1911E102508F
:104410000E190EE103500F190BE10AE1FCEC28F034
:1044200002E643EC29F004E20FEC2BF00B0E71D006
:10443000180515E0090EE76E1819E8AE02D0E7344A
:1044400002D0E750185D59E30B0EE76E1819E8AE7D
:1044500002D0183503D0E750D88018554EE3090E26
:10446000E76E1819E8AE02D0E73402D0E750185DC5
:1044700013E30B0EE76E1819E8AE02D0183503D01F
:10448000E750D880185508E34AEC27F00C01346F48
:10449000E85006E104013AD08EEC3EF00C01346F96
:1044A000020E345D0CE10CEC2BF033EC2AF004012D
:1044B000010E0C5F000E0D5B0E6B0F6B7DD1340592
:1044C0001CE10CEC2BF033EC2AF004010E6B0F6BAB
:1044D000D5EC28F087EC29F00C5DEE500D59EE502C
:1044E0000E59EE500F5906E2ADEC28F065EC2AF0BB
:1044F00001E062D10401060E08D04CEC2AF0060E51
:10450000EF6EFF0E145D07E1040E186FADEC28F09E
:10451000070EEF6EA4D029EC2AF0FF0E155D05E121
:10452000046905690669076902D0D0EC29F04CECF2
:104530002AF0070EEF6E0201020EE1EC2AF0610E86
:10454000006E350E016E010E026E18C403F0046A8F
:10455000056A03AE02D004680568FDEC2AF00C0E73
:104560000401185D0DE117EC2BF0AD0E726F6B0EB0
:10457000736F000E48EC2BF017EC2BF0CCEC2AF00C
:104580000401185106E0180504E0ADEC28F00B0E0C
:1045900004D10B0E195D1BE002019E0E726F6B0EB3
:1045A000736F000E48EC2BF03D0E006E350E016E61
:1045B000010E026E19C403F0046A056A03AE02D04C
:1045C00004680568FDEC2AF00201CCEC2AF014C462
:1045D000F2F0DEEC48F0F350010B08E00201850E2A
:1045E000726F6B0E736F000E48EC2BF00201750EAC
:1045F000726F6B0E736F000E48EC2BF00401180500
:104600000CE0E868041908E1E868051905E1E868C4
:10461000061902E1E868071907E002016C0E726FE3
:104620006B0E736F000E0DD00201630E726F6B0E76
:10463000736F000E45EC2BF05F0E726F6B0E736F95
:10464000000E45EC2BF0CCEC2AF00401165104E0EE
:10465000ADEC28F0080E02D066EC2BF0EF6E0C01EA
:10466000366BAAD01A0E126F040E136F16515AE051
:104670000201520E726F6B0E736F000E48EC2BF03E
:1046800074EC29F022E0200E0C01345D03E10201FC
:104690002B0E14D0300E345D0FE33451390803E291
:1046A000410E345D09E334515A0803E2610E345D72
:1046B00003E334517A0804E2ECEC2AF0626F02D092
:1046C00034CC62F263EC2BF0DBD702013D0E626F5B
:1046D00063EC2BF074EC29F01FE0200E0C01345D2C
:1046E00003E102012B0EF3D7300E345D0FE334519A
:1046F000390803E2410E345D09E334515A0803E2FC
:10470000610E345D03E334517A0803E2ECEC2AF0E5
:10471000DED734CC62F2DCD70201CCEC2AF0040103
:104720001607A4D766EC2BF0EF6E0C01366B4AD857
:10473000000909E09CEC29F0ADEC28F00B0EEF6EBF
:104740000C01010E366F3CEC2BF031EC29F034E11A
:104750000C01010E366F30D00C01010E366F3CECAF
:104760002BF05BEC2AF0100EF35C000EF45824E3FF
:1047700008C4DDF709C4DEF70AC4DFF70BC4E0F7AD
:10478000AFEC1BF004010C510D110E110F1114E1CF
:104790000C01366B4CEC2AF0090EEF6E0DD0FF0EBB
:1047A000145D02E09CEC29F0FF0E155D02E0A3EC25
:1047B00029F00FEC2BF0EF6A0C01365102E164EFA7
:1047C0001FF012003CEC2BF0F3CF02FDF4CF03FD01
:1047D000F3CF04F0F4CF05F0066A076A87EC29F0FE
:1047E0000401045D086EEE500559096EEE5006593D
:1047F0000A6EEE5007590B6E0850F35C0950F458DE
:104800000A5006580B50075807E202CD00F003CDBE
:1048100001F0026A036A0DD087EC29F0045D006E96
:10482000EE500559016EEE500659026EEE500759D2
:10483000036E00C000FD01C001FD0D010050040128
:1048400000270D01015004010123000E0223032360
:104850000D01000ED8800055000E015530E2400ECB
:10486000005D000E015905E200CDDDF001CDDEF066
:1048700004D00001400EDD6FDE6B0001050EDB6F22
:104880000D0EDC6F14C4DAF0E0EC46F0F3CF02FD5D
:10489000F4CF03FD0D01F350F41001E1010C02CD42
:1048A00066F203CD67F20201050E646F0D0E26EC71
:1048B0002BF00D010251005F0351015BC9D787EC5A
:1048C00029F00401041940E1EE5005193DE1EE50D4
:1048D00006193AE1EE50071937E136E1ADEC28F060
:1048E0000A0EEF6E0C6B0D6B0E6B0F6B0001D86B2D
:1048F000D96B14C4D7F07CEC46F00001040ED86FDD
:104900000D0ED96F14C4D7F07CEC46F0000906E018
:1049100022EC2AF07E0E0D01045DEFE122EC2AF07C
:104920000001080EE06F040EE16F15C4DFF034ECF7
:1049300047F0D0EC29F0000907E10401046905699A
:1049400006690769A3EC29F0000C0701E25102E1B6
:104950002CEF25F0E20502E1B3EF24F0020EE25D58
:1049600001E1C9D81200040117BF1200060E2EEC97
:104970002AF04CEC2BF0D3EC2AF05CEC29F0F3CFCE
:1049800000FC030E0C010027FC0E0017016B240E27
:10499000005D000E015903E3240E006F016B020E4F
:1049A0002A6F0C0E2B6F000ED8800055000E01559B
:1049B00026E2040E02017E6F7F6B2ACC7CF22BCCA8
:1049C0007DF2DEEC2AF0030E06015E6F5F6B2ACCEF
:1049D0005CF62BCC5DF6040E06015A6F5B6B2ACC9D
:1049E00058F62BCC59F67BEC58F0040E0C01005F06
:1049F000000E015B030E2A27000E2B23D4D738ECC0
:104A00002AF0EF6A006B016B020E2A6F0C0E2B6FFF
:104A1000280E005D000E01590BE238EC2AF0EF5031
:104A20003A0806E0002B000E01232A2B2B23F0D797
:104A300038EC2AF02A2B000E2B23EF6A2ACC88F4BC
:104A40002BCC89F40401020E866F0C0E876FC4EC28
:104A50003DF00401176F1200D3EC2AF0B6EC2AF0F7
:104A600010C400F011C401F07E0ED8800056040E70
:104A70000156020E005E000E015A0C010050F35C5C
:104A80000150F45802E36CEF2AF00C014B514C1129
:104A900031E088DB3B0E34EC2BF0F3CF49FCF4CF54
:104AA0004AFC0C014B51F35C4C51F45805E249CCE3
:104AB0007EF24ACC7FF204D04BCC7EF24CCC7FF21B
:104AC00010C47CF211C47DF2DEEC2AF0E6DB0C01AE
:104AD0004B51495D4C514A5908E23FEC2BF062DBE7
:104AE000200E34EC2BF0BDDBF8E0D3EC2AF0B6EC72
:104AF0002AF0CBD71200D3EC2AF0DEDBF3CF00FC98
:104B0000F4CF01FC0C010A0EF35C000EF45805E32F
:104B10000401020E186F29EF2AF000CC7EF201CCBE
:104B20007FF20201020E7C6F0C0E7D6FDEEC2AF02C
:104B3000F3CF00FCF4CF01FC020E0C01F324E96E6C
:104B40000C0EF420EA6EEF6A020EE66E0C0EE66EB4
:104B5000BEEC86F0E552E5521EC000F41FC001F421
:104B600020C002F421C003F41200E3C7E6FFE4C74B
:104B7000E6FF99EC2AF0F3CF04FCF4CF05FCE3C781
:104B800002FCE4C703FCE3C700FCE4C701FC0C0122
:104B90000451051142E0FEEC29F0000E0123EFCF95
:104BA00006FC0407055B3D0E065D03E0260E065D70
:104BB00003E14FDBEF6AEBD72B0E065D03E149DB28
:104BC000200E25D0250E065D24E1020E045D000EA8
:104BD000055903E2046B056BDAD7FEEC29F0000EF1
:104BE0000123EFCF08FCFEEC29F00123EFCF07FCF7
:104BF0000407055B0407055B07CC64F608CC65F683
:104C00004DEC59F0E66E0C0124DBE552E750EF6EF7
:104C1000BED71FDB06CCEFFFBAD71BDBEF6A02CC97
:104C2000E9FF03CCEAFFEF6A02CCF3FF03CCF4FF09
:104C30001200E5C7E9FFE6C7EAFFEF5020E03DECD0
:104C40002AF0E7C7E6FFE8C7E6FF94EC8AF0E552F2
:104C5000E552E552E55200090DE1E7C7E6FFE8C776
:104C6000E6FF99EC2AF00701E551F324006EE651C6
:104C7000F42058D382EC2AF082EC2AF0DAD7F36AD7
:104C8000F46A1200E9C7E9FFEAC7EAFFEF5027E03C
:104C900037DB1FC000F020C001F021C002F0002A65
:104CA000000E0122022200C0E6FF01C0E6FFBCECBC
:104CB0002AF0E8DB0DEC8AF0036E070EE15E03508C
:104CC000000908E11DDB0701E9511F24006EEA51CC
:104CD000202028D389EC2AF089EC2AF0D3D7F36A74
:104CE000F46A1200F0C7F9F7F1C7FAF7EEC7F7F761
:104CF000EFC7F8F707013D0EF66F46D80C01646F59
:104D00000701EE51EF110BE0EEC7E9FFEFC7EAFF35
:104D1000EF5005E0EEC7E3F7EFC7E4F726DF0C013D
:104D20006451120046DB260EF66F2ED80C01646F1C
:104D3000020E645D17E10CEC2BF038EC2BF0040153
:104D40000051F3180FE1015101180CE10251021852
:104D500009E10351031806E105E12BDBF66B14D8DA
:104D60000C01646F0701F251F3110BE0F2C7E9FF88
:104D7000F3C7EAFFEF5005E0F2C7E3F7F3C7E4F744
:104D8000F4DE0C01645112000701F65106E0C8DBA5
:104D9000F6C7A1F281DB94DB02D00CEC2BF0F3CF51
:104DA00062FCF4CF63FC0C01F31C03E1631D01E121
:104DB000020C0701020EF95D000EFA5906E2F751E6
:104DC000F81103E01FEC2BF038D0F751F81104E193
:104DD0001FEC2BF00C0143D0FEDA0C016251005C99
:104DE000635101582EE2F9C77EF2FAC77FF2020141
:104DF000020E7E5F000E7F5B2DEC2BF0F9C704F0F6
:104E0000FAC705F0020E045E000E055A04500C01AC
:104E1000625D02017E6F05500C01635902017F6FD4
:104E200002014CEC2BF03BDBD6DA0701F7510024F2
:104E3000E96EF8510120EA6EEF6A0C01010E616F14
:104E40000FD025DB2DEC2BF00701F7510C0162256B
:104E5000E96E0701F8510C016321EA6EEF6A616B9C
:104E60000701F65114E03FEC2BF0006E016A026A74
:104E7000036A00AE03D001680268036800500401B1
:104E8000005F0150015B0250025B0350035B0C01A9
:104E900061511200040118510A0A01E185D0010A8A
:104EA00066E0020A01E0D4D0CBD9040E53DA4D0EED
:104EB000966F6B0E976F000E986FEEDAFDD9A9DA38
:104EC0000C01F31C01E15A1D44E059CC7EF25ACC8E
:104ED0007FF202017C6B7D6BDFDA55DB9ADBEBDA6C
:104EE0000A0EF35C000EF45805E20C01592B000E7B
:104EF0005A23010C0A0EB2DA490E7C6F0C0E7D6F3C
:104F0000CBDA41DB0A0EE66EE66A420EE66E6B0E07
:104F1000E66E000EE66E490EE66E0C0EA6D915E1A1
:104F200004010A0E186FD7EC47F00401146F060E47
:104F30000001EB6FEC6B00014D0EE96F0C0EEA6F98
:104F400014C4E8F01BEC48F0020C04010B0E186FBF
:104F5000020C62DBF3CF7EF2F4CF7FF20201040E8B
:104F60007E5F000E7F5B020197DB99DA010C51DB5B
:104F7000F6D8F3D8EE52EFCF76F208EC05F0640ED7
:104F80000401005D000E0159000E0259000E035984
:104F90005BE3D880000E0055000E0155000E02554F
:104FA000800E035555E250D034DB33DA61DBF35029
:104FB0000401005DF4500159025002590350035995
:104FC00004E200C459FC01C45AFC0C01000ED88054
:104FD0005955000E5A552CE2100E595D000E5A59C3
:104FE00005E259CC7EF25ACC7FF204D00201100EB9
:104FF0007E6F7F6B0201490E7C6F0C0E7D6FDEDAD7
:10500000F3CF5BFCF4CF5CFCAAD80C01F350595FE2
:10501000F4505A5BF3CFEBF0F4CFECF00001490E03
:10502000E96F0C0EEA6F14C4E8F01BEC48F0CDD722
:10503000040100510111021103110AE10001010EE6
:10504000ED6F61EC48F0040188D8070EEF6E000C9C
:10505000010C04010C510D110E110F1114E1FBC7CD
:10506000D1F0FCC7D2F0FDC7D3F07EEC45F00D01C6
:10507000446FFF0E445D01E1120044CDFDF0D8EC19
:1050800049F0F1D91AD00CC4D4F00DC4D5F030ECED
:1050900046F00D01446FFF0E445D01E11200000176
:1050A000020EE76F0EC4E3F00FC4E4F00001E56BFD
:1050B000E66B44CDE2F048EC47F0DEDAF3CF00FDDA
:1050C000F4CF01FD0D01000ED8800055000E0155F2
:1050D00038E2400E005D000E015905E200CDDDF022
:1050E00001CDDEF004D00001400EDD6FDE6B00016B
:1050F000040EDB6F0D0EDC6F44CDDAF0E0EC46F011
:10510000F3CF02FDF4CF03FD0D01F350F4100AE1DB
:1051100044CDD6F071EC46F004010C6B0D6B0E6BB8
:105120000F6B120002CD66F203CD67F20201040E8E
:10513000646F0D0E8BDA0D010251005F0351015BAC
:10514000C1D744CDFCF0A7EC49F01EC00EF41FC03F
:105150000FF444CDD6F071EF46F08351C4D1ABD9F2
:105160004FEF2AF004C020F005C021F030EC96F09B
:105170001CC003F01DC004F01EC005F000501C242C
:10518000F36E01501D20F46E02501E20F86EF4CF15
:10519000F7FFF3CFF6FF09001200EE52EFCF7BF2DC
:1051A0007EEF05F0BDD9020112001EEC99F01EC081
:1051B00008F41FC009F420C00AF421C00BF48B0EC0
:1051C00004010827D20E09231A0E0A23000E0B230E
:1051D0001200EE52EFCF71F2BAEF04F071D9F3CFB3
:1051E00030FCF4CF31FC1200A4D965D9010E0026A1
:1051F000000E0122005012001EEC99F0040108512B
:105200001E5C006E09511F58016E0A512058026E33
:105210000B512158036EE834000E03181200EE52B1
:10522000EFCF77F217EF05F07F0D22DA580E002648
:10523000360E0122000E022203221200655153D1C4
:1052400002019F6B02019D6B9E6B02019B6B9C6B2D
:10525000120002CCE9FF03CCEAFF022B000E03236D
:10526000120029D9F350F4101200E66E0DEC8AF00A
:10527000006E070EE15E005000091200EE52EFCF03
:1052800061F249EF03F0D880000E0054000E015483
:10529000000E0254000E03541200F35004011027B4
:1052A000F450112310C4E9FF11C4EAFF102B000EC3
:1052B0001123260EEF6E1200EE52EFCF95F2F1EFB2
:1052C00007F03FD91A0EE926040EEA22EF502F0804
:1052D00012007F0E07016D6F6E6B0701000E6B6F82
:1052E000040E6C6FEDEF4FF0040112C4E9FF13C41C
:1052F000EAFF122B000E1323EFCF34FCEF50120005
:105300003BD9F1EC8AF0E552E552E5521200000E6D
:10531000E96E040EEA6EEE501200EE52EFCF60F22C
:105320000BEF03F0016E010E0026000E012200C0FB
:10533000F3FF01C0F4FF120014C4D6F071EC46F084
:1053400004011469120015C4D6F071EC46F0040192
:10535000156912000201996F9A6B02011200302543
:1053600002017E6F000E0C01312102017F6F0201EC
:105370001200A6D8C7EF2AF004011B0E846F040E9A
:10538000856FABEC3DF00401176F120000011B0E9E
:10539000CF6F040ED06FCBEC44F00401146F1200F9
:1053A0000001040EE06F040EE16F15C4DFF034EF6E
:1053B00047F0F4C7F9F7F5C7FAF7F2C7F7F7F3C7FD
:1053C000F8F707011200EF6A07011A0EE36F040EE7
:1053D000E46FB5EF25F0F9C700F0FAC701F0020E4F
:1053E000005E000E015A1200EE52EFCFB9F26DEFDF
:1053F00015F0EE52EFCF78F241EF05F000CCE9FF67
:1054000001CCEAFF002B1200030E246E256A266AE7
:105410001200F3CF59FCF4CF5AFC120000C058F729
:1054200001C059F7E5EF4DF0C00EE66E6B0EE66E6B
:10543000000EE66E1200EE52EFCF6EF29FEC04F01B
:10544000020112000401002B000E0123022303239A
:105450001200006B016B026B036B120002017E6F86
:105460007F6B02011200F3CF0CF4F4CF0DF41200A5
:105470002ACCE9FF2BCCEAFF1200E5C7E6FFE6C71E
:10548000E6FF1200E9C7E6FFEAC7E6FF120062CCBA
:105490007EF263CC7FF212000401ADEF28F0026AC5
:1054A000036AF3500401005FF450015B0250025B99
:1054B0000350035B1200F3CF00F0F4CF01F01200B1
:1054C000EE52EFCFA0F220EF09F0EE52EFCF80F2D4
:1054D00000EC06F031EF29F00401050E186F3DDEF7
:1054E000070EEF6E1200E96EEA6AD890E936EA36E6
:1054F0007F0EE926040EEA22120086DF03C01FF0A9
:10550000B2EF28F0BADF70DE0701E5270150E6238D
:105510001200B8DF69DE0701E9270150EA23120013
:105520000201A66B0201A46BA56B0201A26BA36B27
:105530001200E3EC8AF0E552E55212002EDEAFEFE6
:1055400028F032CCE9FF33CCEAFFE906000EEA5A34
:10555000120094DE34CC67F678EC59F002011200A8
:10556000E66E1A0EE66E040E35EF29F0A5DEF3CFD7
:105570004BFCF4CF4CFC1200EBC7E6FFECC7E6FF98
:10558000EDC7E6FF120009DE44DFAFEF28F0F3CFEE
:1055900032FCF4CF33FC1200160E726F350E736FAF
:1055A000010E48EF2BF04CDE020ED4DE160E966F85
:1055B000350E976F010E986F4CEF2AF06DDFCDEF2F
:1055C00028F0BE6F0201BC6BBD6B010E0201BA6F09
:1055D000BB6B62DFF4EF29F00201250E626F73D816
:1055E00034CC66F66AEC59F00201626F55DFA9EF20
:1055F0002AF0A16F51DFEEEF28F07FDFF5CF72F2D6
:105600000900F5CF73F20800F5CF74F245DFE9EF3A
:1056100028F0A3DD0FEF29F03FDF0FEF29F09DDD2C
:10562000EE52EFCF50F279EC02F04CEF2AF002018B
:105630001A0E6F6F040E706F2FDF1BEF2AF027DF3B
:1056400002017C6B7D6B28DF9EEF2AF0656F24DF03
:10565000EE52EFCF63F29CEF03F0F7C77CF2F8C78E
:105660007DF21ADF9EEF2AF0A16F16DF60EF2AF0BD
:1056700022DF026A036A12000FDF8DEF29F00201B8
:10568000796B7A6B09DFF9EF29F002D80201120079
:10569000746F02DFE9EF28F07C6B7D6BDEEF2AF0A0
:1056A00030CC7EF231CC7FF202011A0E7C6F040EF8
:1056B0007D6FDEEF2AF076DD200EF9EF2AF072DD45
:1056C0000A0EF9EF2AF0E8DE3EEF29F0020164DF6E
:0656D000E3DE090E1200EA
:0A56D600D9CFE6FFDACFE6FFE1CFFF
:1056E000D9FFE2CFDAFFFB0EDBCFF3FFDB06F3508F
:1056F000000919E0FC0EDBCFE6FFFD0EDBCFE6FF75
:10570000FA0EDBCFE6FF49EC9AF0E552E552E5529E
:10571000F3CF00F0F4CF01F00001F31CE4E1011C31
:10572000E2E1010E01D0000EE552E5CFDAFFE7CF4E
:10573000D9FF1200D9CFE6FFDACFE6FFE1CFD9FFDC
:10574000E2CFDAFF3B0EE12402E3E168E652E16ECC
:10575000010EDB6A020EDB6AF90EDBCFF6FFFA0EF2
:10576000DBCFF7FFFB0EDBCFF8FF0800F550DF6E55
:10577000DF5002E1ADEF34F0250EDF5C02E07DEF9B
:1057800034F0030EDB6A040EDB6A050EDB6A060EDC
:10579000DB6A070EDB6AD950F90FE96EFF0EDA20DB
:1057A000EA6EEF2AEECFF6FF000EEF22EECFF7FF04
:1057B000EF22EECFF8FF0800F550DF6E2D0EDF5C14
:1057C0000CE02B0EDF5C09E0200EDF5C06E0230E10
:1057D000DF5C03E0300EDF5C1AE1DF50300A14E0DA
:1057E000130A0FE0030A0AE00B0A05E0060AD3E1F8
:1057F000030EDB80D0D7030EDB82CDD7030EDB8414
:10580000CAD7030EDB86C7D7030EDB88C4D72A0EA0
:10581000DF5C4EE1F70EDBCF00F0F80EDBCF01F0DE
:10582000020E005E000E015AF70E00C0DBFFF80EFC
:1058300001C0DBFF00C0E9FF01C0EAFF130EEECF9D
:10584000DBFF140EEDCFDBFF130EDBCF00F0140EE9
:10585000DBCF01F00001800E011410E0030EDB80AD
:1058600020682168130EDBCF25F0140EDBCF26F065
:1058700079EC96F0040E1EC0DBFF06D0130EDB5051
:10588000E76E040EE7CFDBFFD950F90FE96EFF0E8C
:10589000DA20EA6EEF2AEECFF6FF000EEF22EECF0F
:1058A000F7FFEF22EECFF8FF0800F550DF6E2FD0A4
:1058B000090EDB6ADFCFE6FFE66A7FEC9BF0E5527C
:1058C000E552F3501EE0090EDB500A0DF350DF24C1
:1058D000D00FE76E090EE7CFDBFFD950F90FE96E65
:1058E000FF0EDA20EA6EEF2AEECFF6FF000EEF226F
:1058F000EECFF7FFEF22EECFF8FF0800F550DF6E96
:10590000D9D7090EDB50E76E040EE7CFDBFF030E9D
:10591000DBB0DB982E0EDF5C01E08DD0D950F90FA3
:10592000E96EFF0EDA20EA6EEF2AEECFF6FF000EE8
:10593000EF22EECFF7FFEF22EECFF8FF0800F55091
:10594000DF6E2A0EDF5C43E1F70EDBCF00F0F80ECE
:10595000DBCF01F0020E005E000E015AF70E00C010
:10596000DBFFF80E01C0DBFF00C0E9FF01C0EAFF6A
:10597000130EEECFDBFF140EEDCFDBFF130EDBCFEC
:1059800000F0140EDBCF01F00001800E01140BE1DA
:10599000130EDB50E76E050EE7CFDBFF010EF36E53
:1059A000060EF3CFDBFFD950F90FE96EFF0EDA20B8
:1059B000EA6EEF2AEECFF6FF000EEF22EECFF7FFF2
:1059C000EF22EECFF8FF0800F550DF6E34D0090E5D
:1059D000DB6ADFCFE6FFE66A7FEC9BF0E552E5523B
:1059E000F3501EE0090EDB500A0DF350DF24D00FF8
:1059F000E76E090EE7CFDBFFD950F90FE96EFF0E16
:105A0000DA20EA6EEF2AEECFF6FF000EEF22EECF9D
:105A1000F7FFEF22EECFF8FF0800F550DF6ED9D781
:105A2000090EDB50E76E050EE7CFDBFF010EF36ECC
:105A3000060EF3CFDBFF680EDF5C18E1D950F90FDB
:105A4000E96EFF0EDA20EA6EEF2AEECFF6FF000EC7
:105A5000EF22EECFF7FFEF22EECFF8FF0800F55070
:105A6000DF6E680EDF5C31E1030E18D0740EDF5C70
:105A700019E07A0EDF5C16E0480EDF5C06E0540E9B
:105A8000DF5C03E05A0EDF5C02E1020E07D06C0E11
:105A9000DF5C03E06A0EDF5C18E1010EF36E070EB7
:105AA000F3CFDBFFD950F90FE96EFF0EDA20EA6E73
