:020000040000fa
:080000000002040000000000f2
:020000040000fa
:100400002ff820000eff27000e01880000000000da
:100410000c00070000062b00010020000f00070061
:10042000000020000000e000020032000000020096
:100430000000000050030200000000000040da004d
:100440000000fe00e03a21000000e000020032005f
:10045000002020009001880000000600a102880012
:10046000800078000000eb001a003700e2804000b6
:1004700054a0b4009101ba00e280400054a0b4003e
:100480009102ba00e280400054a0b4000002eb00e8
:10049000472bde00f507b200a6018800602ce100c2
:1004a00008003a000049eb000201e80002003900b0
:1004b0003420ec0002f0a0008301e900f9ff3e00c7
:1004c000040037006128e100010032000082eb00e7
:1004d000040007001101ba000200e000e3ff3a0047
:1004e0000000060004d0a300e20f49001c00390000
:1004f000810278003549ba000201e80002003900a3
:100500003420ec0002f0a0008301e9000f0032006b
:100510002549ba000201e800020039003420ec004d
:1005200002f0a0008301e900080032000400e000ae
:100530000600320015c9ba000201e80002003900c5
:100540003420ec0002f0a0008301e9008180e80083
:1005500054a0b4000300e000e2ff3a0000000600ef
:100560009102ba00055978008301e900f7ff3200d3
:10057000c82ade00055978008301e900f3ff320044
:100580000400e000f1ff320011d9ba00eeff37009d
:100590000000000000000000004006000000000015
:1005a0000000000000400600ea874700889fbe0068
:1005b0008a1f78008e1f78007087570000afbe003a
:1005c00049c0b3000044eb000880fb000000470076
:1005d000104078000080fb00f0805700f08102009e
:1005e0000000000070805700fcbc0200000000000a
:1005f000e34f54000c00320060bd02000000000018
:1006000000457800e04f5500fbff3a00e002200073
:10061000aebd0200000000000844e8008944e90083
:100620008acf5400e8ff3a004f0778004f05780062
:100630004f04be00af00b100000006000600fa0043
:10064000889fbe0000047800406b8000c0bf9f0000
:10065000310320000800780002830200000000003f
:10066000d0bf9f0039032000b9bf9f006000b800d1
:100670009694020000000000610020006a8057008c
:10068000fa950200000000000800be00fa95020082
:10069000000000004f04be000080fa0000000600c9
:1006a0000600fa00889fbe00c0e2a9006767ef005d
:1006b000e122a900f102a900c4e2a900e522a900f3
:1006c000f502a900f08f2f004427b600e024ef00c8
:1006d000e224ef00e424ef00e624ef00e824ef003a
:1006e000ea24ef00ec24ef00404e280000198800b7
:1006f0004040200010198800300021002019880097
:100700000002200080198800e862a900d802a80031
:10071000000028008011880000402000901188000f
:1007200030032000c0118800f4c2a800f0c2a90064
:10073000c5c2a800c1c2a900103a8000f00bb200e7
:100740006204200073052000217420008248780094
:1007500083487800804878003135800000fc2f0005
:1007600080806000b100b30031358800a826b60053
:1007700001348000f40f2c008480600005202200ea
:1007800085807000013488008136800080806000a0
:100790005100b3008136880011368000008060006f
:1007a0000030a0001036880000368000040260008f
:1007b000007020000002720004368800103a8000a9
:1007c0000060a000217420008248780083487800ef
:1007d0008048780012930200000000009abb0200db
:1007e000000000000c7b0200000000000044eb0051
:1007f0000100370018c0b300320320008000eb0076
:10080000c0d22000b80902000000000058cda800a6
:1008100058eda80090d5200081de290005000900d0
:100820003158780092ea2f00626988001210200087
:100830007269880090ea2f00006a8800101020007a
:10084000106a880030adef00322def0044adef00ac
:10085000462def0090ea2f00a069880010102000bc
:10086000b069880091ea2f00c1698800111020004a
:10087000d169880082d4200080dc29000f000900a3
:100880003059780080d420005c8302000000000012
:1008900031032000c0d220000283020000000000cb
:1008a000406b8800e04f540002003200c0d22000ac
:1008b00062ff0700630020006a8157006000b800f3
:1008c000e69302000000000033032000c2d22000a3
:1008d0006000200001002000e693020000000000fc
:1008e000bfb8970030032000808f50000a003a0004
:1008f000406b80004fb99700800f510006003a000e
:10090000dfbc9700c0d2200002830200000000007c
:10091000808f540003003200e04f5400b5ff3200d6
:10092000ffff370074ae0200000000006ab502004d
:1009300000000000b4bb020000000000726b8000e9
:10094000836b8000020050008380580012a12700b2
:10095000820f5000e08f58000d003600b4bb02003b
:1009600000000000706b8800816b880021168000f9
:10097000c708de008180ea00e1806000c708dd0072
:10098000201680000070a100010070002016880071
:10099000baae02000000000036b002000000000005
:1009a0005ab9020000000000bcbd020000000000b7
:1009b00020bf020000000000febf02000000000097
:1009c0002abc02000000000072ba02000000000011
:1009d00036b202000000000000188000f1d52000af
:1009e000f0810200000000006069800071698000f1
:1009f000526b8000636b8000800f5100818f590023
:100a0000ccff3200506b8800616b880020dd29002c
:100a1000fcbc020000000000606980007169800079
:100a2000e1fe070050de2900fcbc020000000000cf
:100a300010b8020000000000beff37000040da00de
:100a40000000fe00680107000400be000000060070
:100a50000800fa00889fbe008a9fbe0084bf9f00e6
:100a600095bf9f00a6bf9f00b7bf9f003004be0088
:100a70002005be000fba97009fba97002fbb9700c2
:100a8000bfbb97000404440085844c0006054d005c
:100a900087854d000898be000a90be000440e10022
:100aa00005c8e10006d0e10007d8e10002003100ee
:100ab000680040001008e8004f05be004f04be006b
:100ac0000080fa0000000600fe874700889fbe00f5
:100ad0008a9fbe008c9fbe008e1f7800d0b79f00fb
:100ae000e1b79f00f2b79f0083bf9f0084b79f00cc
:100af00095b79f00a6b79f00b7b79f008000eb0097
:100b0000f1af9f00e1af9f00d1af9f00c1af9f0049
:100b1000b1af9f00010678000d042000ccb79f0004
:100b20000605be000404be007fae97006faf9700bd
:100b30005fa89700e00f56000f003d00cf71de0068
:100b40000c01460002817100f2af9f005d000700ba
:100b50004f20de00818040008100700064000700ab
:100b60000802be000a03be0060fd2f000f00400017
:100b7000b7ff07001d003700520007004f21de00bd
:100b80008180400081007100590007003faa970052
:100b9000cfaa97005fab9700efab97000800520019
:100ba00089805a000a015b008b815b00b0af9f0017
:100bb000c1af9f00d2af9f00e3af9f004f70de0038
:100bc0000c01460002007000130020000820e10024
:100bd00009a8e1000ab0e1000bb8e100010039000a
:100be0008001eb0003005000f0af9f007fae970044
:100bf000e00f56000f00350010002000010020001b
:100c00006011b8005fb29700efb297007fb3970012
:100c10008fbb97000402700085827000060371008c
:100c200087837100d4b79f00e5b79f00f6b79f0098
:100c300087bf9f00cfb297008502e800c5b79f002d
:100c40008d8f5200b8ff3a000c017800e00f510080
:100c500007003d000fb297009fb297002fb3970097
:100c6000bfb3970060fd2f000f00400078ff070022
:100c7000ffa09700e08f500008003a003fac9700bb
:100c8000cfac97005fad9700efad9700d8b79f004e
:100c9000e9b79f00fab79f008bbf9f005fb0970036
:100ca000efb097007fb197008fb997004f0778009a
:100cb0004f06be004f05be004f04be00ef01b1005d
:100cc000000006004f01de008e0047008100710029
:100cd000c1af9f00afa897004f09de0000004000a1
:100ce00000007100b0af9f001faa9700000006002f
:100cf000a1af9f000e0007004f18de000402420063
:100d00000002720094af9f0009000700000040003d
:100d1000818048000201490083814900b0b79f00eb
:100d2000c1b79f00d2b79f00e3b79f000000060045
:100d30001fb09700afb097003fb19700cfb19700b9
:100d400000000600881f780018002000881f780027
:100d50005dff07008f87e9004f0478000000060060
:100d6000801feb0058ff07008f87e9000000060096
:100d7000889fbe008a9fbe008c1f78006044b80028
:100d80006055b8000800e1000988e1000a90e10020
:100d90000b98e1000d003d000000540081805c00d4
:100da00002015d0083815d001c0020000820e1003d
:100db00009a8e1000ab0e1000bb8e1000b003d001a
:100dc000210007000006eb00080037000006eb00da
:100dd000e00f5200e08f5a00e00f5b00e08f5b00f5
:100de00002003d00180007001c002000d5ff07008e
:100df00080057800010578008204780003047800fb
:100e00000b0278008a0278000903780088037800d2
:100e1000e00f5600060032006000b8006011b80014
:100e20000402500085825800060359008783590048
:100e30000400be000601be004f0678004f05be004c
:100e40004f04be00000006000402540085825c00ce
:100e500006035d0087835d0000000600889fbe00da
:100e60008a9fbe008c1f78006044b8006055b800af
:100e70000800e1000988e1000a90e1000b98e10018
:100e80000b003d000000540081805c0002015d0009
:100e900083815d001c0020000820e10009a8e1001a
:100ea0000ab0e1000bb8e1000b003d00060037007e
:100eb0000006eb00e00f5200e08f5a00e00f5b00ed
:100ec000e08f5b0004003d000402540085825c005a
:100ed00006035d0087835d00a1ff070080057800a1
:100ee0000105780082047800030478000b02780082
:100ef0008a0278000903780088037800e00f560022
:100f0000060032006000b8006011b8000402500012
:100f10008582580006035900878359000400be00eb
:100f20000601be004f0678004f05be004f04be000c
:100f300000000600889fbe008a9fbe008c1f7800bc
:100f40000006eb00e00f5000e08f5800e00f590062
:100f5000e08f590007003d006044b8006055b800bc
:100f60000000540081805c0002015d0083815d000f
:100f70001c002000e00f5200e08f5a00e00f5b00e1
:100f8000e08f5b0007003d006044b8006055b8008a
:100f90000402540085825c0006035d0087835d00c7
:100fa0000c00a200200007000203be000002be00e9
:100fb000e00f5600060032006000b8006011b80073
:100fc00004025000858258000603590087835900a7
:100fd0000400be000601be004f0678004f05be00ab
:100fe0004f04be00000006006022b8000602200088
:100ff0000000d0008180d2000482d2008582d2001d
:101000000000a0000202520083825a000300310057
:101010000202420083824a000000a1000603e900a8
:10102000f3ff3a0000000600889fbe008a9fbe00c2
:101030008c9fbe000404b8000506b8008904460071
:1010400060854e000606b8000a054600e0854e00a1
:101050000706b8008b054600040eb8008904460058
:101060000a854e00e0854d00050eb8000a054600d1
:101070008b854e00060eb8008b0546000416b8009e
:101080000a0546008b854e000516b8008b05460004
:10109000041eb8008b0546000800be000a01be0011
:1010a0004f06be004f05be004f04be000000060004
:1010b00003c2b3000001780002007800b04078005d
:1010c00083cf5000fbff3200e9cf5000f9ff320020
:1010d000d3c2b30083cf500003003a000001780070
:1010e00013c0b300050037008041eb00b4c2b30069
:1010f00084cf500001003a00000178000000eb00ae
:10110000020037006a00b900000042003202fb0012
:101110000403b100e90f5200faff3600e0cf51009e
:10112000010032000000ea0000000600889fbe00b7
:101130008a9fbe0001c2b30030447800800478006a
:10114000814f5400fcff3200e94f5400faff320097
:10115000d0c2b300804f540003003a0039447800f5
:101160001ac0b300050037000045eb00b0c2b30061
:10117000804f540001003a00394478006022b800e2
:101180000bcdb3000b003700a200200003002000ad
:101190000400be00d40007000001be000b42440062
:1011a0000482fb0005002000040241008582490002
:1011b000394478000880fb000003b100e90f5000bb
:1011c000f1ff3600e04f55000200320060021200cd
:1011d000e0821a000400be004f05be004f04be00ae
:1011e00000000600889fbe008a9fbe008c9fbe0044
:1011f00080067800820578000306780001047800f4
:101200000b0078008c007800cfc4de0001003700ae
:10121000820678000801be0073ff07008001780095
:101220000101780003007800820078000d01e800d9
:10123000e00f5000e08f5800f5ff3a000049eb0046
:101240000801be000b0078008c007800fdfd07004f
:10125000004578000801be000b0078008c00780083
:1012600061ff07000002be000403be00860578008f
:1012700007067800e94f5500010034006745450036
:1012800000c3b30080564500e00f5200e08f5a00c3
:10129000ebff3a000d0078004f06be004f05be0080
:1012a0004f04be0000000600881f7800000478008c
:1012b000e00f5100e08f590006003d000802780061
:1012c000d0c2b300005a780060011100e08119001b
:1012d000010037000802780004007800c1ff070011
:1012e000080078004f04780000000600e6874700f9
:1012f0008e1f7800d0bf9f0066875700012f7800af
:101300000e0037005fba970014407800efb99700dd
:10131000934078000201e900814f50000400320040
:101320000080fb008180fb000100500006003700b8
:101330000402e800d4bf9f00030fe800e00f510053
:10134000f0ff3a00020078004f0778006f00b1000c
:10135000000006008001780002003700b1597800d3
:101360000201e900e00f5100fcff3a000000060016
:101370008001780002003700815978000201e900fd
:10138000e00f5100fcff3a00000006000001780069
:101390000200780000017800b241780081cf51004e
:1013a00003003200e0cf5100f9ff3a000000eb00eb
:1013b00000000600b041780031c1510002003a003f
:1013c00082cf5100fbff3a000200fb000000060044
:1013d000800178003141780082597800e04f510057
:1013e000fcff3a0000000600800078000041eb009e
:1013f000b14f1100fdff3a000080ea00008040007c
:101400000000060080017800060037000201e900b4
:10141000b14278008559780003027800e0cf52008d
:101420000600320003027800e00f5100f7ff3a0097
:1014300002003700005aeb000201e900e00f510002
:10144000fcff3a0000000600889fbe000004be00ba
:101450000b00370009007800e3ff07000001780067
:101460000800be000f000700e00f50000a00320025
:101470000800e8009900fb00c4ff070000047800a2
:10148000e00f5400040032000040eb00984f1000c1
:10149000f0ff3a000004eb00080078004f04be00a3
:1014a000000006000b003700b0417800e0cf51008b
:1014b000030032000201e900b1cf51000500320003
:1014c0008381fb00144278000480fb0000805100ff
:1014d0000000060001027800e00f5100f2ff3a0020
:1014e0000200780000000600020ab900001bb900e3
:1014f0000200b800810042008100430000000600a5
:020000040000fa
:020000040005f5
:0457f400ffec0000c6
:020000040000fa
:020000040005f5
:0457f800ed9b000025
:020000040000fa
:020000040005f5
:0457fc007f3e0000ec
:020000040000fa
:100008001e0500001e050000c8020000ce02000008
:100018001e0500001e0500001e0500001e0500004c
:100028001e0500001e0500001e0500000ebc000095
:100038001e0500001e0500001e0500001e0500002c
:100048001e0500001e0500001e0500001e0500001c
:100058001e0500001e0500001e0500001e0500000c
:100068001e0500001e0500001e0500001e050000fc
:100078001e0500001e0500001e0500001e050000ec
:100088001e0500001e0500001e0500001e050000dc
:100098001e0500001e05000062b6000096b60000ae
:1000a8001e0500001e0500001e0500001e050000bc
:1000b8001e0500001e0500001e0500001e050000ac
:1000c8001e0500001e0500001e0500001e0500009c
:1000d8001e0500001e0500001e0500001e0500008c
:1000e8001e0500001e0500001e0500001e0500007c
:1000f8001e0500001e0500001e0500001e0500006c
:100108001e0500001e0500001e0500001e0500005b
:100118001e0500001e0500001e0500001e0500004b
:100128001e0500001e0500001e0500001e0500003b
:100138001e0500001e0500001e0500001e0500002b
:100148001e0500001e0500001e0500001e0500001b
:100158001e0500001e0500001e0500001e0500000b
:100168001e0500001e0500001e0500001e050000fb
:100178001e0500001e0500001e0500001e050000eb
:100188001e0500001e0500001e0500001e050000db
:100198001e0500001e0500001e0500001e050000cb
:1001a8001e0500001e0500001e0500001e050000bb
:1001b8001e0500001e0500001e0500001e050000ab
:1001c8001e0500001e0500001e0500001e0500009b
:1001d8001e0500001e0500001e0500001e0500008b
:1001e8001e0500001e0500001e0500001e0500007b
:0801f8001e0500001e050000b9
:020000040000fa
:100208001e0500001e050000c8020000ce02000006
:100218001e0500001e0500001e0500001e0500004a
:100228001e0500001e0500001e0500000ebc000093
:100238001e0500001e0500001e0500001e0500002a
:100248001e0500001e0500001e0500001e0500001a
:100258001e0500001e0500001e0500001e0500000a
:100268001e0500001e0500001e0500001e050000fa
:100278001e0500001e0500001e0500001e050000ea
:100288001e0500001e0500001e0500001e050000da
:100298001e0500001e05000062b6000096b60000ac
:1002a8001e0500001e0500001e0500001e050000ba
:1002b8001e0500001e0500001e0500001e050000aa
:1002c8001e0500001e0500001e0500001e0500009a
:1002d8001e0500001e0500001e0500001e0500008a
:1002e8001e0500001e0500001e0500001e0500007a
:1002f8001e0500001e0500001e0500001e0500006a
:100308001e0500001e0500001e0500001e05000059
:100318001e0500001e0500001e0500001e05000049
:100328001e0500001e0500001e0500001e05000039
:100338001e0500001e0500001e0500001e05000029
:100348001e0500001e0500001e0500001e05000019
:100358001e0500001e0500001e0500001e05000009
:100368001e0500001e0500001e0500001e050000f9
:100378001e0500001e0500001e0500001e050000e9
:100388001e0500001e0500001e0500001e050000d9
:100398001e0500001e0500001e0500001e050000c9
:1003a8001e0500001e0500001e0500001e050000b9
:1003b8001e0500001e0500001e0500001e050000a9
:1003c8001e0500001e0500001e0500001e05000099
:1003d8001e0500001e0500001e0500001e05000089
:1003e8001e0500001e0500001e0500001e05000079
:0803f8001e0500001e050000b7
:020000040000fa
:10150000666f00006f740000657200002e690000b5
:101510006e63000000680000656100006465000003
:10152000722e0000696e000063000000214400007c
:1015300045460000004700004554000000500000f0
:101540004f530000540000006d70000066730000ef
:10155000757000006c6f000061640000006900009d
:101560006e640000657800002e680000746d000055
:10157000000d00000a0d00000a0000000d0a000026
:101580000d0a00004d50000046530000020100000b
:10159000000d00000a0d00000a3300003034000086
:1015a000205200006564000069720000656300005d
:1015b000743a000020000000436f00006e740000c9
:1015c000656e0000742d0000547900007065000005
:1015d0003a200000004300006f6e000074650000b8
:1015e0006e7400002d4500006e6300006f64000003
:1015f000696e0000673a0000206700007a69000009
:10160000700d00000a0000004361000063680000e4
:10161000652d0000436f00006e740000726f0000c3
:101620006c3a0000200000006e6f00002d63000087
:101630006163000068650000006d000061780000d3
:101640002d610000676500003d000000363000009d
:101650003000000053650000742d0000436f00004f
:101660006f6b0000696500003a2000000074000004
:101670007874000000680000746d000000680000cd
:10168000746d00006c0000006367000069000000da
:10169000786d00006c0000006373000073000000b0
:1016a0006769000066000000706e000067000000bf
:1016b0006a70000067000000636c000061000000b9
:1016c00077610000760000000000000000000000cc
:1016d000378b00003b8b00003f8b0000448b0000e9
:1016e000488b00004c8b0000508b0000548b000096
:1016f000588b00005c8b0000608b0000648b000046
:10170000436f00006f6b0000696500003a00000045
:1017100041750000746800006f720000697a000073
:1017200061740000696f00006e3a00000043000021
:101730006f6e0000746500006e7400002d4c000098
:10174000656e000067740000683a00000000000049
:10175000808b0000888b0000978b000048540000ad
:10176000545000002f3100002e31000020320000c4
:1017700030300000204f00004b0d00000a430000f5
:101780006f6e00006e65000063740000696f0000fa
:101790006e3a0000206300006c6f0000736500006b
:1017a0000d0a00000048000054540000502f0000b3
:1017b000312e0000312000003430000030200000c5
:1017c0004261000064200000526500007175000055
:1017d00065730000740d00000a4300006f6e000086
:1017e0006e65000063740000696f00006e3a0000cf
:1017f000206300006c6f0000736500000d0a00009c
:101800000d0a00003430000030200000426100006a
:1018100064200000526500007175000065730000cf
:10182000743a000020630000616e0000277400001d
:1018300020680000616e0000646c000065200000fc
:10184000436f00006e740000656e0000742d000090
:101850004c6500006e670000746800000d0a00000f
:101860000048000054540000502f0000312e0000aa
:10187000312000003430000031200000556e00009f
:1018800061750000746800006f720000697a0000e2
:10189000656400000d0a000057570000572d000036
:1018a0004175000074680000656e000074690000f6
:1018b00063610000746500003a200000426100008e
:1018c000736900006320000072650000616c000015
:1018d0006d3d000022500000726f00007465000032
:1018e0006374000065640000220d00000a430000dc
:1018f0006f6e00006e65000063740000696f000089
:101900006e3a0000206300006c6f000073650000f9
:101910000d0a00000d0a00003430000031200000e4
:10192000556e000061750000746800006f72000061
:10193000697a0000656400003a20000050610000f0
:1019400073730000776f0000726400002072000063
:10195000657100007569000072650000640d00008b
:101960000a00000048540000545000002f310000cd
:101970002e3100002034000030340000204e0000e2
:101980006f740000206600006f7500006e64000038
:101990000d0a0000436f00006e6e000065630000da
:1019a000746900006f6e00003a200000636c000054
:1019b0006f730000650d00000a4300006f6e0000a9
:1019c000746500006e7400002d54000079700000f2
:1019d000653a00002074000065780000742f000054
:1019e000687400006d6c00000d0a00000d0a000014
:1019f00034300000343a000020460000696c0000da
:101a0000652000006e6f000074200000666f00000b
:101a1000756e0000643c0000627200003e550000dc
:101a200073650000203c0000612000006872000027
:101a3000656600003d2200002f6d0000706600000a
:101a400073750000706c00006f610000642200007c
:101a50003e4d00005046000053200000557000002d
:101a60006c6f0000616400003c2f0000613e0000cc
:101a7000207400006f200000707200006f6700008b
:101a8000726100006d200000776500006220000098
:101a90007061000067650000730d00000a0000001f
:101aa00048540000545000002f3100002e31000037
:101ab0002034000031340000205200006571000025
:101ac00075650000737400002d5500005249000038
:101ad000205400006f6f0000204c00006f6e00006b
:101ae000670d00000a4300006f6e00006e65000085
:101af00063740000696f00006e3a0000206300000c
:101b00006c6f0000736500000d0a00000d0a0000f4
:101b1000343100003420000052650000717500006f
:101b200065730000742d000055520000492000002c
:101b3000546f00006f2000004c6f00006e670000c3
:101b40003a200000427500006666000065720000e1
:101b5000206f000076650000726600006c6f000068
:101b60007720000064650000746500006374000065
:101b7000656400000d0a0000004800005454000095
:101b8000502f0000312e00003120000035300000c1
:101b900030200000496e000074650000726e000085
:101ba000616c000020530000657200007665000043
:101bb0007220000045720000726f0000720d00007c
:101bc0000a4300006f6e00006e6500006374000041
:101bd000696f00006e3a0000206300006c6f000027
:101be000736500000d0a00000d0a0000353000008a
:101bf00030200000496e000074650000726e000025
:101c0000616c0000205300006572000076650000e2
:101c10007220000045720000726f0000723a0000ee
:101c200020450000787000006563000074650000c6
:101c3000642000006461000074610000206e0000f8
:101c40006f74000020700000726500007365000072
:101c50006e7400000d0a000000480000545400009b
:101c6000502f0000312e00003120000035300000e0
:101c7000312000004e6f000074200000496d00000c
:101c8000706c0000656d0000656e000074650000fa
:101c9000640d00000a4300006f6e00006e650000d6
:101ca00063740000696f00006e3a0000206300005a
:101cb0006c6f0000736500000d0a00000d0a000043
:101cc00035300000312000004e6f0000742000000d
:101cd000496d0000706c0000656d0000656e0000cd
:101ce00074650000643a0000204f00006e6c000034
:101cf000792000004745000054200000616e00007c
:101d000064200000504f0000535400002073000076
:101d100075700000706f0000727400006564000050
:101d20000d0a00000048000054540000502f00002d
:101d3000312e000031200000323000003020000041
:101d40004f4b00000d0a0000436f00006e6e000054
:101d500065630000746900006f6e00003a200000a7
:101d6000636c00006f730000650d00000a43000003
:101d70006f6e0000746500006e7400002d5400004a
:101d800079700000653a000020740000657800005a
:101d9000742f0000687400006d6c00000d0a0000d4
:101da0000d0a00003c680000746d00006c3e0000ed
:101db0003c6200006f640000792000007374000032
:101dc000796c0000653d0000226d0000617200002a
:101dd000676900006e3a000031300000307000008a
:101de000782200003e3c0000666f0000726d00002b
:101df000206d000065740000686f0000643d000005
:101e0000706f0000737400002061000063740000b4
:101e1000696f00006e3d0000222f00006d70000011
:101e200066730000757000006c6f00006164000054
:101e300022200000656e00006374000079700000cd
:101e4000653d0000226d0000756c000074690000a3
:101e500070610000727400002f6600006f72000055
:101e60006d2d00006461000074610000223e0000de
:101e70003c6200003e4d0000504600005320000030
:101e8000496d00006167000065200000557000008a
:101e90006c6f0000616400003c2f0000623e000097
:101ea0003c7000003e3c0000696e00007075000050
:101eb0007420000074790000706500003d66000029
:101ec000696c0000652000006e6100006d65000017
:101ed0003d69000020730000697a0000653d000044
:101ee000343000003e200000266e000062730000c7
:101ef000703b0000203c0000696e0000707500001f
:101f00007420000074790000706500003d730000cb
:101f1000756200006d6900007420000076610000a9
:101f20006c750000653d000022550000706c0000db
:101f30006f610000642200003e3c00002f6600003c
:101f40006f7200006d3e00003c2f0000626f0000c9
:101f5000647900003e3c00002f680000746d0000b2
:101f60006c3e000000000000485400005450000087
:101f70002f3100002e3100002032000030300000f0
:101f8000204f00004b0d00000a4300006f6e000060
:101f90006e65000063740000696f00006e3a000017
:101fa000206300006c6f0000736500000d0a0000e4
:101fb000436f00006e740000656e0000742d000019
:101fc00054790000706500003a200000746500003c
:101fd000787400002f680000746d00006c0d000024
:101fe0000a0d00000a3c0000687400006d6c0000df
:101ff0003e3c0000626f0000647900002073000026
:10200000747900006c6500003d2200006d610000e5
:1020100072670000696e00003a3100003030000045
:1020200070780000223e00003c6200003e4d00003f
:10203000504600005320000055700000646100000d
:1020400074650000205300007563000063650000a4
:1020500073730000667500006c3c00002f62000086
:102060003e3c0000703e00003c6100002068000023
:1020700072650000663d0000222f0000223e000035
:102080005369000074650000206d00006169000064
:102090006e20000070610000676500003c2f0000aa
:1020a000613e00003c2f0000626f00006479000078
:1020b0003e3c00002f680000746d00006c3e000084
:1020c0000048000054540000502f0000312e000042
:1020d000312000003530000030200000496e000043
:1020e00074650000726e0000616c000020530000f7
:1020f00065720000766500007220000045720000e5
:10210000726f0000720d00000a4300006f6e000045
:102110006e65000063740000696f00006e3a000095
:10212000206300006c6f0000736500000d0a000062
:10213000436f00006e740000656e0000742d000097
:1021400054790000706500003a20000074650000ba
:10215000787400002f680000746d00006c0d0000a2
:102160000a0d00000a3c0000687400006d6c00005d
:102170003e3c0000626f00006479000020730000a4
:10218000747900006c6500003d2200006d61000064
:1021900072670000696e00003a31000030300000c4
:1021a00070780000223e00003c6200003e4d0000be
:1021b0005046000053200000496d00006167000098
:1021c00065200000436f000072720000757000000f
:1021d000742000006f72000020570000726f000032
:1021e0006e670000205600006572000073690000f1
:1021f0006f6e00003c2f0000623e00003c7000004b
:102200003e3c00006120000068720000656600002e
:102210003d2200002f6d0000706600007375000005
:10222000706c00006f610000642200003e540000ea
:10223000727900002061000067610000696e000093
:102240003f3c00002f6100003e3c00002f62000078
:102250006f640000793e00003c2f000068740000ad
:102260006d6c00003e000000485400005450000017
:102270002f3100002e3100002033000030320000ea
:10228000204600006f7500006e6400000d0a00001b
:10229000436f00006e6e000065630000746900000b
:1022a0006f6e00003a200000636c00006f73000046
:1022b000650d00000a4c00006f63000061740000af
:1022c000696f00006e3a00002000000048540000d2
:1022d000545000002f3100002e3100002034000047
:1022e00030330000204600006f7200006269000079
:1022f00064640000656e00000d0a0000436f00007a
:102300006e6e000065630000746900006f6e00006f
:102310003a200000636c00006f730000650d000040
:102320000a0d00000a34000030330000204600008f
:102330006f7200006269000064640000656e000056
:102340003a200000535300004c200000526500006a
:10235000717500006972000065640000202d0000a6
:1023600020750000736500002048000054540000f0
:10237000505300000d0a000000000000ae8b00006a
:10238000ae8b0000d38b0000318c0000b28c0000bb
:10239000508d0000bd8d00002d8e0000938e00003a
:1023a000b38f0000b48f00006190000034910000f2
:1023b000669100000d0a00000074000065780000be
:1023c000742f0000706c0000616900006e00000056
:1023d00074650000787400002f680000746d0000c0
:1023e0006c00000074650000787400002f78000015
:1023f0006d6c00000074000065780000742f000010
:102400006373000073000000696d000061670000e5
:10241000652f00006769000066000000696d00001c
:1024200061670000652f0000706e0000670000000b
:10243000696d000061670000652f00006a70000090
:102440006567000000610000707000006c690000aa
:1024500063610000746900006f6e00002f6a000065
:1024600061760000612d0000766d000000610000c3
:1024700075640000696f00002f7800002d77000060
:102480006176000065000000dd910000e891000029
:10249000e8910000e8910000f2910000fb9100003b
:1024a000049200000e920000189200002392000097
:1024b00037920000b38f0000707200006f7400004c
:1024c0006563000074000000736e00006d70000012
:1024d00000610000646d0000696e0000006d000086
:1024e00069630000726f000063680000697000009b
:1024f000006600006f7200006d7300002e6800001f
:10250000746d0000006c0000656400003400000081
:102510006c65000064330000006c0000656400001e
:10252000320000006c6500006431000000630000b0
:102530006f6f00006b690000657300002e6800007b
:10254000746d0000006c000065640000732e0000d4
:1025500063670000690000006c6500006400000013
:10256000757000006c6f0000616400002e68000050
:10257000746d0000000d00000a0000000d0a00004c
:102580000d0a000000700000726f0000746500000a
:10259000637400002f6300006f6e00006669000026
:1025a000672e0000687400006d0000006970000074
:1025b00000670000770000007375000062000000f3
:1025c000646e000073310000006400006e73000050
:1025d000320000006d61000063000000686f0000c1
:1025e0007374000000640000686300007000000065
:1025f0002f700000726f00007465000063740000ab
:102600002f720000656200006f6f0000742e0000e2
:10261000687400006d3f0000002f00007072000021
:102620006f74000065630000742f0000636f00008a
:102630006e660000696700002e680000746d00007f
:10264000006500006d610000696c00002f690000ea
:102650006e640000657800002e680000746d000054
:10266000004d000069630000726f000063680000a5
:102670006970000020540000435000002f49000002
:102680005020000053740000616300006b200000c4
:102690005374000061740000757300002055000041
:1026a00070640000617400006500000022530000a7
:1026b0004d54000050200000536500007276000069
:1026c0006963000065220000203c00006d6300008b
:1026d00068700000626f00006172000064400000da
:1026e000706900006373000061720000656700009c
:1026f0006f6f0000642e0000636f00006d3e0000ed
:10270000004d0000494d0000452d00007665000099
:1027100072730000696f00006e3a00002031000003
:102720002e3000000d0a0000436f00006e740000a0
:10273000656e0000742d0000747900007065000063
:102740003a2000006d7500006c7400006970000094
:1027500061720000742f00006d6900007865000050
:10276000643b0000206200006f7500006e64000092
:1027700061720000793d000022660000726f000067
:102780006e74000069650000722200000d0a0000ee
:1027900000730000657200007665000072000000a2
:1027a000706f000072740000007500007365000017
:1027b000720000007061000073730000007400007c
:1027c0006f0000006d730000670000005468000097
:1027d0006973000020690000732000006120000080
:1027e0006d7500006c740000692d000070610000c0
:1027f00072740000206d00006573000073610000ba
:1028000067650000206900006e2000004d4900004f
:102810004d450000206600006f7200006d610000f1
:10282000742e00000d0a0000002d00002d6600002f
:10283000726f00006e74000069650000720d000088
:102840000a4300006f6e0000746500006e740000a3
:102850002d74000079700000653a000020740000bb
:1028600065780000742f0000706c00006169000042
:102870006e0d00000a0d00000a0000000d0a0000a5
:102880002d2d0000667200006f6e0000746900005c
:10289000657200000d0a0000436f00006e740000b6
:1028a000656e0000742d00007479000070650000f2
:1028b0003a20000074650000787400002f63000067
:1028c000737600000d0a0000436f00006e74000074
:1028d000656e0000742d00004469000073700000f4
:1028e0006f73000069740000696f00006e3a0000a9
:1028f000206100007474000061630000686d0000d6
:10290000656e0000743b000020660000696c0000ea
:10291000656e0000616d0000653d000022730000df
:102920007461000074750000732e00006373000072
:10293000762200000d0a00000d0a0000005300007e
:1029400059530000544500004d200000535400002e
:1029500041540000555300000d0a000000420000e1
:1029600075740000746f00006e7300003a2c000054
:10297000004c000045440000733a00002c000000a9
:10298000506f0000743a00002c0000002d2d000054
:10299000667200006f6e00007469000065720000ce
:1029a0002d2d00000d0a0000002f0000656d0000b5
:1029b000616900006c2f0000696e00006465000012
:1029c000782e0000687400006d0000004a75000059
:1029d0006c2000003139000020320000303100004e
:1029e00032200000303000003a300000383a000059
:1029f0003030000000760000352e00003432000038
:102a000000530000454c00004543000054450000c1
:102a1000440000004e6f0000204c000043440000c2
:102a20002050000072650000736500006e740000a5
:102a3000006e0000616d0000650000004865000048
:102a40006c6c00006f2c0000200000006e6f000016
:102a50007420000073650000740000003c620000f8
:102a60003e550000706c00006f61000064200000a3
:102a700061200000466900006c6500003c2f0000ea
:102a8000623e0000003c0000623e00005570000005
:102a90006c6f000061640000656400002046000067
:102aa000696c000065270000732000004d440000a1
:102ab0003520000077610000733a00003c2f0000d1
:102ac000623e00003c620000722000002f3e0000c9
:102ad0000063000068650000636b0000656400002f
:102ae00000660000616900006c000000546800008e
:102af00065200000447900006e6100006d690000ef
:102b000063200000444e000053200000436c00008e
:102b1000696500006e7400002069000073200000e9
:102b20006e6f000074200000656e0000616200009e
:102b30006c650000642e0000006e00006f6e0000e7
:102b400065000000626c00006f6300006b00000015
:102b500075700000006400006e0000000d0a0000a7
:102b60000d0a00000d4d000069630000726f000047
:102b700063680000697000002054000043500000aa
:102b80002f49000050200000436f00006e660000d7
:102b90006967000020410000707000006c6900004f
:102ba00063610000746900006f6e0000202800005f
:102bb000763500002e340000322c0000204a000040
:102bc000756c000020310000392000003230000018
:102bd00031320000290d00000a0d00000a0000003b
:102be000093100003a20000043680000616e0000d7
:102bf00067650000207300006572000069610000d5
:102c00006c2000006e7500006d62000065720000af
:102c10003a090000090000000d0a00000932000016
:102c20003a20000043680000616e00006765000004
:102c3000206800006f730000742000006e610000c7
:102c40006d6500003a09000009090000000d000050
:102c50000a090000333a00002043000068610000c8
:102c60006e6700006520000073740000617400004e
:102c700069630000204900005020000061640000ea
:102c80006472000065730000733a000009090000d7
:102c9000000d00000a090000343a00002043000043
:102ca000686100006e67000065200000737400001a
:102cb0006174000069630000206700006174000017
:102cc0006577000061790000206100006464000005
:102cd00072650000737300003a090000000d0000e7
:102ce0000a090000353a0000204300006861000036
:102cf0006e670000652000007374000061740000be
:102d00006963000020730000756200006e650000ba
:102d1000742000006d610000736b00003a09000030
:102d2000090000000d0a0000093600003a200000ea
:102d300043680000616e00006765000020730000ba
:102d4000746100007469000063200000707200006c
:102d5000696d00006172000079200000444e00009f
:102d60005320000073650000727600006572000059
:102d70003a090000000d00000a090000373a00007f
:102d800020430000686100006e67000065200000bd
:102d90007374000061740000696300002073000018
:102da000656300006f6e00006461000072790000ce
:102db000204400004e5300002073000065720000a4
:102dc00076650000723a0000090000000d0a00005c
:102dd000093800003a200000004400006973000038
:102de000004500006e000000616200006c6500009c
:102df000204400004843000050200000262000002e
:102e000049500000204700006c650000616e000022
:102e1000696e0000673a000009090000444800009c
:102e2000435000002069000073200000637500001b
:102e300072720000656e0000746c00007920000062
:102e4000006500006e610000626c000065640000b7
:102e50000064000069730000616200006c6500009e
:102e6000640000000d0a0000093900003a2000004b
:102e7000446f0000776e00006c6f0000616400001a
:102e8000204d00005046000053200000696d0000f6
:102e900061670000652e0000000d00000a090000b7
:102ea000303a0000205300006176000065200000e9
:102eb0002620000051750000697400002e000000fb
:102ec0000d0a0000456e00007465000072200000cd
:102ed000612000006d6500006e7500002063000039
:102ee000686f000069630000653a00002000000080
:102ef0000d0a0000004e00006577000020730000fe
:102f000065740000746900006e6700003a200000dc
:102f1000004900006e760000616c000069640000ea
:102f2000206900006e700000757400002e0d000016
:102f30000a0000005365000074740000696e000010
:102f40006773000020730000617600006564000074
:102f50002e0d00000a0000000d0a0000546f000052
:102f60006f2000006d7500006368000020640000a1
:102f700061740000612e00000d0a00000061000075
:102f8000646d0000696e0000005400006f6f000067
:102f9000206d00007563000068200000646100007f
:102fa000746100002e0d00000a0000006d69000031
:102fb000637200006f630000686900007000000029
:102fc0001b5b0000316d0000001b00005b31000046
:102fd000303b000031350000660000001b5b000044
:102fe000313100003b32000031660000001b000060
:102ff0005b310000323b0000313800006600000009
:103000001b5b0000313300003b31000030660000e4
:10301000001b00005b310000343b00003166000003
:10302000001b00005b3200004a1b00005b33000005
:10303000316d00001b5b0000316d00004d69000028
:10304000637200006f630000686900007020000078
:10305000546500006c6e0000657400002053000091
:10306000657200007665000072200000312e0000bd
:10307000311b00005b3000006d0d00000a280000cd
:10308000666f000072200000746800006973000021
:1030900020640000656d00006f2c000020740000ab
:1030a000797000006520000027610000646d000059
:1030b000696e000027200000666f0000722000008b
:1030c00074680000652000006c6f000067690000f4
:1030d0006e200000616e000064200000276d00007b
:1030e00069630000726f000063680000697000008f
:1030f00027200000666f0000722000007468000046
:10310000652000007061000073730000776f00009d
:10311000726400002e2900000d0a00004c6f0000b0
:10312000676900006e3a0000200000005061000056
:1031300073730000776f0000726400003a20000093
:10314000fffd00002d0000000d0a0000416300009b
:10315000636500007373000020640000656e00006a
:1031600069650000640d00000a0d00000a000000ff
:103170000d0a00004c6f00006767000065640000e6
:10318000206900006e20000073750000636300007a
:103190006573000073660000756c00006c790000b8
:1031a0000d0a00000d0a00000d0a00005072000018
:1031b00065730000732000002771000027200000c5
:1031c000746f00002071000075690000740d00002c
:1031d0000a0000000d0a0000534e00005450000089
:1031e00020540000696d0000653a000020200000b6
:1031f0002020000028640000697300006162000064
:103200006c650000642900000d0a0000416e00009a
:10321000616c00006f6700003a2000002020000071
:10322000202000002020000020200000202000009e
:103230002020000031300000323300000d0a000071
:1032400042750000747400006f6e0000733a000055
:10325000202000002020000020200000202000006e
:103260002033000020320000203100002030000018
:103270000d0a00004c450000447300003a20000095
:1032800020200000203700002036000020350000fc
:1032900020340000203300002032000020310000e4
:1032a000203000000020000020200000202000002e
:1032b0002020000020200000200000000d0a000057
:1032c0000d0a0000476f00006f6400006279000083
:1032d000652100000d0a00000000000078a4000035
:1032e0006ad7000056b70000c7e80000db70000096
:1032f00020240000eece0000bdc10000af0f000092
:103300007cf500002ac60000874700001346000035
:1033100030a800000195000046fd0000d89800008c
:1033200080690000aff70000448b0000b15b000033
:10333000ffff0000bed700005c89000022110000e2
:10334000906b00009371000098fd00008e43000018
:1033500079a6000021080000b449000062250000a1
:103360001ef6000040b3000040c00000515a0000ab
:103370005e260000aac70000b6e900005d1000004c
:103380002fd60000531400004402000081e6000024
:10339000a1d80000c8fb0000d3e70000e6cd000084
:1033a000e1210000d607000037c30000870d0000b0
:1033b000d5f40000ed1400005a45000005e90000b6
:1033c000e3a90000f8a30000effc0000d902000010
:1033d0006f6700008a4c00002a8d0000423900000f
:1033e000faff000081f600007187000022610000f2
:1033f0009d6d00000c380000e5fd000044ea00006f
:10340000bea40000a9cf0000de4b0000604b00000e
:10341000bbf6000070bc0000bfbe0000c67e00000e
:103420009b280000fa270000a1ea00008530000078
:10343000efd40000051d00008804000039d0000012
:10344000d4d90000e5990000dbe60000f87c00001c
:10345000a21f000065560000acc40000442200001a
:1034600029f4000097ff00002a430000a723000072
:1034700094ab000039a0000093fc0000c359000089
:103480005b65000092cc00000c8f00007df4000012
:10349000efff0000d15d0000848500004f7e00003a
:1034a000a86f0000e0e600002cfe000014430000be
:1034b00001a30000a1110000084e0000827e000060
:1034c00053f7000035f200003abd0000bbd2000007
:1034d000d72a000091d3000086eb0000070c000003
:1034e00011160000070c000011160000070c000068
:1034f00011160000070c000011160000050900005d
:103500000e140000050900000e140000050900005b
:103510000e140000050900000e140000040b00004a
:1035200010170000040b000010170000040b00002f
:1035300010170000040b000010170000060a00001e
:103540000f150000060a00000f150000060a000013
:103550000f150000060a00000f150000436f000061
:10356000756c0000642000006e6f00007420000085
:1035700072650000736f00006c760000652000002b
:103580005365000072760000657200004e61000015
:103590006d6500005b5d0000207400006f2000007e
:1035a0004950000020610000646400007265000062
:1035b000737300002e0d00000a0000000d0a0000c9
:1035c0000d0a0000436f00006e6e0000656300008e
:1035d000746900006e6700002075000073690000c8
:1035e0006e67000020420000657200006b650000fd
:1035f0006c65000079200000536f0000636b0000d1
:103600006574000073200000544300005020000047
:1036100041500000492e00002e2e00000d0a00002f
:1036200000200000202000004e6f000074650000a4
:103630003a200000746800006973000020640000f4
:10364000656d00006f200000776900006c6c000061
:10365000206400006f2000006e6f0000746800009e
:10366000696e0000672000006966000020610000ac
:103670006e200000756e000064650000726c000032
:10368000796900006e67000020540000435000007c
:103690005f50000055520000504f0000534500009d
:1036a0005f420000455200004b4500004c450000c1
:1036b000595f0000434c0000494500004e54000093
:1036c0002074000079700000652000000d0a0000e1
:1036d00020200000207300006f6300006b65000075
:1036e0007420000069730000207500006e61000006
:1036f00076610000696c0000616200006c6500008a
:103700002c2000006173000020640000656300004d
:103710006c610000726500006420000062790000a6
:103720002074000068650000205400004350000031
:10373000536f0000636b000065740000496e000069
:1037400069740000696100006c6900007a6500001e
:10375000725b00005d200000617200007261000079
:1037600079200000696e0000200d00000a20000092
:103770002020000054430000504900005043000046
:103780006f6e000066690000672e0000682e000062
:103790000d0a00000d0a0000007700007777000096
:1037a0002e6700006f6f0000676c0000652e000040
:1037b000636f00006d0000000d0a00000d0a00009c
:1037c000436f00006e6e00006563000074690000c6
:1037d0006e67000020750000736900006e670000ce
:1037e000204d000069630000726f000063680000f4
:1037f0006970000020540000435000002041000088
:10380000504900002e2e00002e0d00000a0000007e
:1038100047450000542000000020000048540000ec
:10382000545000002f3100002e3000000d0a00001f
:10383000486f0000737400003a200000000d000083
:103840000a4300006f6e00006e65000063740000a4
:10385000696f00006e3a0000206300006c6f00008a
:10386000736500000d0a00000d0a0000002f000023
:103870007365000061720000636800003f61000032
:10388000735f0000713d00004d690000637200002d
:103890006f6300006869000070260000617300001b
:1038a0005f730000697400006573000065610000cb
:1038b00072630000683d00006d69000063720000e3
:1038c0006f63000068690000702e0000636f0000e5
:1038d0006d000000484500004c4f0000204d0000e6
:1038e00043480000504200004f4100005244000095
:1038f0000d0a000000450000484c00004f20000069
:103900004d43000048500000424f0000415200006b
:10391000440d00000a00000041550000544800001a
:10392000204c00004f470000494e00000d0a0000e7
:10393000000d00000a0000004d410000494c00004d
:1039400020460000524f00004d3a00003c000000ad
:103950003e0d00000a0000005243000050540000d9
:10396000205400004f3a00003c0000004441000099
:10397000544100000d0a000000460000726f000074
:103980006d3a0000200000000d0a0000546f000096
:103990003a200000000d00000a430000433a0000f6
:1039a000200000000d0a000053750000626a00004c
:1039b00065630000743a0000200000000d0a00005a
:1039c0002e0d00000a0000000d0a00002e0000006d
:1039d00051550000495400000d0a0000000000008d
:1039e0003a20000057650000206100007265000069
:1039f0002063000075720000726500006e740000a4
:103a00006c790000206100006368000069650000b7
:103a1000766900006e670000200000002020000092
:103a20002020000020200000200000003030000096
:103a30002062000079740000657300002f7300009d
:103a4000656300006f6e00006420000054580000a1
:103a500020740000687200006f7500006768000045
:103a600070750000742e00000d0a00000020000098
:103a70006279000074650000732f00007365000018
:103a8000636f00006e6400000d0a0000000000007b
:103a90006d610000696c000000220000534d0000c1
:103aa0005450000020530000657200007669000049
:103ab00063650000222000003c6d00006368000088
:103ac000706200006f6100007264000040700000ce
:103ad000696300007361000072650000676f000099
:103ae0006f6400002e6300006f6d00003e00000058
:103af000486500006c6c00006f200000776f0000cc
:103b0000726c00006421000020200000534d000072
:103b1000545000002054000065730000742e000013
:103b200000000000000000007d00000064000000b4
:103b3000010000001400000014000000020000005a
:103b4000c80000009600000005000000c80000004a
:103b5000010000000700000000010000000100005b
:103b600008000000c8000000c800000008000000b5
:103b7000c8000000c800000009000000c8000000e4
:103b8000c80000000a000000190000001400000036
:103b90004d43000048500000424f000041520000d9
:103ba000440000000d0a00004e6500007720000070
:103bb000495000002041000064640000726500006c
:103bc000737300003a200000000d00000a0000009e
:103bd00000040000a3000000000000000d0a000027
:103be00044480000435000002f5000006f77000051
:103bf0006572000020650000766500006e740000ac
:103c0000206f0000636300007572000072650000a1
:103c100064000000706f00006f6c00002e6e0000ea
:103c2000747000002e6f000072670000000000003a
:103c3000706f00006f6c00002e6e0000747000004a
:103c40002e6f000072670000000000004d50000061
:0c3c5000465300000201000000000000cc
:020000040000fa
:103c5c008040780078cfbf00814f500018003200b0
:103c6c00e24f400008003200e2c1b3000440bc0047
:103c7c006384200003004100028020001d00090025
:103c8c0032587800e001b1008000fd0078efb700f9
:103c9c008000fd00e2cf40000900320001407800b6
:103cac00e2c1b3000440bc006084200080004100ed
:103cbc00028020001d00090031597800e101b1009b
:103ccc0000000600889fbe008a1f78000004780060
:103cdc00814278008204780004057800e0cf51001e
:103cec0015003200e1cf510029003a00e0cf52001c
:103cfc0007003200e1cf520025003a000a0178009b
:103d0c000800be00aa0902000000000020003700d5
:103d1c00e10f44000300320008007800f258020062
:103d2c00000000008a007800090078003e5e020066
:103d3c00000000001600370083cf52000c00320048
:103d4c00e1cf520012003a00e18f44000300320030
:103d5c000900780028590200000000008a00780051
:103d6c00080078009a590200000000000800370093
:103d7c000a0178000800be00dc5c020000000000b4
:103d8c005e59020000000000e00f5000fcff320002
:103d9c004f0578004f04be000000060079cfbf002d
:103dac0081f7200091407800814f500017003200bd
:103dbc00e24f40000b003200e2c1b3000440bc00f3
:103dcc00fc02410061842000610079008002b10096
:103ddc008402200013c0b300e2812000e1c07a000d
:103dec00b8ff070078cfbf0079efb7000240800022
:103dfc008202b10084022000c3812000934178002c
:103e0c0011c0b300e0812000aeff070000000600e7
:103e1c00881f78000004780018007800d082020017
:103e2c0000000000000c780018009000d082020006
:103e3c00000000001004980028009000b8009000ca
:103e4c00d882020000000000200498003104980081
:103e5c0048009000d8009000d882020000000000ba
:103e6c00400498005104980078009000d082020021
:103e7c00000000007004980008089000d082020036
:103e8c0000000000000c980018089000d08202007e
:103e9c0000000000100c98004f0478000000060091
:103eac002600fa00889fbe008a1f780080447800a4
:103ebc0001457800b9ff0700618064000200320000
:103ecc001968a8000904a10018a8a90018c8a9001d
:103edc0018e8a9001928a9001948a9001908a9006f
:103eec000058020000000000e00f5000fcff320000
:103efc006684640054003a003040800052418000d7
:103f0c00820f5000430032001300360081418000c4
:103f1c0002045000810f54000100360001047800a7
:103f2c0010428000800f5400020036001948a8008f
:103f3c000004780008027800c381200093417800c7
:103f4c008040eb0010a020005eff07000800780006
:103f5c002a28b4002f0037001140800082815000c5
:103f6c00a3b79f0008408000088451008141800065
:103f7c0000044400810f5400010036000104780055
:103f8c0010428000800f5400020036001948a8002f
:103f9c0000047800888f510001003600a8b79f00fc
:103fac002fb29700c3812000934178008040eb0032
:103fbc0010a0200043ff07002fb29700040254000a
:103fcc00a4b79f000900320010a020000208b40022
:103fdc005141800001005000c381200093417800c2
:103fec00024080008040eb0036ff0700504180000b
:103ffc00000044005041880011408000810f5000a7
:10400c000400390002408000810051000080400013
:10401c005041880000802000c1408000008060007a
:10402c000700320080418000800f540004003200f1
:10403c0010428000800f5400010032000904a000df
:10404c00e00f540003003a00e380640016003200d5
:10405c000004eb00080078003028b500e00f540095
:10406c00010032000934a000610565000400320033
:10407c004468ef0041422f00f14088002028ef00f7
:10408c00b4bb020000000000f2408000034180003d
:10409c0000024100818249007440880085408800fc
:1040ac001888a8002f0037000a85fb006200650005
:1040bc00c8408000810f5000100032000840e8001a
:1040cc006700600081ff2f0001046400000474008d
:1040dc00c84088000080eb008080eb00124180001b
:1040ec002341800002014000838148001241880076
:1040fc0023418800180020001a0037007004640067
:10410c00800f54001700320061056500800f5500c8
:10411c000b003a0044c8bf008a4f50000800320020
:10412c000040e90044e8b700f04080000141800005
:10413c008100d1000080d300f0408800014188004c
:10414c00b4bb020000000000f2408000034180007c
:10415c00000241008182490074408800854088003b
:10416c000004eb0075418000b5b79f0060418000f2
:10417c00c0b79f001041800021418000d0b79f0044
:10418c00e1b79f003241800043418000f2b79f00ad
:10419c0083bf9f009fb99700f2ff2300028161004b
:1041ac0003ff2f000301610092bf9f00b9f79f002e
:1041bc000001eb00c2bf9f0008014000e0814800f5
:1041cc0012418800234188008984fb0062856400c9
:1041dc00140032007082640003003a006022b800c0
:1041ec00f4b79f0085bf9f0004428000620262000a
:1041fc000500320061005000e0805800d0b79f00ed
:10420c00e1b79f00070037001000200001002000dc
:10421c000202400083824800144188002541880036
:10422c004028a800e1846400010032004008a80086
:10423c005040800061408000810f50000500390023
:10424c00224080008280400012408000828050001a
:10425c00010037008100e90000805000a0bf9f00e2
:10426c004458020000000000f1032000810f5000b0
:10427c0003003e008002eb00a5af9f000300370057
:10428c0001fc2f0081004000a1af9f002fa89700d8
:10429c00afb89700808f500001003600a0bf9f0080
:1042ac007a805700dafe0700f40444001fb8970028
:1042bc00f2f02f00020060000005b30090bf9f00d9
:1042cc00e00f55000a003200f804440021c0b3008e
:1042dc00e1d79f0041c0b300f1d79f00218021009e
:1042ec00c1af9f00020060000006b30090bf9f00aa
:1042fc00c1d22000914078008180fb00d2d22000f6
:10430c00124178004811dd00e3d22000934178007f
:10431c008381fb002fcdbf004800dd00030070003f
:10432c0001017100d2af9f00e0af9f00a24180005d
:10433c00b3418000f2af9f0083b79f000040eb00b9
:10434c00a0e79f0068c0b300b8e79f00a9b79f0023
:10435c0009007800d082020000000000a0b79f0086
:10436c00c1002000a0fd2f000f00400002830200be
:10437c0000000000000078000080ea008180ea0064
:10438c00b0bf9f00909d2000f2580200000000007a
:10439c0009017800884078004083200066b702004d
:1043ac0000000000410120007a8057003e5e0200b0
:1043bc0000000000e00f5500050032004100200015
:1043cc0060fd2f000f0040003e5e02000000000068
:1043dc00d09e20002859020000000000090078003f
:1043ec00345a020000000000a0af9f00d09f2000b4
:1043fc00f2580200000000002100200040fd2f00b8
:10440c000f0040003e5e020000000000045b020052
:10441c00000000004f0578004f04be000080fa0039
:10442c00000006000200fa00889fbe00c0002000b9
:10443c0002b80200000000007459020000000000e5
:10444c00000fb2004204de007444540080212000ae
:10445c0038003200710020000000eb009a59020075
:10446c00000000003000370074590200000000000a
:10447c0080407800e0cf50002d0032000844e90065
:10448c00e1cf500028003200e2cf50001a003a0071
:10449c0080212000814f5400260036000000eb00e4
:1044ac00d0bf9f007459020000000000e44f500080
:1044bc0006003a007459020000000000b0ff9f0093
:1044cc007459020000000000a0ff9f00dfb89700a5
:1044dc008021200072212000828f500015003600b0
:1044ec0001007800415b2000810f50001100360064
:1044fc00010078000f003700e14f54000c0036002b
:10450c00745902000000000080447800894f540068
:10451c00070039008980fb000000eb009a5902006b
:10452c000000000009445400e04f5400ceff3a0054
:10453c00802120004f04be000080fa00000006001d
:10454c0016fe07002e08f8001a08f900004080003b
:10455c003040880040408800114080005140880065
:10456c0061408800c240800068016100d1002000d9
:10457c000100320041002000b14088001808a90059
:10458c001828a9001848a9001888a90018a8a9007b
:10459c0018c8a90018e8a9001908a9001928a90029
:1045ac001948a9001968a9001988a8004008a90091
:1045bc004028a9004068a9004088a9005041880003
:1045cc00be7e02000000000010418800be7e02008a
:1045dc0000000000204188003ea8ef0010002000e1
:1045ec008041880000000600889fbe008a9fbe00a4
:1045fc008c9fbe008e1f7800d07b8000e00f500097
:10460c0007003a001c7f020000000000f17f200030
:10461c0001006000f13fb10001004000d07b880038
:10462c00c20320008000eb0040952000b809020076
:10463c000000000099c0b300cbfb20000044eb004d
:10464c002ad929008eef2100010037008d05780052
:10465c00084078007efd07000840780062c0b30077
:10466c000440bc000280e800ea01780064004100cc
:10467c00ea007800020645001c409000e04f500014
:10468c0006003a0081864100ad02b0008b864600e0
:10469c008e8f56000200360016003700ffff3700e1
:1046ac001ce8b7008b02b0000b4088008301e800c7
:1046bc008b8541001b40880081804500214088008b
:1046cc00d0002000b04088001868a900b3fd070096
:1046dc00801f78001c40780045e8b7004f00780038
:1046ec0097ff07000844e8008944e900d7ff3a0027
:1046fc0001003700ffff37004f0778004f06be0060
:10470c004f05be004f04be00000006000400fa0076
:10471c00889fbe008a9fbe008c1f780090bf9f00b0
:10472c00a1bf9f008244780083057800044678007e
:10473c009ac0b3000044eb000840780044fd070029
:10474c00b0408000ed0f500066003a0093fd07006a
:10475c0045c8bf008c4f500062003a0080212000f9
:10476c0010428800e0cf540006003a007b418800dc
:10477c001868a80040002000b0408800db4088008a
:10478c005c00370000c02f007a0fb40081f82000c5
:10479c00810f50000200360000402000d07b8800c2
:1047ac00d07b8000704188000000e800d07b88003e
:1047bc006b418800b4bb0200000000007040880010
:1047cc00814088001888a8000980fb0001002000a7
:1047dc0061005000e0805800e30f5000e08f58005b
:1047ec0044003e0000600100030037000200370067
:1047fc0010003700210037001fb89700afb89700a2
:10480c00a0418800b14188000914a2008984fb00f2
:10481c008904e900cf4cde00c24cdd000042800070
:10482c000020a10009007000004288001628ef004b
:10483c00300037002fb897009fb8970000804000d9
:10484c008b0540007041800080856d00db40880046
:10485c001fb89700afb89700a0418800b1418800fd
:10486c004468ef00d1032000f14088002028ef00bd
:10487c0020002000b04088001e0037001fb89700b1
:10488c00904078008181fb00104190004811dd00c0
:10489c0003017100a04190008381fb00b0409000a7
:1048ac00c808dd0083807000810041008b854000ca
:1048bc007141800081856d00db40880041832000c0
:1048cc0009000900b0587800a000b1005000200089
:1048dc00b040880011c0b30020c0b30070fd0700c9
:1048ec00040037000844e8000a45e90092ff3a004a
:1048fc00e8cfb300084078004f0678004f05be00a3
:10490c004f04be000080fa0000000600881f7800eb
:10491c0018002000e84f500008003e00ccfc0700b7
:10492c0000002100c14080000080600002003200c5
:10493c001988a900010037000004780008007800ed
:10494c004f04780000000600804078000000eb0067
:10495c00e8cf500007003e0001407800bcfc070087
:10496c0010002000b1408000e78f500001003200a1
:10497c000000eb0000000600e84f50003b003e003a
:10498c00b3fc07000a08f8000c08f900b0408000de
:10499c0001002000ee0f5000e08f58002f003e0069
:1049ac0000600100100037000d0037000e003700ca
:1049bc000d003700290037000b0037000c003700c2
:1049cc000b00370025003700240037002300370088
:1049dc001300370021003700200037001c0037007f
:1049ec00c289020000000000d5fe0700000006008e
:1049fc0011c0b30010c1b30029fd07008041800035
:104a0c00e00f500004003200504180003140800023
:104a1c00808f5000f6ff3a00800020000d00370018
:104a2c0011c0b30010c1b3001dfd07008041800010
:104a3c00e00f5000040032005041800031408000f3
:104a4c00808f5000f6ff3a00c000200001003700b4
:104a5c00d0002000b0408800000006008040eb0031
:104a6c0040c1b3000efd0700b5fe070000000600b4
:104a7c00881f780000447800e84f540005003e0081
:104a8c000840780072fc07001868a90008407800fc
:104a9c00b9ff07004f047800000006008000eb000f
:104aac00e84f50000f003e0069fc0700bbfc0700fc
:104abc00a0418000b1418000804c8800914c88005e
:104acc00c0418000d1418000a04c8800b14c8800ce
:104adc003c08f8009809f9002c08f8009a09f9002c
:104aec00019920000100780000000600e84f5000fa
:104afc0009003e0056fc0700a8fc0700504180004e
:104b0c0031408000808f50000300320011c0b30090
:104b1c0000c1b300e2fc070000000600881f78000b
:104b2c000004eb00e84f500012003e0048fc070068
:104b3c0016c8bf00e74f500002003200eb4f500088
:104b4c000c003a003040800048408000880f500034
:104b5c000600390011408000010444000804e900fb
:104b6c000140800001045400010037000804e900f2
:104b7c0000045400080078004f0478000000060080
:104b8c000200fa00889fbe008a1f7800004478005b
:104b9c0081ff9f000005eb00e84f540034003e00fd
:104bac00084078002afc070008407800dbff07006b
:104bbc00800478008a8f54002d003200e18f54005d
:104bcc0002003a0008407800c8ff0700c04080008f
:104bdc000010b20009003a0001408000010078008a
:104bec000208b5000000d100808f540003003e0085
:104bfc0008407800bdff07001908a8001400200029
:104c0c008441780068815700c18120009140780070
:104c1c00304080002bfc07000608ec003040880078
:104c2c0011408000810f5000020039000008f8008c
:104c3c000608f900e18f540004003a00084078009f
:104c4c00aaff07000905780009003700c040800062
:104c5c000002b2001a00200005003a0018a8a800b3
:104c6c00bcbb0200000000006900400090408800be
:104c7c000a0078004f0578004f04be000080fa004f
:104c8c0000000600889fbe008a9fbe008c9fbe005d
:104c9c000044780001067800820678008004eb005e
:104cac00e84f540042003e0008407800e8fb070043
:104cbc000840780099ff070080057800898f55001f
:104ccc0003003a000840780088ff070038003700de
:104cdc008b0478008d8f5500010036008d04780010
:104cec00c04080000010b20009003a000140800072
:104cfc00010078000208b5000000d100808f55003b
:104d0c0003003e000840780078ff07001908a8004f
:104d1c003040800011408000008144000005eb0011
:104d2c00810f51000b003900008550000a027800f9
:104d3c0013c0b3000c017800c181200091407800b1
:104d4c00e0fb07000a0646008a8454000008f800bd
:104d5c000608f9000902780013c0b3000c017800b2
:104d6c00c18120009140780030408000d5fb0700c5
:104d7c00090078000628b4008d8f550003003e0012
:104d8c000840780059ff070008003700c040800039
:104d9c000002b20005003a0018a8a800bcbb020033
:104dac000000000069004000904088008904450024
:104dbc00090078004f06be004f05be004f04be0030
:104dcc0000000600889fbe00804478000104780033
:104ddc0008007800f40902000000000000017800cf
:104dec008800780009407800a6ff07000000440006
:104dfc004f04be0000000600889fbe0000447800ef
:104e0c000000eb00e84f540008003e00084078001a
:104e1c008ffb07000208ed00094080008904500058
:104e2c00084078003dff0700008054004f04be008e
:104e3c0000000600804078000000eb00e8cf500036
:104e4c000e003e000140780081fb070050408000be
:104e5c0061408000810f50000200390001005000b9
:104e6c000000060022408000020040000000e80024
:104e7c0081005000104080000080500000000600af
:104e8c00881f78000044780008407800e9ff07008c
:104e9c00e00f500007003200084078006cfb070060
:104eac000a08f8000c08f90011c0b30000c1b300e7
:104ebc00fbfb07004f04780000000600889fbe0033
:104ecc008a1f78008044780001057800094078003a
:104edc00d8ff070000047800e00f54001f003200d8
:104eec00094078005afb0700e00f5500070032001c
:104efc0014002000c38120009341780062408000a0
:104f0c00844078000a0078006efb07000c08ec0067
:104f1c006040880021408000810f50000200360064
:104f2c000208f8000c08f900e10f540002003a00e6
:104f3c001948a80009003700c04080000002b200e8
:104f4c001800200005003a0018a8a800bcbb0200fd
:104f5c00000000000003b0009040880008007800ba
:104f6c004f0578004f04be0000000600889fbe006d
:104f7c008a9fbe0000447800810478008205780086
:104f8c0008407800abff070000057800e00f5500e3
:104f9c0034003200084078002dfb07000a0478002a
:104fac008b0f5500010036000b0478006240800026
:104fbc0020408000820044008005eb00808f500070
:104fcc000e0036008005e80082855500e08f540005
:104fdc00070032000b027800c38120009341780057
:104fec0011c0b3000900780036fb07008b84440025
:104ffc000b0454000208f8000c08f900e08f540070
:10500c000700320008027800c38120009341780029
:10501c006240800011c0b3000900780029fb070032
:10502c00080078000c28b4000884450008055500d9
:10503c00880f550002003e001948a8000a003700ee
:10504c00c04080000002b20007003a0018a8a80077
:10505c00bcbb0200000000000003b00090408800c0
:10506c00010037000a047800080078004f05be00e4
:10507c004f04be0000000600889fbe00004478006c
:10508c000000eb00e84f540008003e000840780098
:10509c00effa07001940800020408000890450007e
:1050ac000840780063ff0700008054004f04be00e6
:1050bc00000006000200fa00889fbe008a1f7800dc
:1050cc00804478000105780002047800e8cf540091
:1050dc002d003e00e00f54002c00320009407800f7
:1050ec00c3bf9f00dafa07000940780051ff0700a0
:1050fc00cfb9970088804100808f500001003600a6
:10510c00030450006240800002814100294080006d
:10511c00890f5100040036001040800000805400bc
:10512c000080ea00000141008904e80082845400f8
:10513c00890f540006003e0008027800c38120004d
:10514c009341780011c0b3000a0078000c003700be
:10515c0009027800c38120009341780011c0b3008c
:10516c000a007800d7fa07000a80440009025400ac
:10517c00c3812000934178001240800011c0b3001d
:10518c00d0fa0700010037000004eb00080078009b
:10519c004f0578004f04be000080fa0000000600a6
:1051ac000200fa0081017800120020008f80e900d3
:1051bc00c0ff07006ff897000080fa00000006009f
:1051cc004f03b000889fbe008a9fbe008c9fbe001c
:1051dc008e1f78000044780091b79f00d2b79f00d3
:1051ec0085b79f000000eb00e84f5400b3003e0071
:1051fc00800f5100b100320008407800e3b79f00e7
:10520c00f4b79f0092fa07000840780009ff0700e6
:10521c00efb19700830250000080eb007fb2970043
:10522c00dfb09700818f5200a4003900e00f5200cc
:10523c0003003200848f5200010036008402780093
:10524c00644080000482410026408000860f52009a
:10525c000400360017408000870353008783ea0060
:10526c00070242000603e800040353001fb5970031
:10527c00cab79f003a467800cab79f000fb0970094
:10528c00e00f500006003200f7c9b3008743460018
:10529c00f9cf530002003e0007ceb300074646008c
:1052ac00a3b79f00b4b79f005fb79700cfb5970027
:1052bc008004eb0008c2b300ff0f530001003e0056
:1052cc00064478000880fb00850f50000100360072
:1052dc00054478008883fb0007027800c381200016
:1052ec00934178003fb1970011c0b30000fc2f0030
:1052fc000f004000f5b79f0086bf9f00e7b79f00e7
:10530c0070fa07000fbb9700efb397000703530029
:10531c00ffb2970004003200bfb0970087804000b6
:10532c00b1b79f000300370013408000b3b79f0054
:10533c000083eb008046eb000fb59700e00f5500a3
:10534c0034003a008a4078005fb197005100370072
:10535c000d80fb0001fc2f008f804000008140007d
:10536c0092407800fac9b3000ac04000f94f5000cf
:10537c0002003e0000ceb30000c94000924f560020
:10538c0012003a000e07e90007003a00dfb0970060
:10539c0061811000afb19700030041008d80fb00cc
:1053ac0001004000450037003b467800fac9b300c5
:1053bc000a40460019002000f94f500013003e002f
:1053cc0000ceb3000046460010003700e08f5400ba
:1053dc00090032009fb0970011467800fac9b3005b
:1053ec000a404600f94f500005003e0000ceb300c5
:1053fc000046460002003700030778000300370020
:10540c0003077800840578008004eb008d46e800e3
:10541c00020037004fb29700dfb1970088cf5600db
:10542c00cbff39001d0037000185fb0003fc2f006a
:10543c008f81410063407d00804f56000b003a0085
:10544c000e07e90006003a005fb0970061011000fa
:10545c00afb09700810141000a804100170037006e
:10546c003b4678001900200009003700e08f5400fb
:10547c00060032009fb197001346780002077800af
:10548c00cfb597008004eb000100370002077800cd
:10549c008140e80088cf5000e3ff3900878252003a
:1054ac008e8f5200040039002fb597000705450078
:1054bc00aab79f007fff37000080eb004f077800f2
:1054cc004f06be004f05be004f04be004f03b10097
:1054dc00000006000200fa00e1ff9f008402780041
:1054ec000302780082017800120020008f80e9000e
:1054fc0033ff07000080fa0000000600ea8747002f
:10550c00889fbe008a9fbe008c9fbe008e1f7800b5
:10551c009bc0b3000045eb008c9628009d0020003a
:10552c000a407800caf90700c040800001602000e2
:10553c00010060000a003200005802000000000068
:10554c00e00f500006003200c04080004a00de0030
:10555c0061006000f0b79f0008c1b3000200370083
:10556c0000447800f0b79f00c04080000002b200f9
:10557c000700320099408000bcbb02000000000014
:10558c00008054004240a90001003c0008c1b30057
:10559c00c04080000004b20007003200a940800027
:1055ac00bcbb020000000000008054004240a90077
:1055bc0001003c0008c1b300b0408000eb0f50006c
:1055cc0009003a00a9408000bcbb020000000000aa
:1055dc00008054004240a90003003c00c0002000a1
:1055ec00b040880018c1b300b0408000e40f5000f8
:1055fc003b003a00d4408000300020000007eb0054
:10560c007471b900f000410049952000e9807800e0
:10561c00e08f500032003200848f50002d003a0091
:10562c0082bf9f00ddf907000fb99700028044008c
:10563c00800078003102be00a4418800b54188008a
:10564c003103be00c6418800d74188009100780024
:10565c00e1418800ea004100e9807800614188005e
:10566c006c01410002824400120020000300200063
:10567c0034034100a4834900364188004741880027
:10568c00b241800082804000a241800082804000b4
:10569c007241800082806800d14088006100200047
:1056ac00b1408800c4fe2f0004f2b9000e01e800de
:1056bc007411b900028144008402b00013c0b3001d
:1056cc00834078007ff907008c29ef0028c1b300d4
:1056dc00050037000e07e8000000e900c8ff3a009b
:1056ec00e04f54000700320011c0b300ffb3970025
:1056fc00e08f5300010032008040eb00084078003e
:10570c00e7f90700c04080007000600024003a00f8
:10571c00b0408000e70f5000e3003a00b4bb020039
:10572c0000000000724080008340800002005000a6
:10573c0083805800dc003300c840800067006400a0
:10574c00e60f50000b003a004344de006144640055
:10575c000a40780088fc07000a40780086fc0700a5
:10576c00e04f5400d0003a00e0002000b040880028
:10577c00cd00370089f9070021c0b30000c1b30088
:10578c00c7f90700b4bb020000000000000146008e
:10579c0081814e007240880083408800c20037002f
:1057ac00b4bb020000000000724080008340800007
:1057bc000200500083805800bb00330077f90700cb
:1057cc00b240800003002000ec0f5100e08f590024
:1057dc008f003e00026001000c00370015003700fe
:1057ec00380037003f003700890037005c00370075
:1057fc00670037006e0037007d003700cc003700a3
:10580c00740037006a00370079003700b289020053
:10581c0000000000e00f50007d003200110020005d
:10582c00b1408800a0418000dc890200000000002b
:10583c0077003700768057000a8a020000000000cb
:10584c00e00f500072003200c2890200000000001c
:10585c0080047800e08f5400120032005fb2970091
:10586c00efb29700a4418800b541880020002000c9
:10587c00b0408800b04180003408b4006141800021
:10588c00010040007141800001006800d040880098
:10589c004468ef00d5032000f54088002028ef0075
:1058ac005b003700b4bb02000000000000034600a0
:1058bc0081834e007640880087408800b94088007c
:1058cc0053003700bcbb0200000000009040880071
:1058dc0040832000d0a50200000000003000200012
:1058ec00180037008183200064805000bca40200a3
:1058fc0000000000e00f500014003a00bcbb020096
:10590c0000000000f24080000341800091408000c4
:10591c0001005000820f50003d00360044c8bf000b
:10592c00e54f500006003e000040e80044e8b70098
:10593c000201410083814900f24088000341880044
:10594c0020002000b04088003100370050002000bb
:10595c00b040880028c0b3008004eb004c00370036
:10596c0028c0b3008004eb0044c8bf00e34f5000d4
:10597c002d00360040c0b30044e8b70007242400d3
:10598c00f7408800f7002000074188002600370008
:10599c0044c8bf00e14f500068003600c940800089
:1059ac00e884640028c0b3001c003200600037009b
:1059bc0008c1b3008004eb0044c8bf00e44f5000a2
:1059cc001900360080002000b040880018c1b300d8
:1059dc001200370048c1b3001900200044c8bf00b2
:1059ec00e44f50000d003e0008c1b3000600370024
:1059fc0048c1b3001900200044c8bf00e44f500058
:105a0c0006003e0018c1b3008004eb00060037000e
:105a1c00e04f5400240032008004eb007fb097006c
:105a2c00e00f50001a0032004468ec00f040800097
:105a3c00014180000000400081804800f040880057
:105a4c00014188005241800041408000010051001a
:105a5c00810f510004003100024080000200500010
:105a6c00124080000200400012418000234180005f
:105a7c0000015100e0815900124188002341880047
