:020000040000fa
:080000000002040000000000f2
:020000040000fa
:100400000f3821000e7f22000e018800000000003e
:100410000c000700c0cf2f000100200011000700d2
:10042000000020000000e000020032000000020096
:1004300000000000de030200000000000040da00bf
:100440000000fe004440a90020e421000000e0007c
:100450000300320000002000a00188004440a800f2
:100460000000060091018800800078000000eb0089
:1004700015003700e280400032a0b4009101ba00bc
:10048000e280400032a0b4009102ba00e280400055
:1004900032a0b4000002eb00472bde00f507b200eb
:1004a000602ce10004003a000059eb008301e900f0
:1004b000fdff3e00040037006128e100010032002a
:1004c0000082eb00040007001101ba000200e00006
:1004d000e8ff3a00000006003159ba008301e90044
:1004e0000c0032002159ba008301e90008003200f3
:1004f0000400e00003003a00e280400032a0b400b3
:10050000f5ff370011d9ba008301e900faff3a007c
:100510008100e800e180400032a0b4000000060045
:100520000000000000000000004006000000000085
:1005300000000000004006000c00fa006c8057002c
:10054000f1092b000a00090031587800b000b10011
:1005500070b820009cfa0200000000000040eb0090
:100560001aec020000000000b2b320001241780033
:10057000b1b1200087cbbf0064fb02000000000087
:1005800011c0b30087cbbf00dafb020000000000ff
:1005900010c0b30094e8020000000000b1c0b30036
:1005a0006c805700eee902000000000000c0eb0084
:1005b0008ce9020000000000f0c1b300a8e90200cd
:1005c0000000000080c2b300beea0200000000008c
:1005d0003c4bed00e14f500004003e0011c0b30061
:1005e00087cbbf00f6fb020000000000d4b720005c
:1005f00014427800d3b32000e2b720001241780003
:10060000c1b320009140780087cbbf001efc0200e0
:10061000000000009e1102000100000080ae2000da
:10062000d6e402000000000030c0b3000ced020070
:100630000000000087cbbf00061002000100000090
:100640000080fa0000000600ea874700889fbe008d
:100650008a9fbe008c1f78008e1f78007487570019
:1006600000afbe004ac0b30008c1b3008044eb0035
:10067000ecc2b3000980fb00000047001040780086
:100680000080fb00f480570078d8020000000000d2
:1006900074805700cc120200010000008045eb007e
:1006a000070037000880fb00a2da2000f481570021
:1006b000e3c07800017178000844e8008b45e80049
:1006c00074805700a80a0200000000008b80fb0025
:1006d000808f5000f3ff3900e3cf54001000320048
:1006e0000880fb00a1da20008c7078000844e80044
:1006f000301302000100000080457800e0cf550073
:10070000fbff3a00e00220007e130200010000001f
:100710008944e8000a45e9008b4f5500d5ff3a00af
:10072000ff4f540004003e000884fb000040eb0033
:10073000a1da200080707c00140e0200010000008d
:100740004f0778004f0678004f05be004f04be00eb
:10075000af00b100000006000600fa00889fbe004e
:1007600000047800405c8000c0bf9f007109200039
:10077000080078008ad9020000000000d0bf9f0066
:1007800079092000b9bf9f006000b8003203020061
:1007900001000000610020006a805700840402000c
:1007a000010000000800be008404020001000000f7
:1007b0004f04be000080fa00000006000600fa00a8
:1007c000889fbe008a9fbe008c1f7800c002a900cf
:1007d000c022a900c042a900c062a900c082a9002d
:1007e000c0a2a900c0c2a900c4e2a900c462ef006f
:1007f000f08f2f004427b6002823ef002c83a90098
:100800002ca3a900404e2800001988004040200079
:1008100010198800300021002019880000022000f3
:1008200080198800dea2a900de82a800000028004e
:1008300080118800004020009011880030032000c3
:10084000c0118800d782a800d382a900ca42a8009c
:10085000c642a9003c02020001000000980d0200ff
:1008600001000000400620009c170200010000006b
:1008700041002b00a0da20009c0a020000000000ca
:10088000140e0200010000003c12020001000000f2
:1008900044c30200000000000044eb00fac0b300b3
:1008a0000100370018c0b300720920008000eb007f
:1008b00080ae2000800a02000000000014cba800d7
:1008c00014eba80050b12000a10a2b00050009007c
:1008d0003158780092ea2f00425788001210200009
:1008e0005257880090ea2f00e0578800101020002f
:1008f000f0578800ecaaef00ee2aef0000abef0003
:10090000022bef0090ea2f00805788001010200083
:100910009057880091ea2f00a157880011102000fd
:10092000b157880042b0200050022b000f00090090
:100930003059780040b02000e4d9020000000000e7
:10094000b1b12000f2022b000f000900b25878006c
:100950000a0078003bebb7003c6bef00020420007c
:100960008000eb00d0b32000800a020000000000ed
:100970007d6bef007109200080ae20008ad9020053
:1009800000000000405c8800e04f5400020032008c
:1009900080ae200070ff07006300200070815700c8
:1009a0006000b8005e020200010000007309200030
:1009b00082ae200060002000010020005e020200e4
:1009c000010000008fb8970070092000808f500050
:1009d0000a003a00405c80001fb99700800f510068
:1009e00006003a00afbd970080ae20008ad9020011
:1009f00000000000808f550003003200e04f5400db
:100a0000a8ff3200ffff3700aa1680000b0022006b
:100a10000b05650036003a00561202000100000086
:100a20000004be000005fd00c4e2b7000005fd00a3
:100a30000b0678000a092d003b0020002700370034
:100a40005612020001000000080150008981580080
:100a50008a0f51008b8f5900200036006000b800cb
:100a6000320302000100000000c0eb006404020039
:100a70000100000000c0eb0064040200010000005f
:100a80005c04020001000000f0032b00cc12020005
:100a900001000000f0c0b300c4e2b7002aaa24009d
:100aa0004b00200056120200010000000801500017
:100ab000898158008a0f51008b8f5900f9ff34004b
:100ac000c462ef0000002200a11680008080600058
:100ad000fdff32000000fe0003003700a01680007a
:100ae0000c006000d6ff320076f10200000000002a
:100af000f8060200010000008ffe070056120200f7
:100b000001000000725c8000835c800002005000e5
:100b10008380580012a12700820f5000e08f5800f8
:100b20000b0036005612020001000000705c8800c5
:100b3000815c8800211680008180ea00e1806000ed
:100b4000201680000000a10001007000201688001f
:100b5000400702000100000088da020000000000e7
:100b6000de0802000100000000188000f1b720003c
:100b700078d80200000000004057800051578000e4
:100b8000525c8000635c8000800f5100818f5900af
:100b9000daff3200505c8800615c880090082b000e
:100ba000cc12020001000000405780005157800025
:100bb000a5fe0700c0092b00cc12020001000000b6
:100bc000bc0e020001000000ccff37000040da003c
:100bd0000000fe00680107000400be0000000600df
:100be0000800fa00889fbe008a9fbe0084bf9f0055
:100bf00095bf9f00a6bf9f00b7bf9f003004be00f7
:100c00002005be000fba97009fba97002fbb970030
:100c1000bfbb97000404440085844c0006054d00ca
:100c200087854d000898be000a90be000440e10090
:100c300005c8e10006d0e10007d8e100020031005c
:100c4000680040001008e8004f05be004f04be00d9
:100c50000080fa0000000600fe874700889fbe0063
:100c60008a9fbe008c9fbe008e1f7800d0b79f0069
:100c7000e1b79f00f2b79f0083bf9f0084b79f003a
:100c800095b79f00a6b79f00b7b79f008000eb0005
:100c9000f1af9f00e1af9f00d1af9f00c1af9f00b8
:100ca000b1af9f00010678000d042000ccb79f0073
:100cb0000605be000404be007fae97006faf97002c
:100cc0005fa89700e00f56000f003d00cf71de00d7
:100cd0000c01460002817100f2af9f005d00070029
:100ce0004f20de008180400081007000640007001a
:100cf0000802be000a03be0060fd2f000f00400086
:100d0000b7ff07001d003700520007004f21de002b
:100d10008180400081007100590007003faa9700c0
:100d2000cfaa97005fab9700efab97000800520087
:100d300089805a000a015b008b815b00b0af9f0085
:100d4000c1af9f00d2af9f00e3af9f004f70de00a6
:100d50000c01460002007000130020000820e10092
:100d600009a8e1000ab0e1000bb8e1000100390078
:100d70008001eb0003005000f0af9f007fae9700b2
:100d8000e00f56000f003500100020000100200089
:100d90006011b8005fb29700efb297007fb3970081
:100da0008fbb9700040270008582700006037100fb
:100db00087837100d4b79f00e5b79f00f6b79f0007
:100dc00087bf9f00cfb297008502e800c5b79f009c
:100dd0008d8f5200b8ff3a000c017800e00f5100ef
:100de00007003d000fb297009fb297002fb3970006
:100df000bfb3970060fd2f000f00400078ff070091
:100e0000ffa09700e08f500008003a003fac970029
:100e1000cfac97005fad9700efad9700d8b79f00bc
:100e2000e9b79f00fab79f008bbf9f005fb09700a4
:100e3000efb097007fb197008fb997004f07780008
:100e40004f06be004f05be004f04be00ef01b100cb
:100e5000000006004f01de008e0047008100710097
:100e6000c1af9f00afa897004f09de00000040000f
:100e700000007100b0af9f001faa9700000006009d
:100e8000a1af9f000e0007004f18de0004024200d1
:100e90000002720094af9f000900070000004000ac
:100ea000818048000201490083814900b0b79f005a
:100eb000c1b79f00d2b79f00e3b79f0000000600b4
:100ec0001fb09700afb097003fb19700cfb1970028
:100ed00000000600881f780018002000881f780096
:100ee0005dff07008f87e9004f04780000000600cf
:100ef000801feb0058ff07008f87e9000000060005
:100f0000889fbe008a9fbe008c1f78006044b80096
:100f10006055b8000800e1000988e1000a90e1008e
:100f20000b98e1000d003d000000540081805c0042
:100f300002015d0083815d001c0020000820e100ab
:100f400009a8e1000ab0e1000bb8e1000b003d0088
:100f5000210007000006eb00080037000006eb0048
:100f6000e00f5200e08f5a00e00f5b00e08f5b0063
:100f700002003d00180007001c002000d5ff0700fc
:100f80008005780001057800820478000304780069
:100f90000b0278008a027800090378008803780041
:100fa000e00f5600060032006000b8006011b80083
:100fb00004025000858258000603590087835900b7
:100fc0000400be000601be004f0678004f05be00bb
:100fd0004f04be00000006000402540085825c003d
:100fe00006035d0087835d0000000600889fbe0049
:100ff0008a9fbe008c1f78006044b8006055b8001e
:101000000800e1000988e1000a90e1000b98e10086
:101010000b003d000000540081805c0002015d0077
:1010200083815d001c0020000820e10009a8e10088
:101030000ab0e1000bb8e1000b003d0006003700ec
:101040000006eb00e00f5200e08f5a00e00f5b005b
:10105000e08f5b0004003d000402540085825c00c8
:1010600006035d0087835d00a1ff0700800578000f
:101070000105780082047800030478000b027800f0
:101080008a0278000903780088037800e00f560090
:10109000060032006000b8006011b8000402500081
:1010a0008582580006035900878359000400be005a
:1010b0000601be004f0678004f05be004f04be007b
:1010c00000000600889fbe008a9fbe008c1f78002b
:1010d0000006eb00e00f5000e08f5800e00f5900d1
:1010e000e08f590007003d006044b8006055b8002b
:1010f0000000540081805c0002015d0083815d007e
:101100001c002000e00f5200e08f5a00e00f5b004f
:10111000e08f5b0007003d006044b8006055b800f8
:101120000402540085825c0006035d0087835d0035
:101130000c00a200200007000203be000002be0057
:10114000e00f5600060032006000b8006011b800e1
:101150000402500085825800060359008783590015
:101160000400be000601be004f0678004f05be0019
:101170004f04be00000006006022b80006022000f6
:101180000000d0008180d2000482d2008582d2008b
:101190000000a0000202520083825a0003003100c6
:1011a0000202420083824a000000a1000603e90017
:1011b000f3ff3a0000000600889fbe008a9fbe0031
:1011c0008c9fbe000404b8000506b80089044600e0
:1011d00060854e000606b8000a054600e0854e0010
:1011e0000706b8008b054600040eb80089044600c7
:1011f0000a854e00e0854d00050eb8000a05460040
:101200008b854e00060eb8008b0546000416b8000c
:101210000a0546008b854e000516b8008b05460072
:10122000041eb8008b0546000800be000a01be007f
:101230004f06be004f05be004f04be000000060072
:1012400003c2b3000001780002007800b0407800cb
:1012500083cf5000fbff3200e9cf5000f9ff32008e
:10126000d3c2b30083cf500003003a0000017800de
:1012700013c0b300050037008041eb00b4c2b300d7
:1012800084cf500001003a00000178000000eb001c
:10129000020037006a00b900000042003202fb0081
:1012a0000403b100e90f5200faff3600e0cf51000d
:1012b000010032000000ea0000000600889fbe0026
:1012c0008a9fbe0001c2b3003044780080047800d9
:1012d000814f5400fcff3200e94f5400faff320006
:1012e000d0c2b300804f540003003a003944780064
:1012f0001ac0b300050037000045eb00b0c2b300d0
:10130000804f540001003a00394478006022b80050
:101310000bcdb3000b003700a2002000030020001b
:101320000400be00210507000001be000b4244007e
:101330000482fb0005002000040241008582490070
:10134000394478000880fb000003b100e90f500029
:10135000f1ff3600e04f550002003200600212003b
:10136000e0821a000400be004f05be004f04be001c
:1013700000000600889fbe008a9fbe008c9fbe00b2
:101380008006780082057800030678000104780062
:101390000b0078008c007800cfc4de00010037001d
:1013a000820678000801be0073ff07008001780004
:1013b0000101780003007800820078000d01e80048
:1013c000e00f5000e08f5800f5ff3a000049eb00b5
:1013d0000801be000b0078008c007800fdfd0700be
:1013e000004578000801be000b0078008c007800f2
:1013f00061ff07000002be000403be0086057800fe
:1014000007067800e94f55000100340067454500a4
:1014100000c3b30080564500e00f5200e08f5a0031
:10142000ebff3a000d0078004f06be004f05be00ee
:101430004f04be0000000600881f780000047800fa
:10144000e00f5100e08f590006003d0008027800cf
:10145000d0c2b300005a780060011100e081190089
:10146000010037000802780004007800c1ff07007f
:10147000080078004f04780000000600e687470067
:101480008e1f7800d0bf9f0066875700012f78001d
:101490000e0037005fba970014407800efb997004c
:1014a000934078000201e900814f500004003200af
:1014b0000080fb008180fb00010050000600370027
:1014c0000402e800d4bf9f00030fe800e00f5100c2
:1014d000f0ff3a00020078004f0778006f00b1007b
:1014e000000006008001780002003700b159780042
:1014f0000201e900e00f5100fcff3a000000060085
:101500008001780002003700815978000201e9006b
:10151000e00f5100fcff3a0000000600b0417800e7
:1015200031c1510002003a0082cf5100fbff3a0066
:101530000200fb00000006008001780031417800c5
:1015400082597800e04f5100fcff3a00000006008d
:10155000800078000041eb00b14f1100fdff3a0020
:101560000080ea0000804000000006008001780052
:10157000060037000201e900b14278008559780081
:1015800003027800e0cf5200060032000302780028
:10159000e00f5100f7ff3a0002003700005aeb005d
:1015a0000201e900e00f5100fcff3a0000000600d4
:1015b0000c00fa00889fbe0000047800f0ff2700ae
:1015c000d0bf9f008004eb0099bf9f0088bf9f00a1
:1015d000a8bf9f00200c2000b0bf9f00788157005b
:1015e000cfb0970070805700070007000fb8970032
:1015f000094878008fb89700088050004f04be005b
:101600000080fa0000000600ef02b000889fbe00d4
:101610008a9fbe008c9fbe008e1f7800b0b79f00cf
:10162000a1af9f0092b79f000000eb00a0b79f0002
:101630009d033700afa897008100e800a1af9f008d
:1016400053c2b300834f510005003a000007eb007e
:1016500007c3b30005c2b300b2c2b3001300370022
:101660003fb29700b40190000304b20004003200be
:101670009401780082497800030ae80007003700e7
:101680000201fb00bfb09700020078009203070040
:1016900000017800e10f410083033200afb29700f0
:1016a0008502e800a5b79f007f033700810178001d
:1016b00031437800d8c2b300884f5300090032008c
:1016c00005003c00854f530008003200824f530054
:1016d0000c003a0007003700874f530009003a001a
:1016e000060037000e30a000f0ff37000e00a0000b
:1016f000eeff37000e10a000ecff37000e20a00018
:10170000eaff370062016700010032000e00a1000d
:1017100068016700010032000e20a1000601fb00f5
:101720000203b100e90f51000c003e0003037800f2
:101730000006eb006a66b9003600fb000003b1004a
:101740000c064000860178001600fb000003b10083
:10175000e90f5000f7ff3600080037000006eb00e5
:10176000a5c2b300854f530004003a009fb4970010
:101770004906780099b79f008301e8000005eb0057
:101780008ab79f00e5c2b30093cf120016003a005b
:101790000ee0a000e4c25200d3cf120003003200da
:1017a000030378000a007800080037009fb597000f
:1017b0004b0078009bb79f0080b79f008301e80033
:1017c000090037006a00b900000041008601780076
:1017d000b600fb0002fd2f0001014100e90f51009e
:1017e000f8ff360080b79f0033437800a3af9f0017
:1017f000c2c6b300824f5300250032000f003c00e8
:1018000037c6b300874f5300a500320004003c00e8
:10181000e04f53002903320085c5b3000f003700a5
:1018200045c6b300854f530017003200e5c24200a1
:10183000854f5300bd003a001300370037c7b3008f
:10184000874f53001f00320007003c00f5c6b3006d
:10185000854f5300140032008542e800854f530045
:10186000b2003a001300370055c7b300854f53004c
:10187000b5003200e3c24200854f5300ab003a008e
:10188000e6c79f000d003700e6c79f00b000370095
:1018900070006700010120000100320001002800f3
:1018a00001077700d0ff3700e6c79f000e60a00059
:1018b000a7003700e6c79f000e50a0000e70a000e2
:1018c000a3003700e6c79f009fb19700430378004d
:1018d00093b79f00c6b79f00e00f530002003a0085
:1018e00045f62000c5b79f00cfb397000003eb007b
:1018f000010037000603e80067407b00e04f50001e
:10190000fcff3a00d6b79f000fb39700e00f5300db
:1019100005003200dfb39700870f5300020031004b
:1019200006047800d8b79f005fb397000004eb006f
:10193000860f56000100360006045600680767004f
:101940002e003a0009c2b300afb597003fb597002b
:101950000e0037003a0090000004b200040032008c
:101960001a00780009487800000de80005003700eb
:101970008a00780000022000d7020700e10f400033
:10198000010032008b05e8000804e900e00f540074
:10199000f0ff3a00f5ff2f008b06780019003700a2
:1019a0003c0090000004b200090032009c01780065
:1019b000080178003240780080497800030ee80082
:1019c00002047800e04f50000a003a00120037008d
:1019d000080178003200fb00020478008c007800d7
:1019e00085bf9f00bc0207008fba9700e10f40003f
:1019f000090032008d06e8000700370088027800f1
:101a0000afb697004fb49700dfb497006fb597005b
:101a1000ffb597003fb69700090178008204e900fe
:101a2000e00f5100deff3a00adb79f0002027800e0
:101a3000c8b79f00d9b79f00eab79f00fbb79f00c8
:101a400005047800840f57009702320009c2b300e2
:101a50008d0578003fb597000e0037003a009000e2
:101a60000004b200040032001a007800094878002f
:101a7000000de800050037008a0078000002200011
:101a800095020700e10f4000010032008b05e800dd
:101a90000804e900e00f5400f0ff3a00810237002b
:101aa0009fb097004103780091b79f00060478002b
:101ab000cfc4de00090578008a057800c8af9f0012
:101ac000d9af9f00eaaf9f00fbaf9f004844de0004
:101ad0004848dd0008047000e8c79f0070036700f5
:101ae0000a003200e04f540008003200e14f440089
:101af00006003200f8c79f008fd8970081cf9f0063
:101b000022002000d2b79f00040037008fd9970031
:101b1000f3c79f0014002000d4b79f0075fc2f006e
:101b200085824700c5b79f0077ff3700e6c79f0053
:101b300066fc2f0006834700c6b79f0017002000f1
:101b4000d7b79f0070ff3700e6c79f000e0cb300a9
:101b50000e007800000cb2003a003a00800f5700e7
:101b600005003d001fb097004005be004004be00c8
:101b700090b79f000e003700700067001100320020
:101b80001fb197004200be0092b79f001202900062
:101b9000cfa1de000004be00830578000802be006d
:101ba000030378008b0378000605be000404be0022
:101bb000c8b79f00d9b79f00eab79f00fbb79f0047
:101bc0000b0037009fb497004902780099b79f0037
:101bd00004007800cf80de000101780082017800e7
:101be000c0b79f00d1b79f00e2b79f00f3b79f0037
:101bf0004fb29700dfb297006fb39700ffb3970023
:101c0000e00f5200e08f5a00e00f5b00e08f5b00b6
:101c100031003d003e00b3006044b8006055b8009c
:101c20000402540085825c0006035d0087835d002a
:101c3000c4b79f00d5b79f00e6b79f00f7b79f00d6
:101c400025003700e00f570005003d001fb097004a
:101c50004005be004004be0090b79f000e00370054
:101c600070006700110032001fb197004200be00f3
:101c700092b79f0000047800010578008004eb0013
:101c8000080278008a027800090378008903780046
:101c90000605be000404be00c8b79f00d9b79f0068
:101ca000eab79f00fbb79f000b0037009fb4970077
:101cb0004902780099b79f000400780001002000d5
:101cc0000200200003002000c0b79f00d1b79f0092
:101cd000e2b79f00f3b79f008fb09700e08f5000ee
:101ce0000d003a001200200082b79f004fb297000b
:101cf000dfb297006fb39700ffb39700e00f520079
:101d0000e08f5a00e00f5b00e08f5b0002003200c2
:101d10008002eb0085b79f000e037800060cb2002e
:101d2000c6af9f0006042000cfab9700868f5300fc
:101d30003500320003003c00e08f53004a003a00b7
:101d400007003700060820004fac9700860f5400ac
:101d500015003200060c2000860f540042003a00a5
:101d6000a3ea200016c0b300030278003400be00ce
:101d70003401be004fb49700dfb497006fb59700f1
:101d8000ffb597000040e10001c8e10002d0e1008a
:101d900003d8e100330039000643e800f44f530054
:101da000f2ff3a002f00370016c0b30008012000f0
:101db000090020006055b8004fb09700dfb09700d1
:101dc0006fb19700ffb197000800e1000988e100ba
:101dd0000a90e1000b98e100220039004100200048
:101de0000804d0008984d2000a85d2008b85d200f5
:101df0008100e900faff3a000643e800f04f530083
:101e0000edff3a001700370016c0b300880020002d
:101e1000090020006055b8004fb09700dfb0970070
:101e20006fb19700ffb197000800e1000988e10059
:101e30000a90e1000b98e1000a003900310020000f
:101e40000804d0008984d2000a85d2008b85d20094
:101e50008100e900faff3a000643e800f54f53001d
:101e6000edff3a00e6c79f006fc197000203fb0039
:101e70008fb19700830f530002003d00e3c79f001e
:101e8000040037000fb29700860f520001003d009a
:101e900086b79f00e00f560003003200630367001f
:101ea000010032000c06e90006002400060367006a
:101eb000060032008fb29700850f560002003400f2
:101ec00005065600010037000006eb00efc397003f
:101ed0000703fb000004eb00b8af9f00860f56001d
:101ee0000200340006035600b6af9f00e40267000c
:101ef0004c003200e2026700e1036700e08f52000d
:101f00001b003200bfb49700b90290000504b20074
:101f10000900320019037800b5c2b300e08f530006
:101f20000100320085c2e800054b78003fb59700fc
:101f3000060de8000a003700b6022000858f530026
:101f4000010032000683e800bfb097000600780069
:101f50006101070080027800e18f42001800320022
:101f6000afb597008b05e800abb79f0014003700b2
:101f7000858f5300120032003fb09700b0029000ee
:101f80000504b200050032001003780005c2b3005a
:101f9000054b78000608e80006003700bfb0970040
:101fa000000220004c01070080027800e18f42000f
:101fb00003003200afb097008100e800a1b79f0096
:101fc0003fa99700e00f51006300320008c3b3003f
:101fd00002057800afb59700bfb4970039009000b4
:101fe0000004b200040032001900780008487800ac
:101ff000800ce8000500370089007800000320000d
:1020000035010700e10f4000010032008b05e800b8
:102010000a05e900f1ff3a00baaf9f00abb79f0095
:102020004d003700bfa99700858f5100170032007f
:10203000e802670015003a0008c2b3000305780003
:10204000afb59700bfb49700390090000004b2000c
:10205000040032001900780008487800800ce8007d
:102060000500370089007800000220001a010700ef
:10207000e10f4000010032008b05e8000a05e9008d
:10208000f1ff3a00baaf9f00abb79f00e2026700d2
:10209000e1036700e08f52001b0032003fb297005f
:1020a000b40290000504b200090032001403780065
:1020b000b5c2b300e08f53000100320085c2e800d2
:1020c000054b7800bfb29700860ae8000a00370087
:1020d000b6022000858f5300010032000683e8001d
:1020e000bfb0970006007800fb0007008002780070
:1020f000e18f4200180032002fb397000603e8007a
:10210000a6b79f0014003700858f530012003200dd
:10211000bfb39700b70290000504b200050032007b
:102120001703780005c2b300054b7800860be80062
:1021300006003700bfb0970000022000e60007004d
:1021400080027800e18f4200030032002fb4970034
:102150000804e800a8b79f008fb497008902e9003f
:10216000422ddd009aaf9f00632bb90086057800f1
:102170008baf9f00c32bdd0025ea20008582430042
:1021800070006700e0a79f008e0078000102b20097
:10219000d1a79f000e017800f2a79f0005077800e5
:1021a000a20037008fb197008301e90083b79f0039
:1021b0004faa970005042000850f520071003200dd
:1021c00003003c00e00f52007d003a00070037009a
:1021d000000820004fab9700800f530055003200dd
:1021e000000c2000800f530075003a00ffa39700f9
:1021f000e08f53001f003d003e02be002e03be00d4
:102200004fb09700dfb097006fb19700ffb1970014
:1022100030fb070000047800e8c79f000804fb00bb
:10222000cfc4de00090578008a0578003e02be00b2
:102230002e03be000800be000a01be00a1fb07007d
:102240004fb49700dfb497006fb59700ffb59700c4
:102250000004540081845c0002055d0083855d00fc
:10226000c8b79f00d9b79f00eab79f00fbb79f0090
:102270002c003700efa49700e08f54001c003200c0
:102280004fb69700dfb697003e04be002e05be0095
:102290000801be000c00be00b7fb0700e0c79f00ae
:1022a0000000fb00cf80de000801be003f010700f8
:1022b0000000560081805e008003780001037800f2
:1022c0000002eb0007007800860078000401780027
:1022d000840178000203be000002be00c4b79f0064
:1022e000d5b79f00e6b79f00f7b79f000d003700f6
:1022f0009e017800cfb29700811f7800110009007d
:102300008382d800cf007800a2002000811f7800cf
:10231000110009000280d80001007800cf00780089
:10232000e0c79f006fc397000643b000e6c79f0059
:102330002300370034f52000dfa39700e08f53001f
:102340000100320024f420004fb09700dfb0970066
:102350006fb19700ffb197001fac97000804e90028
:10236000050033008301d1000281d3008180d300b6
:102370000080d300f9ff37006f00600064407800f0
:102380000e0037004fb09700dfb097006fb1970095
:10239000ffb197008fac97008904e9000500330076
:1023a0008301d1000281d3008180d3000080d3005b
:1023b000f9ff3700674060000043b000e0c79f00ae
:1023c0003fb597003a0090000004b20007003200c9
:1023d0001a0178006fc0970000497800020de800ec
:1023e000e04f500007003a0009003700efc59700a2
:1023f0000b00fb00bfb0970037000700e10f400063
:10240000030032002fb097000000e800a0b79f0043
:102410009fa89700e480500091af9f000fa99700fc
:102420006301510082af9f00680757008fb197008a
:10243000e08f51005bff3a007fa79700e80167003b
:102440000fb29700848f510017003200bfaa970087
:10245000e08f52001400340008c2b3000505780074
:10246000afb59700bfb49700390090000004b200e8
:10247000040032001900780008487800800ce80059
:1024800005003700890078000002200012000700d4
:10249000e10f4000010032008b05e8000a05e90069
:1024a000f1ff3a00abb79f002fab970016417800c1
:1024b000e2c79f00e04f51005efc3a002fb097004a
:1024c0004f0778004f06be004f05be004f04be0008
:1024d000ef02b10000000600889fbe0001047800f2
:1024e000b8009000628160008084eb003c00320004
:1024f000810178000320b2001801900002003a0028
:10250000830f510036003a000190a000310498007a
:1025100080047800f90fb200e00f510002003a0089
:1025200028009000000c7800ea8f540006003a0062
:10253000010078000008b20003003a00880078002b
:10254000d0002000e4ff070018009000d8009000a1
:10255000810f50000b0032000000e80010049800ca
:102560001800780009487800000ce80010c0b3009b
:1025700021f9200080487800ea8f540018003a00c2
:102580000500370088007800094078001700070030
:102590008004780012003700380090000010b2006c
:1025a0000f00320018019000a80090004800900031
:1025b0004f00070098009000810f50000400320087
:1025c000380090000003b300300498008084eb00d2
:1025d0000000eb001004980028009000000c780028
:1025e000090078004f04be00000006000200fa0057
:1025f000889fbe00a0ff9f00010478003800900073
:10260000000178000204b20034003a00e2006000e9
:10261000828f500005003a000003b3003004980098
:10262000110498000080eb002e003700d8049000c1
:10263000e08f540006003a0012002000e6805700a8
:10264000480090002a000700190498002300370072
:10265000a8009000e08f500008003a0051f92000d7
:1026600021049800010c78002100200051049800fa
:10267000110498000030a000300498001801900068
:10268000a800900048009000190007002800900062
:102690008080eb0011049800aff8970001487800a3
:1026a000000ce8002ff89700ea4f50000b003a00aa
:1026b000380090000010b2000800320018019000ad
:1026c000a800900048009000090007000000eb00ff
:1026d00010049800a8009000010c7800aff8970053
:1026e0000100fb004f04be000080fa00000006005d
:1026f0000a00fa00e20f500021003e004074800002
:10270000e10f500006003200852320004423200002
:102710002323200000232000e08f520004003a0011
:1027200085222000442220002322200000222000b5
:10273000060028009003630002003a00870a780030
:1027400010087300004020001300600001003a00f0
:1027500013a0a00002007800060037009302780062
:102760000510b200fdff3200b102fb00050a78003f
:102770000000e900e00f5000f8ff3a0008003700c1
:1027800033002000b3bf9f00c0bf9f00d1bf9f0098
:10279000e2bf9f006a80570000c0da006fb997005f
:1027a000020078000080fa0000000600020ab9006a
:1027b000001bb9000200b800810042008100430004
:0427c000000006000f
:020000040000fa
:020000040002f8
:04aff800fdfb00005d
:020000040000fa
:020000040002f8
:04affc007f3f000093
:020000040000fa
:10000800e6050000e60500009002000096020000e8
:10001800e6050000e6050000e6050000e60500002c
:10002800e6050000e6050000e6050000b012010044
:10003800e6050000e6050000e6050000e60500000c
:10004800e6050000e6050000e6050000e6050000fc
:10005800e6050000e6050000e6050000e6050000ec
:10006800e6050000e6050000e6050000e6050000dc
:100078006e160100e6050000e6050000e605000032
:10008800e6050000e6050000e6050000e6050000bc
:10009800e6050000e6050000e6050000e6050000ac
:1000a800e6050000e6050000e6050000e60500009c
:1000b800e6050000e6050000e6050000e60500008c
:1000c800e6050000e6050000e6050000e60500007c
:1000d800e6050000e6050000e6050000e60500006c
:1000e800e6050000e6050000e6050000e60500005c
:1000f800e6050000e6050000e6050000e60500004c
:10010800e6050000e6050000e6050000e60500003b
:10011800e6050000e6050000e6050000e60500002b
:10012800e6050000e6050000e6050000e60500001b
:10013800e6050000e6050000e6050000e60500000b
:10014800e6050000e6050000e6050000e6050000fb
:10015800e6050000e6050000e6050000e6050000eb
:10016800e6050000e6050000e6050000e6050000db
:10017800e6050000e6050000e6050000e6050000cb
:10018800e6050000e6050000e6050000e6050000bb
:10019800e6050000e6050000e6050000e6050000ab
:1001a800e6050000e6050000e6050000e60500009b
:1001b800e6050000e6050000e6050000e60500008b
:1001c800e6050000e6050000e6050000e60500007b
:1001d800e6050000e6050000e6050000e60500006b
:1001e800e6050000e6050000e6050000e60500005b
:0801f800e6050000e605000029
:020000040000fa
:10020800e6050000e60500009002000096020000e6
:10021800e6050000e6050000e6050000e60500002a
:10022800e6050000e6050000e6050000b012010042
:10023800e6050000e6050000e6050000e60500000a
:10024800e6050000e6050000e6050000e6050000fa
:10025800e6050000e6050000e6050000e6050000ea
:10026800e6050000e6050000e6050000e6050000da
:100278006e160100e6050000e6050000e605000030
:10028800e6050000e6050000e6050000e6050000ba
:10029800e6050000e6050000e6050000e6050000aa
:1002a800e6050000e6050000e6050000e60500009a
:1002b800e6050000e6050000e6050000e60500008a
:1002c800e6050000e6050000e6050000e60500007a
:1002d800e6050000e6050000e6050000e60500006a
:1002e800e6050000e6050000e6050000e60500005a
:1002f800e6050000e6050000e6050000e60500004a
:10030800e6050000e6050000e6050000e605000039
:10031800e6050000e6050000e6050000e605000029
:10032800e6050000e6050000e6050000e605000019
:10033800e6050000e6050000e6050000e605000009
:10034800e6050000e6050000e6050000e6050000f9
:10035800e6050000e6050000e6050000e6050000e9
:10036800e6050000e6050000e6050000e6050000d9
:10037800e6050000e6050000e6050000e6050000c9
:10038800e6050000e6050000e6050000e6050000b9
:10039800e6050000e6050000e6050000e6050000a9
:1003a800e6050000e6050000e6050000e605000099
:1003b800e6050000e6050000e6050000e605000089
:1003c800e6050000e6050000e6050000e605000079
:1003d800e6050000e6050000e6050000e605000069
:1003e800e6050000e6050000e6050000e605000059
:0803f800e6050000e605000027
:020000040000fa
:1027c4000962000073730000696400003a2000008d
:1027d40020200000200000002530000032580000b6
:1027e4003a00000025300000325800000d0a0000b5
:1027f4000009000063680000616e00006e6500005f
:102804006c3a00002020000000250000640d000048
:102814000a00000045760000656e0000743a00006e
:10282400204300006f6e00006e65000063740000ba
:10283400696f00006e200000546500006d70000098
:102844006f72000061720000696c00007920000062
:102854004c6f000073740000202000002d2d000038
:1028640020650000766500006e740000496e00006b
:10287400666f0000203d00002052000065630000e8
:10288400656900007665000064200000646500004e
:102894006175000074680000203a00002000000008
:1028a40045760000656e0000743a00002043000085
:1028b4006f6e00006e65000063740000696f0000b5
:1028c4006e200000546500006d7000006f720000ff
:1028d40061720000696c0000792000004c6f0000f8
:1028e40073740000202000002d2d000020650000de
:1028f400766500006e740000496e0000666f00008b
:10290400203d00002052000065630000656900005e
:1029140076650000642000006469000073610000b3
:10292400737300006f630000203a00002000000071
:1029340045760000656e0000743a000020430000f4
:102944006f6e00006e65000063740000696f000024
:102954006e200000546500006d7000006f7200006e
:1029640061720000696c0000792000004c6f000067
:1029740073740000202000002d2d0000206500004d
:10298400766500006e740000496e0000666f0000fa
:10299400203d000020000000256400002c200000e1
:1029a400000d00000a00000045760000656e00007e
:1029b400743a0000204300006f6e00006e65000052
:1029c40063740000696f00006e200000466100001f
:1029d400696c000065640000203a000020000000db
:1029e400203a00002000000045760000656e0000db
:1029f400743a0000204300006f6e00006e65000012
:102a040063740000696f00006e20000050650000d0
:102a1400726d0000616e0000656e0000746c000051
:102a2400792000004c6f0000737400002020000027
:102a34002d2d000020650000766500006e740000f6
:102a4400496e0000666f0000203d00002052000027
:102a5400656300006569000076650000642000007d
:102a6400646500006175000074680000203a00008d
:102a74002000000045760000656e0000743a0000f6
:102a8400204300006f6e00006e6500006374000058
:102a9400696f00006e20000050650000726d000038
:102aa400616e0000656e0000746c00007920000007
:102ab4004c6f000073740000202000002d2d0000d6
:102ac40020650000766500006e740000496e000009
:102ad400666f0000203d0000205200006563000086
:102ae40065690000766500006420000064690000e8
:102af40073610000737300006f630000203a0000ec
:102b04002000000045760000656e0000743a000065
:102b1400204300006f6e00006e65000063740000c7
:102b2400696f00006e20000050650000726d0000a7
:102b3400616e0000656e0000746c00007920000076
:102b44004c6f000073740000202000002d2d000045
:102b540020650000766500006e740000496e000078
:102b6400666f0000203d0000200000002a2a0000bb
:102b74002a20000057690000466900002054000024
:102b8400435000002f49000050200000446500001d
:102b94006d6f0000202a00002a2a00000d0a0000a0
:102ba400005300007461000072740000205700009c
:102bb4006946000069200000436f00006e6e00004b
:102bc40065630000740d00000a000000446f0000fb
:102bd4006d610000696e00003a20000020200000b2
:102be4002020000020200000202000002000000001
:102bf40046430000430000004d410000433a0000fa
:102c040020200000202000002020000020200000c0
:102c140020200000202000002000000025300000bb
:102c240032580000200000005353000049440000c3
:102c34003a20000020200000202000002020000076
:102c4400202000002020000020000000286e00004a
:102c54006f6e000065290000004e000065740000de
:102c6400776f0000726b0000205400007970000040
:102c7400653a0000202000002020000000490000e8
:102c84006e660000726100007374000072750000cb
:102c94006374000075720000650d00000a000000f6
:102ca40053630000616e000020540000797000003e
:102cb400653a0000202000002020000020200000b1
:102cc4002000000041630000746900007665000084
:102cd40020530000636100006e0d00000a00000034
:102ce40043680000616e00006e6500006c20000007
:102cf4004c690000737400003a200000202000009a
:102d04002000000025640000002c000020000000ca
:102d1400526500007472000079200000436f0000c7
:102d2400756e0000743a000020200000202000008e
:102d34002000000052650000747200007920000039
:102d4400466f00007265000076650000720d000099
:102d54000a00000042650000616300006f6e00001d
:102d640020540000696d0000656f00007574000058
:102d74003a20000020000000536500006375000045
:102d840072690000747900003a20000020200000dd
:102d94002020000020200000200000004f700000d0
:102da400656e00000d0a0000005000006f770000ff
:102db400657200002053000061760000653a00004f
:102dc40020200000202000002020000000440000fb
:102dd40069730000616200006c650000640d00000e
:102de4000a00000057460000204100005353000031
:102df40045520000544900004f4e0000206100007d
:102e04007420000000250000732000002000000052
:102e14004c6900006e650000204e0000756d0000d6
:102e240062650000722000003d2000000057000091
:102e340069460000692000004173000073650000ca
:102e4400727400002020000020200000204d0000ab
:102e54003a0000004d690000637200006f630000d7
:102e64006869000070440000656d00006f41000057
:102e74005000000046610000746100006c200000f6
:102e840045720000726f0000723a000020200000ba
:102e94004d75000073740000206400006566000036
:102ea400696e000065200000616e00002053000080
:102eb4005349000044200000666f000072200000a7
:102ec4007468000069730000206300006f6e0000e6
:102ed4006669000067750000726100007469000093
:102ee4006f6e00000d0a0000004d00005246000005
:102ef40032340000472000006d6f0000647500004c
:102f04006c6500002041000053530000455200004e
:102f140054450000442000002d2d000020610000d5
:102f24007373000065720000744900006e6600004f
:102f34006f2000003d200000004d00003a250000f5
:102f4400642c0000204900003a25000064000000c1
:102f54004e5500004c4c000000570000465f000036
:102f64004a4f0000494e00005f46000041490000fe
:102f74004c5500005245000000570000465f000019
:102f84004155000054480000454e000054490000db
:102f940043410000544900004f4e00005f460000ca
:102fa400414900004c550000524500000057000004
:102fb400465f000041530000534f000043490000a6
:102fc40041540000494f00004e5f0000464100009c
:102fd400494c0000555200004500000057460000cf
:102fe4005f570000455000005f480000414e00005c
:102ff40044530000484100004b4500005f46000078
:10300400414900004c5500005245000000570000a3
:10301400465f0000505300004b5f00004341000036
:103024004c430000554c000041540000494f00003f
:103034004e5f000046410000494c0000555200001c
:1030440045000000574600005f500000534b00004d
:103054005f480000414e0000445300004841000016
:103064004b4500005f460000414900004c550000fc
:103074005245000000570000465f00004144000034
:10308400484f0000435f00004a4f0000494e0000d3
:103094005f460000414900004c55000052450000c5
:1030a40000570000465f00005345000043550000f0
:1030b40052490000545900005f4d0000495300007c
:1030c4004d41000054430000485f000046410000a9
:1030d400494c0000555200004500000057460000ce
:1030e4005f4e00004f5f000053550000495400003c
:1030f400414200004c4500005f410000505f000069
:10310400464f0000554e0000445f00004641000059
:10311400494c00005552000045000000574600008d
:103124005f52000045540000525900005f46000001
:103134004f52000045560000455200005f4e00000b
:103144004f5400005f53000055500000504f0000e2
:1031540052540000454400005f460000414900000d
:103164004c5500005245000000570000465f000027
:103174004c4900004e4b00005f4c00004f530000d0
:103184005400000000570000465f00005253000046
:103194004e5f00004d49000058450000445f0000a8
:1031a4004d4f0000444500005f4e00004f540000a6
:1031b4005f53000055500000504f0000525400006f
:1031c4004544000000570000465f000052450000df
:1031d400435600005f440000454100005554000080
:1031e40048000000574600005f52000045430000bd
:1031f400565f00004449000053410000535300004f
:103204004f43000000570000465f00005750000085
:10321400535f000046410000494c00005552000035
:1032240045000000574600005f5000003250000087
:103234005f460000414900004c5500005245000023
:1032440000570000465f00004c4900004e4b000050
:103254005f4400004f5700004e000000417300001f
:10326400736f00006369000061740000696f0000ff
:103274006e20000046610000696c00007572000059
:1032840065000000574600005f4200004541000011
:10329400434f00004e5f0000544900004d450000bc
:1032a4004f55000054000000574600005f440000e2
:1032b4004541000055540000485f0000524500009d
:1032c40043450000495600004544000000570000f3
:1032d400465f00004449000053410000535300007e
:1032e4004f43000049410000544500005f52000074
:1032f40045430000454900005645000044000000d5
:10330400574600005f5400004b490000505f000026
:103314004d490000435f000046410000494c000055
:103324005552000045000000574600005f5500005c
:103334004e53000050450000434900004649000038
:103344004544000000570000465f00005052000052
:10335400455600005f41000055540000485f0000de
:103364004e4f0000545f0000564100004c490000dd
:1033740044000000574600005f440000454100003f
:1033840055540000485f00004c45000041560000c1
:10339400494e000047000000574600005f4400000b
:1033a4004953000041530000534f0000435f0000a5
:1033b40044550000455f0000544f00005f49000081
:1033c4004e41000043540000495600004954000097
:1033d40059000000574600005f44000049530000b4
:1033e40041530000534f0000435f00004150000070
:1033f4005f4200005553000059000000574600008a
:103404005f4300004c41000053530000325f000052
:1034140046520000414d0000455f00004652000046
:103424004f4d00005f4e00004f4e0000415500001c
:10343400544800005f53000054410000005700004e
:10344400465f0000434c000041530000533300002a
:103454005f460000524100004d4500005f460000f9
:10346400524f00004d5f00004e4f00004e410000df
:10347400535300004f4300005f53000054410000c9
:1034840000570000465f000044490000534100001b
:10349400535300004f4300005f53000054410000a9
:1034a4005f480000415300005f4c000045460000a7
:1034b40054000000574600005f53000054410000d0
:1034c4005f520000455100005f410000535300006b
:1034d4004f4300005f57000049540000484f00006c
:1034e400555400005f41000055540000480000009e
:1034f400574600005f4900004e560000414c000052
:10350400494400005f4900004500000057460000a0
:103514005f4d0000494300005f4600004149000040
:103524004c5500005245000000570000465f000063
:1035340034570000415900005f480000414e00002c
:1035440044530000484100004b4500005f54000014
:10355400494d0000454f000055540000005700003d
:10356400465f0000475200004f550000505f0000c6
:103574004b450000595f0000484100004e440000e4
:1035840053480000414b0000455f000054490000cf
:103594004d4500004f550000540000005746000000
:1035a4005f490000455f00004449000046460000b2
:1035b40045520000454e00005400000057460000ec
:1035c4005f4900004e560000414c00004944000091
:1035d4005f470000524f0000555000005f43000059
:1035e40049500000484500005200000057460000c2
:1035f4005f4900004e560000414c00004944000061
:103604005f50000041490000525700004953000038
:10361400455f000043490000504800004552000047
:1036240000570000465f0000494e0000564100006c
:103634004c490000445f0000414b00004d50000025
:1036440000570000465f0000554e0000535500002f
:10365400505000005f520000534e00005f560000bf
:1036640045520000534900004f4e0000005700002f
:10367400465f0000494e0000564100004c490000de
:10368400445f0000525300004e5f000049450000b3
:103694005f4300004150000000570000465f0000f7
:1036a4004945000045450000383000003231000033
:1036b400585f000046410000494c000045440000aa
:1036c40000570000465f00004349000050480000d6
:1036d400455200005f530000554900005445000066
:1036e4005f520000454a0000454300005445000075
:1036f40044000000574600005f5500004e53000090
:10370400504500004349000046490000454400007c
:103714005f460000414900004c550000524500003e
:1037240000570000465f0000434100005053000072
:103734005f5500004e53000055500000504f0000ec
:10374400525400004544000000570000465f00004a
:103754005245000041530000534f0000435f0000f6
:103764004e4f00005f410000535300004f430000e0
:1037740000570000465f000041530000534f000013
:10378400435f0000444500004e49000045440000ea
:103794005f5500004e5300005045000043000000f8
:1037a400574600005f4e00004f5400005f53000076
:1037b40055500000504f0000525400004544000092
:1037c4005f41000055540000485f0000414c000078
:1037d40047000000574600005f5500004e4b0000b4
:1037e4004e4f0000574e00005f410000555400004a
:1037f400485f000054520000414e00005341000055
:1038040043540000494f00004e000000574600009a
:103814005f430000484100004c4c0000454e00004e
:10382400474500005f460000414900004c0000008d
:10383400574600005f41000055540000485f0000f7
:10384400544900004d4500004f550000540000004d
:10385400574600005f410000505f0000554e0000d5
:10386400414200004c4500005f5400004f5f0000df
:10387400484100004e4400004c4500005f4e0000eb
:10388400455700005f5300005441000000570000fa
:10389400465f000041530000534f0000435f0000a7
:1038a400444500004e490000454400005f520000ba
:1038b400415400004553000000570000465f0000db
:1038c40041530000534f0000435f00004445000093
:1038d4004e490000454400005f4e00004f53000075
:1038e400484f00005254000050520000454100006f
:1038f4004d4200004c45000000570000465f0000a8
:1039040041530000534f0000435f00004445000052
:103914004e490000454400005f4e00004f50000037
:103924004243000043000000574600005f4100008e
:10393400535300004f4300005f440000454e000015
:1039440049450000445f00004e4f0000414700001d
:10395400494c00004954000059000000574600003b
:103964005f410000535300004f4300005f440000d8
:10397400454e000049450000445f00004e4f0000e2
:10398400534800004f52000054540000494d0000b9
:1039940045000000574600005f41000053530000fb
:1039a4004f4300005f440000454e000049450000bd
:1039b400445f00004e4f0000445300005353000086
:1039c4004f460000444d000000570000465f0000d1
:1039d4004e4f0000545f0000564100004c49000067
:1039e400445f00004945000000570000465f0000a6
:1039f4004e4f0000545f0000564100004c49000047
:103a0400445f0000475200004f550000504300003f
:103a1400495000004845000052000000574600008d
:103a24005f4e00004f5400005f560000414c000000
:103a3400494400005f500000414900005257000013
:103a440049530000455f000043490000504800000e
:103a54004552000000570000465f00004e4f000032
:103a6400545f0000564100004c490000445f0000d0
:103a7400414b00004d50000000570000465f00001d
:103a8400554e000053550000505000004f520000a6
:103a940054450000445f0000525300004e5f000094
:103aa4005645000052530000494f00004e000000ec
:103ab400574600005f540000494d0000454f000088
:103ac40055540000004e00004f4e00004500000019
:103ad40045410000504f00004c5f0000535400006b
:103ae400415200005400000045410000505f0000b6
:103af40052450000515f000049440000454e00005b
:103b04005449000054590000004500004150000091
:103b14005f520000535000005f490000444500001c
:103b24004e54000049540000590000004541000073
:103b3400505f000057500000535f000053540000d2
:103b4400415200005400000045410000505f000055
:103b540052530000505f00004d310000004500004a
:103b6400415000005f520000455100005f4d0000cd
:103b74003200000045410000505f00005253000035
:103b8400505f00004d33000000450000415000002c
:103b94005f520000455100005f4d000034000000fa
:103ba40045410000505f000052530000505f000088
:103bb4004d35000000450000415000005f520000f8
:103bc400455100005f4d00003600000045410000f3
:103bd400505f000052530000505f00004d3700005a
:103be40000450000415000005f52000045510000b4
:103bf4005f4d00003800000045410000505f0000a8
:103c040052530000505f0000444f00004e45000036
:103c140000450000415000005f460000414900009b
:103c24004c55000052450000004e00004f45000076
:103c34005252000000530000455300005349000055
:103c44004f4e00005f4f000056450000524c0000ec
:103c5400415000005045000044000000444500006d
:103c64004352000059500000545f000043520000ca
:103c7400435f000046410000494c000055520000db
:103c84004500000032340000475f00004e4f000042
:103c9400545f000053550000505000004f52000084
:103ca40054450000440000005245000054520000f6
:103cb400595f000046410000494c00005552000085
:103cc40045000000494e0000564100004c490000e8
:103cd400445f00004d5300004700000041550000c0
:103ce400544800005f460000414900004c55000064
:103cf4005245000000410000535300004f430000b0
:103d04005f460000414900004c5500005245000048
:103d1400004d0000534700005f540000494d00006f
:103d2400454f000055540000005300004553000067
:103d3400534900004f4e00005f540000494d0000fd
:103d4400454f000055540000004400004556000053
:103d54005041000053530000574400005f410000ed
:103d640055540000485f000046410000494c0000e3
:103d740055520000450000004e4f00005f43000014
:103d84004f4e00004e5f0000544f000052450000ab
:103d9400470000004d5500004c540000495f0000ee
:103da40050420000435f00004445000054450000b9
:103db4004354000045440000004400004556000000
:103dc4005f420000555300005900000053450000b5
:103dd40054550000505f00004c4f0000434b00005e
:103de40045440000004d0000616900006e4400007d
:103df400656d00006f2e0000630000005746000050
:103e04005f4300006f6e000066690000672e0000cb
:103e140063000000574600005f450000696e000023
:103e2400742e000063000000574600005f5300003a
:103e3400706900002e63000000570000464d00002a
:103e4400616300005f320000344700002e6300000d
:103e5400005700004650000061720000616d0000d0
:103e64004d730000675f000032340000472e0000ed
:103e74006300000057460000436f00006e6e0000b0
:103e840065630000746900006f6e000050720000ea
:103e94006f660000696c0000652e0000630000007e
:103ea40057460000436f00006e6e0000656300001b
:103eb400746900006f6e0000416c0000676f0000c1
:103ec40072690000746800006d2e00006300000039
:103ed40057460000436f00006e6e000065630000eb
:103ee400746900006f6e00004d6100006e61000097
:103ef40067650000722e0000630000005746000052
:103f0400447200006976000065720000436f00008f
:103f14006d5f000032340000472e00006300000093
:103f240057460000496e0000697400002e630000cb
:103f340000570000464400007269000076650000e6
:103f440072520000617700005f32000034470000c5
:103f54002e63000000570000464d0000676d00000e
:103f6400744d0000736700005f32000034470000a6
:103f74002e63000000570000464d0000676d0000ee
:103f8400744d0000736700005465000073740000f2
:103f94002e630000005700004654000078500000d3
:103fa4006f770000657200002e6300000057000068
:103fb400465000006f7700006572000053610000f6
:103fc400766500002e63000000570000464500009f
:103fd400766500006e740000486100006e640000a5
:103fe4006c650000722e000063000000574600005c
:103ff40053630000616e00002e6300000057000050
:1040040046440000656200007567000053740000b8
:10401400726900006e670000732e000063000000e8
:104024004970000065720000664100007070000075
:104034002e63000000570000464800006f73000024
:10404400744200007269000064670000652e00007d
:1040540063000000574600005f69000070650000bf
:1040640072660000436c0000696500006e74000015
:104074002e63000000570000465f000069700000d6
:1040840065720000665300006572000076650000ea
:10409400722e000063000000574600005f690000b4
:1040a4007065000072660000436f00006d6d0000d3
:1040b4006f6e00002e630000000100000203000088
:1040c4000405000006070000080900000a0b0000b0
:1040d400503200005053000054490000646c00004a
:1040e400650000005032000050530000545300009b
:1040f400636100006e000000503200005053000065
:10410400544c000069730000746500006e000000e8
:10411400503200005053000054460000696e000005
:10412400640000005032000050530000545300005b
:104134007461000072740000466f0000726d00002c
:1041440061740000696f00006e00000050320000ce
:1041540050530000544700004f4e000065670000b4
:104164006f52000065710000446f00006e6500002e
:10417400005000003250000053540000474f00002c
:1041840057610000697400004e650000676f00000d
:1041940052650000714400006f6e0000650000006d
:1041a4005032000050530000545700006169000071
:1041b400744600006f7200006d61000074690000b5
:1041c4006f6e0000446f00006e6500000050000038
:1041d4003250000053540000496e0000766900001c
:1041e4007465000000500000325000005354000079
:1041f400507200006f76000069730000696f000060
:104204006e00000050320000505300005443000080
:104214006c690000656e0000740000006aa0000074
:1042240074a000007ea000008aa0000094a00000fa
:10423400a8a00000bba00000d2a00000e9a00000dc
:10424400f5a0000004a1000057460000445f0000f0
:104254005355000043430000455300005300000041
:1042640057460000445f0000494e0000464f0000de
:104274005f43000055520000524500004e540000b8
:104284004c5900005f5500004e41000056410000ab
:10429400494c0000414200004c450000005700001a
:1042a400464400005f4900004e4300004f4d0000ab
:1042b4005041000054490000424c0000455f00009a
:1042c40050410000524100004d53000000570000cf
:1042d400464400005f4c0000494d00004954000072
:1042e4005f5200004541000043480000454400007f
:1042f40000570000464400005f4900004e5600008d
:10430400414c0000494400005f500000415200004d
:10431400414d00005300000057460000445f000078
:10432400554e0000414200004c4500005f5400001f
:104334004f5f000041430000434f00004d4d00001b
:104344004f4400004154000045000000574600005f
:10435400445f000050520000455600005f500000ca
:10436400524f0000544f0000434f00004c5f0000c8
:1043740045520000524f0000520000005746000012
:10438400445f00004e4f00005f4300004f4d0000ab
:104394004d4f00004e5f000043480000414e0000b6
:1043a4004e4500004c5300000057000046440000f6
:1043b4005f5500004e4b00004e4f0000574e00006a
:1043c4005f470000524f00005550000000570000a6
:1043d400464400005f4900004e4300004f4d00007a
:1043e4005041000054490000424c0000455f000069
:1043f400505200004f5600005f4d0000455400002d
:10440400484f00004400000057460000445f00008d
:10441400524500004a450000435400004544000052
:104424005f420000595f00005553000045520000f0
:1044340000570000464400005f4e00004f5f00003c
:104444004d4500004d00000057460000445f000049
:10445400494e0000564100004c490000445f0000f2
:1044640041430000544900004f4e00000057000033
:10447400464400005f540000585f000046410000bd
:10448400494c00005552000045000000574600000a
:10449400445f0000544900004d4500005f4f000098
:1044a400555400000000000026a1000032a10000c5
:1044b40051a1000069a100007ba100008ea10000b1
:1044c400a8a10000c0a10000d7a10000c49800006a
:1044d400e9a1000006a200001ba2000026a2000021
:1044e40039a2000048a20000666f00006f7400004b
:1044f400657200002e6900006e6300000068000011
:104504006561000064650000722e0000696e0000a1
:1045140063000000214400004546000000470000fd
:1045240045540000005000004f53000054000000a8
:104534006d70000066730000757000006c6f000001
:1045440061640000006900006e640000657800008a
:104554002e680000746d0000000d00000a0d0000bc
:104564000a0000000d0a00000d0a00004d50000072
:104574004653000002010000000d00000a0d000077
:104584000a3300003034000020520000656400004b
:104594006972000065630000743a000020000000a6
:1045a400436f00006e740000656e0000742d0000ff
:1045b40054790000706500003a20000000430000b8
:1045c4006f6e0000746500006e7400002d450000dd
:1045d4006e6300006f640000696e0000673a0000bb
:1045e400206700007a690000700d00000a000000d6
:1045f4004361000063680000652d0000436f000004
:104604006e740000726f00006c3a0000200000001d
:104614006e6f00002d630000616300006865000098
:10462400006d0000617800002d61000067650000e6
:104634003d000000363000003000000053650000eb
:10464400742d0000436f00006f6b0000696500006b
:104654003a20000000740000787400000068000034
:10466400746d000000680000746d00006c000000b0
:104674006367000069000000786d00006c000000b2
:1046840063730000730000006769000066000000a7
:10469400706e0000670000006a7000006700000090
:1046a400636c000061000000776100007600000088
:1046b40000000000000000002da3000031a3000052
:1046c40035a300003aa300003ea3000042a300006b
:1046d40046a300004aa300004ea3000052a300001a
:1046e40056a300005aa30000436f00006f6b000044
:1046f400696500003a00000041750000746800001c
:104704006f720000697a000061740000696f000034
:104714006e3a0000004300006f6e000074650000f4
:104724006e7400002d4c0000656e0000677400007c
:10473400683a00000000000076a300007ea3000099
:104744008da3000048540000545000002f31000095
:104754002e3100002032000030300000204f0000d5
:104764004b0d00000a4300006f6e00006e650000f0
:1047740063740000696f00006e3a0000206300005b
:104784006c6f0000736500000d0a00000048000013
:1047940054540000502f0000312e0000312000003e
:1047a400343000003020000042610000642000002a
:1047b400526500007175000065730000740d0000ff
:1047c4000a4300006f6e00006e6500006374000011
:1047d400696f00006e3a0000206300006c6f0000f7
:1047e400736500000d0a00000d0a0000343000005b
:1047f4003020000042610000642000005265000087
:104804007175000065730000743a000020630000b5
:10481400616e00002774000020680000616e0000d3
:10482400646c000065200000436f00006e7400009b
:10483400656e0000742d00004c6500006e6700007a
:10484400746800000d0a0000004800005454000081
:10485400502f0000312e00003120000034300000c1
:1048640031200000556e000061750000746800007e
:104874006f720000697a0000656400000d0a000090
:1048840057570000572d0000417500007468000060
:10489400656e0000746900006361000074650000c7
:1048a4003a200000426100007369000063200000a8
:1048b40072650000616c00006d3d00002250000034
:1048c400726f00007465000063740000656400008a
:1048d400220d00000a4300006f6e00006e650000a8
:1048e40063740000696f00006e3a000020630000ea
:1048f4006c6f0000736500000d0a00000d0a0000d3
:104904003430000031200000556e00006175000055
:10491400746800006f720000697a0000656400002a
:104924003a2000005061000073730000776f0000ac
:104934007264000020720000657100007569000057
:1049440072650000640d00000a0000004854000075
:10495400545000002f3100002e310000203400009c
:1049640030340000204e00006f7400002066000008
:104974006f7500006e6400000d0a0000436f0000b4
:104984006e6e000065630000746900006f6e0000c5
:104994003a200000636c00006f730000650d000096
:1049a4000a4300006f6e0000746500006e7400001e
:1049b4002d54000079700000653a00002074000056
:1049c40065780000742f0000687400006d6c0000ae
:1049d4000d0a00000d0a000034300000343a0000d3
:1049e40020460000696c0000652000006e6f000026
:1049f40074200000666f0000756e0000643c0000c7
:104a0400627200003e55000073650000203c000007
:104a14006120000068720000656600003d2200000d
:104a24002f6d00007066000073750000706c00004c
:104a34006f610000642200003e4d000050460000fb
:104a440053200000557000006c6f0000616400008a
:104a54003c2f0000613e0000207400006f20000025
:104a6400707200006f670000726100006d2000002a
:104a74007765000062200000706100006765000037
:104a8400730d00000a000000485400005450000058
:104a94002f3100002e31000020340000313400009a
:104aa40020520000657100007565000073740000f9
:104ab4002d55000052490000205400006f6f000083
:104ac400204c00006f6e0000670d00000a430000d8
:104ad4006f6e00006e65000063740000696f000073
:104ae4006e3a0000206300006c6f000073650000e4
:104af4000d0a00000d0a00003431000034200000cb
:104b0400526500007175000065730000742d00008b
:104b14005552000049200000546f00006f2000002f
:104b24004c6f00006e6700003a20000042750000e0
:104b34006666000065720000206f00007665000064
:104b4400726600006c6f000077200000646500004e
:104b54007465000063740000656400000d0a0000c1
:104b64000048000054540000502f0000312e000073
:104b7400312000003530000030200000496e000074
:104b840074650000726e0000616c00002053000028
:104b94006572000076650000722000004572000016
:104ba400726f0000720d00000a4300006f6e000077
:104bb4006e65000063740000696f00006e3a0000c7
:104bc400206300006c6f0000736500000d0a000094
:104bd4000d0a00003530000030200000496e00004e
:104be40074650000726e0000616c000020530000c8
:104bf40065720000766500007220000045720000b6
:104c0400726f0000723a00002045000078700000c6
:104c140065630000746500006420000064610000a6
:104c240074610000206e00006f74000020700000aa
:104c340072650000736500006e7400000d0a0000c8
:104c44000048000054540000502f0000312e000092
:104c54003120000035300000312000004e6f00008c
:104c640074200000496d0000706c0000656d000048
:104c7400656e000074650000640d00000a430000c6
:104c84006f6e00006e65000063740000696f0000c1
:104c94006e3a0000206300006c6f00007365000032
:104ca4000d0a00000d0a000035300000312000001c
:104cb4004e6f000074200000496d0000706c00000d
:104cc400656d0000656e000074650000643a0000c4
:104cd400204f00006e6c0000792000004745000062
:104ce40054200000616e000064200000504f00005a
:104cf400535400002073000075700000706f0000b2
:104d040072740000656400000d0a00000048000091
:104d140054540000502f0000312e000031200000b8
:104d240032300000302000004f4b00000d0a00001c
:104d3400436f00006e6e000065630000746900003c
:104d44006f6e00003a200000636c00006f73000077
:104d5400650d00000a4300006f6e000074650000da
:104d64006e7400002d54000079700000653a000054
:104d74002074000065780000742f0000687400003f
:104d84006d6c00000d0a00000d0a00003c68000074
:104d9400746d00006c3e00003c6200006f64000013
:104da4007920000073740000796c0000653d0000f8
:104db400226d000061720000676900006e3a000015
:104dc4003130000030700000782200003e3c0000ca
:104dd400666f0000726d0000206d000065740000b5
:104de400686f0000643d0000706f00007374000081
:104df4002061000063740000696f00006e3d0000d4
:104e0400222f00006d7000006673000075700000b2
:104e14006c6f00006164000022200000656e0000d9
:104e24006374000079700000653d0000226d00008d
:104e3400756c0000746900007061000072740000f9
:104e44002f6600006f7200006d2d00006461000089
:104e540074610000223e00003c6200003e4d0000f0
:104e64005046000053200000496d000061670000b7
:104e740065200000557000006c6f00006164000044
:104e84003c2f0000623e00003c7000003e3c0000ed
:104e9400696e0000707500007420000074790000d1
:104ea400706500003d660000696c0000652000002c
:104eb4006e6100006d6500003d6900002073000014
:104ec400697a0000653d0000343000003e20000097
:104ed400266e000062730000703b0000203c00005e
:104ee400696e000070750000742000007479000081
:104ef400706500003d730000756200006d6900007c
:104f040074200000766100006c750000653d0000af
:104f140022550000706c00006f61000064220000e4
:104f24003e3c00002f6600006f7200006d3e0000e2
:104f34003c2f0000626f0000647900003e3c0000da
:104f44002f680000746d00006c3e0000000000003b
:104f540048540000545000002f3100002e3100004e
:104f64002032000030300000204f00004b0d0000c4
:104f74000a4300006f6e00006e6500006374000059
:104f8400696f00006e3a0000206300006c6f00003f
:104f9400736500000d0a0000436f00006e7400008a
:104fa400656e0000742d00005479000070650000e7
:104fb4003a20000074650000787400002f68000037
:104fc400746d00006c0d00000a0d00000a3c000026
:104fd400687400006d6c00003e3c0000626f0000cd
:104fe4006479000020730000747900006c6500008f
:104ff4003d2200006d61000072670000696e0000d0
:105004003a3100003030000070780000223e000089
:105014003c6200003e4d000050460000532000005a
:1050240055700000646100007465000020530000a6
:10503400756300006365000073730000667500000b
:105044006c3c00002f6200003e3c0000703e0000fb
:105054003c6100002068000072650000663d0000ad
:10506400222f0000223e00005369000074650000f6
:10507400206d0000616900006e2000007061000076
:10508400676500003c2f0000613e00003c2f0000db
:10509400626f0000647900003e3c00002f6800004d
:1050a400746d00006c3e0000004800005454000081
:1050b400502f0000312e0000312000003530000058
:1050c40030200000496e000074650000726e00001c
:1050d400616c0000205300006572000076650000da
:1050e4007220000045720000726f0000720d000013
:1050f4000a4300006f6e00006e65000063740000d8
:10510400696f00006e3a0000206300006c6f0000bd
:10511400736500000d0a0000436f00006e74000008
:10512400656e0000742d0000547900007065000065
:105134003a20000074650000787400002f680000b5
:10514400746d00006c0d00000a0d00000a3c0000a4
:10515400687400006d6c00003e3c0000626f00004b
:105164006479000020730000747900006c6500000d
:105174003d2200006d61000072670000696e00004e
:105184003a3100003030000070780000223e000008
:105194003c6200003e4d00005046000053200000d9
:1051a400496d00006167000065200000436f000046
:1051b4007272000075700000742000006f720000ad
:1051c40020570000726f00006e6700002056000038
:1051d40065720000736900006f6e00003c2f0000d0
:1051e400623e00003c7000003e3c00006120000074
:1051f40068720000656600003d2200002f6d00000b
:105204007066000073750000706c00006f61000030
:10521400642200003e540000727900002061000006
:1052240067610000696e00003f3c00002f610000d0
:105234003e3c00002f6200006f640000793e0000d5
:105244003c2f0000687400006d6c00003e000000fc
:1052540048540000545000002f3100002e3100004b
:105264002033000030320000204600006f7500003b
:105274006e6400000d0a0000436f00006e6e0000b3
:1052840065630000746900006f6e00003a2000003e
:10529400636c00006f730000650d00000a4c000091
:1052a4006f63000061740000696f00006e3a0000d3
:1052b4002000000048540000545000002f3100002a
:1052c4002e3100002034000030330000204600005e
:1052d4006f7200006269000064640000656e000083
:1052e4000d0a0000436f00006e6e0000656300004d
:1052f400746900006f6e00003a200000636c0000c7
:105304006f730000650d00000a0d00000a340000f0
:1053140030330000204600006f7200006269000014
:1053240064640000656e00003a20000053530000de
:105334004c20000052650000717500006972000085
:1053440065640000202d00002075000073650000d6
:105354002048000054540000505300000d0a00007f
:1053640000000000a4a30000a4a30000c9a300003f
:1053740027a40000a8a4000046a50000b3a50000cf
:1053840023a6000089a60000a9a70000aaa7000080
:1053940057a800002aa900005ca900000d0a00001b
:1053a4000074000065780000742f0000706c000029
:1053b400616900006e0000007465000078740000ec
:1053c4002f680000746d00006c000000746500001c
:1053d400787400002f7800006d6c000000740000e9
:1053e40065780000742f00006373000073000000f0
:1053f400696d000061670000652f000067690000a7
:1054040066000000696d000061670000652f000000
:10541400706e000067000000696d000061670000a5
:10542400652f00006a7000006567000000610000dd
:10543400707000006c690000636100007469000012
:105444006f6e00002f6a000061760000612d00007d
:10545400766d00000061000075640000696f000053
:105464002f7800002d7700006176000065000000b1
:10547400d3a90000dea90000dea90000dea9000017
:10548400e8a90000f1a90000faa9000004aa00009c
:105494000eaa000019aa00002daa0000a9a7000066
:1054a4000d0a00000d0a00000d4d000069630000a4
:1054b400726f0000636800006970000020540000ef
:1054c400435000002f49000050200000436f0000ab
:1054d4006e660000696700002041000070700000e3
:1054e4006c69000063610000746900006f6e000065
:1054f40020280000763500002e340000322c0000f5
:10550400204a0000756c00002031000039200000a2
:105514003230000031320000290d00000a0d000075
:105524000a000000093100003a200000436800002e
:10553400616e000067650000207300006572000062
:10554400696100006c2000006e7500006d6200004f
:10555400657200003a090000090000000d0a00000d
:10556400093200003a20000043680000616e000028
:1055740067650000206800006f730000742000005d
:105584006e6100006d6500003a0900000909000021
:10559400000d00000a090000333a00002043000017
:1055a400686100006e6700006520000073740000ed
:1055b400617400006963000020490000502000006d
:1055c400616400006472000065730000733a0000b7
:1055d40009090000000d00000a090000343a000027
:1055e40020430000686100006e6700006520000031
:1055f4007374000061740000696300002067000098
:10560400617400006577000061790000206100008a
:105614006464000072650000737300003a090000be
:10562400000d00000a090000353a00002043000084
:10563400686100006e67000065200000737400005c
:10564400617400006963000020730000756200004b
:105654006e650000742000006d610000736b000033
:105664003a090000090000000d0a00000936000094
:105674003a20000043680000616e00006765000086
:10568400207300007461000074690000632000004e
:1056940070720000696d00006172000079200000e2
:1056a400444e000053200000736500007276000031
:1056b400657200003a090000000d00000a090000ac
:1056c400373a000020430000686100006e67000064
:1056d40065200000737400006174000069630000b9
:1056e40020730000656300006f6e000064610000b9
:1056f40072790000204400004e5300002073000023
:105704006572000076650000723a0000090000002e
:105714000d0a0000093800003a200000004400008f
:1057240069730000004500006e0000006162000023
:105734006c65000020440000484300005020000035
:105744002620000049500000204700006c6500003e
:10575400616e0000696e0000673a000009090000ec
:1057640044480000435000002069000073200000fa
:105774006375000072720000656e0000746c0000b6
:1057840079200000006500006e610000626c00007a
:105794006564000000640000697300006162000039
:1057a4006c650000640000000d0a00000939000067
:1057b4003a200000446f0000776e00006c6f000018
:1057c40061640000204d000050460000532000009a
:1057d400696d000061670000652e0000000d000087
:1057e4000a090000303a00002053000061760000ee
:1057f4006520000026200000517500006974000037
:105804002e0000000d0a0000456e000074650000c3
:1058140072200000612000006d6500006e750000bc
:1058240020630000686f000069630000653a0000af
:10583400200000000d0a0000004e00006577000003
:105844002073000065740000746900006e67000036
:105854003a200000004900006e760000616c0000f0
:1058640069640000206900006e7000007574000017
:105874002e0d00000a00000053650000747400003f
:10588400696e0000677300002073000061760000f9
:10589400656400002e0d00000a0000007072000014
:1058a4006f7400006563000074000000736e0000f4
:1058b4006d70000000610000646d0000696e0000fe
:1058c400006d000069630000726f000063680000ef
:1058d40069700000006600006f7200006d730000c4
:1058e4002e680000746d0000006c00006564000008
:1058f400340000006c65000064330000006c00009c
:1059040065640000320000006c6500006431000032
:10591400006300006f6f00006b6900006573000096
:105924002e680000746d0000006c000065640000c7
:10593400732e000063670000690000006c650000be
:10594400640000006c630000640000002f66000027
:105954006f7200006d7300002e680000746d00000b
:1059640000750000706c00006f610000642e000080
:10597400687400006d0000000d0a0000000d0000b6
:105984000a0d00000a000000707200006f7400002d
:1059940065630000742f0000636f00006e660000f2
:1059a400696700002e680000746d00000069000043
:1059b400700000006777000000730000756200004b
:1059c400006400006e73000031000000646e00008b
:1059d40073320000006d0000616300000068000085
:1059e4006f730000740000006468000063700000be
:1059f400002f0000707200006f74000065630000e7
:105a0400742f000072650000626f00006f74000064
:105a14002e680000746d00003f0000002f7000002d
:105a2400726f000074650000637400002f6300004f
:105a34006f6e000066690000672e00006874000045
:105a44006d0000004a7500006c2000003139000030
:105a540020320000303100003220000030300000dd
:105a64003a300000383a0000303000000076000080
:105a7400352e00003432000000530000454c000075
:105a84004543000054450000440000003c6200000f
:105a9400722000002f3e0000002600006e6200000d
